{
	"data": {
		"bytecode": {
			"linkReferences": {},
			"object": "608060405260006009819055600c55600d805461ffff60a01b1916604b60a21b17905534801561002e57600080fd5b5060405162002d6338038062002d638339818101604052604081101561005357600080fd5b508051602090910151600061006661013a565b600080546001600160a01b0319166001600160a01b0383169081178255604051929350917f8be0079c531659141344cd1fd0a4f28419497f9722a3daafe3b4186f6b6457e0908290a350600180556312cc03004301600a55600280546001600160a01b038085166001600160a01b031992831617909255600683905560048054821633908117909155600580548316821790556003805490921617908190556040519116906000907f74da04524d50c64947f5dd5381ef1a4dca5cba8ed1d816243f9e48aa0b5617ed908290a3505061013e565b3390565b612c15806200014e6000396000f3fe608060405234801561001057600080fd5b50600436106102525760003560e01c806355dbc826116101465780638dbdbe6d116100c3578063bde4aeca11610087578063bde4aeca14610630578063d0d41fe11461065b578063d30ef61b14610681578063d9c8e70314610689578063de73149d14610691578063f2fde38b1461069957610252565b80638dbdbe6d1461055857806393f1a40b1461058a578063a13b04f8146105dc578063af018de8146105e4578063afbcfea11461062857610252565b8063812c64f11161010a578063812c64f11461045d5780638705fcd4146104ff5780638aa28550146105255780638da5cb5b1461052d5780638dbb1e3a1461053557610252565b806355dbc826146104be578063570ca735146104df578063630b5ba1146104e7578063715018a6146104ef5780637f2e0ec2146104f757610252565b80632c6dbb1c116101d4578063474fa63011610198578063474fa6301461045557806348b22bfb1461045d57806348cd4cb11461047c57806351eb05a6146104845780635312ea8e146104a157610252565b80632c6dbb1c146103be5780632e6c998d146103e25780633ad10ef614610422578063412753581461042a578063441a3e701461043257610252565b806317caf6f11161021b57806317caf6f1146103275780631bcc639c1461032f5780632143e54514610355578063274ce6221461039057806329605e771461039857610252565b8062ed820614610257578063081e3eda146102715780630ba84cd21461027957806312bdc1ca146102985780631526fe27146102c4575b600080fd5b61025f6106bf565b60408051918252519081900360200190f35b61025f6106c5565b6102966004803603602081101561028f57600080fd5b50356106cb565b005b61025f600480360360408110156102ae57600080fd5b50803590602001356001600160a01b03166107bd565b6102e1600480360360208110156102da57600080fd5b50356108e1565b604080516001600160a01b039098168852602088019690965286860194909452606086019290925261ffff16608085015260a084015260c0830152519081900360e00190f35b61025f61093b565b6102966004803603602081101561034557600080fd5b50356001600160a01b0316610941565b610296600480360360a081101561036b57600080fd5b5080359060208101359061ffff604082013516906060810135906080013515156109c5565b61025f610bb1565b610296600480360360208110156103ae57600080fd5b50356001600160a01b0316610bbe565b6103c6610ca8565b604080516001600160a01b039092168252519081900360200190f35b61040e600480360360408110156103f857600080fd5b50803590602001356001600160a01b0316610cb7565b604080519115158252519081900360200190f35b6103c6610cf7565b6103c6610d06565b6102966004803603604081101561044857600080fd5b5080359060200135610d15565b61025f610f1f565b610465610f25565b6040805161ffff9092168252519081900360200190f35b61025f610f2b565b6102966004803603602081101561049a57600080fd5b5035610f31565b610296600480360360208110156104b757600080fd5b503561101e565b610296600480360360208110156104d457600080fd5b503561ffff166111a8565b6103c6611258565b610296611267565b61029661136e565b61025f61141a565b6102966004803603602081101561051557600080fd5b50356001600160a01b03166114a8565b61025f61157a565b6103c661157f565b61025f6004803603604081101561054b57600080fd5b508035906020013561158e565b6102966004803603606081101561056e57600080fd5b50803590602081013590604001356001600160a01b03166115a6565b6105b6600480360360408110156105a057600080fd5b50803590602001356001600160a01b03166119c2565b604080519485526020850193909352838301919091526060830152519081900360800190f35b61025f6119f4565b610296600480360360a08110156105fa57600080fd5b508035906001600160a01b036020820135169061ffff604082013516906060810135906080013515156119fa565b610296611cd1565b6102966004803603606081101561064657600080fd5b50803590602081013590604001351515611dcc565b6102966004803603602081101561067157600080fd5b50356001600160a01b0316611e65565b610465611f37565b6103c6611f48565b61025f611f57565b610296600480360360208110156106af57600080fd5b50356001600160a01b0316611f5e565b60065481565b60075490565b6003546001600160a01b031633146107145760405162461bcd60e51b8152600401808060200182810382526024815260200180612bbc6024913960400191505060405180910390fd5b686c6b935b8bbd400000811115610772576040805162461bcd60e51b815260206004820152601760248201527f535441522070657220626c6f636b20746f6f2068696768000000000000000000604482015290519081900360640190fd5b61077a611267565b6006546040805191825260208201839052805133927feedc6338c9c1ad8f3cd6c90dd09dbe98dbd57e610d3e59a17996d07acb0d951192908290030190a2600655565b600080600784815481106107cd57fe5b600091825260208083208784526008825260408085206001600160a01b0389168652909252922060036007909202909201908101546006820154600283015492945090914311801561081e57508015155b1561088a57600061083385600201544361158e565b90506000610866600954610860886001015461085a6006548761206090919063ffffffff16565b90612060565b906120b9565b905061088561087e846108608464e8d4a51000612060565b8590612120565b935050505b60006108ba84600101546108b464e8d4a5100061086087896000015461206090919063ffffffff16565b9061217a565b90506108d384600201548261212090919063ffffffff16565b955050505050505b92915050565b600781815481106108ee57fe5b600091825260209091206007909102018054600182015460028301546003840154600485015460058601546006909601546001600160a01b03909516965092949193909261ffff16919087565b60095481565b6109496121d7565b6001600160a01b031661095a61157f565b6001600160a01b0316146109a3576040805162461bcd60e51b81526020600482018190526024820152600080516020612b15833981519152604482015290519081900360640190fd5b600d80546001600160a01b0319166001600160a01b0392909216919091179055565b6109cd6121d7565b6001600160a01b03166109de61157f565b6001600160a01b031614610a27576040805162461bcd60e51b81526020600482018190526024820152600080516020612b15833981519152604482015290519081900360640190fd5b6103e861ffff84161115610a82576040805162461bcd60e51b815260206004820152601960248201527f7365743a206465706f7369742066656520746f6f206869676800000000000000604482015290519081900360640190fd5b62127500821115610ada576040805162461bcd60e51b815260206004820152601d60248201527f7365743a20696e76616c6964206861727665737420696e74657276616c000000604482015290519081900360640190fd5b8015610ae857610ae8611267565b610b2584610b1f60078881548110610afc57fe5b90600052602060002090600702016001015460095461217a90919063ffffffff16565b90612120565b6009819055508360078681548110610b3957fe5b9060005260206000209060070201600101819055508260078681548110610b5c57fe5b906000526020600020906007020160040160006101000a81548161ffff021916908361ffff1602179055508160078681548110610b9557fe5b9060005260206000209060070201600501819055505050505050565b686c6b935b8bbd40000081565b6003546001600160a01b03163314610c075760405162461bcd60e51b8152600401808060200182810382526024815260200180612bbc6024913960400191505060405180910390fd5b6001600160a01b038116610c4c5760405162461bcd60e51b8152600401808060200182810382526032815260200180612b606032913960400191505060405180910390fd5b6003546040516001600160a01b038084169216907f74da04524d50c64947f5dd5381ef1a4dca5cba8ed1d816243f9e48aa0b5617ed90600090a3600380546001600160a01b0319166001600160a01b0392909216919091179055565b6002546001600160a01b031681565b60008281526008602090815260408083206001600160a01b03851684529091528120600a544310801590610cef575080600301544210155b949350505050565b6004546001600160a01b031681565b6005546001600160a01b031681565b60026001541415610d6d576040805162461bcd60e51b815260206004820152601f60248201527f5265656e7472616e637947756172643a207265656e7472616e742063616c6c00604482015290519081900360640190fd5b6002600181905550600060078381548110610d8457fe5b600091825260208083208684526008825260408085203386529092529220805460079092029092019250831115610e02576040805162461bcd60e51b815260206004820181905260248201527f57697468647261773a205573657220616d6f756e74206e6f7420656e6f756768604482015290519081900360640190fd5b8282600601541015610e455760405162461bcd60e51b8152600401808060200182810382526022815260200180612a686022913960400191505060405180910390fd5b610e4e84610f31565b610e57846121db565b8215610ebe578054610e69908461217a565b81556006820154610e7a908461217a565b600683015560025482546001600160a01b0390811691161415610ea857600c54610ea4908461217a565b600c555b8154610ebe906001600160a01b0316338561236d565b60038201548154610ed99164e8d4a510009161086091612060565b6001820155604080518481529051859133917ff279e6a1f5e320cca91135676d9cb6e44ca8a08c0b88342bcdb1144f6511b5689181900360200190a35050600180555050565b600b5481565b6103e881565b600a5481565b600060078281548110610f4057fe5b9060005260206000209060070201905080600201544311610f61575061101b565b60068101541580610f7457506001810154155b15610f85574360029091015561101b565b6000610f9582600201544361158e565b90506000610fbc600954610860856001015461085a6006548761206090919063ffffffff16565b9050610fec610fe1846006015461086064e8d4a510008561206090919063ffffffff16565b600385015490612120565b6003840155436002840155600454611017906001600160a01b031661101283600a6120b9565b6123c4565b5050505b50565b60026001541415611076576040805162461bcd60e51b815260206004820152601f60248201527f5265656e7472616e637947756172643a207265656e7472616e742063616c6c00604482015290519081900360640190fd5b600260018190555060006007828154811061108d57fe5b600091825260208083208584526008825260408085203386529092529220805460079290920290920160068101549093508111156110fc5760405162461bcd60e51b815260040180806020018281038252602b815260200180612b35602b913960400191505060405180910390fd5b6000808355600183018190556002830181905560038301556006830154611123908261217a565b600684015560025483546001600160a01b039081169116141561115157600c5461114d908261217a565b600c555b8254611167906001600160a01b0316338361236d565b604080518281529051859133917fbb757047c2b5f3974fe26b7c10f732e7bce710b0952a71082702781e62ae05959181900360200190a35050600180555050565b6003546001600160a01b031633146111f15760405162461bcd60e51b8152600401808060200182810382526024815260200180612bbc6024913960400191505060405180910390fd5b6103e861ffff821611156112365760405162461bcd60e51b815260040180806020018281038252603c815260200180612ad9603c913960400191505060405180910390fd5b600d805461ffff909216600160a01b0261ffff60a01b19909216919091179055565b6003546001600160a01b031690565b6007546000805b828110156113535760006007828154811061128557fe5b90600052602060002090600702019050806002015443116112a6575061134b565b600681015415806112b957506001810154155b156112ca574360029091015561134b565b60006112da82600201544361158e565b90506000611301600954610860856001015461085a6006548761206090919063ffffffff16565b9050611326610fe1846006015461086064e8d4a510008561206090919063ffffffff16565b600384015543600284015561134661133f82600a6120b9565b8690612120565b505050505b60010161126e565b5060045461136a906001600160a01b0316826123c4565b5050565b6113766121d7565b6001600160a01b031661138761157f565b6001600160a01b0316146113d0576040805162461bcd60e51b81526020600482018190526024820152600080516020612b15833981519152604482015290519081900360640190fd5b600080546040516001600160a01b03909116907f8be0079c531659141344cd1fd0a4f28419497f9722a3daafe3b4186f6b6457e0908390a3600080546001600160a01b0319169055565b600c54600254604080516370a0823160e01b815230600482015290516000936114a39390926001600160a01b03909116916370a0823191602480820192602092909190829003018186803b15801561147157600080fd5b505afa158015611485573d6000803e3d6000fd5b505050506040513d602081101561149b57600080fd5b50519061217a565b905090565b6005546001600160a01b03163314611507576040805162461bcd60e51b815260206004820152601860248201527f736574466565416464726573733a20464f5242494444454e0000000000000000604482015290519081900360640190fd5b6001600160a01b038116611558576040805162461bcd60e51b8152602060048201526013602482015272736574466565416464726573733a205a45524f60681b604482015290519081900360640190fd5b600580546001600160a01b0319166001600160a01b0392909216919091179055565b600181565b6000546001600160a01b031690565b600061159f600161085a848661217a565b9392505050565b600260015414156115fe576040805162461bcd60e51b815260206004820152601f60248201527f5265656e7472616e637947756172643a207265656e7472616e742063616c6c00604482015290519081900360640190fd5b6002600155600a544310156116445760405162461bcd60e51b815260040180806020018281038252602e815260200180612a8a602e913960400191505060405180910390fd5b60006007848154811061165357fe5b6000918252602080832087845260088252604080852033865290925292206007909102909101915061168485610f31565b60008411801561169e5750600d546001600160a01b031615155b80156116b257506001600160a01b03831615155b80156116c757506001600160a01b0383163314155b1561173957600d5460408051630c7f7b6b60e01b81523360048201526001600160a01b03868116602483015291519190921691630c7f7b6b91604480830192600092919082900301818387803b15801561172057600080fd5b505af1158015611734573d6000803e3d6000fd5b505050505b611742856121db565b8315611960578154604080516370a0823160e01b815230600482015290516000926001600160a01b0316916370a08231916024808301926020929190829003018186803b15801561179257600080fd5b505afa1580156117a6573d6000803e3d6000fd5b505050506040513d60208110156117bc57600080fd5b505183549091506117d8906001600160a01b03163330886125b9565b8254604080516370a0823160e01b815230600482015290516000926001600160a01b0316916370a08231916024808301926020929190829003018186803b15801561182257600080fd5b505afa158015611836573d6000803e3d6000fd5b505050506040513d602081101561184c57600080fd5b5051905061185a818361217a565b600485015490965061ffff161561191257600484015460009061188a9061271090610860908a9061ffff16612060565b60055486549192506118a9916001600160a01b0390811691168361236d565b83546118bb9082906108b4908a612120565b845560068501546118d29082906108b4908a612120565b600686015560025485546001600160a01b039081169116141561190c57611908816108b489600c5461212090919063ffffffff16565b600c555b5061195d565b825461191e9087612120565b8355600684015461192f9087612120565b600685015560025484546001600160a01b039081169116141561195d57600c546119599087612120565b600c555b50505b6003820154815461197b9164e8d4a510009161086091612060565b6001820155604080518581529051869133917f90890809c654f11d6e72a28fa60149770a0d11ec6c92319d6ceb2bb0a4ea1a159181900360200190a3505060018055505050565b600860209081526000928352604080842090915290825290208054600182015460028301546003909301549192909184565b600c5481565b611a026121d7565b6001600160a01b0316611a1361157f565b6001600160a01b031614611a5c576040805162461bcd60e51b81526020600482018190526024820152600080516020612b15833981519152604482015290519081900360640190fd5b6103e861ffff84161115611ab7576040805162461bcd60e51b815260206004820152601960248201527f6164643a206465706f7369742066656520746f6f206869676800000000000000604482015290519081900360640190fd5b62127500821115611b0f576040805162461bcd60e51b815260206004820152601d60248201527f6164643a20696e76616c6964206861727665737420696e74657276616c000000604482015290519081900360640190fd5b8015611b1d57611b1d611267565b6000600a544311611b3057600a54611b32565b435b600954909150611b429087612120565b6009556040805160e0810182526001600160a01b0396871681526020810197885290810191825260006060820181815261ffff9687166080840190815260a0840196875260c08401838152600780546001810182559481905294517fa66cc928b5edb82af9bd49922954155ab7b0942694bea4ce44661d9a8736c6889490950293840180546001600160a01b03191695909a169490941790985597517fa66cc928b5edb82af9bd49922954155ab7b0942694bea4ce44661d9a8736c68982015591517fa66cc928b5edb82af9bd49922954155ab7b0942694bea4ce44661d9a8736c68a83015595517fa66cc928b5edb82af9bd49922954155ab7b0942694bea4ce44661d9a8736c68b82015593517fa66cc928b5edb82af9bd49922954155ab7b0942694bea4ce44661d9a8736c68c8501805461ffff19169190941617909255517fa66cc928b5edb82af9bd49922954155ab7b0942694bea4ce44661d9a8736c68d8301555090517fa66cc928b5edb82af9bd49922954155ab7b0942694bea4ce44661d9a8736c68e90910155565b611cd96121d7565b6001600160a01b0316611cea61157f565b6001600160a01b031614611d33576040805162461bcd60e51b81526020600482018190526024820152600080516020612b15833981519152604482015290519081900360640190fd5b600a544310611d89576040805162461bcd60e51b815260206004820152601b60248201527f4572726f723a3a4661726d207374617274656420616c72656164790000000000604482015290519081900360640190fd5b60075460005b81811015611dc457600060078281548110611da657fe5b60009182526020909120436007909202016002015550600101611d8f565b505043600a55565b6003546001600160a01b03163314611e155760405162461bcd60e51b8152600401808060200182810382526024815260200180612bbc6024913960400191505060405180910390fd5b8015611e2357611e23611267565b611e3782610b1f60078681548110610afc57fe5b6009819055508160078481548110611e4b57fe5b906000526020600020906007020160010181905550505050565b6004546001600160a01b03163314611ec4576040805162461bcd60e51b815260206004820152601860248201527f736574446576416464726573733a20464f5242494444454e0000000000000000604482015290519081900360640190fd5b6001600160a01b038116611f15576040805162461bcd60e51b8152602060048201526013602482015272736574446576416464726573733a205a45524f60681b604482015290519081900360640190fd5b600480546001600160a01b0319166001600160a01b0392909216919091179055565b600d54600160a01b900461ffff1681565b600d546001600160a01b031681565b6212750081565b611f666121d7565b6001600160a01b0316611f7761157f565b6001600160a01b031614611fc0576040805162461bcd60e51b81526020600482018190526024820152600080516020612b15833981519152604482015290519081900360640190fd5b6001600160a01b0381166120055760405162461bcd60e51b8152600401808060200182810382526026815260200180612a426026913960400191505060405180910390fd5b600080546040516001600160a01b03808516939216917f8be0079c531659141344cd1fd0a4f28419497f9722a3daafe3b4186f6b6457e091a3600080546001600160a01b0319166001600160a01b0392909216919091179055565b60008261206f575060006108db565b8282028284828161207c57fe5b041461159f5760405162461bcd60e51b8152600401808060200182810382526021815260200180612ab86021913960400191505060405180910390fd5b600080821161210f576040805162461bcd60e51b815260206004820152601a60248201527f536166654d6174683a206469766973696f6e206279207a65726f000000000000604482015290519081900360640190fd5b81838161211857fe5b049392505050565b60008282018381101561159f576040805162461bcd60e51b815260206004820152601b60248201527f536166654d6174683a206164646974696f6e206f766572666c6f770000000000604482015290519081900360640190fd5b6000828211156121d1576040805162461bcd60e51b815260206004820152601e60248201527f536166654d6174683a207375627472616374696f6e206f766572666c6f770000604482015290519081900360640190fd5b50900390565b3390565b6000600782815481106121ea57fe5b6000918252602080832085845260088252604080852033865290925292206003810154600790920290920192501580156122265750600a544310155b1561224157600582015461223b904290612120565b60038201555b600061226f82600101546108b464e8d4a510006108608760030154876000015461206090919063ffffffff16565b905061227b8433610cb7565b15612306576000811180612293575060008260020154115b156123015760006122b183600201548361212090919063ffffffff16565b90506122cc8360020154600b5461217a90919063ffffffff16565b600b556000600284015560058401546122e6904290612120565b60038401556122f533826123c4565b6122ff3382612613565b505b611017565b801561101757600282015461231b9082612120565b6002830155600b5461232d9082612120565b600b55604080518281529051859133917fee470483107f579a55c754fa00613c45a9a3b617a418b39cb0be97e5381ba7c19181900360200190a350505050565b604080516001600160a01b038416602482015260448082018490528251808303909101815260649091019091526020810180516001600160e01b031663a9059cbb60e01b1790526123bf9084906127c0565b505050565b600c54600254604080516370a0823160e01b815230600482015290516001600160a01b03909216916370a0823191602480820192602092909190829003018186803b15801561241257600080fd5b505afa158015612426573d6000803e3d6000fd5b505050506040513d602081101561243c57600080fd5b5051111561136a57600c54600254604080516370a0823160e01b8152306004820152905160009361249b9390926001600160a01b03909116916370a0823191602480820192602092909190829003018186803b15801561147157600080fd5b905080821061252c576002546040805163a9059cbb60e01b81526001600160a01b038681166004830152602482018590529151919092169163a9059cbb9160448083019260209291908290030181600087803b1580156124fa57600080fd5b505af115801561250e573d6000803e3d6000fd5b505050506040513d602081101561252457600080fd5b506123bf9050565b81156123bf576002546040805163a9059cbb60e01b81526001600160a01b038681166004830152602482018690529151919092169163a9059cbb9160448083019260209291908290030181600087803b15801561258857600080fd5b505af115801561259c573d6000803e3d6000fd5b505050506040513d60208110156125b257600080fd5b5050505050565b604080516001600160a01b0380861660248301528416604482015260648082018490528251808303909101815260849091019091526020810180516001600160e01b03166323b872dd60e01b1790526110179085906127c0565b600d546001600160a01b0316158015906126395750600d54600160a01b900461ffff1615155b1561136a57600d5460408051634a9fefc760e01b81526001600160a01b03858116600483015291516000939290921691634a9fefc791602480820192602092909190829003018186803b15801561268f57600080fd5b505afa1580156126a3573d6000803e3d6000fd5b505050506040513d60208110156126b957600080fd5b5051600d549091506000906126e29061271090610860908690600160a01b900461ffff16612060565b90506001600160a01b038216158015906126fc5750600081115b156110175761270b82826123c4565b600d5460408051631b82d29760e31b81526001600160a01b038581166004830152602482018590529151919092169163dc1694b891604480830192600092919082900301818387803b15801561276057600080fd5b505af1158015612774573d6000803e3d6000fd5b50506040805184815290516001600160a01b038087169450881692507f86ddab457291316e0f5496737e5ca67c4037234c32c3be04c48ae96186893a7b9181900360200190a350505050565b6060612815826040518060400160405280602081526020017f5361666545524332303a206c6f772d6c6576656c2063616c6c206661696c6564815250856001600160a01b03166128719092919063ffffffff16565b8051909150156123bf5780806020019051602081101561283457600080fd5b50516123bf5760405162461bcd60e51b815260040180806020018281038252602a815260200180612b92602a913960400191505060405180910390fd5b6060610cef84846000858561288585612997565b6128d6576040805162461bcd60e51b815260206004820152601d60248201527f416464726573733a2063616c6c20746f206e6f6e2d636f6e7472616374000000604482015290519081900360640190fd5b60006060866001600160a01b031685876040518082805190602001908083835b602083106129155780518252601f1990920191602091820191016128f6565b6001836020036101000a03801982511681845116808217855250505050505090500191505060006040518083038185875af1925050503d8060008114612977576040519150601f19603f3d011682016040523d82523d6000602084013e61297c565b606091505b509150915061298c82828661299d565b979650505050505050565b3b151590565b606083156129ac57508161159f565b8251156129bc5782518084602001fd5b8160405162461bcd60e51b81526004018080602001828103825283818151815260200191508051906020019080838360005b83811015612a065781810151838201526020016129ee565b50505050905090810190601f168015612a335780820380516001836020036101000a031916815260200191505b509250505060405180910390fdfe4f776e61626c653a206e6577206f776e657220697320746865207a65726f206164647265737357697468647261773a20506f6f6c20746f74616c204c50206e6f7420656e6f7567684d6173746572436865663a3a2043616e206e6f74206465706f736974206265666f7265206661726d207374617274536166654d6174683a206d756c7469706c69636174696f6e206f766572666c6f77736574526566657272616c436f6d6d697373696f6e526174653a20726566657272616c20636f6d6d697373696f6e207261746520746f6f20686967684f776e61626c653a2063616c6c6572206973206e6f7420746865206f776e6572456d657267656e637957697468647261773a20506f6f6c20746f74616c204c50206e6f7420656e6f7567685472616e736665724f70657261746f723a206e6577206f70657261746f7220697320746865207a65726f20616464726573735361666545524332303a204552433230206f7065726174696f6e20646964206e6f7420737563636565644f70657261746f723a2063616c6c6572206973206e6f7420746865206f70657261746f72a2646970667358221220712f54a917afb42b998b27e95187418622200ea1f985924e3162d161596ef7b464736f6c634300060c0033",
			"opcodes": "PUSH1 0x80 PUSH1 0x40 MSTORE PUSH1 0x0 PUSH1 0x9 DUP2 SWAP1 SSTORE PUSH1 0xC SSTORE PUSH1 0xD DUP1 SLOAD PUSH2 0xFFFF PUSH1 0xA0 SHL NOT AND PUSH1 0x4B PUSH1 0xA2 SHL OR SWAP1 SSTORE CALLVALUE DUP1 ISZERO PUSH2 0x2E JUMPI PUSH1 0x0 DUP1 REVERT JUMPDEST POP PUSH1 0x40 MLOAD PUSH3 0x2D63 CODESIZE SUB DUP1 PUSH3 0x2D63 DUP4 CODECOPY DUP2 DUP2 ADD PUSH1 0x40 MSTORE PUSH1 0x40 DUP2 LT ISZERO PUSH2 0x53 JUMPI PUSH1 0x0 DUP1 REVERT JUMPDEST POP DUP1 MLOAD PUSH1 0x20 SWAP1 SWAP2 ADD MLOAD PUSH1 0x0 PUSH2 0x66 PUSH2 0x13A JUMP JUMPDEST PUSH1 0x0 DUP1 SLOAD PUSH1 0x1 PUSH1 0x1 PUSH1 0xA0 SHL SUB NOT AND PUSH1 0x1 PUSH1 0x1 PUSH1 0xA0 SHL SUB DUP4 AND SWAP1 DUP2 OR DUP3 SSTORE PUSH1 0x40 MLOAD SWAP3 SWAP4 POP SWAP2 PUSH32 0x8BE0079C531659141344CD1FD0A4F28419497F9722A3DAAFE3B4186F6B6457E0 SWAP1 DUP3 SWAP1 LOG3 POP PUSH1 0x1 DUP1 SSTORE PUSH4 0x12CC0300 NUMBER ADD PUSH1 0xA SSTORE PUSH1 0x2 DUP1 SLOAD PUSH1 0x1 PUSH1 0x1 PUSH1 0xA0 SHL SUB DUP1 DUP6 AND PUSH1 0x1 PUSH1 0x1 PUSH1 0xA0 SHL SUB NOT SWAP3 DUP4 AND OR SWAP1 SWAP3 SSTORE PUSH1 0x6 DUP4 SWAP1 SSTORE PUSH1 0x4 DUP1 SLOAD DUP3 AND CALLER SWAP1 DUP2 OR SWAP1 SWAP2 SSTORE PUSH1 0x5 DUP1 SLOAD DUP4 AND DUP3 OR SWAP1 SSTORE PUSH1 0x3 DUP1 SLOAD SWAP1 SWAP3 AND OR SWAP1 DUP2 SWAP1 SSTORE PUSH1 0x40 MLOAD SWAP2 AND SWAP1 PUSH1 0x0 SWAP1 PUSH32 0x74DA04524D50C64947F5DD5381EF1A4DCA5CBA8ED1D816243F9E48AA0B5617ED SWAP1 DUP3 SWAP1 LOG3 POP POP PUSH2 0x13E JUMP JUMPDEST CALLER SWAP1 JUMP JUMPDEST PUSH2 0x2C15 DUP1 PUSH3 0x14E PUSH1 0x0 CODECOPY PUSH1 0x0 RETURN INVALID PUSH1 0x80 PUSH1 0x40 MSTORE CALLVALUE DUP1 ISZERO PUSH2 0x10 JUMPI PUSH1 0x0 DUP1 REVERT JUMPDEST POP PUSH1 0x4 CALLDATASIZE LT PUSH2 0x252 JUMPI PUSH1 0x0 CALLDATALOAD PUSH1 0xE0 SHR DUP1 PUSH4 0x55DBC826 GT PUSH2 0x146 JUMPI DUP1 PUSH4 0x8DBDBE6D GT PUSH2 0xC3 JUMPI DUP1 PUSH4 0xBDE4AECA GT PUSH2 0x87 JUMPI DUP1 PUSH4 0xBDE4AECA EQ PUSH2 0x630 JUMPI DUP1 PUSH4 0xD0D41FE1 EQ PUSH2 0x65B JUMPI DUP1 PUSH4 0xD30EF61B EQ PUSH2 0x681 JUMPI DUP1 PUSH4 0xD9C8E703 EQ PUSH2 0x689 JUMPI DUP1 PUSH4 0xDE73149D EQ PUSH2 0x691 JUMPI DUP1 PUSH4 0xF2FDE38B EQ PUSH2 0x699 JUMPI PUSH2 0x252 JUMP JUMPDEST DUP1 PUSH4 0x8DBDBE6D EQ PUSH2 0x558 JUMPI DUP1 PUSH4 0x93F1A40B EQ PUSH2 0x58A JUMPI DUP1 PUSH4 0xA13B04F8 EQ PUSH2 0x5DC JUMPI DUP1 PUSH4 0xAF018DE8 EQ PUSH2 0x5E4 JUMPI DUP1 PUSH4 0xAFBCFEA1 EQ PUSH2 0x628 JUMPI PUSH2 0x252 JUMP JUMPDEST DUP1 PUSH4 0x812C64F1 GT PUSH2 0x10A JUMPI DUP1 PUSH4 0x812C64F1 EQ PUSH2 0x45D JUMPI DUP1 PUSH4 0x8705FCD4 EQ PUSH2 0x4FF JUMPI DUP1 PUSH4 0x8AA28550 EQ PUSH2 0x525 JUMPI DUP1 PUSH4 0x8DA5CB5B EQ PUSH2 0x52D JUMPI DUP1 PUSH4 0x8DBB1E3A EQ PUSH2 0x535 JUMPI PUSH2 0x252 JUMP JUMPDEST DUP1 PUSH4 0x55DBC826 EQ PUSH2 0x4BE JUMPI DUP1 PUSH4 0x570CA735 EQ PUSH2 0x4DF JUMPI DUP1 PUSH4 0x630B5BA1 EQ PUSH2 0x4E7 JUMPI DUP1 PUSH4 0x715018A6 EQ PUSH2 0x4EF JUMPI DUP1 PUSH4 0x7F2E0EC2 EQ PUSH2 0x4F7 JUMPI PUSH2 0x252 JUMP JUMPDEST DUP1 PUSH4 0x2C6DBB1C GT PUSH2 0x1D4 JUMPI DUP1 PUSH4 0x474FA630 GT PUSH2 0x198 JUMPI DUP1 PUSH4 0x474FA630 EQ PUSH2 0x455 JUMPI DUP1 PUSH4 0x48B22BFB EQ PUSH2 0x45D JUMPI DUP1 PUSH4 0x48CD4CB1 EQ PUSH2 0x47C JUMPI DUP1 PUSH4 0x51EB05A6 EQ PUSH2 0x484 JUMPI DUP1 PUSH4 0x5312EA8E EQ PUSH2 0x4A1 JUMPI PUSH2 0x252 JUMP JUMPDEST DUP1 PUSH4 0x2C6DBB1C EQ PUSH2 0x3BE JUMPI DUP1 PUSH4 0x2E6C998D EQ PUSH2 0x3E2 JUMPI DUP1 PUSH4 0x3AD10EF6 EQ PUSH2 0x422 JUMPI DUP1 PUSH4 0x41275358 EQ PUSH2 0x42A JUMPI DUP1 PUSH4 0x441A3E70 EQ PUSH2 0x432 JUMPI PUSH2 0x252 JUMP JUMPDEST DUP1 PUSH4 0x17CAF6F1 GT PUSH2 0x21B JUMPI DUP1 PUSH4 0x17CAF6F1 EQ PUSH2 0x327 JUMPI DUP1 PUSH4 0x1BCC639C EQ PUSH2 0x32F JUMPI DUP1 PUSH4 0x2143E545 EQ PUSH2 0x355 JUMPI DUP1 PUSH4 0x274CE622 EQ PUSH2 0x390 JUMPI DUP1 PUSH4 0x29605E77 EQ PUSH2 0x398 JUMPI PUSH2 0x252 JUMP JUMPDEST DUP1 PUSH3 0xED8206 EQ PUSH2 0x257 JUMPI DUP1 PUSH4 0x81E3EDA EQ PUSH2 0x271 JUMPI DUP1 PUSH4 0xBA84CD2 EQ PUSH2 0x279 JUMPI DUP1 PUSH4 0x12BDC1CA EQ PUSH2 0x298 JUMPI DUP1 PUSH4 0x1526FE27 EQ PUSH2 0x2C4 JUMPI JUMPDEST PUSH1 0x0 DUP1 REVERT JUMPDEST PUSH2 0x25F PUSH2 0x6BF JUMP JUMPDEST PUSH1 0x40 DUP1 MLOAD SWAP2 DUP3 MSTORE MLOAD SWAP1 DUP2 SWAP1 SUB PUSH1 0x20 ADD SWAP1 RETURN JUMPDEST PUSH2 0x25F PUSH2 0x6C5 JUMP JUMPDEST PUSH2 0x296 PUSH1 0x4 DUP1 CALLDATASIZE SUB PUSH1 0x20 DUP2 LT ISZERO PUSH2 0x28F JUMPI PUSH1 0x0 DUP1 REVERT JUMPDEST POP CALLDATALOAD PUSH2 0x6CB JUMP JUMPDEST STOP JUMPDEST PUSH2 0x25F PUSH1 0x4 DUP1 CALLDATASIZE SUB PUSH1 0x40 DUP2 LT ISZERO PUSH2 0x2AE JUMPI PUSH1 0x0 DUP1 REVERT JUMPDEST POP DUP1 CALLDATALOAD SWAP1 PUSH1 0x20 ADD CALLDATALOAD PUSH1 0x1 PUSH1 0x1 PUSH1 0xA0 SHL SUB AND PUSH2 0x7BD JUMP JUMPDEST PUSH2 0x2E1 PUSH1 0x4 DUP1 CALLDATASIZE SUB PUSH1 0x20 DUP2 LT ISZERO PUSH2 0x2DA JUMPI PUSH1 0x0 DUP1 REVERT JUMPDEST POP CALLDATALOAD PUSH2 0x8E1 JUMP JUMPDEST PUSH1 0x40 DUP1 MLOAD PUSH1 0x1 PUSH1 0x1 PUSH1 0xA0 SHL SUB SWAP1 SWAP9 AND DUP9 MSTORE PUSH1 0x20 DUP9 ADD SWAP7 SWAP1 SWAP7 MSTORE DUP7 DUP7 ADD SWAP5 SWAP1 SWAP5 MSTORE PUSH1 0x60 DUP7 ADD SWAP3 SWAP1 SWAP3 MSTORE PUSH2 0xFFFF AND PUSH1 0x80 DUP6 ADD MSTORE PUSH1 0xA0 DUP5 ADD MSTORE PUSH1 0xC0 DUP4 ADD MSTORE MLOAD SWAP1 DUP2 SWAP1 SUB PUSH1 0xE0 ADD SWAP1 RETURN JUMPDEST PUSH2 0x25F PUSH2 0x93B JUMP JUMPDEST PUSH2 0x296 PUSH1 0x4 DUP1 CALLDATASIZE SUB PUSH1 0x20 DUP2 LT ISZERO PUSH2 0x345 JUMPI PUSH1 0x0 DUP1 REVERT JUMPDEST POP CALLDATALOAD PUSH1 0x1 PUSH1 0x1 PUSH1 0xA0 SHL SUB AND PUSH2 0x941 JUMP JUMPDEST PUSH2 0x296 PUSH1 0x4 DUP1 CALLDATASIZE SUB PUSH1 0xA0 DUP2 LT ISZERO PUSH2 0x36B JUMPI PUSH1 0x0 DUP1 REVERT JUMPDEST POP DUP1 CALLDATALOAD SWAP1 PUSH1 0x20 DUP2 ADD CALLDATALOAD SWAP1 PUSH2 0xFFFF PUSH1 0x40 DUP3 ADD CALLDATALOAD AND SWAP1 PUSH1 0x60 DUP2 ADD CALLDATALOAD SWAP1 PUSH1 0x80 ADD CALLDATALOAD ISZERO ISZERO PUSH2 0x9C5 JUMP JUMPDEST PUSH2 0x25F PUSH2 0xBB1 JUMP JUMPDEST PUSH2 0x296 PUSH1 0x4 DUP1 CALLDATASIZE SUB PUSH1 0x20 DUP2 LT ISZERO PUSH2 0x3AE JUMPI PUSH1 0x0 DUP1 REVERT JUMPDEST POP CALLDATALOAD PUSH1 0x1 PUSH1 0x1 PUSH1 0xA0 SHL SUB AND PUSH2 0xBBE JUMP JUMPDEST PUSH2 0x3C6 PUSH2 0xCA8 JUMP JUMPDEST PUSH1 0x40 DUP1 MLOAD PUSH1 0x1 PUSH1 0x1 PUSH1 0xA0 SHL SUB SWAP1 SWAP3 AND DUP3 MSTORE MLOAD SWAP1 DUP2 SWAP1 SUB PUSH1 0x20 ADD SWAP1 RETURN JUMPDEST PUSH2 0x40E PUSH1 0x4 DUP1 CALLDATASIZE SUB PUSH1 0x40 DUP2 LT ISZERO PUSH2 0x3F8 JUMPI PUSH1 0x0 DUP1 REVERT JUMPDEST POP DUP1 CALLDATALOAD SWAP1 PUSH1 0x20 ADD CALLDATALOAD PUSH1 0x1 PUSH1 0x1 PUSH1 0xA0 SHL SUB AND PUSH2 0xCB7 JUMP JUMPDEST PUSH1 0x40 DUP1 MLOAD SWAP2 ISZERO ISZERO DUP3 MSTORE MLOAD SWAP1 DUP2 SWAP1 SUB PUSH1 0x20 ADD SWAP1 RETURN JUMPDEST PUSH2 0x3C6 PUSH2 0xCF7 JUMP JUMPDEST PUSH2 0x3C6 PUSH2 0xD06 JUMP JUMPDEST PUSH2 0x296 PUSH1 0x4 DUP1 CALLDATASIZE SUB PUSH1 0x40 DUP2 LT ISZERO PUSH2 0x448 JUMPI PUSH1 0x0 DUP1 REVERT JUMPDEST POP DUP1 CALLDATALOAD SWAP1 PUSH1 0x20 ADD CALLDATALOAD PUSH2 0xD15 JUMP JUMPDEST PUSH2 0x25F PUSH2 0xF1F JUMP JUMPDEST PUSH2 0x465 PUSH2 0xF25 JUMP JUMPDEST PUSH1 0x40 DUP1 MLOAD PUSH2 0xFFFF SWAP1 SWAP3 AND DUP3 MSTORE MLOAD SWAP1 DUP2 SWAP1 SUB PUSH1 0x20 ADD SWAP1 RETURN JUMPDEST PUSH2 0x25F PUSH2 0xF2B JUMP JUMPDEST PUSH2 0x296 PUSH1 0x4 DUP1 CALLDATASIZE SUB PUSH1 0x20 DUP2 LT ISZERO PUSH2 0x49A JUMPI PUSH1 0x0 DUP1 REVERT JUMPDEST POP CALLDATALOAD PUSH2 0xF31 JUMP JUMPDEST PUSH2 0x296 PUSH1 0x4 DUP1 CALLDATASIZE SUB PUSH1 0x20 DUP2 LT ISZERO PUSH2 0x4B7 JUMPI PUSH1 0x0 DUP1 REVERT JUMPDEST POP CALLDATALOAD PUSH2 0x101E JUMP JUMPDEST PUSH2 0x296 PUSH1 0x4 DUP1 CALLDATASIZE SUB PUSH1 0x20 DUP2 LT ISZERO PUSH2 0x4D4 JUMPI PUSH1 0x0 DUP1 REVERT JUMPDEST POP CALLDATALOAD PUSH2 0xFFFF AND PUSH2 0x11A8 JUMP JUMPDEST PUSH2 0x3C6 PUSH2 0x1258 JUMP JUMPDEST PUSH2 0x296 PUSH2 0x1267 JUMP JUMPDEST PUSH2 0x296 PUSH2 0x136E JUMP JUMPDEST PUSH2 0x25F PUSH2 0x141A JUMP JUMPDEST PUSH2 0x296 PUSH1 0x4 DUP1 CALLDATASIZE SUB PUSH1 0x20 DUP2 LT ISZERO PUSH2 0x515 JUMPI PUSH1 0x0 DUP1 REVERT JUMPDEST POP CALLDATALOAD PUSH1 0x1 PUSH1 0x1 PUSH1 0xA0 SHL SUB AND PUSH2 0x14A8 JUMP JUMPDEST PUSH2 0x25F PUSH2 0x157A JUMP JUMPDEST PUSH2 0x3C6 PUSH2 0x157F JUMP JUMPDEST PUSH2 0x25F PUSH1 0x4 DUP1 CALLDATASIZE SUB PUSH1 0x40 DUP2 LT ISZERO PUSH2 0x54B JUMPI PUSH1 0x0 DUP1 REVERT JUMPDEST POP DUP1 CALLDATALOAD SWAP1 PUSH1 0x20 ADD CALLDATALOAD PUSH2 0x158E JUMP JUMPDEST PUSH2 0x296 PUSH1 0x4 DUP1 CALLDATASIZE SUB PUSH1 0x60 DUP2 LT ISZERO PUSH2 0x56E JUMPI PUSH1 0x0 DUP1 REVERT JUMPDEST POP DUP1 CALLDATALOAD SWAP1 PUSH1 0x20 DUP2 ADD CALLDATALOAD SWAP1 PUSH1 0x40 ADD CALLDATALOAD PUSH1 0x1 PUSH1 0x1 PUSH1 0xA0 SHL SUB AND PUSH2 0x15A6 JUMP JUMPDEST PUSH2 0x5B6 PUSH1 0x4 DUP1 CALLDATASIZE SUB PUSH1 0x40 DUP2 LT ISZERO PUSH2 0x5A0 JUMPI PUSH1 0x0 DUP1 REVERT JUMPDEST POP DUP1 CALLDATALOAD SWAP1 PUSH1 0x20 ADD CALLDATALOAD PUSH1 0x1 PUSH1 0x1 PUSH1 0xA0 SHL SUB AND PUSH2 0x19C2 JUMP JUMPDEST PUSH1 0x40 DUP1 MLOAD SWAP5 DUP6 MSTORE PUSH1 0x20 DUP6 ADD SWAP4 SWAP1 SWAP4 MSTORE DUP4 DUP4 ADD SWAP2 SWAP1 SWAP2 MSTORE PUSH1 0x60 DUP4 ADD MSTORE MLOAD SWAP1 DUP2 SWAP1 SUB PUSH1 0x80 ADD SWAP1 RETURN JUMPDEST PUSH2 0x25F PUSH2 0x19F4 JUMP JUMPDEST PUSH2 0x296 PUSH1 0x4 DUP1 CALLDATASIZE SUB PUSH1 0xA0 DUP2 LT ISZERO PUSH2 0x5FA JUMPI PUSH1 0x0 DUP1 REVERT JUMPDEST POP DUP1 CALLDATALOAD SWAP1 PUSH1 0x1 PUSH1 0x1 PUSH1 0xA0 SHL SUB PUSH1 0x20 DUP3 ADD CALLDATALOAD AND SWAP1 PUSH2 0xFFFF PUSH1 0x40 DUP3 ADD CALLDATALOAD AND SWAP1 PUSH1 0x60 DUP2 ADD CALLDATALOAD SWAP1 PUSH1 0x80 ADD CALLDATALOAD ISZERO ISZERO PUSH2 0x19FA JUMP JUMPDEST PUSH2 0x296 PUSH2 0x1CD1 JUMP JUMPDEST PUSH2 0x296 PUSH1 0x4 DUP1 CALLDATASIZE SUB PUSH1 0x60 DUP2 LT ISZERO PUSH2 0x646 JUMPI PUSH1 0x0 DUP1 REVERT JUMPDEST POP DUP1 CALLDATALOAD SWAP1 PUSH1 0x20 DUP2 ADD CALLDATALOAD SWAP1 PUSH1 0x40 ADD CALLDATALOAD ISZERO ISZERO PUSH2 0x1DCC JUMP JUMPDEST PUSH2 0x296 PUSH1 0x4 DUP1 CALLDATASIZE SUB PUSH1 0x20 DUP2 LT ISZERO PUSH2 0x671 JUMPI PUSH1 0x0 DUP1 REVERT JUMPDEST POP CALLDATALOAD PUSH1 0x1 PUSH1 0x1 PUSH1 0xA0 SHL SUB AND PUSH2 0x1E65 JUMP JUMPDEST PUSH2 0x465 PUSH2 0x1F37 JUMP JUMPDEST PUSH2 0x3C6 PUSH2 0x1F48 JUMP JUMPDEST PUSH2 0x25F PUSH2 0x1F57 JUMP JUMPDEST PUSH2 0x296 PUSH1 0x4 DUP1 CALLDATASIZE SUB PUSH1 0x20 DUP2 LT ISZERO PUSH2 0x6AF JUMPI PUSH1 0x0 DUP1 REVERT JUMPDEST POP CALLDATALOAD PUSH1 0x1 PUSH1 0x1 PUSH1 0xA0 SHL SUB AND PUSH2 0x1F5E JUMP JUMPDEST PUSH1 0x6 SLOAD DUP2 JUMP JUMPDEST PUSH1 0x7 SLOAD SWAP1 JUMP JUMPDEST PUSH1 0x3 SLOAD PUSH1 0x1 PUSH1 0x1 PUSH1 0xA0 SHL SUB AND CALLER EQ PUSH2 0x714 JUMPI PUSH1 0x40 MLOAD PUSH3 0x461BCD PUSH1 0xE5 SHL DUP2 MSTORE PUSH1 0x4 ADD DUP1 DUP1 PUSH1 0x20 ADD DUP3 DUP2 SUB DUP3 MSTORE PUSH1 0x24 DUP2 MSTORE PUSH1 0x20 ADD DUP1 PUSH2 0x2BBC PUSH1 0x24 SWAP2 CODECOPY PUSH1 0x40 ADD SWAP2 POP POP PUSH1 0x40 MLOAD DUP1 SWAP2 SUB SWAP1 REVERT JUMPDEST PUSH9 0x6C6B935B8BBD400000 DUP2 GT ISZERO PUSH2 0x772 JUMPI PUSH1 0x40 DUP1 MLOAD PUSH3 0x461BCD PUSH1 0xE5 SHL DUP2 MSTORE PUSH1 0x20 PUSH1 0x4 DUP3 ADD MSTORE PUSH1 0x17 PUSH1 0x24 DUP3 ADD MSTORE PUSH32 0x535441522070657220626C6F636B20746F6F2068696768000000000000000000 PUSH1 0x44 DUP3 ADD MSTORE SWAP1 MLOAD SWAP1 DUP2 SWAP1 SUB PUSH1 0x64 ADD SWAP1 REVERT JUMPDEST PUSH2 0x77A PUSH2 0x1267 JUMP JUMPDEST PUSH1 0x6 SLOAD PUSH1 0x40 DUP1 MLOAD SWAP2 DUP3 MSTORE PUSH1 0x20 DUP3 ADD DUP4 SWAP1 MSTORE DUP1 MLOAD CALLER SWAP3 PUSH32 0xEEDC6338C9C1AD8F3CD6C90DD09DBE98DBD57E610D3E59A17996D07ACB0D9511 SWAP3 SWAP1 DUP3 SWAP1 SUB ADD SWAP1 LOG2 PUSH1 0x6 SSTORE JUMP JUMPDEST PUSH1 0x0 DUP1 PUSH1 0x7 DUP5 DUP2 SLOAD DUP2 LT PUSH2 0x7CD JUMPI INVALID JUMPDEST PUSH1 0x0 SWAP2 DUP3 MSTORE PUSH1 0x20 DUP1 DUP4 KECCAK256 DUP8 DUP5 MSTORE PUSH1 0x8 DUP3 MSTORE PUSH1 0x40 DUP1 DUP6 KECCAK256 PUSH1 0x1 PUSH1 0x1 PUSH1 0xA0 SHL SUB DUP10 AND DUP7 MSTORE SWAP1 SWAP3 MSTORE SWAP3 KECCAK256 PUSH1 0x3 PUSH1 0x7 SWAP1 SWAP3 MUL SWAP1 SWAP3 ADD SWAP1 DUP2 ADD SLOAD PUSH1 0x6 DUP3 ADD SLOAD PUSH1 0x2 DUP4 ADD SLOAD SWAP3 SWAP5 POP SWAP1 SWAP2 NUMBER GT DUP1 ISZERO PUSH2 0x81E JUMPI POP DUP1 ISZERO ISZERO JUMPDEST ISZERO PUSH2 0x88A JUMPI PUSH1 0x0 PUSH2 0x833 DUP6 PUSH1 0x2 ADD SLOAD NUMBER PUSH2 0x158E JUMP JUMPDEST SWAP1 POP PUSH1 0x0 PUSH2 0x866 PUSH1 0x9 SLOAD PUSH2 0x860 DUP9 PUSH1 0x1 ADD SLOAD PUSH2 0x85A PUSH1 0x6 SLOAD DUP8 PUSH2 0x2060 SWAP1 SWAP2 SWAP1 PUSH4 0xFFFFFFFF AND JUMP JUMPDEST SWAP1 PUSH2 0x2060 JUMP JUMPDEST SWAP1 PUSH2 0x20B9 JUMP JUMPDEST SWAP1 POP PUSH2 0x885 PUSH2 0x87E DUP5 PUSH2 0x860 DUP5 PUSH5 0xE8D4A51000 PUSH2 0x2060 JUMP JUMPDEST DUP6 SWAP1 PUSH2 0x2120 JUMP JUMPDEST SWAP4 POP POP POP JUMPDEST PUSH1 0x0 PUSH2 0x8BA DUP5 PUSH1 0x1 ADD SLOAD PUSH2 0x8B4 PUSH5 0xE8D4A51000 PUSH2 0x860 DUP8 DUP10 PUSH1 0x0 ADD SLOAD PUSH2 0x2060 SWAP1 SWAP2 SWAP1 PUSH4 0xFFFFFFFF AND JUMP JUMPDEST SWAP1 PUSH2 0x217A JUMP JUMPDEST SWAP1 POP PUSH2 0x8D3 DUP5 PUSH1 0x2 ADD SLOAD DUP3 PUSH2 0x2120 SWAP1 SWAP2 SWAP1 PUSH4 0xFFFFFFFF AND JUMP JUMPDEST SWAP6 POP POP POP POP POP POP JUMPDEST SWAP3 SWAP2 POP POP JUMP JUMPDEST PUSH1 0x7 DUP2 DUP2 SLOAD DUP2 LT PUSH2 0x8EE JUMPI INVALID JUMPDEST PUSH1 0x0 SWAP2 DUP3 MSTORE PUSH1 0x20 SWAP1 SWAP2 KECCAK256 PUSH1 0x7 SWAP1 SWAP2 MUL ADD DUP1 SLOAD PUSH1 0x1 DUP3 ADD SLOAD PUSH1 0x2 DUP4 ADD SLOAD PUSH1 0x3 DUP5 ADD SLOAD PUSH1 0x4 DUP6 ADD SLOAD PUSH1 0x5 DUP7 ADD SLOAD PUSH1 0x6 SWAP1 SWAP7 ADD SLOAD PUSH1 0x1 PUSH1 0x1 PUSH1 0xA0 SHL SUB SWAP1 SWAP6 AND SWAP7 POP SWAP3 SWAP5 SWAP2 SWAP4 SWAP1 SWAP3 PUSH2 0xFFFF AND SWAP2 SWAP1 DUP8 JUMP JUMPDEST PUSH1 0x9 SLOAD DUP2 JUMP JUMPDEST PUSH2 0x949 PUSH2 0x21D7 JUMP JUMPDEST PUSH1 0x1 PUSH1 0x1 PUSH1 0xA0 SHL SUB AND PUSH2 0x95A PUSH2 0x157F JUMP JUMPDEST PUSH1 0x1 PUSH1 0x1 PUSH1 0xA0 SHL SUB AND EQ PUSH2 0x9A3 JUMPI PUSH1 0x40 DUP1 MLOAD PUSH3 0x461BCD PUSH1 0xE5 SHL DUP2 MSTORE PUSH1 0x20 PUSH1 0x4 DUP3 ADD DUP2 SWAP1 MSTORE PUSH1 0x24 DUP3 ADD MSTORE PUSH1 0x0 DUP1 MLOAD PUSH1 0x20 PUSH2 0x2B15 DUP4 CODECOPY DUP2 MLOAD SWAP2 MSTORE PUSH1 0x44 DUP3 ADD MSTORE SWAP1 MLOAD SWAP1 DUP2 SWAP1 SUB PUSH1 0x64 ADD SWAP1 REVERT JUMPDEST PUSH1 0xD DUP1 SLOAD PUSH1 0x1 PUSH1 0x1 PUSH1 0xA0 SHL SUB NOT AND PUSH1 0x1 PUSH1 0x1 PUSH1 0xA0 SHL SUB SWAP3 SWAP1 SWAP3 AND SWAP2 SWAP1 SWAP2 OR SWAP1 SSTORE JUMP JUMPDEST PUSH2 0x9CD PUSH2 0x21D7 JUMP JUMPDEST PUSH1 0x1 PUSH1 0x1 PUSH1 0xA0 SHL SUB AND PUSH2 0x9DE PUSH2 0x157F JUMP JUMPDEST PUSH1 0x1 PUSH1 0x1 PUSH1 0xA0 SHL SUB AND EQ PUSH2 0xA27 JUMPI PUSH1 0x40 DUP1 MLOAD PUSH3 0x461BCD PUSH1 0xE5 SHL DUP2 MSTORE PUSH1 0x20 PUSH1 0x4 DUP3 ADD DUP2 SWAP1 MSTORE PUSH1 0x24 DUP3 ADD MSTORE PUSH1 0x0 DUP1 MLOAD PUSH1 0x20 PUSH2 0x2B15 DUP4 CODECOPY DUP2 MLOAD SWAP2 MSTORE PUSH1 0x44 DUP3 ADD MSTORE SWAP1 MLOAD SWAP1 DUP2 SWAP1 SUB PUSH1 0x64 ADD SWAP1 REVERT JUMPDEST PUSH2 0x3E8 PUSH2 0xFFFF DUP5 AND GT ISZERO PUSH2 0xA82 JUMPI PUSH1 0x40 DUP1 MLOAD PUSH3 0x461BCD PUSH1 0xE5 SHL DUP2 MSTORE PUSH1 0x20 PUSH1 0x4 DUP3 ADD MSTORE PUSH1 0x19 PUSH1 0x24 DUP3 ADD MSTORE PUSH32 0x7365743A206465706F7369742066656520746F6F206869676800000000000000 PUSH1 0x44 DUP3 ADD MSTORE SWAP1 MLOAD SWAP1 DUP2 SWAP1 SUB PUSH1 0x64 ADD SWAP1 REVERT JUMPDEST PUSH3 0x127500 DUP3 GT ISZERO PUSH2 0xADA JUMPI PUSH1 0x40 DUP1 MLOAD PUSH3 0x461BCD PUSH1 0xE5 SHL DUP2 MSTORE PUSH1 0x20 PUSH1 0x4 DUP3 ADD MSTORE PUSH1 0x1D PUSH1 0x24 DUP3 ADD MSTORE PUSH32 0x7365743A20696E76616C6964206861727665737420696E74657276616C000000 PUSH1 0x44 DUP3 ADD MSTORE SWAP1 MLOAD SWAP1 DUP2 SWAP1 SUB PUSH1 0x64 ADD SWAP1 REVERT JUMPDEST DUP1 ISZERO PUSH2 0xAE8 JUMPI PUSH2 0xAE8 PUSH2 0x1267 JUMP JUMPDEST PUSH2 0xB25 DUP5 PUSH2 0xB1F PUSH1 0x7 DUP9 DUP2 SLOAD DUP2 LT PUSH2 0xAFC JUMPI INVALID JUMPDEST SWAP1 PUSH1 0x0 MSTORE PUSH1 0x20 PUSH1 0x0 KECCAK256 SWAP1 PUSH1 0x7 MUL ADD PUSH1 0x1 ADD SLOAD PUSH1 0x9 SLOAD PUSH2 0x217A SWAP1 SWAP2 SWAP1 PUSH4 0xFFFFFFFF AND JUMP JUMPDEST SWAP1 PUSH2 0x2120 JUMP JUMPDEST PUSH1 0x9 DUP2 SWAP1 SSTORE POP DUP4 PUSH1 0x7 DUP7 DUP2 SLOAD DUP2 LT PUSH2 0xB39 JUMPI INVALID JUMPDEST SWAP1 PUSH1 0x0 MSTORE PUSH1 0x20 PUSH1 0x0 KECCAK256 SWAP1 PUSH1 0x7 MUL ADD PUSH1 0x1 ADD DUP2 SWAP1 SSTORE POP DUP3 PUSH1 0x7 DUP7 DUP2 SLOAD DUP2 LT PUSH2 0xB5C JUMPI INVALID JUMPDEST SWAP1 PUSH1 0x0 MSTORE PUSH1 0x20 PUSH1 0x0 KECCAK256 SWAP1 PUSH1 0x7 MUL ADD PUSH1 0x4 ADD PUSH1 0x0 PUSH2 0x100 EXP DUP2 SLOAD DUP2 PUSH2 0xFFFF MUL NOT AND SWAP1 DUP4 PUSH2 0xFFFF AND MUL OR SWAP1 SSTORE POP DUP2 PUSH1 0x7 DUP7 DUP2 SLOAD DUP2 LT PUSH2 0xB95 JUMPI INVALID JUMPDEST SWAP1 PUSH1 0x0 MSTORE PUSH1 0x20 PUSH1 0x0 KECCAK256 SWAP1 PUSH1 0x7 MUL ADD PUSH1 0x5 ADD DUP2 SWAP1 SSTORE POP POP POP POP POP POP JUMP JUMPDEST PUSH9 0x6C6B935B8BBD400000 DUP2 JUMP JUMPDEST PUSH1 0x3 SLOAD PUSH1 0x1 PUSH1 0x1 PUSH1 0xA0 SHL SUB AND CALLER EQ PUSH2 0xC07 JUMPI PUSH1 0x40 MLOAD PUSH3 0x461BCD PUSH1 0xE5 SHL DUP2 MSTORE PUSH1 0x4 ADD DUP1 DUP1 PUSH1 0x20 ADD DUP3 DUP2 SUB DUP3 MSTORE PUSH1 0x24 DUP2 MSTORE PUSH1 0x20 ADD DUP1 PUSH2 0x2BBC PUSH1 0x24 SWAP2 CODECOPY PUSH1 0x40 ADD SWAP2 POP POP PUSH1 0x40 MLOAD DUP1 SWAP2 SUB SWAP1 REVERT JUMPDEST PUSH1 0x1 PUSH1 0x1 PUSH1 0xA0 SHL SUB DUP2 AND PUSH2 0xC4C JUMPI PUSH1 0x40 MLOAD PUSH3 0x461BCD PUSH1 0xE5 SHL DUP2 MSTORE PUSH1 0x4 ADD DUP1 DUP1 PUSH1 0x20 ADD DUP3 DUP2 SUB DUP3 MSTORE PUSH1 0x32 DUP2 MSTORE PUSH1 0x20 ADD DUP1 PUSH2 0x2B60 PUSH1 0x32 SWAP2 CODECOPY PUSH1 0x40 ADD SWAP2 POP POP PUSH1 0x40 MLOAD DUP1 SWAP2 SUB SWAP1 REVERT JUMPDEST PUSH1 0x3 SLOAD PUSH1 0x40 MLOAD PUSH1 0x1 PUSH1 0x1 PUSH1 0xA0 SHL SUB DUP1 DUP5 AND SWAP3 AND SWAP1 PUSH32 0x74DA04524D50C64947F5DD5381EF1A4DCA5CBA8ED1D816243F9E48AA0B5617ED SWAP1 PUSH1 0x0 SWAP1 LOG3 PUSH1 0x3 DUP1 SLOAD PUSH1 0x1 PUSH1 0x1 PUSH1 0xA0 SHL SUB NOT AND PUSH1 0x1 PUSH1 0x1 PUSH1 0xA0 SHL SUB SWAP3 SWAP1 SWAP3 AND SWAP2 SWAP1 SWAP2 OR SWAP1 SSTORE JUMP JUMPDEST PUSH1 0x2 SLOAD PUSH1 0x1 PUSH1 0x1 PUSH1 0xA0 SHL SUB AND DUP2 JUMP JUMPDEST PUSH1 0x0 DUP3 DUP2 MSTORE PUSH1 0x8 PUSH1 0x20 SWAP1 DUP2 MSTORE PUSH1 0x40 DUP1 DUP4 KECCAK256 PUSH1 0x1 PUSH1 0x1 PUSH1 0xA0 SHL SUB DUP6 AND DUP5 MSTORE SWAP1 SWAP2 MSTORE DUP2 KECCAK256 PUSH1 0xA SLOAD NUMBER LT DUP1 ISZERO SWAP1 PUSH2 0xCEF JUMPI POP DUP1 PUSH1 0x3 ADD SLOAD TIMESTAMP LT ISZERO JUMPDEST SWAP5 SWAP4 POP POP POP POP JUMP JUMPDEST PUSH1 0x4 SLOAD PUSH1 0x1 PUSH1 0x1 PUSH1 0xA0 SHL SUB AND DUP2 JUMP JUMPDEST PUSH1 0x5 SLOAD PUSH1 0x1 PUSH1 0x1 PUSH1 0xA0 SHL SUB AND DUP2 JUMP JUMPDEST PUSH1 0x2 PUSH1 0x1 SLOAD EQ ISZERO PUSH2 0xD6D JUMPI PUSH1 0x40 DUP1 MLOAD PUSH3 0x461BCD PUSH1 0xE5 SHL DUP2 MSTORE PUSH1 0x20 PUSH1 0x4 DUP3 ADD MSTORE PUSH1 0x1F PUSH1 0x24 DUP3 ADD MSTORE PUSH32 0x5265656E7472616E637947756172643A207265656E7472616E742063616C6C00 PUSH1 0x44 DUP3 ADD MSTORE SWAP1 MLOAD SWAP1 DUP2 SWAP1 SUB PUSH1 0x64 ADD SWAP1 REVERT JUMPDEST PUSH1 0x2 PUSH1 0x1 DUP2 SWAP1 SSTORE POP PUSH1 0x0 PUSH1 0x7 DUP4 DUP2 SLOAD DUP2 LT PUSH2 0xD84 JUMPI INVALID JUMPDEST PUSH1 0x0 SWAP2 DUP3 MSTORE PUSH1 0x20 DUP1 DUP4 KECCAK256 DUP7 DUP5 MSTORE PUSH1 0x8 DUP3 MSTORE PUSH1 0x40 DUP1 DUP6 KECCAK256 CALLER DUP7 MSTORE SWAP1 SWAP3 MSTORE SWAP3 KECCAK256 DUP1 SLOAD PUSH1 0x7 SWAP1 SWAP3 MUL SWAP1 SWAP3 ADD SWAP3 POP DUP4 GT ISZERO PUSH2 0xE02 JUMPI PUSH1 0x40 DUP1 MLOAD PUSH3 0x461BCD PUSH1 0xE5 SHL DUP2 MSTORE PUSH1 0x20 PUSH1 0x4 DUP3 ADD DUP2 SWAP1 MSTORE PUSH1 0x24 DUP3 ADD MSTORE PUSH32 0x57697468647261773A205573657220616D6F756E74206E6F7420656E6F756768 PUSH1 0x44 DUP3 ADD MSTORE SWAP1 MLOAD SWAP1 DUP2 SWAP1 SUB PUSH1 0x64 ADD SWAP1 REVERT JUMPDEST DUP3 DUP3 PUSH1 0x6 ADD SLOAD LT ISZERO PUSH2 0xE45 JUMPI PUSH1 0x40 MLOAD PUSH3 0x461BCD PUSH1 0xE5 SHL DUP2 MSTORE PUSH1 0x4 ADD DUP1 DUP1 PUSH1 0x20 ADD DUP3 DUP2 SUB DUP3 MSTORE PUSH1 0x22 DUP2 MSTORE PUSH1 0x20 ADD DUP1 PUSH2 0x2A68 PUSH1 0x22 SWAP2 CODECOPY PUSH1 0x40 ADD SWAP2 POP POP PUSH1 0x40 MLOAD DUP1 SWAP2 SUB SWAP1 REVERT JUMPDEST PUSH2 0xE4E DUP5 PUSH2 0xF31 JUMP JUMPDEST PUSH2 0xE57 DUP5 PUSH2 0x21DB JUMP JUMPDEST DUP3 ISZERO PUSH2 0xEBE JUMPI DUP1 SLOAD PUSH2 0xE69 SWAP1 DUP5 PUSH2 0x217A JUMP JUMPDEST DUP2 SSTORE PUSH1 0x6 DUP3 ADD SLOAD PUSH2 0xE7A SWAP1 DUP5 PUSH2 0x217A JUMP JUMPDEST PUSH1 0x6 DUP4 ADD SSTORE PUSH1 0x2 SLOAD DUP3 SLOAD PUSH1 0x1 PUSH1 0x1 PUSH1 0xA0 SHL SUB SWAP1 DUP2 AND SWAP2 AND EQ ISZERO PUSH2 0xEA8 JUMPI PUSH1 0xC SLOAD PUSH2 0xEA4 SWAP1 DUP5 PUSH2 0x217A JUMP JUMPDEST PUSH1 0xC SSTORE JUMPDEST DUP2 SLOAD PUSH2 0xEBE SWAP1 PUSH1 0x1 PUSH1 0x1 PUSH1 0xA0 SHL SUB AND CALLER DUP6 PUSH2 0x236D JUMP JUMPDEST PUSH1 0x3 DUP3 ADD SLOAD DUP2 SLOAD PUSH2 0xED9 SWAP2 PUSH5 0xE8D4A51000 SWAP2 PUSH2 0x860 SWAP2 PUSH2 0x2060 JUMP JUMPDEST PUSH1 0x1 DUP3 ADD SSTORE PUSH1 0x40 DUP1 MLOAD DUP5 DUP2 MSTORE SWAP1 MLOAD DUP6 SWAP2 CALLER SWAP2 PUSH32 0xF279E6A1F5E320CCA91135676D9CB6E44CA8A08C0B88342BCDB1144F6511B568 SWAP2 DUP2 SWAP1 SUB PUSH1 0x20 ADD SWAP1 LOG3 POP POP PUSH1 0x1 DUP1 SSTORE POP POP JUMP JUMPDEST PUSH1 0xB SLOAD DUP2 JUMP JUMPDEST PUSH2 0x3E8 DUP2 JUMP JUMPDEST PUSH1 0xA SLOAD DUP2 JUMP JUMPDEST PUSH1 0x0 PUSH1 0x7 DUP3 DUP2 SLOAD DUP2 LT PUSH2 0xF40 JUMPI INVALID JUMPDEST SWAP1 PUSH1 0x0 MSTORE PUSH1 0x20 PUSH1 0x0 KECCAK256 SWAP1 PUSH1 0x7 MUL ADD SWAP1 POP DUP1 PUSH1 0x2 ADD SLOAD NUMBER GT PUSH2 0xF61 JUMPI POP PUSH2 0x101B JUMP JUMPDEST PUSH1 0x6 DUP2 ADD SLOAD ISZERO DUP1 PUSH2 0xF74 JUMPI POP PUSH1 0x1 DUP2 ADD SLOAD ISZERO JUMPDEST ISZERO PUSH2 0xF85 JUMPI NUMBER PUSH1 0x2 SWAP1 SWAP2 ADD SSTORE PUSH2 0x101B JUMP JUMPDEST PUSH1 0x0 PUSH2 0xF95 DUP3 PUSH1 0x2 ADD SLOAD NUMBER PUSH2 0x158E JUMP JUMPDEST SWAP1 POP PUSH1 0x0 PUSH2 0xFBC PUSH1 0x9 SLOAD PUSH2 0x860 DUP6 PUSH1 0x1 ADD SLOAD PUSH2 0x85A PUSH1 0x6 SLOAD DUP8 PUSH2 0x2060 SWAP1 SWAP2 SWAP1 PUSH4 0xFFFFFFFF AND JUMP JUMPDEST SWAP1 POP PUSH2 0xFEC PUSH2 0xFE1 DUP5 PUSH1 0x6 ADD SLOAD PUSH2 0x860 PUSH5 0xE8D4A51000 DUP6 PUSH2 0x2060 SWAP1 SWAP2 SWAP1 PUSH4 0xFFFFFFFF AND JUMP JUMPDEST PUSH1 0x3 DUP6 ADD SLOAD SWAP1 PUSH2 0x2120 JUMP JUMPDEST PUSH1 0x3 DUP5 ADD SSTORE NUMBER PUSH1 0x2 DUP5 ADD SSTORE PUSH1 0x4 SLOAD PUSH2 0x1017 SWAP1 PUSH1 0x1 PUSH1 0x1 PUSH1 0xA0 SHL SUB AND PUSH2 0x1012 DUP4 PUSH1 0xA PUSH2 0x20B9 JUMP JUMPDEST PUSH2 0x23C4 JUMP JUMPDEST POP POP POP JUMPDEST POP JUMP JUMPDEST PUSH1 0x2 PUSH1 0x1 SLOAD EQ ISZERO PUSH2 0x1076 JUMPI PUSH1 0x40 DUP1 MLOAD PUSH3 0x461BCD PUSH1 0xE5 SHL DUP2 MSTORE PUSH1 0x20 PUSH1 0x4 DUP3 ADD MSTORE PUSH1 0x1F PUSH1 0x24 DUP3 ADD MSTORE PUSH32 0x5265656E7472616E637947756172643A207265656E7472616E742063616C6C00 PUSH1 0x44 DUP3 ADD MSTORE SWAP1 MLOAD SWAP1 DUP2 SWAP1 SUB PUSH1 0x64 ADD SWAP1 REVERT JUMPDEST PUSH1 0x2 PUSH1 0x1 DUP2 SWAP1 SSTORE POP PUSH1 0x0 PUSH1 0x7 DUP3 DUP2 SLOAD DUP2 LT PUSH2 0x108D JUMPI INVALID JUMPDEST PUSH1 0x0 SWAP2 DUP3 MSTORE PUSH1 0x20 DUP1 DUP4 KECCAK256 DUP6 DUP5 MSTORE PUSH1 0x8 DUP3 MSTORE PUSH1 0x40 DUP1 DUP6 KECCAK256 CALLER DUP7 MSTORE SWAP1 SWAP3 MSTORE SWAP3 KECCAK256 DUP1 SLOAD PUSH1 0x7 SWAP3 SWAP1 SWAP3 MUL SWAP1 SWAP3 ADD PUSH1 0x6 DUP2 ADD SLOAD SWAP1 SWAP4 POP DUP2 GT ISZERO PUSH2 0x10FC JUMPI PUSH1 0x40 MLOAD PUSH3 0x461BCD PUSH1 0xE5 SHL DUP2 MSTORE PUSH1 0x4 ADD DUP1 DUP1 PUSH1 0x20 ADD DUP3 DUP2 SUB DUP3 MSTORE PUSH1 0x2B DUP2 MSTORE PUSH1 0x20 ADD DUP1 PUSH2 0x2B35 PUSH1 0x2B SWAP2 CODECOPY PUSH1 0x40 ADD SWAP2 POP POP PUSH1 0x40 MLOAD DUP1 SWAP2 SUB SWAP1 REVERT JUMPDEST PUSH1 0x0 DUP1 DUP4 SSTORE PUSH1 0x1 DUP4 ADD DUP2 SWAP1 SSTORE PUSH1 0x2 DUP4 ADD DUP2 SWAP1 SSTORE PUSH1 0x3 DUP4 ADD SSTORE PUSH1 0x6 DUP4 ADD SLOAD PUSH2 0x1123 SWAP1 DUP3 PUSH2 0x217A JUMP JUMPDEST PUSH1 0x6 DUP5 ADD SSTORE PUSH1 0x2 SLOAD DUP4 SLOAD PUSH1 0x1 PUSH1 0x1 PUSH1 0xA0 SHL SUB SWAP1 DUP2 AND SWAP2 AND EQ ISZERO PUSH2 0x1151 JUMPI PUSH1 0xC SLOAD PUSH2 0x114D SWAP1 DUP3 PUSH2 0x217A JUMP JUMPDEST PUSH1 0xC SSTORE JUMPDEST DUP3 SLOAD PUSH2 0x1167 SWAP1 PUSH1 0x1 PUSH1 0x1 PUSH1 0xA0 SHL SUB AND CALLER DUP4 PUSH2 0x236D JUMP JUMPDEST PUSH1 0x40 DUP1 MLOAD DUP3 DUP2 MSTORE SWAP1 MLOAD DUP6 SWAP2 CALLER SWAP2 PUSH32 0xBB757047C2B5F3974FE26B7C10F732E7BCE710B0952A71082702781E62AE0595 SWAP2 DUP2 SWAP1 SUB PUSH1 0x20 ADD SWAP1 LOG3 POP POP PUSH1 0x1 DUP1 SSTORE POP POP JUMP JUMPDEST PUSH1 0x3 SLOAD PUSH1 0x1 PUSH1 0x1 PUSH1 0xA0 SHL SUB AND CALLER EQ PUSH2 0x11F1 JUMPI PUSH1 0x40 MLOAD PUSH3 0x461BCD PUSH1 0xE5 SHL DUP2 MSTORE PUSH1 0x4 ADD DUP1 DUP1 PUSH1 0x20 ADD DUP3 DUP2 SUB DUP3 MSTORE PUSH1 0x24 DUP2 MSTORE PUSH1 0x20 ADD DUP1 PUSH2 0x2BBC PUSH1 0x24 SWAP2 CODECOPY PUSH1 0x40 ADD SWAP2 POP POP PUSH1 0x40 MLOAD DUP1 SWAP2 SUB SWAP1 REVERT JUMPDEST PUSH2 0x3E8 PUSH2 0xFFFF DUP3 AND GT ISZERO PUSH2 0x1236 JUMPI PUSH1 0x40 MLOAD PUSH3 0x461BCD PUSH1 0xE5 SHL DUP2 MSTORE PUSH1 0x4 ADD DUP1 DUP1 PUSH1 0x20 ADD DUP3 DUP2 SUB DUP3 MSTORE PUSH1 0x3C DUP2 MSTORE PUSH1 0x20 ADD DUP1 PUSH2 0x2AD9 PUSH1 0x3C SWAP2 CODECOPY PUSH1 0x40 ADD SWAP2 POP POP PUSH1 0x40 MLOAD DUP1 SWAP2 SUB SWAP1 REVERT JUMPDEST PUSH1 0xD DUP1 SLOAD PUSH2 0xFFFF SWAP1 SWAP3 AND PUSH1 0x1 PUSH1 0xA0 SHL MUL PUSH2 0xFFFF PUSH1 0xA0 SHL NOT SWAP1 SWAP3 AND SWAP2 SWAP1 SWAP2 OR SWAP1 SSTORE JUMP JUMPDEST PUSH1 0x3 SLOAD PUSH1 0x1 PUSH1 0x1 PUSH1 0xA0 SHL SUB AND SWAP1 JUMP JUMPDEST PUSH1 0x7 SLOAD PUSH1 0x0 DUP1 JUMPDEST DUP3 DUP2 LT ISZERO PUSH2 0x1353 JUMPI PUSH1 0x0 PUSH1 0x7 DUP3 DUP2 SLOAD DUP2 LT PUSH2 0x1285 JUMPI INVALID JUMPDEST SWAP1 PUSH1 0x0 MSTORE PUSH1 0x20 PUSH1 0x0 KECCAK256 SWAP1 PUSH1 0x7 MUL ADD SWAP1 POP DUP1 PUSH1 0x2 ADD SLOAD NUMBER GT PUSH2 0x12A6 JUMPI POP PUSH2 0x134B JUMP JUMPDEST PUSH1 0x6 DUP2 ADD SLOAD ISZERO DUP1 PUSH2 0x12B9 JUMPI POP PUSH1 0x1 DUP2 ADD SLOAD ISZERO JUMPDEST ISZERO PUSH2 0x12CA JUMPI NUMBER PUSH1 0x2 SWAP1 SWAP2 ADD SSTORE PUSH2 0x134B JUMP JUMPDEST PUSH1 0x0 PUSH2 0x12DA DUP3 PUSH1 0x2 ADD SLOAD NUMBER PUSH2 0x158E JUMP JUMPDEST SWAP1 POP PUSH1 0x0 PUSH2 0x1301 PUSH1 0x9 SLOAD PUSH2 0x860 DUP6 PUSH1 0x1 ADD SLOAD PUSH2 0x85A PUSH1 0x6 SLOAD DUP8 PUSH2 0x2060 SWAP1 SWAP2 SWAP1 PUSH4 0xFFFFFFFF AND JUMP JUMPDEST SWAP1 POP PUSH2 0x1326 PUSH2 0xFE1 DUP5 PUSH1 0x6 ADD SLOAD PUSH2 0x860 PUSH5 0xE8D4A51000 DUP6 PUSH2 0x2060 SWAP1 SWAP2 SWAP1 PUSH4 0xFFFFFFFF AND JUMP JUMPDEST PUSH1 0x3 DUP5 ADD SSTORE NUMBER PUSH1 0x2 DUP5 ADD SSTORE PUSH2 0x1346 PUSH2 0x133F DUP3 PUSH1 0xA PUSH2 0x20B9 JUMP JUMPDEST DUP7 SWAP1 PUSH2 0x2120 JUMP JUMPDEST POP POP POP POP JUMPDEST PUSH1 0x1 ADD PUSH2 0x126E JUMP JUMPDEST POP PUSH1 0x4 SLOAD PUSH2 0x136A SWAP1 PUSH1 0x1 PUSH1 0x1 PUSH1 0xA0 SHL SUB AND DUP3 PUSH2 0x23C4 JUMP JUMPDEST POP POP JUMP JUMPDEST PUSH2 0x1376 PUSH2 0x21D7 JUMP JUMPDEST PUSH1 0x1 PUSH1 0x1 PUSH1 0xA0 SHL SUB AND PUSH2 0x1387 PUSH2 0x157F JUMP JUMPDEST PUSH1 0x1 PUSH1 0x1 PUSH1 0xA0 SHL SUB AND EQ PUSH2 0x13D0 JUMPI PUSH1 0x40 DUP1 MLOAD PUSH3 0x461BCD PUSH1 0xE5 SHL DUP2 MSTORE PUSH1 0x20 PUSH1 0x4 DUP3 ADD DUP2 SWAP1 MSTORE PUSH1 0x24 DUP3 ADD MSTORE PUSH1 0x0 DUP1 MLOAD PUSH1 0x20 PUSH2 0x2B15 DUP4 CODECOPY DUP2 MLOAD SWAP2 MSTORE PUSH1 0x44 DUP3 ADD MSTORE SWAP1 MLOAD SWAP1 DUP2 SWAP1 SUB PUSH1 0x64 ADD SWAP1 REVERT JUMPDEST PUSH1 0x0 DUP1 SLOAD PUSH1 0x40 MLOAD PUSH1 0x1 PUSH1 0x1 PUSH1 0xA0 SHL SUB SWAP1 SWAP2 AND SWAP1 PUSH32 0x8BE0079C531659141344CD1FD0A4F28419497F9722A3DAAFE3B4186F6B6457E0 SWAP1 DUP4 SWAP1 LOG3 PUSH1 0x0 DUP1 SLOAD PUSH1 0x1 PUSH1 0x1 PUSH1 0xA0 SHL SUB NOT AND SWAP1 SSTORE JUMP JUMPDEST PUSH1 0xC SLOAD PUSH1 0x2 SLOAD PUSH1 0x40 DUP1 MLOAD PUSH4 0x70A08231 PUSH1 0xE0 SHL DUP2 MSTORE ADDRESS PUSH1 0x4 DUP3 ADD MSTORE SWAP1 MLOAD PUSH1 0x0 SWAP4 PUSH2 0x14A3 SWAP4 SWAP1 SWAP3 PUSH1 0x1 PUSH1 0x1 PUSH1 0xA0 SHL SUB SWAP1 SWAP2 AND SWAP2 PUSH4 0x70A08231 SWAP2 PUSH1 0x24 DUP1 DUP3 ADD SWAP3 PUSH1 0x20 SWAP3 SWAP1 SWAP2 SWAP1 DUP3 SWAP1 SUB ADD DUP2 DUP7 DUP1 EXTCODESIZE ISZERO DUP1 ISZERO PUSH2 0x1471 JUMPI PUSH1 0x0 DUP1 REVERT JUMPDEST POP GAS STATICCALL ISZERO DUP1 ISZERO PUSH2 0x1485 JUMPI RETURNDATASIZE PUSH1 0x0 DUP1 RETURNDATACOPY RETURNDATASIZE PUSH1 0x0 REVERT JUMPDEST POP POP POP POP PUSH1 0x40 MLOAD RETURNDATASIZE PUSH1 0x20 DUP2 LT ISZERO PUSH2 0x149B JUMPI PUSH1 0x0 DUP1 REVERT JUMPDEST POP MLOAD SWAP1 PUSH2 0x217A JUMP JUMPDEST SWAP1 POP SWAP1 JUMP JUMPDEST PUSH1 0x5 SLOAD PUSH1 0x1 PUSH1 0x1 PUSH1 0xA0 SHL SUB AND CALLER EQ PUSH2 0x1507 JUMPI PUSH1 0x40 DUP1 MLOAD PUSH3 0x461BCD PUSH1 0xE5 SHL DUP2 MSTORE PUSH1 0x20 PUSH1 0x4 DUP3 ADD MSTORE PUSH1 0x18 PUSH1 0x24 DUP3 ADD MSTORE PUSH32 0x736574466565416464726573733A20464F5242494444454E0000000000000000 PUSH1 0x44 DUP3 ADD MSTORE SWAP1 MLOAD SWAP1 DUP2 SWAP1 SUB PUSH1 0x64 ADD SWAP1 REVERT JUMPDEST PUSH1 0x1 PUSH1 0x1 PUSH1 0xA0 SHL SUB DUP2 AND PUSH2 0x1558 JUMPI PUSH1 0x40 DUP1 MLOAD PUSH3 0x461BCD PUSH1 0xE5 SHL DUP2 MSTORE PUSH1 0x20 PUSH1 0x4 DUP3 ADD MSTORE PUSH1 0x13 PUSH1 0x24 DUP3 ADD MSTORE PUSH19 0x736574466565416464726573733A205A45524F PUSH1 0x68 SHL PUSH1 0x44 DUP3 ADD MSTORE SWAP1 MLOAD SWAP1 DUP2 SWAP1 SUB PUSH1 0x64 ADD SWAP1 REVERT JUMPDEST PUSH1 0x5 DUP1 SLOAD PUSH1 0x1 PUSH1 0x1 PUSH1 0xA0 SHL SUB NOT AND PUSH1 0x1 PUSH1 0x1 PUSH1 0xA0 SHL SUB SWAP3 SWAP1 SWAP3 AND SWAP2 SWAP1 SWAP2 OR SWAP1 SSTORE JUMP JUMPDEST PUSH1 0x1 DUP2 JUMP JUMPDEST PUSH1 0x0 SLOAD PUSH1 0x1 PUSH1 0x1 PUSH1 0xA0 SHL SUB AND SWAP1 JUMP JUMPDEST PUSH1 0x0 PUSH2 0x159F PUSH1 0x1 PUSH2 0x85A DUP5 DUP7 PUSH2 0x217A JUMP JUMPDEST SWAP4 SWAP3 POP POP POP JUMP JUMPDEST PUSH1 0x2 PUSH1 0x1 SLOAD EQ ISZERO PUSH2 0x15FE JUMPI PUSH1 0x40 DUP1 MLOAD PUSH3 0x461BCD PUSH1 0xE5 SHL DUP2 MSTORE PUSH1 0x20 PUSH1 0x4 DUP3 ADD MSTORE PUSH1 0x1F PUSH1 0x24 DUP3 ADD MSTORE PUSH32 0x5265656E7472616E637947756172643A207265656E7472616E742063616C6C00 PUSH1 0x44 DUP3 ADD MSTORE SWAP1 MLOAD SWAP1 DUP2 SWAP1 SUB PUSH1 0x64 ADD SWAP1 REVERT JUMPDEST PUSH1 0x2 PUSH1 0x1 SSTORE PUSH1 0xA SLOAD NUMBER LT ISZERO PUSH2 0x1644 JUMPI PUSH1 0x40 MLOAD PUSH3 0x461BCD PUSH1 0xE5 SHL DUP2 MSTORE PUSH1 0x4 ADD DUP1 DUP1 PUSH1 0x20 ADD DUP3 DUP2 SUB DUP3 MSTORE PUSH1 0x2E DUP2 MSTORE PUSH1 0x20 ADD DUP1 PUSH2 0x2A8A PUSH1 0x2E SWAP2 CODECOPY PUSH1 0x40 ADD SWAP2 POP POP PUSH1 0x40 MLOAD DUP1 SWAP2 SUB SWAP1 REVERT JUMPDEST PUSH1 0x0 PUSH1 0x7 DUP5 DUP2 SLOAD DUP2 LT PUSH2 0x1653 JUMPI INVALID JUMPDEST PUSH1 0x0 SWAP2 DUP3 MSTORE PUSH1 0x20 DUP1 DUP4 KECCAK256 DUP8 DUP5 MSTORE PUSH1 0x8 DUP3 MSTORE PUSH1 0x40 DUP1 DUP6 KECCAK256 CALLER DUP7 MSTORE SWAP1 SWAP3 MSTORE SWAP3 KECCAK256 PUSH1 0x7 SWAP1 SWAP2 MUL SWAP1 SWAP2 ADD SWAP2 POP PUSH2 0x1684 DUP6 PUSH2 0xF31 JUMP JUMPDEST PUSH1 0x0 DUP5 GT DUP1 ISZERO PUSH2 0x169E JUMPI POP PUSH1 0xD SLOAD PUSH1 0x1 PUSH1 0x1 PUSH1 0xA0 SHL SUB AND ISZERO ISZERO JUMPDEST DUP1 ISZERO PUSH2 0x16B2 JUMPI POP PUSH1 0x1 PUSH1 0x1 PUSH1 0xA0 SHL SUB DUP4 AND ISZERO ISZERO JUMPDEST DUP1 ISZERO PUSH2 0x16C7 JUMPI POP PUSH1 0x1 PUSH1 0x1 PUSH1 0xA0 SHL SUB DUP4 AND CALLER EQ ISZERO JUMPDEST ISZERO PUSH2 0x1739 JUMPI PUSH1 0xD SLOAD PUSH1 0x40 DUP1 MLOAD PUSH4 0xC7F7B6B PUSH1 0xE0 SHL DUP2 MSTORE CALLER PUSH1 0x4 DUP3 ADD MSTORE PUSH1 0x1 PUSH1 0x1 PUSH1 0xA0 SHL SUB DUP7 DUP2 AND PUSH1 0x24 DUP4 ADD MSTORE SWAP2 MLOAD SWAP2 SWAP1 SWAP3 AND SWAP2 PUSH4 0xC7F7B6B SWAP2 PUSH1 0x44 DUP1 DUP4 ADD SWAP3 PUSH1 0x0 SWAP3 SWAP2 SWAP1 DUP3 SWAP1 SUB ADD DUP2 DUP4 DUP8 DUP1 EXTCODESIZE ISZERO DUP1 ISZERO PUSH2 0x1720 JUMPI PUSH1 0x0 DUP1 REVERT JUMPDEST POP GAS CALL ISZERO DUP1 ISZERO PUSH2 0x1734 JUMPI RETURNDATASIZE PUSH1 0x0 DUP1 RETURNDATACOPY RETURNDATASIZE PUSH1 0x0 REVERT JUMPDEST POP POP POP POP JUMPDEST PUSH2 0x1742 DUP6 PUSH2 0x21DB JUMP JUMPDEST DUP4 ISZERO PUSH2 0x1960 JUMPI DUP2 SLOAD PUSH1 0x40 DUP1 MLOAD PUSH4 0x70A08231 PUSH1 0xE0 SHL DUP2 MSTORE ADDRESS PUSH1 0x4 DUP3 ADD MSTORE SWAP1 MLOAD PUSH1 0x0 SWAP3 PUSH1 0x1 PUSH1 0x1 PUSH1 0xA0 SHL SUB AND SWAP2 PUSH4 0x70A08231 SWAP2 PUSH1 0x24 DUP1 DUP4 ADD SWAP3 PUSH1 0x20 SWAP3 SWAP2 SWAP1 DUP3 SWAP1 SUB ADD DUP2 DUP7 DUP1 EXTCODESIZE ISZERO DUP1 ISZERO PUSH2 0x1792 JUMPI PUSH1 0x0 DUP1 REVERT JUMPDEST POP GAS STATICCALL ISZERO DUP1 ISZERO PUSH2 0x17A6 JUMPI RETURNDATASIZE PUSH1 0x0 DUP1 RETURNDATACOPY RETURNDATASIZE PUSH1 0x0 REVERT JUMPDEST POP POP POP POP PUSH1 0x40 MLOAD RETURNDATASIZE PUSH1 0x20 DUP2 LT ISZERO PUSH2 0x17BC JUMPI PUSH1 0x0 DUP1 REVERT JUMPDEST POP MLOAD DUP4 SLOAD SWAP1 SWAP2 POP PUSH2 0x17D8 SWAP1 PUSH1 0x1 PUSH1 0x1 PUSH1 0xA0 SHL SUB AND CALLER ADDRESS DUP9 PUSH2 0x25B9 JUMP JUMPDEST DUP3 SLOAD PUSH1 0x40 DUP1 MLOAD PUSH4 0x70A08231 PUSH1 0xE0 SHL DUP2 MSTORE ADDRESS PUSH1 0x4 DUP3 ADD MSTORE SWAP1 MLOAD PUSH1 0x0 SWAP3 PUSH1 0x1 PUSH1 0x1 PUSH1 0xA0 SHL SUB AND SWAP2 PUSH4 0x70A08231 SWAP2 PUSH1 0x24 DUP1 DUP4 ADD SWAP3 PUSH1 0x20 SWAP3 SWAP2 SWAP1 DUP3 SWAP1 SUB ADD DUP2 DUP7 DUP1 EXTCODESIZE ISZERO DUP1 ISZERO PUSH2 0x1822 JUMPI PUSH1 0x0 DUP1 REVERT JUMPDEST POP GAS STATICCALL ISZERO DUP1 ISZERO PUSH2 0x1836 JUMPI RETURNDATASIZE PUSH1 0x0 DUP1 RETURNDATACOPY RETURNDATASIZE PUSH1 0x0 REVERT JUMPDEST POP POP POP POP PUSH1 0x40 MLOAD RETURNDATASIZE PUSH1 0x20 DUP2 LT ISZERO PUSH2 0x184C JUMPI PUSH1 0x0 DUP1 REVERT JUMPDEST POP MLOAD SWAP1 POP PUSH2 0x185A DUP2 DUP4 PUSH2 0x217A JUMP JUMPDEST PUSH1 0x4 DUP6 ADD SLOAD SWAP1 SWAP7 POP PUSH2 0xFFFF AND ISZERO PUSH2 0x1912 JUMPI PUSH1 0x4 DUP5 ADD SLOAD PUSH1 0x0 SWAP1 PUSH2 0x188A SWAP1 PUSH2 0x2710 SWAP1 PUSH2 0x860 SWAP1 DUP11 SWAP1 PUSH2 0xFFFF AND PUSH2 0x2060 JUMP JUMPDEST PUSH1 0x5 SLOAD DUP7 SLOAD SWAP2 SWAP3 POP PUSH2 0x18A9 SWAP2 PUSH1 0x1 PUSH1 0x1 PUSH1 0xA0 SHL SUB SWAP1 DUP2 AND SWAP2 AND DUP4 PUSH2 0x236D JUMP JUMPDEST DUP4 SLOAD PUSH2 0x18BB SWAP1 DUP3 SWAP1 PUSH2 0x8B4 SWAP1 DUP11 PUSH2 0x2120 JUMP JUMPDEST DUP5 SSTORE PUSH1 0x6 DUP6 ADD SLOAD PUSH2 0x18D2 SWAP1 DUP3 SWAP1 PUSH2 0x8B4 SWAP1 DUP11 PUSH2 0x2120 JUMP JUMPDEST PUSH1 0x6 DUP7 ADD SSTORE PUSH1 0x2 SLOAD DUP6 SLOAD PUSH1 0x1 PUSH1 0x1 PUSH1 0xA0 SHL SUB SWAP1 DUP2 AND SWAP2 AND EQ ISZERO PUSH2 0x190C JUMPI PUSH2 0x1908 DUP2 PUSH2 0x8B4 DUP10 PUSH1 0xC SLOAD PUSH2 0x2120 SWAP1 SWAP2 SWAP1 PUSH4 0xFFFFFFFF AND JUMP JUMPDEST PUSH1 0xC SSTORE JUMPDEST POP PUSH2 0x195D JUMP JUMPDEST DUP3 SLOAD PUSH2 0x191E SWAP1 DUP8 PUSH2 0x2120 JUMP JUMPDEST DUP4 SSTORE PUSH1 0x6 DUP5 ADD SLOAD PUSH2 0x192F SWAP1 DUP8 PUSH2 0x2120 JUMP JUMPDEST PUSH1 0x6 DUP6 ADD SSTORE PUSH1 0x2 SLOAD DUP5 SLOAD PUSH1 0x1 PUSH1 0x1 PUSH1 0xA0 SHL SUB SWAP1 DUP2 AND SWAP2 AND EQ ISZERO PUSH2 0x195D JUMPI PUSH1 0xC SLOAD PUSH2 0x1959 SWAP1 DUP8 PUSH2 0x2120 JUMP JUMPDEST PUSH1 0xC SSTORE JUMPDEST POP POP JUMPDEST PUSH1 0x3 DUP3 ADD SLOAD DUP2 SLOAD PUSH2 0x197B SWAP2 PUSH5 0xE8D4A51000 SWAP2 PUSH2 0x860 SWAP2 PUSH2 0x2060 JUMP JUMPDEST PUSH1 0x1 DUP3 ADD SSTORE PUSH1 0x40 DUP1 MLOAD DUP6 DUP2 MSTORE SWAP1 MLOAD DUP7 SWAP2 CALLER SWAP2 PUSH32 0x90890809C654F11D6E72A28FA60149770A0D11EC6C92319D6CEB2BB0A4EA1A15 SWAP2 DUP2 SWAP1 SUB PUSH1 0x20 ADD SWAP1 LOG3 POP POP PUSH1 0x1 DUP1 SSTORE POP POP POP JUMP JUMPDEST PUSH1 0x8 PUSH1 0x20 SWAP1 DUP2 MSTORE PUSH1 0x0 SWAP3 DUP4 MSTORE PUSH1 0x40 DUP1 DUP5 KECCAK256 SWAP1 SWAP2 MSTORE SWAP1 DUP3 MSTORE SWAP1 KECCAK256 DUP1 SLOAD PUSH1 0x1 DUP3 ADD SLOAD PUSH1 0x2 DUP4 ADD SLOAD PUSH1 0x3 SWAP1 SWAP4 ADD SLOAD SWAP2 SWAP3 SWAP1 SWAP2 DUP5 JUMP JUMPDEST PUSH1 0xC SLOAD DUP2 JUMP JUMPDEST PUSH2 0x1A02 PUSH2 0x21D7 JUMP JUMPDEST PUSH1 0x1 PUSH1 0x1 PUSH1 0xA0 SHL SUB AND PUSH2 0x1A13 PUSH2 0x157F JUMP JUMPDEST PUSH1 0x1 PUSH1 0x1 PUSH1 0xA0 SHL SUB AND EQ PUSH2 0x1A5C JUMPI PUSH1 0x40 DUP1 MLOAD PUSH3 0x461BCD PUSH1 0xE5 SHL DUP2 MSTORE PUSH1 0x20 PUSH1 0x4 DUP3 ADD DUP2 SWAP1 MSTORE PUSH1 0x24 DUP3 ADD MSTORE PUSH1 0x0 DUP1 MLOAD PUSH1 0x20 PUSH2 0x2B15 DUP4 CODECOPY DUP2 MLOAD SWAP2 MSTORE PUSH1 0x44 DUP3 ADD MSTORE SWAP1 MLOAD SWAP1 DUP2 SWAP1 SUB PUSH1 0x64 ADD SWAP1 REVERT JUMPDEST PUSH2 0x3E8 PUSH2 0xFFFF DUP5 AND GT ISZERO PUSH2 0x1AB7 JUMPI PUSH1 0x40 DUP1 MLOAD PUSH3 0x461BCD PUSH1 0xE5 SHL DUP2 MSTORE PUSH1 0x20 PUSH1 0x4 DUP3 ADD MSTORE PUSH1 0x19 PUSH1 0x24 DUP3 ADD MSTORE PUSH32 0x6164643A206465706F7369742066656520746F6F206869676800000000000000 PUSH1 0x44 DUP3 ADD MSTORE SWAP1 MLOAD SWAP1 DUP2 SWAP1 SUB PUSH1 0x64 ADD SWAP1 REVERT JUMPDEST PUSH3 0x127500 DUP3 GT ISZERO PUSH2 0x1B0F JUMPI PUSH1 0x40 DUP1 MLOAD PUSH3 0x461BCD PUSH1 0xE5 SHL DUP2 MSTORE PUSH1 0x20 PUSH1 0x4 DUP3 ADD MSTORE PUSH1 0x1D PUSH1 0x24 DUP3 ADD MSTORE PUSH32 0x6164643A20696E76616C6964206861727665737420696E74657276616C000000 PUSH1 0x44 DUP3 ADD MSTORE SWAP1 MLOAD SWAP1 DUP2 SWAP1 SUB PUSH1 0x64 ADD SWAP1 REVERT JUMPDEST DUP1 ISZERO PUSH2 0x1B1D JUMPI PUSH2 0x1B1D PUSH2 0x1267 JUMP JUMPDEST PUSH1 0x0 PUSH1 0xA SLOAD NUMBER GT PUSH2 0x1B30 JUMPI PUSH1 0xA SLOAD PUSH2 0x1B32 JUMP JUMPDEST NUMBER JUMPDEST PUSH1 0x9 SLOAD SWAP1 SWAP2 POP PUSH2 0x1B42 SWAP1 DUP8 PUSH2 0x2120 JUMP JUMPDEST PUSH1 0x9 SSTORE PUSH1 0x40 DUP1 MLOAD PUSH1 0xE0 DUP2 ADD DUP3 MSTORE PUSH1 0x1 PUSH1 0x1 PUSH1 0xA0 SHL SUB SWAP7 DUP8 AND DUP2 MSTORE PUSH1 0x20 DUP2 ADD SWAP8 DUP9 MSTORE SWAP1 DUP2 ADD SWAP2 DUP3 MSTORE PUSH1 0x0 PUSH1 0x60 DUP3 ADD DUP2 DUP2 MSTORE PUSH2 0xFFFF SWAP7 DUP8 AND PUSH1 0x80 DUP5 ADD SWAP1 DUP2 MSTORE PUSH1 0xA0 DUP5 ADD SWAP7 DUP8 MSTORE PUSH1 0xC0 DUP5 ADD DUP4 DUP2 MSTORE PUSH1 0x7 DUP1 SLOAD PUSH1 0x1 DUP2 ADD DUP3 SSTORE SWAP5 DUP2 SWAP1 MSTORE SWAP5 MLOAD PUSH32 0xA66CC928B5EDB82AF9BD49922954155AB7B0942694BEA4CE44661D9A8736C688 SWAP5 SWAP1 SWAP6 MUL SWAP4 DUP5 ADD DUP1 SLOAD PUSH1 0x1 PUSH1 0x1 PUSH1 0xA0 SHL SUB NOT AND SWAP6 SWAP1 SWAP11 AND SWAP5 SWAP1 SWAP5 OR SWAP1 SWAP9 SSTORE SWAP8 MLOAD PUSH32 0xA66CC928B5EDB82AF9BD49922954155AB7B0942694BEA4CE44661D9A8736C689 DUP3 ADD SSTORE SWAP2 MLOAD PUSH32 0xA66CC928B5EDB82AF9BD49922954155AB7B0942694BEA4CE44661D9A8736C68A DUP4 ADD SSTORE SWAP6 MLOAD PUSH32 0xA66CC928B5EDB82AF9BD49922954155AB7B0942694BEA4CE44661D9A8736C68B DUP3 ADD SSTORE SWAP4 MLOAD PUSH32 0xA66CC928B5EDB82AF9BD49922954155AB7B0942694BEA4CE44661D9A8736C68C DUP6 ADD DUP1 SLOAD PUSH2 0xFFFF NOT AND SWAP2 SWAP1 SWAP5 AND OR SWAP1 SWAP3 SSTORE MLOAD PUSH32 0xA66CC928B5EDB82AF9BD49922954155AB7B0942694BEA4CE44661D9A8736C68D DUP4 ADD SSTORE POP SWAP1 MLOAD PUSH32 0xA66CC928B5EDB82AF9BD49922954155AB7B0942694BEA4CE44661D9A8736C68E SWAP1 SWAP2 ADD SSTORE JUMP JUMPDEST PUSH2 0x1CD9 PUSH2 0x21D7 JUMP JUMPDEST PUSH1 0x1 PUSH1 0x1 PUSH1 0xA0 SHL SUB AND PUSH2 0x1CEA PUSH2 0x157F JUMP JUMPDEST PUSH1 0x1 PUSH1 0x1 PUSH1 0xA0 SHL SUB AND EQ PUSH2 0x1D33 JUMPI PUSH1 0x40 DUP1 MLOAD PUSH3 0x461BCD PUSH1 0xE5 SHL DUP2 MSTORE PUSH1 0x20 PUSH1 0x4 DUP3 ADD DUP2 SWAP1 MSTORE PUSH1 0x24 DUP3 ADD MSTORE PUSH1 0x0 DUP1 MLOAD PUSH1 0x20 PUSH2 0x2B15 DUP4 CODECOPY DUP2 MLOAD SWAP2 MSTORE PUSH1 0x44 DUP3 ADD MSTORE SWAP1 MLOAD SWAP1 DUP2 SWAP1 SUB PUSH1 0x64 ADD SWAP1 REVERT JUMPDEST PUSH1 0xA SLOAD NUMBER LT PUSH2 0x1D89 JUMPI PUSH1 0x40 DUP1 MLOAD PUSH3 0x461BCD PUSH1 0xE5 SHL DUP2 MSTORE PUSH1 0x20 PUSH1 0x4 DUP3 ADD MSTORE PUSH1 0x1B PUSH1 0x24 DUP3 ADD MSTORE PUSH32 0x4572726F723A3A4661726D207374617274656420616C72656164790000000000 PUSH1 0x44 DUP3 ADD MSTORE SWAP1 MLOAD SWAP1 DUP2 SWAP1 SUB PUSH1 0x64 ADD SWAP1 REVERT JUMPDEST PUSH1 0x7 SLOAD PUSH1 0x0 JUMPDEST DUP2 DUP2 LT ISZERO PUSH2 0x1DC4 JUMPI PUSH1 0x0 PUSH1 0x7 DUP3 DUP2 SLOAD DUP2 LT PUSH2 0x1DA6 JUMPI INVALID JUMPDEST PUSH1 0x0 SWAP2 DUP3 MSTORE PUSH1 0x20 SWAP1 SWAP2 KECCAK256 NUMBER PUSH1 0x7 SWAP1 SWAP3 MUL ADD PUSH1 0x2 ADD SSTORE POP PUSH1 0x1 ADD PUSH2 0x1D8F JUMP JUMPDEST POP POP NUMBER PUSH1 0xA SSTORE JUMP JUMPDEST PUSH1 0x3 SLOAD PUSH1 0x1 PUSH1 0x1 PUSH1 0xA0 SHL SUB AND CALLER EQ PUSH2 0x1E15 JUMPI PUSH1 0x40 MLOAD PUSH3 0x461BCD PUSH1 0xE5 SHL DUP2 MSTORE PUSH1 0x4 ADD DUP1 DUP1 PUSH1 0x20 ADD DUP3 DUP2 SUB DUP3 MSTORE PUSH1 0x24 DUP2 MSTORE PUSH1 0x20 ADD DUP1 PUSH2 0x2BBC PUSH1 0x24 SWAP2 CODECOPY PUSH1 0x40 ADD SWAP2 POP POP PUSH1 0x40 MLOAD DUP1 SWAP2 SUB SWAP1 REVERT JUMPDEST DUP1 ISZERO PUSH2 0x1E23 JUMPI PUSH2 0x1E23 PUSH2 0x1267 JUMP JUMPDEST PUSH2 0x1E37 DUP3 PUSH2 0xB1F PUSH1 0x7 DUP7 DUP2 SLOAD DUP2 LT PUSH2 0xAFC JUMPI INVALID JUMPDEST PUSH1 0x9 DUP2 SWAP1 SSTORE POP DUP2 PUSH1 0x7 DUP5 DUP2 SLOAD DUP2 LT PUSH2 0x1E4B JUMPI INVALID JUMPDEST SWAP1 PUSH1 0x0 MSTORE PUSH1 0x20 PUSH1 0x0 KECCAK256 SWAP1 PUSH1 0x7 MUL ADD PUSH1 0x1 ADD DUP2 SWAP1 SSTORE POP POP POP POP JUMP JUMPDEST PUSH1 0x4 SLOAD PUSH1 0x1 PUSH1 0x1 PUSH1 0xA0 SHL SUB AND CALLER EQ PUSH2 0x1EC4 JUMPI PUSH1 0x40 DUP1 MLOAD PUSH3 0x461BCD PUSH1 0xE5 SHL DUP2 MSTORE PUSH1 0x20 PUSH1 0x4 DUP3 ADD MSTORE PUSH1 0x18 PUSH1 0x24 DUP3 ADD MSTORE PUSH32 0x736574446576416464726573733A20464F5242494444454E0000000000000000 PUSH1 0x44 DUP3 ADD MSTORE SWAP1 MLOAD SWAP1 DUP2 SWAP1 SUB PUSH1 0x64 ADD SWAP1 REVERT JUMPDEST PUSH1 0x1 PUSH1 0x1 PUSH1 0xA0 SHL SUB DUP2 AND PUSH2 0x1F15 JUMPI PUSH1 0x40 DUP1 MLOAD PUSH3 0x461BCD PUSH1 0xE5 SHL DUP2 MSTORE PUSH1 0x20 PUSH1 0x4 DUP3 ADD MSTORE PUSH1 0x13 PUSH1 0x24 DUP3 ADD MSTORE PUSH19 0x736574446576416464726573733A205A45524F PUSH1 0x68 SHL PUSH1 0x44 DUP3 ADD MSTORE SWAP1 MLOAD SWAP1 DUP2 SWAP1 SUB PUSH1 0x64 ADD SWAP1 REVERT JUMPDEST PUSH1 0x4 DUP1 SLOAD PUSH1 0x1 PUSH1 0x1 PUSH1 0xA0 SHL SUB NOT AND PUSH1 0x1 PUSH1 0x1 PUSH1 0xA0 SHL SUB SWAP3 SWAP1 SWAP3 AND SWAP2 SWAP1 SWAP2 OR SWAP1 SSTORE JUMP JUMPDEST PUSH1 0xD SLOAD PUSH1 0x1 PUSH1 0xA0 SHL SWAP1 DIV PUSH2 0xFFFF AND DUP2 JUMP JUMPDEST PUSH1 0xD SLOAD PUSH1 0x1 PUSH1 0x1 PUSH1 0xA0 SHL SUB AND DUP2 JUMP JUMPDEST PUSH3 0x127500 DUP2 JUMP JUMPDEST PUSH2 0x1F66 PUSH2 0x21D7 JUMP JUMPDEST PUSH1 0x1 PUSH1 0x1 PUSH1 0xA0 SHL SUB AND PUSH2 0x1F77 PUSH2 0x157F JUMP JUMPDEST PUSH1 0x1 PUSH1 0x1 PUSH1 0xA0 SHL SUB AND EQ PUSH2 0x1FC0 JUMPI PUSH1 0x40 DUP1 MLOAD PUSH3 0x461BCD PUSH1 0xE5 SHL DUP2 MSTORE PUSH1 0x20 PUSH1 0x4 DUP3 ADD DUP2 SWAP1 MSTORE PUSH1 0x24 DUP3 ADD MSTORE PUSH1 0x0 DUP1 MLOAD PUSH1 0x20 PUSH2 0x2B15 DUP4 CODECOPY DUP2 MLOAD SWAP2 MSTORE PUSH1 0x44 DUP3 ADD MSTORE SWAP1 MLOAD SWAP1 DUP2 SWAP1 SUB PUSH1 0x64 ADD SWAP1 REVERT JUMPDEST PUSH1 0x1 PUSH1 0x1 PUSH1 0xA0 SHL SUB DUP2 AND PUSH2 0x2005 JUMPI PUSH1 0x40 MLOAD PUSH3 0x461BCD PUSH1 0xE5 SHL DUP2 MSTORE PUSH1 0x4 ADD DUP1 DUP1 PUSH1 0x20 ADD DUP3 DUP2 SUB DUP3 MSTORE PUSH1 0x26 DUP2 MSTORE PUSH1 0x20 ADD DUP1 PUSH2 0x2A42 PUSH1 0x26 SWAP2 CODECOPY PUSH1 0x40 ADD SWAP2 POP POP PUSH1 0x40 MLOAD DUP1 SWAP2 SUB SWAP1 REVERT JUMPDEST PUSH1 0x0 DUP1 SLOAD PUSH1 0x40 MLOAD PUSH1 0x1 PUSH1 0x1 PUSH1 0xA0 SHL SUB DUP1 DUP6 AND SWAP4 SWAP3 AND SWAP2 PUSH32 0x8BE0079C531659141344CD1FD0A4F28419497F9722A3DAAFE3B4186F6B6457E0 SWAP2 LOG3 PUSH1 0x0 DUP1 SLOAD PUSH1 0x1 PUSH1 0x1 PUSH1 0xA0 SHL SUB NOT AND PUSH1 0x1 PUSH1 0x1 PUSH1 0xA0 SHL SUB SWAP3 SWAP1 SWAP3 AND SWAP2 SWAP1 SWAP2 OR SWAP1 SSTORE JUMP JUMPDEST PUSH1 0x0 DUP3 PUSH2 0x206F JUMPI POP PUSH1 0x0 PUSH2 0x8DB JUMP JUMPDEST DUP3 DUP3 MUL DUP3 DUP5 DUP3 DUP2 PUSH2 0x207C JUMPI INVALID JUMPDEST DIV EQ PUSH2 0x159F JUMPI PUSH1 0x40 MLOAD PUSH3 0x461BCD PUSH1 0xE5 SHL DUP2 MSTORE PUSH1 0x4 ADD DUP1 DUP1 PUSH1 0x20 ADD DUP3 DUP2 SUB DUP3 MSTORE PUSH1 0x21 DUP2 MSTORE PUSH1 0x20 ADD DUP1 PUSH2 0x2AB8 PUSH1 0x21 SWAP2 CODECOPY PUSH1 0x40 ADD SWAP2 POP POP PUSH1 0x40 MLOAD DUP1 SWAP2 SUB SWAP1 REVERT JUMPDEST PUSH1 0x0 DUP1 DUP3 GT PUSH2 0x210F JUMPI PUSH1 0x40 DUP1 MLOAD PUSH3 0x461BCD PUSH1 0xE5 SHL DUP2 MSTORE PUSH1 0x20 PUSH1 0x4 DUP3 ADD MSTORE PUSH1 0x1A PUSH1 0x24 DUP3 ADD MSTORE PUSH32 0x536166654D6174683A206469766973696F6E206279207A65726F000000000000 PUSH1 0x44 DUP3 ADD MSTORE SWAP1 MLOAD SWAP1 DUP2 SWAP1 SUB PUSH1 0x64 ADD SWAP1 REVERT JUMPDEST DUP2 DUP4 DUP2 PUSH2 0x2118 JUMPI INVALID JUMPDEST DIV SWAP4 SWAP3 POP POP POP JUMP JUMPDEST PUSH1 0x0 DUP3 DUP3 ADD DUP4 DUP2 LT ISZERO PUSH2 0x159F JUMPI PUSH1 0x40 DUP1 MLOAD PUSH3 0x461BCD PUSH1 0xE5 SHL DUP2 MSTORE PUSH1 0x20 PUSH1 0x4 DUP3 ADD MSTORE PUSH1 0x1B PUSH1 0x24 DUP3 ADD MSTORE PUSH32 0x536166654D6174683A206164646974696F6E206F766572666C6F770000000000 PUSH1 0x44 DUP3 ADD MSTORE SWAP1 MLOAD SWAP1 DUP2 SWAP1 SUB PUSH1 0x64 ADD SWAP1 REVERT JUMPDEST PUSH1 0x0 DUP3 DUP3 GT ISZERO PUSH2 0x21D1 JUMPI PUSH1 0x40 DUP1 MLOAD PUSH3 0x461BCD PUSH1 0xE5 SHL DUP2 MSTORE PUSH1 0x20 PUSH1 0x4 DUP3 ADD MSTORE PUSH1 0x1E PUSH1 0x24 DUP3 ADD MSTORE PUSH32 0x536166654D6174683A207375627472616374696F6E206F766572666C6F770000 PUSH1 0x44 DUP3 ADD MSTORE SWAP1 MLOAD SWAP1 DUP2 SWAP1 SUB PUSH1 0x64 ADD SWAP1 REVERT JUMPDEST POP SWAP1 SUB SWAP1 JUMP JUMPDEST CALLER SWAP1 JUMP JUMPDEST PUSH1 0x0 PUSH1 0x7 DUP3 DUP2 SLOAD DUP2 LT PUSH2 0x21EA JUMPI INVALID JUMPDEST PUSH1 0x0 SWAP2 DUP3 MSTORE PUSH1 0x20 DUP1 DUP4 KECCAK256 DUP6 DUP5 MSTORE PUSH1 0x8 DUP3 MSTORE PUSH1 0x40 DUP1 DUP6 KECCAK256 CALLER DUP7 MSTORE SWAP1 SWAP3 MSTORE SWAP3 KECCAK256 PUSH1 0x3 DUP2 ADD SLOAD PUSH1 0x7 SWAP1 SWAP3 MUL SWAP1 SWAP3 ADD SWAP3 POP ISZERO DUP1 ISZERO PUSH2 0x2226 JUMPI POP PUSH1 0xA SLOAD NUMBER LT ISZERO JUMPDEST ISZERO PUSH2 0x2241 JUMPI PUSH1 0x5 DUP3 ADD SLOAD PUSH2 0x223B SWAP1 TIMESTAMP SWAP1 PUSH2 0x2120 JUMP JUMPDEST PUSH1 0x3 DUP3 ADD SSTORE JUMPDEST PUSH1 0x0 PUSH2 0x226F DUP3 PUSH1 0x1 ADD SLOAD PUSH2 0x8B4 PUSH5 0xE8D4A51000 PUSH2 0x860 DUP8 PUSH1 0x3 ADD SLOAD DUP8 PUSH1 0x0 ADD SLOAD PUSH2 0x2060 SWAP1 SWAP2 SWAP1 PUSH4 0xFFFFFFFF AND JUMP JUMPDEST SWAP1 POP PUSH2 0x227B DUP5 CALLER PUSH2 0xCB7 JUMP JUMPDEST ISZERO PUSH2 0x2306 JUMPI PUSH1 0x0 DUP2 GT DUP1 PUSH2 0x2293 JUMPI POP PUSH1 0x0 DUP3 PUSH1 0x2 ADD SLOAD GT JUMPDEST ISZERO PUSH2 0x2301 JUMPI PUSH1 0x0 PUSH2 0x22B1 DUP4 PUSH1 0x2 ADD SLOAD DUP4 PUSH2 0x2120 SWAP1 SWAP2 SWAP1 PUSH4 0xFFFFFFFF AND JUMP JUMPDEST SWAP1 POP PUSH2 0x22CC DUP4 PUSH1 0x2 ADD SLOAD PUSH1 0xB SLOAD PUSH2 0x217A SWAP1 SWAP2 SWAP1 PUSH4 0xFFFFFFFF AND JUMP JUMPDEST PUSH1 0xB SSTORE PUSH1 0x0 PUSH1 0x2 DUP5 ADD SSTORE PUSH1 0x5 DUP5 ADD SLOAD PUSH2 0x22E6 SWAP1 TIMESTAMP SWAP1 PUSH2 0x2120 JUMP JUMPDEST PUSH1 0x3 DUP5 ADD SSTORE PUSH2 0x22F5 CALLER DUP3 PUSH2 0x23C4 JUMP JUMPDEST PUSH2 0x22FF CALLER DUP3 PUSH2 0x2613 JUMP JUMPDEST POP JUMPDEST PUSH2 0x1017 JUMP JUMPDEST DUP1 ISZERO PUSH2 0x1017 JUMPI PUSH1 0x2 DUP3 ADD SLOAD PUSH2 0x231B SWAP1 DUP3 PUSH2 0x2120 JUMP JUMPDEST PUSH1 0x2 DUP4 ADD SSTORE PUSH1 0xB SLOAD PUSH2 0x232D SWAP1 DUP3 PUSH2 0x2120 JUMP JUMPDEST PUSH1 0xB SSTORE PUSH1 0x40 DUP1 MLOAD DUP3 DUP2 MSTORE SWAP1 MLOAD DUP6 SWAP2 CALLER SWAP2 PUSH32 0xEE470483107F579A55C754FA00613C45A9A3B617A418B39CB0BE97E5381BA7C1 SWAP2 DUP2 SWAP1 SUB PUSH1 0x20 ADD SWAP1 LOG3 POP POP POP POP JUMP JUMPDEST PUSH1 0x40 DUP1 MLOAD PUSH1 0x1 PUSH1 0x1 PUSH1 0xA0 SHL SUB DUP5 AND PUSH1 0x24 DUP3 ADD MSTORE PUSH1 0x44 DUP1 DUP3 ADD DUP5 SWAP1 MSTORE DUP3 MLOAD DUP1 DUP4 SUB SWAP1 SWAP2 ADD DUP2 MSTORE PUSH1 0x64 SWAP1 SWAP2 ADD SWAP1 SWAP2 MSTORE PUSH1 0x20 DUP2 ADD DUP1 MLOAD PUSH1 0x1 PUSH1 0x1 PUSH1 0xE0 SHL SUB AND PUSH4 0xA9059CBB PUSH1 0xE0 SHL OR SWAP1 MSTORE PUSH2 0x23BF SWAP1 DUP5 SWAP1 PUSH2 0x27C0 JUMP JUMPDEST POP POP POP JUMP JUMPDEST PUSH1 0xC SLOAD PUSH1 0x2 SLOAD PUSH1 0x40 DUP1 MLOAD PUSH4 0x70A08231 PUSH1 0xE0 SHL DUP2 MSTORE ADDRESS PUSH1 0x4 DUP3 ADD MSTORE SWAP1 MLOAD PUSH1 0x1 PUSH1 0x1 PUSH1 0xA0 SHL SUB SWAP1 SWAP3 AND SWAP2 PUSH4 0x70A08231 SWAP2 PUSH1 0x24 DUP1 DUP3 ADD SWAP3 PUSH1 0x20 SWAP3 SWAP1 SWAP2 SWAP1 DUP3 SWAP1 SUB ADD DUP2 DUP7 DUP1 EXTCODESIZE ISZERO DUP1 ISZERO PUSH2 0x2412 JUMPI PUSH1 0x0 DUP1 REVERT JUMPDEST POP GAS STATICCALL ISZERO DUP1 ISZERO PUSH2 0x2426 JUMPI RETURNDATASIZE PUSH1 0x0 DUP1 RETURNDATACOPY RETURNDATASIZE PUSH1 0x0 REVERT JUMPDEST POP POP POP POP PUSH1 0x40 MLOAD RETURNDATASIZE PUSH1 0x20 DUP2 LT ISZERO PUSH2 0x243C JUMPI PUSH1 0x0 DUP1 REVERT JUMPDEST POP MLOAD GT ISZERO PUSH2 0x136A JUMPI PUSH1 0xC SLOAD PUSH1 0x2 SLOAD PUSH1 0x40 DUP1 MLOAD PUSH4 0x70A08231 PUSH1 0xE0 SHL DUP2 MSTORE ADDRESS PUSH1 0x4 DUP3 ADD MSTORE SWAP1 MLOAD PUSH1 0x0 SWAP4 PUSH2 0x249B SWAP4 SWAP1 SWAP3 PUSH1 0x1 PUSH1 0x1 PUSH1 0xA0 SHL SUB SWAP1 SWAP2 AND SWAP2 PUSH4 0x70A08231 SWAP2 PUSH1 0x24 DUP1 DUP3 ADD SWAP3 PUSH1 0x20 SWAP3 SWAP1 SWAP2 SWAP1 DUP3 SWAP1 SUB ADD DUP2 DUP7 DUP1 EXTCODESIZE ISZERO DUP1 ISZERO PUSH2 0x1471 JUMPI PUSH1 0x0 DUP1 REVERT JUMPDEST SWAP1 POP DUP1 DUP3 LT PUSH2 0x252C JUMPI PUSH1 0x2 SLOAD PUSH1 0x40 DUP1 MLOAD PUSH4 0xA9059CBB PUSH1 0xE0 SHL DUP2 MSTORE PUSH1 0x1 PUSH1 0x1 PUSH1 0xA0 SHL SUB DUP7 DUP2 AND PUSH1 0x4 DUP4 ADD MSTORE PUSH1 0x24 DUP3 ADD DUP6 SWAP1 MSTORE SWAP2 MLOAD SWAP2 SWAP1 SWAP3 AND SWAP2 PUSH4 0xA9059CBB SWAP2 PUSH1 0x44 DUP1 DUP4 ADD SWAP3 PUSH1 0x20 SWAP3 SWAP2 SWAP1 DUP3 SWAP1 SUB ADD DUP2 PUSH1 0x0 DUP8 DUP1 EXTCODESIZE ISZERO DUP1 ISZERO PUSH2 0x24FA JUMPI PUSH1 0x0 DUP1 REVERT JUMPDEST POP GAS CALL ISZERO DUP1 ISZERO PUSH2 0x250E JUMPI RETURNDATASIZE PUSH1 0x0 DUP1 RETURNDATACOPY RETURNDATASIZE PUSH1 0x0 REVERT JUMPDEST POP POP POP POP PUSH1 0x40 MLOAD RETURNDATASIZE PUSH1 0x20 DUP2 LT ISZERO PUSH2 0x2524 JUMPI PUSH1 0x0 DUP1 REVERT JUMPDEST POP PUSH2 0x23BF SWAP1 POP JUMP JUMPDEST DUP2 ISZERO PUSH2 0x23BF JUMPI PUSH1 0x2 SLOAD PUSH1 0x40 DUP1 MLOAD PUSH4 0xA9059CBB PUSH1 0xE0 SHL DUP2 MSTORE PUSH1 0x1 PUSH1 0x1 PUSH1 0xA0 SHL SUB DUP7 DUP2 AND PUSH1 0x4 DUP4 ADD MSTORE PUSH1 0x24 DUP3 ADD DUP7 SWAP1 MSTORE SWAP2 MLOAD SWAP2 SWAP1 SWAP3 AND SWAP2 PUSH4 0xA9059CBB SWAP2 PUSH1 0x44 DUP1 DUP4 ADD SWAP3 PUSH1 0x20 SWAP3 SWAP2 SWAP1 DUP3 SWAP1 SUB ADD DUP2 PUSH1 0x0 DUP8 DUP1 EXTCODESIZE ISZERO DUP1 ISZERO PUSH2 0x2588 JUMPI PUSH1 0x0 DUP1 REVERT JUMPDEST POP GAS CALL ISZERO DUP1 ISZERO PUSH2 0x259C JUMPI RETURNDATASIZE PUSH1 0x0 DUP1 RETURNDATACOPY RETURNDATASIZE PUSH1 0x0 REVERT JUMPDEST POP POP POP POP PUSH1 0x40 MLOAD RETURNDATASIZE PUSH1 0x20 DUP2 LT ISZERO PUSH2 0x25B2 JUMPI PUSH1 0x0 DUP1 REVERT JUMPDEST POP POP POP POP POP JUMP JUMPDEST PUSH1 0x40 DUP1 MLOAD PUSH1 0x1 PUSH1 0x1 PUSH1 0xA0 SHL SUB DUP1 DUP7 AND PUSH1 0x24 DUP4 ADD MSTORE DUP5 AND PUSH1 0x44 DUP3 ADD MSTORE PUSH1 0x64 DUP1 DUP3 ADD DUP5 SWAP1 MSTORE DUP3 MLOAD DUP1 DUP4 SUB SWAP1 SWAP2 ADD DUP2 MSTORE PUSH1 0x84 SWAP1 SWAP2 ADD SWAP1 SWAP2 MSTORE PUSH1 0x20 DUP2 ADD DUP1 MLOAD PUSH1 0x1 PUSH1 0x1 PUSH1 0xE0 SHL SUB AND PUSH4 0x23B872DD PUSH1 0xE0 SHL OR SWAP1 MSTORE PUSH2 0x1017 SWAP1 DUP6 SWAP1 PUSH2 0x27C0 JUMP JUMPDEST PUSH1 0xD SLOAD PUSH1 0x1 PUSH1 0x1 PUSH1 0xA0 SHL SUB AND ISZERO DUP1 ISZERO SWAP1 PUSH2 0x2639 JUMPI POP PUSH1 0xD SLOAD PUSH1 0x1 PUSH1 0xA0 SHL SWAP1 DIV PUSH2 0xFFFF AND ISZERO ISZERO JUMPDEST ISZERO PUSH2 0x136A JUMPI PUSH1 0xD SLOAD PUSH1 0x40 DUP1 MLOAD PUSH4 0x4A9FEFC7 PUSH1 0xE0 SHL DUP2 MSTORE PUSH1 0x1 PUSH1 0x1 PUSH1 0xA0 SHL SUB DUP6 DUP2 AND PUSH1 0x4 DUP4 ADD MSTORE SWAP2 MLOAD PUSH1 0x0 SWAP4 SWAP3 SWAP1 SWAP3 AND SWAP2 PUSH4 0x4A9FEFC7 SWAP2 PUSH1 0x24 DUP1 DUP3 ADD SWAP3 PUSH1 0x20 SWAP3 SWAP1 SWAP2 SWAP1 DUP3 SWAP1 SUB ADD DUP2 DUP7 DUP1 EXTCODESIZE ISZERO DUP1 ISZERO PUSH2 0x268F JUMPI PUSH1 0x0 DUP1 REVERT JUMPDEST POP GAS STATICCALL ISZERO DUP1 ISZERO PUSH2 0x26A3 JUMPI RETURNDATASIZE PUSH1 0x0 DUP1 RETURNDATACOPY RETURNDATASIZE PUSH1 0x0 REVERT JUMPDEST POP POP POP POP PUSH1 0x40 MLOAD RETURNDATASIZE PUSH1 0x20 DUP2 LT ISZERO PUSH2 0x26B9 JUMPI PUSH1 0x0 DUP1 REVERT JUMPDEST POP MLOAD PUSH1 0xD SLOAD SWAP1 SWAP2 POP PUSH1 0x0 SWAP1 PUSH2 0x26E2 SWAP1 PUSH2 0x2710 SWAP1 PUSH2 0x860 SWAP1 DUP7 SWAP1 PUSH1 0x1 PUSH1 0xA0 SHL SWAP1 DIV PUSH2 0xFFFF AND PUSH2 0x2060 JUMP JUMPDEST SWAP1 POP PUSH1 0x1 PUSH1 0x1 PUSH1 0xA0 SHL SUB DUP3 AND ISZERO DUP1 ISZERO SWAP1 PUSH2 0x26FC JUMPI POP PUSH1 0x0 DUP2 GT JUMPDEST ISZERO PUSH2 0x1017 JUMPI PUSH2 0x270B DUP3 DUP3 PUSH2 0x23C4 JUMP JUMPDEST PUSH1 0xD SLOAD PUSH1 0x40 DUP1 MLOAD PUSH4 0x1B82D297 PUSH1 0xE3 SHL DUP2 MSTORE PUSH1 0x1 PUSH1 0x1 PUSH1 0xA0 SHL SUB DUP6 DUP2 AND PUSH1 0x4 DUP4 ADD MSTORE PUSH1 0x24 DUP3 ADD DUP6 SWAP1 MSTORE SWAP2 MLOAD SWAP2 SWAP1 SWAP3 AND SWAP2 PUSH4 0xDC1694B8 SWAP2 PUSH1 0x44 DUP1 DUP4 ADD SWAP3 PUSH1 0x0 SWAP3 SWAP2 SWAP1 DUP3 SWAP1 SUB ADD DUP2 DUP4 DUP8 DUP1 EXTCODESIZE ISZERO DUP1 ISZERO PUSH2 0x2760 JUMPI PUSH1 0x0 DUP1 REVERT JUMPDEST POP GAS CALL ISZERO DUP1 ISZERO PUSH2 0x2774 JUMPI RETURNDATASIZE PUSH1 0x0 DUP1 RETURNDATACOPY RETURNDATASIZE PUSH1 0x0 REVERT JUMPDEST POP POP PUSH1 0x40 DUP1 MLOAD DUP5 DUP2 MSTORE SWAP1 MLOAD PUSH1 0x1 PUSH1 0x1 PUSH1 0xA0 SHL SUB DUP1 DUP8 AND SWAP5 POP DUP9 AND SWAP3 POP PUSH32 0x86DDAB457291316E0F5496737E5CA67C4037234C32C3BE04C48AE96186893A7B SWAP2 DUP2 SWAP1 SUB PUSH1 0x20 ADD SWAP1 LOG3 POP POP POP POP JUMP JUMPDEST PUSH1 0x60 PUSH2 0x2815 DUP3 PUSH1 0x40 MLOAD DUP1 PUSH1 0x40 ADD PUSH1 0x40 MSTORE DUP1 PUSH1 0x20 DUP2 MSTORE PUSH1 0x20 ADD PUSH32 0x5361666545524332303A206C6F772D6C6576656C2063616C6C206661696C6564 DUP2 MSTORE POP DUP6 PUSH1 0x1 PUSH1 0x1 PUSH1 0xA0 SHL SUB AND PUSH2 0x2871 SWAP1 SWAP3 SWAP2 SWAP1 PUSH4 0xFFFFFFFF AND JUMP JUMPDEST DUP1 MLOAD SWAP1 SWAP2 POP ISZERO PUSH2 0x23BF JUMPI DUP1 DUP1 PUSH1 0x20 ADD SWAP1 MLOAD PUSH1 0x20 DUP2 LT ISZERO PUSH2 0x2834 JUMPI PUSH1 0x0 DUP1 REVERT JUMPDEST POP MLOAD PUSH2 0x23BF JUMPI PUSH1 0x40 MLOAD PUSH3 0x461BCD PUSH1 0xE5 SHL DUP2 MSTORE PUSH1 0x4 ADD DUP1 DUP1 PUSH1 0x20 ADD DUP3 DUP2 SUB DUP3 MSTORE PUSH1 0x2A DUP2 MSTORE PUSH1 0x20 ADD DUP1 PUSH2 0x2B92 PUSH1 0x2A SWAP2 CODECOPY PUSH1 0x40 ADD SWAP2 POP POP PUSH1 0x40 MLOAD DUP1 SWAP2 SUB SWAP1 REVERT JUMPDEST PUSH1 0x60 PUSH2 0xCEF DUP5 DUP5 PUSH1 0x0 DUP6 DUP6 PUSH2 0x2885 DUP6 PUSH2 0x2997 JUMP JUMPDEST PUSH2 0x28D6 JUMPI PUSH1 0x40 DUP1 MLOAD PUSH3 0x461BCD PUSH1 0xE5 SHL DUP2 MSTORE PUSH1 0x20 PUSH1 0x4 DUP3 ADD MSTORE PUSH1 0x1D PUSH1 0x24 DUP3 ADD MSTORE PUSH32 0x416464726573733A2063616C6C20746F206E6F6E2D636F6E7472616374000000 PUSH1 0x44 DUP3 ADD MSTORE SWAP1 MLOAD SWAP1 DUP2 SWAP1 SUB PUSH1 0x64 ADD SWAP1 REVERT JUMPDEST PUSH1 0x0 PUSH1 0x60 DUP7 PUSH1 0x1 PUSH1 0x1 PUSH1 0xA0 SHL SUB AND DUP6 DUP8 PUSH1 0x40 MLOAD DUP1 DUP3 DUP1 MLOAD SWAP1 PUSH1 0x20 ADD SWAP1 DUP1 DUP4 DUP4 JUMPDEST PUSH1 0x20 DUP4 LT PUSH2 0x2915 JUMPI DUP1 MLOAD DUP3 MSTORE PUSH1 0x1F NOT SWAP1 SWAP3 ADD SWAP2 PUSH1 0x20 SWAP2 DUP3 ADD SWAP2 ADD PUSH2 0x28F6 JUMP JUMPDEST PUSH1 0x1 DUP4 PUSH1 0x20 SUB PUSH2 0x100 EXP SUB DUP1 NOT DUP3 MLOAD AND DUP2 DUP5 MLOAD AND DUP1 DUP3 OR DUP6 MSTORE POP POP POP POP POP POP SWAP1 POP ADD SWAP2 POP POP PUSH1 0x0 PUSH1 0x40 MLOAD DUP1 DUP4 SUB DUP2 DUP6 DUP8 GAS CALL SWAP3 POP POP POP RETURNDATASIZE DUP1 PUSH1 0x0 DUP2 EQ PUSH2 0x2977 JUMPI PUSH1 0x40 MLOAD SWAP2 POP PUSH1 0x1F NOT PUSH1 0x3F RETURNDATASIZE ADD AND DUP3 ADD PUSH1 0x40 MSTORE RETURNDATASIZE DUP3 MSTORE RETURNDATASIZE PUSH1 0x0 PUSH1 0x20 DUP5 ADD RETURNDATACOPY PUSH2 0x297C JUMP JUMPDEST PUSH1 0x60 SWAP2 POP JUMPDEST POP SWAP2 POP SWAP2 POP PUSH2 0x298C DUP3 DUP3 DUP7 PUSH2 0x299D JUMP JUMPDEST SWAP8 SWAP7 POP POP POP POP POP POP POP JUMP JUMPDEST EXTCODESIZE ISZERO ISZERO SWAP1 JUMP JUMPDEST PUSH1 0x60 DUP4 ISZERO PUSH2 0x29AC JUMPI POP DUP2 PUSH2 0x159F JUMP JUMPDEST DUP3 MLOAD ISZERO PUSH2 0x29BC JUMPI DUP3 MLOAD DUP1 DUP5 PUSH1 0x20 ADD REVERT JUMPDEST DUP2 PUSH1 0x40 MLOAD PUSH3 0x461BCD PUSH1 0xE5 SHL DUP2 MSTORE PUSH1 0x4 ADD DUP1 DUP1 PUSH1 0x20 ADD DUP3 DUP2 SUB DUP3 MSTORE DUP4 DUP2 DUP2 MLOAD DUP2 MSTORE PUSH1 0x20 ADD SWAP2 POP DUP1 MLOAD SWAP1 PUSH1 0x20 ADD SWAP1 DUP1 DUP4 DUP4 PUSH1 0x0 JUMPDEST DUP4 DUP2 LT ISZERO PUSH2 0x2A06 JUMPI DUP2 DUP2 ADD MLOAD DUP4 DUP3 ADD MSTORE PUSH1 0x20 ADD PUSH2 0x29EE JUMP JUMPDEST POP POP POP POP SWAP1 POP SWAP1 DUP2 ADD SWAP1 PUSH1 0x1F AND DUP1 ISZERO PUSH2 0x2A33 JUMPI DUP1 DUP3 SUB DUP1 MLOAD PUSH1 0x1 DUP4 PUSH1 0x20 SUB PUSH2 0x100 EXP SUB NOT AND DUP2 MSTORE PUSH1 0x20 ADD SWAP2 POP JUMPDEST POP SWAP3 POP POP POP PUSH1 0x40 MLOAD DUP1 SWAP2 SUB SWAP1 REVERT INVALID 0x4F PUSH24 0x6E61626C653A206E6577206F776E65722069732074686520 PUSH27 0x65726F206164647265737357697468647261773A20506F6F6C2074 PUSH16 0x74616C204C50206E6F7420656E6F7567 PUSH9 0x4D6173746572436865 PUSH7 0x3A3A2043616E20 PUSH15 0x6F74206465706F736974206265666F PUSH19 0x65206661726D207374617274536166654D6174 PUSH9 0x3A206D756C7469706C PUSH10 0x636174696F6E206F7665 PUSH19 0x666C6F77736574526566657272616C436F6D6D PUSH10 0x7373696F6E526174653A KECCAK256 PUSH19 0x6566657272616C20636F6D6D697373696F6E20 PUSH19 0x61746520746F6F20686967684F776E61626C65 GASPRICE KECCAK256 PUSH4 0x616C6C65 PUSH19 0x206973206E6F7420746865206F776E6572456D PUSH6 0x7267656E6379 JUMPI PUSH10 0x7468647261773A20506F PUSH16 0x6C20746F74616C204C50206E6F742065 PUSH15 0x6F7567685472616E736665724F7065 PUSH19 0x61746F723A206E6577206F70657261746F7220 PUSH10 0x7320746865207A65726F KECCAK256 PUSH2 0x6464 PUSH19 0x6573735361666545524332303A204552433230 KECCAK256 PUSH16 0x7065726174696F6E20646964206E6F74 KECCAK256 PUSH20 0x7563636565644F70657261746F723A2063616C6C PUSH6 0x72206973206E PUSH16 0x7420746865206F70657261746F72A264 PUSH10 0x70667358221220712F54 0xA9 OR 0xAF 0xB4 0x2B SWAP10 DUP12 0x27 0xE9 MLOAD DUP8 COINBASE DUP7 0x22 KECCAK256 0xE LOG1 0xF9 DUP6 SWAP3 0x4E BALANCE PUSH3 0xD16159 PUSH15 0xF7B464736F6C634300060C00330000 "
		},
		"gasEstimates": {
			"creation": {
				"codeDepositCost": "2257000",
				"executionCost": "infinite",
				"totalCost": "infinite"
			},
			"external": {
				"BONUS_MULTIPLIER()": "287",
				"MAXIMUM_DEPOSIT_FEE_RATE()": "252",
				"MAXIMUM_HARVEST_INTERVAL()": "330",
				"MAXIMUM_REFERRAL_COMMISSION_RATE()": "274",
				"MAX_STAR_PER_BLOCK()": "310",
				"add(uint256,address,uint16,uint256,bool)": "infinite",
				"canHarvest(uint256,address)": "2164",
				"deposit(uint256,uint256,address)": "infinite",
				"devAddress()": "1127",
				"emergencyWithdraw(uint256)": "infinite",
				"feeAddress()": "1149",
				"getMultiplier(uint256,uint256)": "infinite",
				"massUpdatePools()": "infinite",
				"operator()": "1105",
				"owner()": "1148",
				"pendingStar(uint256,address)": "infinite",
				"poolInfo(uint256)": "7138",
				"poolLength()": "1067",
				"referralCommissionRate()": "1118",
				"remainRewards()": "infinite",
				"renounceOwnership()": "infinite",
				"set(uint256,uint256,uint16,uint256,bool)": "infinite",
				"setDevAddress(address)": "22014",
				"setFeeAddress(address)": "22015",
				"setReferralCommissionRate(uint16)": "infinite",
				"setStarReferral(address)": "infinite",
				"star()": "1083",
				"starPerBlock()": "1045",
				"starReferral()": "1147",
				"startBlock()": "1087",
				"startFarming()": "infinite",
				"totalAllocPoint()": "1044",
				"totalLockedUpRewards()": "1043",
				"totalStarInPools()": "1087",
				"transferOperator(address)": "infinite",
				"transferOwnership(address)": "infinite",
				"updateAllocPoint(uint256,uint256,bool)": "infinite",
				"updateEmissionRate(uint256)": "infinite",
				"updatePool(uint256)": "infinite",
				"userInfo(uint256,address)": "3786",
				"withdraw(uint256,uint256)": "infinite"
			},
			"internal": {
				"payOrLockupPendingStar(uint256)": "infinite",
				"payReferralCommission(address,uint256)": "infinite",
				"safeStarTransfer(address,uint256)": "infinite"
			}
		},
		"methodIdentifiers": {
			"BONUS_MULTIPLIER()": "8aa28550",
			"MAXIMUM_DEPOSIT_FEE_RATE()": "812c64f1",
			"MAXIMUM_HARVEST_INTERVAL()": "de73149d",
			"MAXIMUM_REFERRAL_COMMISSION_RATE()": "48b22bfb",
			"MAX_STAR_PER_BLOCK()": "274ce622",
			"add(uint256,address,uint16,uint256,bool)": "af018de8",
			"canHarvest(uint256,address)": "2e6c998d",
			"deposit(uint256,uint256,address)": "8dbdbe6d",
			"devAddress()": "3ad10ef6",
			"emergencyWithdraw(uint256)": "5312ea8e",
			"feeAddress()": "41275358",
			"getMultiplier(uint256,uint256)": "8dbb1e3a",
			"massUpdatePools()": "630b5ba1",
			"operator()": "570ca735",
			"owner()": "8da5cb5b",
			"pendingStar(uint256,address)": "12bdc1ca",
			"poolInfo(uint256)": "1526fe27",
			"poolLength()": "081e3eda",
			"referralCommissionRate()": "d30ef61b",
			"remainRewards()": "7f2e0ec2",
			"renounceOwnership()": "715018a6",
			"set(uint256,uint256,uint16,uint256,bool)": "2143e545",
			"setDevAddress(address)": "d0d41fe1",
			"setFeeAddress(address)": "8705fcd4",
			"setReferralCommissionRate(uint16)": "55dbc826",
			"setStarReferral(address)": "1bcc639c",
			"star()": "2c6dbb1c",
			"starPerBlock()": "00ed8206",
			"starReferral()": "d9c8e703",
			"startBlock()": "48cd4cb1",
			"startFarming()": "afbcfea1",
			"totalAllocPoint()": "17caf6f1",
			"totalLockedUpRewards()": "474fa630",
			"totalStarInPools()": "a13b04f8",
			"transferOperator(address)": "29605e77",
			"transferOwnership(address)": "f2fde38b",
			"updateAllocPoint(uint256,uint256,bool)": "bde4aeca",
			"updateEmissionRate(uint256)": "0ba84cd2",
			"updatePool(uint256)": "51eb05a6",
			"userInfo(uint256,address)": "93f1a40b",
			"withdraw(uint256,uint256)": "441a3e70"
		}
	},
	"abi": [
		{
			"inputs": [
				{
					"internalType": "contract StarToken",
					"name": "_star",
					"type": "address"
				},
				{
					"internalType": "uint256",
					"name": "_starPerBlock",
					"type": "uint256"
				}
			],
			"stateMutability": "nonpayable",
			"type": "constructor"
		},
		{
			"anonymous": false,
			"inputs": [
				{
					"indexed": true,
					"internalType": "address",
					"name": "user",
					"type": "address"
				},
				{
					"indexed": true,
					"internalType": "uint256",
					"name": "pid",
					"type": "uint256"
				},
				{
					"indexed": false,
					"internalType": "uint256",
					"name": "amount",
					"type": "uint256"
				}
			],
			"name": "Deposit",
			"type": "event"
		},
		{
			"anonymous": false,
			"inputs": [
				{
					"indexed": true,
					"internalType": "address",
					"name": "user",
					"type": "address"
				},
				{
					"indexed": true,
					"internalType": "uint256",
					"name": "pid",
					"type": "uint256"
				},
				{
					"indexed": false,
					"internalType": "uint256",
					"name": "amount",
					"type": "uint256"
				}
			],
			"name": "EmergencyWithdraw",
			"type": "event"
		},
		{
			"anonymous": false,
			"inputs": [
				{
					"indexed": true,
					"internalType": "address",
					"name": "caller",
					"type": "address"
				},
				{
					"indexed": false,
					"internalType": "uint256",
					"name": "previousAmount",
					"type": "uint256"
				},
				{
					"indexed": false,
					"internalType": "uint256",
					"name": "newAmount",
					"type": "uint256"
				}
			],
			"name": "EmissionRateUpdated",
			"type": "event"
		},
		{
			"anonymous": false,
			"inputs": [
				{
					"indexed": true,
					"internalType": "address",
					"name": "previousOperator",
					"type": "address"
				},
				{
					"indexed": true,
					"internalType": "address",
					"name": "newOperator",
					"type": "address"
				}
			],
			"name": "OperatorTransferred",
			"type": "event"
		},
		{
			"anonymous": false,
			"inputs": [
				{
					"indexed": true,
					"internalType": "address",
					"name": "previousOwner",
					"type": "address"
				},
				{
					"indexed": true,
					"internalType": "address",
					"name": "newOwner",
					"type": "address"
				}
			],
			"name": "OwnershipTransferred",
			"type": "event"
		},
		{
			"anonymous": false,
			"inputs": [
				{
					"indexed": true,
					"internalType": "address",
					"name": "user",
					"type": "address"
				},
				{
					"indexed": true,
					"internalType": "address",
					"name": "referrer",
					"type": "address"
				},
				{
					"indexed": false,
					"internalType": "uint256",
					"name": "commissionAmount",
					"type": "uint256"
				}
			],
			"name": "ReferralCommissionPaid",
			"type": "event"
		},
		{
			"anonymous": false,
			"inputs": [
				{
					"indexed": true,
					"internalType": "address",
					"name": "user",
					"type": "address"
				},
				{
					"indexed": true,
					"internalType": "uint256",
					"name": "pid",
					"type": "uint256"
				},
				{
					"indexed": false,
					"internalType": "uint256",
					"name": "amountLockedUp",
					"type": "uint256"
				}
			],
			"name": "RewardLockedUp",
			"type": "event"
		},
		{
			"anonymous": false,
			"inputs": [
				{
					"indexed": true,
					"internalType": "address",
					"name": "user",
					"type": "address"
				},
				{
					"indexed": true,
					"internalType": "uint256",
					"name": "pid",
					"type": "uint256"
				},
				{
					"indexed": false,
					"internalType": "uint256",
					"name": "amount",
					"type": "uint256"
				}
			],
			"name": "Withdraw",
			"type": "event"
		},
		{
			"inputs": [],
			"name": "BONUS_MULTIPLIER",
			"outputs": [
				{
					"internalType": "uint256",
					"name": "",
					"type": "uint256"
				}
			],
			"stateMutability": "view",
			"type": "function"
		},
		{
			"inputs": [],
			"name": "MAXIMUM_DEPOSIT_FEE_RATE",
			"outputs": [
				{
					"internalType": "uint16",
					"name": "",
					"type": "uint16"
				}
			],
			"stateMutability": "view",
			"type": "function"
		},
		{
			"inputs": [],
			"name": "MAXIMUM_HARVEST_INTERVAL",
			"outputs": [
				{
					"internalType": "uint256",
					"name": "",
					"type": "uint256"
				}
			],
			"stateMutability": "view",
			"type": "function"
		},
		{
			"inputs": [],
			"name": "MAXIMUM_REFERRAL_COMMISSION_RATE",
			"outputs": [
				{
					"internalType": "uint16",
					"name": "",
					"type": "uint16"
				}
			],
			"stateMutability": "view",
			"type": "function"
		},
		{
			"inputs": [],
			"name": "MAX_STAR_PER_BLOCK",
			"outputs": [
				{
					"internalType": "uint256",
					"name": "",
					"type": "uint256"
				}
			],
			"stateMutability": "view",
			"type": "function"
		},
		{
			"inputs": [
				{
					"internalType": "uint256",
					"name": "_allocPoint",
					"type": "uint256"
				},
				{
					"internalType": "contract IERC20",
					"name": "_lpToken",
					"type": "address"
				},
				{
					"internalType": "uint16",
					"name": "_depositFeeBP",
					"type": "uint16"
				},
				{
					"internalType": "uint256",
					"name": "_harvestInterval",
					"type": "uint256"
				},
				{
					"internalType": "bool",
					"name": "_withUpdate",
					"type": "bool"
				}
			],
			"name": "add",
			"outputs": [],
			"stateMutability": "nonpayable",
			"type": "function"
		},
		{
			"inputs": [
				{
					"internalType": "uint256",
					"name": "_pid",
					"type": "uint256"
				},
				{
					"internalType": "address",
					"name": "_user",
					"type": "address"
				}
			],
			"name": "canHarvest",
			"outputs": [
				{
					"internalType": "bool",
					"name": "",
					"type": "bool"
				}
			],
			"stateMutability": "view",
			"type": "function"
		},
		{
			"inputs": [
				{
					"internalType": "uint256",
					"name": "_pid",
					"type": "uint256"
				},
				{
					"internalType": "uint256",
					"name": "_amount",
					"type": "uint256"
				},
				{
					"internalType": "address",
					"name": "_referrer",
					"type": "address"
				}
			],
			"name": "deposit",
			"outputs": [],
			"stateMutability": "nonpayable",
			"type": "function"
		},
		{
			"inputs": [],
			"name": "devAddress",
			"outputs": [
				{
					"internalType": "address",
					"name": "",
					"type": "address"
				}
			],
			"stateMutability": "view",
			"type": "function"
		},
		{
			"inputs": [
				{
					"internalType": "uint256",
					"name": "_pid",
					"type": "uint256"
				}
			],
			"name": "emergencyWithdraw",
			"outputs": [],
			"stateMutability": "nonpayable",
			"type": "function"
		},
		{
			"inputs": [],
			"name": "feeAddress",
			"outputs": [
				{
					"internalType": "address",
					"name": "",
					"type": "address"
				}
			],
			"stateMutability": "view",
			"type": "function"
		},
		{
			"inputs": [
				{
					"internalType": "uint256",
					"name": "_from",
					"type": "uint256"
				},
				{
					"internalType": "uint256",
					"name": "_to",
					"type": "uint256"
				}
			],
			"name": "getMultiplier",
			"outputs": [
				{
					"internalType": "uint256",
					"name": "",
					"type": "uint256"
				}
			],
			"stateMutability": "pure",
			"type": "function"
		},
		{
			"inputs": [],
			"name": "massUpdatePools",
			"outputs": [],
			"stateMutability": "nonpayable",
			"type": "function"
		},
		{
			"inputs": [],
			"name": "operator",
			"outputs": [
				{
					"internalType": "address",
					"name": "",
					"type": "address"
				}
			],
			"stateMutability": "view",
			"type": "function"
		},
		{
			"inputs": [],
			"name": "owner",
			"outputs": [
				{
					"internalType": "address",
					"name": "",
					"type": "address"
				}
			],
			"stateMutability": "view",
			"type": "function"
		},
		{
			"inputs": [
				{
					"internalType": "uint256",
					"name": "_pid",
					"type": "uint256"
				},
				{
					"internalType": "address",
					"name": "_user",
					"type": "address"
				}
			],
			"name": "pendingStar",
			"outputs": [
				{
					"internalType": "uint256",
					"name": "",
					"type": "uint256"
				}
			],
			"stateMutability": "view",
			"type": "function"
		},
		{
			"inputs": [
				{
					"internalType": "uint256",
					"name": "",
					"type": "uint256"
				}
			],
			"name": "poolInfo",
			"outputs": [
				{
					"internalType": "contract IERC20",
					"name": "lpToken",
					"type": "address"
				},
				{
					"internalType": "uint256",
					"name": "allocPoint",
					"type": "uint256"
				},
				{
					"internalType": "uint256",
					"name": "lastRewardBlock",
					"type": "uint256"
				},
				{
					"internalType": "uint256",
					"name": "accStarPerShare",
					"type": "uint256"
				},
				{
					"internalType": "uint16",
					"name": "depositFeeBP",
					"type": "uint16"
				},
				{
					"internalType": "uint256",
					"name": "harvestInterval",
					"type": "uint256"
				},
				{
					"internalType": "uint256",
					"name": "totalLp",
					"type": "uint256"
				}
			],
			"stateMutability": "view",
			"type": "function"
		},
		{
			"inputs": [],
			"name": "poolLength",
			"outputs": [
				{
					"internalType": "uint256",
					"name": "",
					"type": "uint256"
				}
			],
			"stateMutability": "view",
			"type": "function"
		},
		{
			"inputs": [],
			"name": "referralCommissionRate",
			"outputs": [
				{
					"internalType": "uint16",
					"name": "",
					"type": "uint16"
				}
			],
			"stateMutability": "view",
			"type": "function"
		},
		{
			"inputs": [],
			"name": "remainRewards",
			"outputs": [
				{
					"internalType": "uint256",
					"name": "",
					"type": "uint256"
				}
			],
			"stateMutability": "view",
			"type": "function"
		},
		{
			"inputs": [],
			"name": "renounceOwnership",
			"outputs": [],
			"stateMutability": "nonpayable",
			"type": "function"
		},
		{
			"inputs": [
				{
					"internalType": "uint256",
					"name": "_pid",
					"type": "uint256"
				},
				{
					"internalType": "uint256",
					"name": "_allocPoint",
					"type": "uint256"
				},
				{
					"internalType": "uint16",
					"name": "_depositFeeBP",
					"type": "uint16"
				},
				{
					"internalType": "uint256",
					"name": "_harvestInterval",
					"type": "uint256"
				},
				{
					"internalType": "bool",
					"name": "_withUpdate",
					"type": "bool"
				}
			],
			"name": "set",
			"outputs": [],
			"stateMutability": "nonpayable",
			"type": "function"
		},
		{
			"inputs": [
				{
					"internalType": "address",
					"name": "_devAddress",
					"type": "address"
				}
			],
			"name": "setDevAddress",
			"outputs": [],
			"stateMutability": "nonpayable",
			"type": "function"
		},
		{
			"inputs": [
				{
					"internalType": "address",
					"name": "_feeAddress",
					"type": "address"
				}
			],
			"name": "setFeeAddress",
			"outputs": [],
			"stateMutability": "nonpayable",
			"type": "function"
		},
		{
			"inputs": [
				{
					"internalType": "uint16",
					"name": "_referralCommissionRate",
					"type": "uint16"
				}
			],
			"name": "setReferralCommissionRate",
			"outputs": [],
			"stateMutability": "nonpayable",
			"type": "function"
		},
		{
			"inputs": [
				{
					"internalType": "contract IStarReferral",
					"name": "_starReferral",
					"type": "address"
				}
			],
			"name": "setStarReferral",
			"outputs": [],
			"stateMutability": "nonpayable",
			"type": "function"
		},
		{
			"inputs": [],
			"name": "star",
			"outputs": [
				{
					"internalType": "contract StarToken",
					"name": "",
					"type": "address"
				}
			],
			"stateMutability": "view",
			"type": "function"
		},
		{
			"inputs": [],
			"name": "starPerBlock",
			"outputs": [
				{
					"internalType": "uint256",
					"name": "",
					"type": "uint256"
				}
			],
			"stateMutability": "view",
			"type": "function"
		},
		{
			"inputs": [],
			"name": "starReferral",
			"outputs": [
				{
					"internalType": "contract IStarReferral",
					"name": "",
					"type": "address"
				}
			],
			"stateMutability": "view",
			"type": "function"
		},
		{
			"inputs": [],
			"name": "startBlock",
			"outputs": [
				{
					"internalType": "uint256",
					"name": "",
					"type": "uint256"
				}
			],
			"stateMutability": "view",
			"type": "function"
		},
		{
			"inputs": [],
			"name": "startFarming",
			"outputs": [],
			"stateMutability": "nonpayable",
			"type": "function"
		},
		{
			"inputs": [],
			"name": "totalAllocPoint",
			"outputs": [
				{
					"internalType": "uint256",
					"name": "",
					"type": "uint256"
				}
			],
			"stateMutability": "view",
			"type": "function"
		},
		{
			"inputs": [],
			"name": "totalLockedUpRewards",
			"outputs": [
				{
					"internalType": "uint256",
					"name": "",
					"type": "uint256"
				}
			],
			"stateMutability": "view",
			"type": "function"
		},
		{
			"inputs": [],
			"name": "totalStarInPools",
			"outputs": [
				{
					"internalType": "uint256",
					"name": "",
					"type": "uint256"
				}
			],
			"stateMutability": "view",
			"type": "function"
		},
		{
			"inputs": [
				{
					"internalType": "address",
					"name": "newOperator",
					"type": "address"
				}
			],
			"name": "transferOperator",
			"outputs": [],
			"stateMutability": "nonpayable",
			"type": "function"
		},
		{
			"inputs": [
				{
					"internalType": "address",
					"name": "newOwner",
					"type": "address"
				}
			],
			"name": "transferOwnership",
			"outputs": [],
			"stateMutability": "nonpayable",
			"type": "function"
		},
		{
			"inputs": [
				{
					"internalType": "uint256",
					"name": "_pid",
					"type": "uint256"
				},
				{
					"internalType": "uint256",
					"name": "_allocPoint",
					"type": "uint256"
				},
				{
					"internalType": "bool",
					"name": "_withUpdate",
					"type": "bool"
				}
			],
			"name": "updateAllocPoint",
			"outputs": [],
			"stateMutability": "nonpayable",
			"type": "function"
		},
		{
			"inputs": [
				{
					"internalType": "uint256",
					"name": "_starPerBlock",
					"type": "uint256"
				}
			],
			"name": "updateEmissionRate",
			"outputs": [],
			"stateMutability": "nonpayable",
			"type": "function"
		},
		{
			"inputs": [
				{
					"internalType": "uint256",
					"name": "_pid",
					"type": "uint256"
				}
			],
			"name": "updatePool",
			"outputs": [],
			"stateMutability": "nonpayable",
			"type": "function"
		},
		{
			"inputs": [
				{
					"internalType": "uint256",
					"name": "",
					"type": "uint256"
				},
				{
					"internalType": "address",
					"name": "",
					"type": "address"
				}
			],
			"name": "userInfo",
			"outputs": [
				{
					"internalType": "uint256",
					"name": "amount",
					"type": "uint256"
				},
				{
					"internalType": "uint256",
					"name": "rewardDebt",
					"type": "uint256"
				},
				{
					"internalType": "uint256",
					"name": "rewardLockedUp",
					"type": "uint256"
				},
				{
					"internalType": "uint256",
					"name": "nextHarvestUntil",
					"type": "uint256"
				}
			],
			"stateMutability": "view",
			"type": "function"
		},
		{
			"inputs": [
				{
					"internalType": "uint256",
					"name": "_pid",
					"type": "uint256"
				},
				{
					"internalType": "uint256",
					"name": "_amount",
					"type": "uint256"
				}
			],
			"name": "withdraw",
			"outputs": [],
			"stateMutability": "nonpayable",
			"type": "function"
		}
	]
}