{
	"data": {
		"bytecode": {
			"linkReferences": {},
			"object": "60a06040526ddead00000000000000000000000060805269178756e190b11bbc0000600981905562000034906000196200056e565b62000042906000196200050b565b600a556040805180820190915260048082526329aa20a960e11b60209092019182526200007291600c9162000433565b506040805180820190915260048082526329aa20a960e11b6020909201918252620000a091600d9162000433565b50600e805460ff191660129081179091556000600f819055601081905560056011819055909155601355683635c9adc5dea00000601481905564e8d4a510006015556402540be4006016556017556019805461ffff60a81b1916600160b01b1790553480156200010f57600080fd5b506200011b33620003e3565b600a543360009081526001602090815260409182902092909255805163c45a015560e01b81529051737a250d5630b4cf539739df2c5dacb4c659f2488d92839263c45a01559260048083019392829003018186803b1580156200017d57600080fd5b505afa15801562000192573d6000803e3d6000fd5b505050506040513d601f19601f82011682018060405250810190620001b89190620004d9565b6001600160a01b031663c9c6539630836001600160a01b031663ad5c46486040518163ffffffff1660e01b815260040160206040518083038186803b1580156200020157600080fd5b505afa15801562000216573d6000803e3d6000fd5b505050506040513d601f19601f820116820180604052508101906200023c9190620004d9565b6040516001600160e01b031960e085901b1681526001600160a01b03928316600482015291166024820152604401602060405180830381600087803b1580156200028557600080fd5b505af11580156200029a573d6000803e3d6000fd5b505050506040513d601f19601f82011682018060405250810190620002c09190620004d9565b601980546001600160a01b03199081166001600160a01b039384161790915560188054909116918316919091179055600160046000620003086000546001600160a01b031690565b6001600160a01b03908116825260208083019390935260409182016000908120805495151560ff199687161790553080825260048552838220805487166001908117909155338352600786528483208054881682179055908252838220805487168217905560195490921681526008909352912080549092161790556200038c3390565b6001600160a01b031660006001600160a01b03167fddf252ad1be2c89b69c2b068fc378daa952ba7f163c4a11628f55a4df523b3ef600954604051620003d491815260200190565b60405180910390a35062000591565b600080546001600160a01b038381166001600160a01b0319831681178455604051919092169283917f8be0079c531659141344cd1fd0a4f28419497f9722a3daafe3b4186f6b6457e09190a35050565b828054620004419062000531565b90600052602060002090601f016020900481019282620004655760008555620004b0565b82601f106200048057805160ff1916838001178555620004b0565b82800160010185558215620004b0579182015b82811115620004b057825182559160200191906001019062000493565b50620004be929150620004c2565b5090565b5b80821115620004be5760008155600101620004c3565b600060208284031215620004ec57600080fd5b81516001600160a01b03811681146200050457600080fd5b9392505050565b6000828210156200052c57634e487b7160e01b600052601160045260246000fd5b500390565b600181811c908216806200054657607f821691505b602082108114156200056857634e487b7160e01b600052602260045260246000fd5b50919050565b6000826200058c57634e487b7160e01b600052601260045260246000fd5b500690565b60805160601c612d0a620005b7600039600081816104f801526122910152612d0a6000f3fe6080604052600436106103035760003560e01c806352390c0211610190578063a457c2d7116100dc578063dd2b2e6f11610095578063ea2f0b371161006f578063ea2f0b371461094c578063ec28438a1461096c578063f0f165af1461098c578063f2fde38b146109ac57600080fd5b8063dd2b2e6f146108d0578063dd62ed3e146108e6578063e2981a581461092c57600080fd5b8063a457c2d714610825578063a9059cbb14610845578063bdc653ef14610865578063c49b9a801461087a578063c7f59a671461089a578063cf505736146108ba57600080fd5b80637d1db4a5116101495780638da5cb5b116101235780638da5cb5b146107bd5780638ee88c53146107db57806395d89b41146107fb578063a073d37f1461081057600080fd5b80637d1db4a51461074e57806382d2a4bb1461076457806388f820201461078457600080fd5b806352390c02146106895780635342acb4146106a95780636053a0e3146106e25780636bc87c3a1461070357806370a0823114610719578063715018a61461073957600080fd5b806329370cc61161024f57806339509351116102085780634549b039116101e25780634549b039146106285780634761bea91461059c57806349bd5a5e146106485780634a74bb021461066857600080fd5b806339509351146105d25780633b124fe7146105f2578063437823ec1461060857600080fd5b806329370cc61461051a5780632d8381191461053a578063313ce5671461055a578063339826b01461057c57806333ced6e21461059c5780633685d419146105b257600080fd5b806313114a9d116102bc57806323b872dd1161029657806323b872dd14610454578063269f534c1461047457806327b6e8f1146104ad57806327c8f835146104e657600080fd5b806313114a9d146103f25780631694505e1461040757806318160ddd1461043f57600080fd5b806303053c0e1461030f578063061c82d01461033e57806306fdde0314610360578063095ea7b3146103825780630983f7f9146103b257806311f25b9b146103d257600080fd5b3661030a57005b600080fd5b34801561031b57600080fd5b5061032b670de0b6b3a764000081565b6040519081526020015b60405180910390f35b34801561034a57600080fd5b5061035e6103593660046129ce565b6109cc565b005b34801561036c57600080fd5b50610375610a82565b6040516103359190612a83565b34801561038e57600080fd5b506103a261039d366004612987565b610b14565b6040519015158152602001610335565b3480156103be57600080fd5b5061035e6103cd366004612952565b610b2b565b3480156103de57600080fd5b5061035e6103ed3660046129ce565b610c41565b3480156103fe57600080fd5b50600b5461032b565b34801561041357600080fd5b50601854610427906001600160a01b031681565b6040516001600160a01b039091168152602001610335565b34801561044b57600080fd5b5060095461032b565b34801561046057600080fd5b506103a261046f366004612911565b610c70565b34801561048057600080fd5b506103a261048f36600461289e565b6001600160a01b031660009081526007602052604090205460ff1690565b3480156104b957600080fd5b506103a26104c836600461289e565b6001600160a01b031660009081526008602052604090205460ff1690565b3480156104f257600080fd5b506104277f000000000000000000000000000000000000000000000000000000000000000081565b34801561052657600080fd5b5061035e6105353660046129b3565b610cd9565b34801561054657600080fd5b5061032b6105553660046129ce565b610d50565b34801561056657600080fd5b50600e5460405160ff9091168152602001610335565b34801561058857600080fd5b5061035e6105973660046129ce565b610dd4565b3480156105a857600080fd5b5061032b6103e881565b3480156105be57600080fd5b5061035e6105cd36600461289e565b610e45565b3480156105de57600080fd5b506103a26105ed366004612987565b611043565b3480156105fe57600080fd5b5061032b600f5481565b34801561061457600080fd5b5061035e61062336600461289e565b611079565b34801561063457600080fd5b5061032b6106433660046129e7565b6110c7565b34801561065457600080fd5b50601954610427906001600160a01b031681565b34801561067457600080fd5b506019546103a290600160a81b900460ff1681565b34801561069557600080fd5b5061035e6106a436600461289e565b611154565b3480156106b557600080fd5b506103a26106c436600461289e565b6001600160a01b031660009081526004602052604090205460ff1690565b3480156106ee57600080fd5b506019546103a290600160b01b900460ff1681565b34801561070f57600080fd5b5061032b60115481565b34801561072557600080fd5b5061032b61073436600461289e565b6112a7565b34801561074557600080fd5b5061035e611306565b34801561075a57600080fd5b5061032b60135481565b34801561077057600080fd5b5061035e61077f3660046129ce565b61133c565b34801561079057600080fd5b506103a261079f36600461289e565b6001600160a01b031660009081526005602052604090205460ff1690565b3480156107c957600080fd5b506000546001600160a01b0316610427565b3480156107e757600080fd5b5061035e6107f63660046129ce565b61137e565b34801561080757600080fd5b5061037561142f565b34801561081c57600080fd5b5060145461032b565b34801561083157600080fd5b506103a2610840366004612987565b61143e565b34801561085157600080fd5b506103a2610860366004612987565b61148d565b34801561087157600080fd5b5060155461032b565b34801561088657600080fd5b5061035e6108953660046129b3565b61149a565b3480156108a657600080fd5b5061035e6108b5366004612952565b611511565b3480156108c657600080fd5b5061032b60165481565b3480156108dc57600080fd5b5061032b60175481565b3480156108f257600080fd5b5061032b6109013660046128d8565b6001600160a01b03918216600090815260036020908152604080832093909416825291909152205490565b34801561093857600080fd5b5061035e6109473660046129ce565b6115bc565b34801561095857600080fd5b5061035e61096736600461289e565b6116b0565b34801561097857600080fd5b5061035e6109873660046129ce565b6116fb565b34801561099857600080fd5b5061035e6109a73660046129ce565b6117c5565b3480156109b857600080fd5b5061035e6109c736600461289e565b6117f4565b6000546001600160a01b031633146109ff5760405162461bcd60e51b81526004016109f690612ad8565b60405180910390fd5b6103e8811115610a465760405162461bcd60e51b81526020600482015260126024820152710e8c2f08ccaca40d2e640e8dede40d0d2ced60731b60448201526064016109f6565b600f8190556040518181527ff79b8369bbc48f0096cddc325370873a992398ed186423a4140dae39bbd4d527906020015b60405180910390a150565b6060600c8054610a9190612bda565b80601f0160208091040260200160405190810160405280929190818152602001828054610abd90612bda565b8015610b0a5780601f10610adf57610100808354040283529160200191610b0a565b820191906000526020600020905b815481529060010190602001808311610aed57829003601f168201915b5050505050905090565b6000610b2133848461188f565b5060015b92915050565b6000546001600160a01b03163314610b555760405162461bcd60e51b81526004016109f690612ad8565b6001600160a01b038216610bab5760405162461bcd60e51b815260206004820152601960248201527f45524332303a20696e76616c6964204c5020616464726573730000000000000060448201526064016109f6565b6019546001600160a01b038381169116141580610bca57506001811515145b610c165760405162461bcd60e51b815260206004820152601c60248201527f43616e6e6f74206578636c75646520756e69737761705632506169720000000060448201526064016109f6565b6001600160a01b03919091166000908152600860205260409020805460ff1916911515919091179055565b6000546001600160a01b03163314610c6b5760405162461bcd60e51b81526004016109f690612ad8565b601655565b6000610c7d8484846119b3565b610ccf8433610cca85604051806060016040528060288152602001612c88602891396001600160a01b038a1660009081526003602090815260408083203384529091529020549190611ce9565b61188f565b5060019392505050565b6000546001600160a01b03163314610d035760405162461bcd60e51b81526004016109f690612ad8565b60198054821515600160b01b0260ff60b01b199091161790556040517f3794234fa370c9f3b948dda3e3040530785b2ef1eb27dda3ffde478f4e2643c090610a7790831515815260200190565b6000600a54821115610db75760405162461bcd60e51b815260206004820152602a60248201527f416d6f756e74206d757374206265206c657373207468616e20746f74616c207260448201526965666c656374696f6e7360b01b60648201526084016109f6565b6000610dc1611d15565b9050610dcd8382611d38565b9392505050565b6000546001600160a01b03163314610dfe5760405162461bcd60e51b81526004016109f690612ad8565b60008111610e405760405162461bcd60e51b815260206004820152600f60248201526e3732bba0b6b7bab73a1032b93937b960891b60448201526064016109f6565b601755565b6000546001600160a01b03163314610e6f5760405162461bcd60e51b81526004016109f690612ad8565b6001600160a01b03811660009081526005602052604090205460ff16610ed75760405162461bcd60e51b815260206004820152601b60248201527f4163636f756e7420697320616c7265616479206578636c75646564000000000060448201526064016109f6565b60005b60065481101561103f57816001600160a01b031660068281548110610f0157610f01612c5c565b6000918252602090912001546001600160a01b0316141561102d5760068054610f2c90600190612bc3565b81548110610f3c57610f3c612c5c565b600091825260209091200154600680546001600160a01b039092169183908110610f6857610f68612c5c565b6000918252602082200180546001600160a01b0319166001600160a01b039390931692909217909155610f99611d15565b6001600160a01b038416600090815260026020526040902054909150610fbf9082611d44565b6001600160a01b038416600090815260016020908152604080832093909355600281528282208290556005905220805460ff19169055600680548061100657611006612c46565b600082815260209020810160001990810180546001600160a01b0319169055019055505050565b8061103781612c15565b915050610eda565b5050565b3360008181526003602090815260408083206001600160a01b03871684529091528120549091610b21918590610cca9086611d50565b6000546001600160a01b031633146110a35760405162461bcd60e51b81526004016109f690612ad8565b6001600160a01b03166000908152600460205260409020805460ff19166001179055565b600060095483111561111b5760405162461bcd60e51b815260206004820152601f60248201527f416d6f756e74206d757374206265206c657373207468616e20737570706c790060448201526064016109f6565b8161113a57600061112b84611d5c565b50939550610b25945050505050565b600061114584611d5c565b50929550610b25945050505050565b6000546001600160a01b0316331461117e5760405162461bcd60e51b81526004016109f690612ad8565b6001600160a01b03811660009081526005602052604090205460ff16156111e75760405162461bcd60e51b815260206004820152601b60248201527f4163636f756e7420697320616c7265616479206578636c75646564000000000060448201526064016109f6565b6001600160a01b03811660009081526001602052604090205415611241576001600160a01b03811660009081526001602052604090205461122790610d50565b6001600160a01b0382166000908152600260205260409020555b6001600160a01b03166000818152600560205260408120805460ff191660019081179091556006805491820181559091527ff652222313e28459528d920b65115c16c04f3efc82aaedc97be59f3f377c0d3f0180546001600160a01b0319169091179055565b6001600160a01b03811660009081526005602052604081205460ff16156112e457506001600160a01b031660009081526002602052604090205490565b6001600160a01b038216600090815260016020526040902054610b2590610d50565b6000546001600160a01b031633146113305760405162461bcd60e51b81526004016109f690612ad8565b61133a6000611dab565b565b6000546001600160a01b031633146113665760405162461bcd60e51b81526004016109f690612ad8565b61137881670de0b6b3a7640000612ba4565b60155550565b6000546001600160a01b031633146113a85760405162461bcd60e51b81526004016109f690612ad8565b6103e88111156113fa5760405162461bcd60e51b815260206004820152601860248201527f6c697175696469747946656520697320746f6f2068696768000000000000000060448201526064016109f6565b60118190556040518181527fde09f22502bb378ffee23fbad74562dff8780163faa0ec9e865d47d450c4034990602001610a77565b6060600d8054610a9190612bda565b6000610b213384610cca85604051806060016040528060258152602001612cb0602591393360009081526003602090815260408083206001600160a01b038d1684529091529020549190611ce9565b6000610b213384846119b3565b6000546001600160a01b031633146114c45760405162461bcd60e51b81526004016109f690612ad8565b60198054821515600160a81b0260ff60a81b199091161790556040517f53726dfcaf90650aa7eb35524f4d3220f07413c8d6cb404cc8c18bf5591bc15990610a7790831515815260200190565b6000546001600160a01b0316331461153b5760405162461bcd60e51b81526004016109f690612ad8565b6001600160a01b0382166115915760405162461bcd60e51b815260206004820152601e60248201527f45524332303a20696e76616c6964206163636f756e742061646472657373000060448201526064016109f6565b6001600160a01b03919091166000908152600760205260409020805460ff1916911515919091179055565b6000546001600160a01b031633146115e65760405162461bcd60e51b81526004016109f690612ad8565b6019544790600160b01b900460ff1661163a5760405162461bcd60e51b8152602060048201526016602482015275189d5e589858dac81a5cc81b9bdd08195b98589b195960521b60448201526064016109f6565b6016546116479083611d50565b8110156116965760405162461bcd60e51b815260206004820152601960248201527f6275796261636b20616d6f756e7420697320746f6f206269670000000000000060448201526064016109f6565b601954600160a01b900460ff1661103f5761103f82611dfb565b6000546001600160a01b031633146116da5760405162461bcd60e51b81526004016109f690612ad8565b6001600160a01b03166000908152600460205260409020805460ff19169055565b6000546001600160a01b031633146117255760405162461bcd60e51b81526004016109f690612ad8565b670de0b6b3a76400008110156117905760405162461bcd60e51b815260206004820152602a60248201527f6d61785478416d6f756e74206861766520746f206265206772656174657220746044820152693430b710189029aa20a960b11b60648201526084016109f6565b60138190556040518181527faa3699eefc959af0349072633ce13d21ce9c6fe475e5818b99da990ee39645a190602001610a77565b6000546001600160a01b031633146117ef5760405162461bcd60e51b81526004016109f690612ad8565b601455565b6000546001600160a01b0316331461181e5760405162461bcd60e51b81526004016109f690612ad8565b6001600160a01b0381166118835760405162461bcd60e51b815260206004820152602660248201527f4f776e61626c653a206e6577206f776e657220697320746865207a65726f206160448201526564647265737360d01b60648201526084016109f6565b61188c81611dab565b50565b6001600160a01b0383166118f15760405162461bcd60e51b8152602060048201526024808201527f45524332303a20617070726f76652066726f6d20746865207a65726f206164646044820152637265737360e01b60648201526084016109f6565b6001600160a01b0382166119525760405162461bcd60e51b815260206004820152602260248201527f45524332303a20617070726f766520746f20746865207a65726f206164647265604482015261737360f01b60648201526084016109f6565b6001600160a01b0383811660008181526003602090815260408083209487168084529482529182902085905590518481527f8c5be1e5ebec7d5bd14f71427d1e84f3dd0314c0f7b2291e5b200ac8c7c3b925910160405180910390a3505050565b6001600160a01b038316611a175760405162461bcd60e51b815260206004820152602560248201527f45524332303a207472616e736665722066726f6d20746865207a65726f206164604482015264647265737360d81b60648201526084016109f6565b6001600160a01b038216611a795760405162461bcd60e51b815260206004820152602360248201527f45524332303a207472616e7366657220746f20746865207a65726f206164647260448201526265737360e81b60648201526084016109f6565b60008111611adb5760405162461bcd60e51b815260206004820152602960248201527f5472616e7366657220616d6f756e74206d7573742062652067726561746572206044820152687468616e207a65726f60b81b60648201526084016109f6565b6001600160a01b03831660009081526007602052604090205460ff16158015611b1d57506001600160a01b03821660009081526007602052604090205460ff16155b15611b8557601354811115611b855760405162461bcd60e51b815260206004820152602860248201527f5472616e7366657220616d6f756e74206578636565647320746865206d6178546044820152673c20b6b7bab73a1760c11b60648201526084016109f6565b6000611b90306112a7565b60145460195491925082101590600160a01b900460ff16158015611bbd5750601954600160a81b900460ff165b8015611be257506001600160a01b03851660009081526008602052604090205460ff16155b8015611bfc57506000546001600160a01b03868116911614155b15611c8a578015611c15576014549150611c1582611e2d565b6001600160a01b03841660009081526008602052604090205460ff1615611c8a576019544790600160b01b900460ff168015611c5357506016548110155b8015611c6157506017548410155b15611c8857601554811115611c7557506015545b611c88611c83826064611d38565b611dfb565b505b6001600160a01b03851660009081526004602052604090205460019060ff1680611ccc57506001600160a01b03851660009081526004602052604090205460ff165b15611cd5575060005b611ce186868684611e49565b505050505050565b60008184841115611d0d5760405162461bcd60e51b81526004016109f69190612a83565b505050900390565b6000806000611d22611f74565b9092509050611d318282611d38565b9250505090565b6000610dcd8284612b82565b6000610dcd8284612ba4565b6000610dcd8284612b6a565b6000806000806000806000806000611d738a6120f6565b9250925092506000806000611d918d8686611d8c611d15565b612138565b919f909e50909c50959a5093985091965092945050505050565b600080546001600160a01b038381166001600160a01b0319831681178455604051919092169283917f8be0079c531659141344cd1fd0a4f28419497f9722a3daafe3b4186f6b6457e09190a35050565b6019805460ff60a01b1916600160a01b1790558015611e1d57611e1d81612188565b506019805460ff60a01b19169055565b6019805460ff60a01b1916600160a01b179055611e1d8161234a565b80611e5657611e566124e0565b6001600160a01b03841660009081526005602052604090205460ff168015611e9757506001600160a01b03831660009081526005602052604090205460ff16155b15611eac57611ea784848461250e565b611f58565b6001600160a01b03841660009081526005602052604090205460ff16158015611eed57506001600160a01b03831660009081526005602052604090205460ff165b15611efd57611ea7848484612634565b6001600160a01b03841660009081526005602052604090205460ff168015611f3d57506001600160a01b03831660009081526005602052604090205460ff165b15611f4d57611ea78484846126dd565b611f58848484612750565b80611f6e57611f6e601054600f55601254601155565b50505050565b600a546009546000918291825b6006548110156120c657826001600060068481548110611fa357611fa3612c5c565b60009182526020808320909101546001600160a01b03168352820192909252604001902054118061200e5750816002600060068481548110611fe757611fe7612c5c565b60009182526020808320909101546001600160a01b03168352820192909252604001902054115b1561202457600a54600954945094505050509091565b61206a600160006006848154811061203e5761203e612c5c565b60009182526020808320909101546001600160a01b031683528201929092526040019020548490612790565b92506120b2600260006006848154811061208657612086612c5c565b60009182526020808320909101546001600160a01b031683528201929092526040019020548390612790565b9150806120be81612c15565b915050611f81565b50600954600a546120d691611d38565b8210156120ed57600a546009549350935050509091565b90939092509050565b6000806000806121058561279c565b90506000612112866127bf565b9050600061212a826121248986612790565b90612790565b979296509094509092505050565b60008080806121478886611d44565b905060006121558887611d44565b905060006121638888611d44565b90506000612175826121248686612790565b939b939a50919850919650505050505050565b6040805160028082526060820183526000926020830190803683375050601854604080516315ab88c960e31b815290519394506001600160a01b039091169263ad5c464892506004808301926020929190829003018186803b1580156121ed57600080fd5b505afa158015612201573d6000803e3d6000fd5b505050506040513d601f19601f8201168201806040525081019061222591906128bb565b8160008151811061223857612238612c5c565b60200260200101906001600160a01b031690816001600160a01b031681525050308160018151811061226c5761226c612c5c565b6001600160a01b0392831660209182029290920101526018541663b6f9de95836000847f00000000000000000000000000000000000000000000000000000000000000006122bc4261012c611d50565b6040518663ffffffff1660e01b81526004016122db9493929190612a4e565b6000604051808303818588803b1580156122f457600080fd5b505af1158015612308573d6000803e3d6000fd5b50505050507f6fd378a9d8b7345c2e5b18229aaf1e39d32b177b501d0a0d26a0a858a23a9624828260405161233e929190612b0d565b60405180910390a15050565b604080516002808252606082018352600092602083019080368337019050509050308160008151811061237f5761237f612c5c565b6001600160a01b03928316602091820292909201810191909152601854604080516315ab88c960e31b81529051919093169263ad5c4648926004808301939192829003018186803b1580156123d357600080fd5b505afa1580156123e7573d6000803e3d6000fd5b505050506040513d601f19601f8201168201806040525081019061240b91906128bb565b8160018151811061241e5761241e612c5c565b6001600160a01b039283166020918202929092010152601854612444913091168461188f565b60185460405163791ac94760e01b81526001600160a01b039091169063791ac9479061247d908590600090869030904290600401612b2e565b600060405180830381600087803b15801561249757600080fd5b505af11580156124ab573d6000803e3d6000fd5b505050507f32cde87eb454f3a0b875ab23547023107cfad454363ec88ba5695e2c24aa52a7828260405161233e929190612b0d565b600f541580156124f05750601154155b156124f757565b600f80546010556011805460125560009182905555565b60008060008060008061252087611d5c565b6001600160a01b038f16600090815260026020526040902054959b509399509197509550935091506125529088612790565b6001600160a01b038a166000908152600260209081526040808320939093556001905220546125819087612790565b6001600160a01b03808b1660009081526001602052604080822093909355908a16815220546125b09086611d50565b6001600160a01b0389166000908152600160205260409020556125d2816127dc565b6125dc8483612865565b876001600160a01b0316896001600160a01b03167fddf252ad1be2c89b69c2b068fc378daa952ba7f163c4a11628f55a4df523b3ef8560405161262191815260200190565b60405180910390a3505050505050505050565b60008060008060008061264687611d5c565b6001600160a01b038f16600090815260016020526040902054959b509399509197509550935091506126789087612790565b6001600160a01b03808b16600090815260016020908152604080832094909455918b168152600290915220546126ae9084611d50565b6001600160a01b0389166000908152600260209081526040808320939093556001905220546125b09086611d50565b6000806000806000806126ef87611d5c565b6001600160a01b038f16600090815260026020526040902054959b509399509197509550935091506127219088612790565b6001600160a01b038a166000908152600260209081526040808320939093556001905220546126789087612790565b60008060008060008061276287611d5c565b6001600160a01b038f16600090815260016020526040902054959b5093995091975095509350915061258190875b6000610dcd8284612bc3565b6000610b256127106127b9600f5485611d4490919063ffffffff16565b90611d38565b6000610b256127106127b960115485611d4490919063ffffffff16565b60006127e6611d15565b905060006127f48383611d44565b306000908152600160205260409020549091506128119082611d50565b3060009081526001602090815260408083209390935560059052205460ff1615612860573060009081526002602052604090205461284f9084611d50565b306000908152600260205260409020555b505050565b600a546128729083612790565b600a55600b546128829082611d50565b600b555050565b8035801515811461289957600080fd5b919050565b6000602082840312156128b057600080fd5b8135610dcd81612c72565b6000602082840312156128cd57600080fd5b8151610dcd81612c72565b600080604083850312156128eb57600080fd5b82356128f681612c72565b9150602083013561290681612c72565b809150509250929050565b60008060006060848603121561292657600080fd5b833561293181612c72565b9250602084013561294181612c72565b929592945050506040919091013590565b6000806040838503121561296557600080fd5b823561297081612c72565b915061297e60208401612889565b90509250929050565b6000806040838503121561299a57600080fd5b82356129a581612c72565b946020939093013593505050565b6000602082840312156129c557600080fd5b610dcd82612889565b6000602082840312156129e057600080fd5b5035919050565b600080604083850312156129fa57600080fd5b8235915061297e60208401612889565b600081518084526020808501945080840160005b83811015612a435781516001600160a01b031687529582019590820190600101612a1e565b509495945050505050565b848152608060208201526000612a676080830186612a0a565b6001600160a01b03949094166040830152506060015292915050565b600060208083528351808285015260005b81811015612ab057858101830151858201604001528201612a94565b81811115612ac2576000604083870101525b50601f01601f1916929092016040019392505050565b6020808252818101527f4f776e61626c653a2063616c6c6572206973206e6f7420746865206f776e6572604082015260600190565b828152604060208201526000612b266040830184612a0a565b949350505050565b85815284602082015260a060408201526000612b4d60a0830186612a0a565b6001600160a01b0394909416606083015250608001529392505050565b60008219821115612b7d57612b7d612c30565b500190565b600082612b9f57634e487b7160e01b600052601260045260246000fd5b500490565b6000816000190483118215151615612bbe57612bbe612c30565b500290565b600082821015612bd557612bd5612c30565b500390565b600181811c90821680612bee57607f821691505b60208210811415612c0f57634e487b7160e01b600052602260045260246000fd5b50919050565b6000600019821415612c2957612c29612c30565b5060010190565b634e487b7160e01b600052601160045260246000fd5b634e487b7160e01b600052603160045260246000fd5b634e487b7160e01b600052603260045260246000fd5b6001600160a01b038116811461188c57600080fdfe45524332303a207472616e7366657220616d6f756e74206578636565647320616c6c6f77616e636545524332303a2064656372656173656420616c6c6f77616e63652062656c6f77207a65726fa2646970667358221220ca514938c7e1c9295a9cda8adaa20946a3d22578c1495de8c4dca7751ef16a0b64736f6c63430008070033",
			"opcodes": "PUSH1 0xA0 PUSH1 0x40 MSTORE PUSH14 0xDEAD000000000000000000000000 PUSH1 0x80 MSTORE PUSH10 0x178756E190B11BBC0000 PUSH1 0x9 DUP2 SWAP1 SSTORE PUSH3 0x34 SWAP1 PUSH1 0x0 NOT PUSH3 0x56E JUMP JUMPDEST PUSH3 0x42 SWAP1 PUSH1 0x0 NOT PUSH3 0x50B JUMP JUMPDEST PUSH1 0xA SSTORE PUSH1 0x40 DUP1 MLOAD DUP1 DUP3 ADD SWAP1 SWAP2 MSTORE PUSH1 0x4 DUP1 DUP3 MSTORE PUSH4 0x29AA20A9 PUSH1 0xE1 SHL PUSH1 0x20 SWAP1 SWAP3 ADD SWAP2 DUP3 MSTORE PUSH3 0x72 SWAP2 PUSH1 0xC SWAP2 PUSH3 0x433 JUMP JUMPDEST POP PUSH1 0x40 DUP1 MLOAD DUP1 DUP3 ADD SWAP1 SWAP2 MSTORE PUSH1 0x4 DUP1 DUP3 MSTORE PUSH4 0x29AA20A9 PUSH1 0xE1 SHL PUSH1 0x20 SWAP1 SWAP3 ADD SWAP2 DUP3 MSTORE PUSH3 0xA0 SWAP2 PUSH1 0xD SWAP2 PUSH3 0x433 JUMP JUMPDEST POP PUSH1 0xE DUP1 SLOAD PUSH1 0xFF NOT AND PUSH1 0x12 SWAP1 DUP2 OR SWAP1 SWAP2 SSTORE PUSH1 0x0 PUSH1 0xF DUP2 SWAP1 SSTORE PUSH1 0x10 DUP2 SWAP1 SSTORE PUSH1 0x5 PUSH1 0x11 DUP2 SWAP1 SSTORE SWAP1 SWAP2 SSTORE PUSH1 0x13 SSTORE PUSH9 0x3635C9ADC5DEA00000 PUSH1 0x14 DUP2 SWAP1 SSTORE PUSH5 0xE8D4A51000 PUSH1 0x15 SSTORE PUSH5 0x2540BE400 PUSH1 0x16 SSTORE PUSH1 0x17 SSTORE PUSH1 0x19 DUP1 SLOAD PUSH2 0xFFFF PUSH1 0xA8 SHL NOT AND PUSH1 0x1 PUSH1 0xB0 SHL OR SWAP1 SSTORE CALLVALUE DUP1 ISZERO PUSH3 0x10F JUMPI PUSH1 0x0 DUP1 REVERT JUMPDEST POP PUSH3 0x11B CALLER PUSH3 0x3E3 JUMP JUMPDEST PUSH1 0xA SLOAD CALLER PUSH1 0x0 SWAP1 DUP2 MSTORE PUSH1 0x1 PUSH1 0x20 SWAP1 DUP2 MSTORE PUSH1 0x40 SWAP2 DUP3 SWAP1 KECCAK256 SWAP3 SWAP1 SWAP3 SSTORE DUP1 MLOAD PUSH4 0xC45A0155 PUSH1 0xE0 SHL DUP2 MSTORE SWAP1 MLOAD PUSH20 0x7A250D5630B4CF539739DF2C5DACB4C659F2488D SWAP3 DUP4 SWAP3 PUSH4 0xC45A0155 SWAP3 PUSH1 0x4 DUP1 DUP4 ADD SWAP4 SWAP3 DUP3 SWAP1 SUB ADD DUP2 DUP7 DUP1 EXTCODESIZE ISZERO DUP1 ISZERO PUSH3 0x17D JUMPI PUSH1 0x0 DUP1 REVERT JUMPDEST POP GAS STATICCALL ISZERO DUP1 ISZERO PUSH3 0x192 JUMPI RETURNDATASIZE PUSH1 0x0 DUP1 RETURNDATACOPY RETURNDATASIZE PUSH1 0x0 REVERT JUMPDEST POP POP POP POP PUSH1 0x40 MLOAD RETURNDATASIZE PUSH1 0x1F NOT PUSH1 0x1F DUP3 ADD AND DUP3 ADD DUP1 PUSH1 0x40 MSTORE POP DUP2 ADD SWAP1 PUSH3 0x1B8 SWAP2 SWAP1 PUSH3 0x4D9 JUMP JUMPDEST PUSH1 0x1 PUSH1 0x1 PUSH1 0xA0 SHL SUB AND PUSH4 0xC9C65396 ADDRESS DUP4 PUSH1 0x1 PUSH1 0x1 PUSH1 0xA0 SHL SUB AND PUSH4 0xAD5C4648 PUSH1 0x40 MLOAD DUP2 PUSH4 0xFFFFFFFF AND PUSH1 0xE0 SHL DUP2 MSTORE PUSH1 0x4 ADD PUSH1 0x20 PUSH1 0x40 MLOAD DUP1 DUP4 SUB DUP2 DUP7 DUP1 EXTCODESIZE ISZERO DUP1 ISZERO PUSH3 0x201 JUMPI PUSH1 0x0 DUP1 REVERT JUMPDEST POP GAS STATICCALL ISZERO DUP1 ISZERO PUSH3 0x216 JUMPI RETURNDATASIZE PUSH1 0x0 DUP1 RETURNDATACOPY RETURNDATASIZE PUSH1 0x0 REVERT JUMPDEST POP POP POP POP PUSH1 0x40 MLOAD RETURNDATASIZE PUSH1 0x1F NOT PUSH1 0x1F DUP3 ADD AND DUP3 ADD DUP1 PUSH1 0x40 MSTORE POP DUP2 ADD SWAP1 PUSH3 0x23C SWAP2 SWAP1 PUSH3 0x4D9 JUMP JUMPDEST PUSH1 0x40 MLOAD PUSH1 0x1 PUSH1 0x1 PUSH1 0xE0 SHL SUB NOT PUSH1 0xE0 DUP6 SWAP1 SHL AND DUP2 MSTORE PUSH1 0x1 PUSH1 0x1 PUSH1 0xA0 SHL SUB SWAP3 DUP4 AND PUSH1 0x4 DUP3 ADD MSTORE SWAP2 AND PUSH1 0x24 DUP3 ADD MSTORE PUSH1 0x44 ADD PUSH1 0x20 PUSH1 0x40 MLOAD DUP1 DUP4 SUB DUP2 PUSH1 0x0 DUP8 DUP1 EXTCODESIZE ISZERO DUP1 ISZERO PUSH3 0x285 JUMPI PUSH1 0x0 DUP1 REVERT JUMPDEST POP GAS CALL ISZERO DUP1 ISZERO PUSH3 0x29A JUMPI RETURNDATASIZE PUSH1 0x0 DUP1 RETURNDATACOPY RETURNDATASIZE PUSH1 0x0 REVERT JUMPDEST POP POP POP POP PUSH1 0x40 MLOAD RETURNDATASIZE PUSH1 0x1F NOT PUSH1 0x1F DUP3 ADD AND DUP3 ADD DUP1 PUSH1 0x40 MSTORE POP DUP2 ADD SWAP1 PUSH3 0x2C0 SWAP2 SWAP1 PUSH3 0x4D9 JUMP JUMPDEST PUSH1 0x19 DUP1 SLOAD PUSH1 0x1 PUSH1 0x1 PUSH1 0xA0 SHL SUB NOT SWAP1 DUP2 AND PUSH1 0x1 PUSH1 0x1 PUSH1 0xA0 SHL SUB SWAP4 DUP5 AND OR SWAP1 SWAP2 SSTORE PUSH1 0x18 DUP1 SLOAD SWAP1 SWAP2 AND SWAP2 DUP4 AND SWAP2 SWAP1 SWAP2 OR SWAP1 SSTORE PUSH1 0x1 PUSH1 0x4 PUSH1 0x0 PUSH3 0x308 PUSH1 0x0 SLOAD PUSH1 0x1 PUSH1 0x1 PUSH1 0xA0 SHL SUB AND SWAP1 JUMP JUMPDEST PUSH1 0x1 PUSH1 0x1 PUSH1 0xA0 SHL SUB SWAP1 DUP2 AND DUP3 MSTORE PUSH1 0x20 DUP1 DUP4 ADD SWAP4 SWAP1 SWAP4 MSTORE PUSH1 0x40 SWAP2 DUP3 ADD PUSH1 0x0 SWAP1 DUP2 KECCAK256 DUP1 SLOAD SWAP6 ISZERO ISZERO PUSH1 0xFF NOT SWAP7 DUP8 AND OR SWAP1 SSTORE ADDRESS DUP1 DUP3 MSTORE PUSH1 0x4 DUP6 MSTORE DUP4 DUP3 KECCAK256 DUP1 SLOAD DUP8 AND PUSH1 0x1 SWAP1 DUP2 OR SWAP1 SWAP2 SSTORE CALLER DUP4 MSTORE PUSH1 0x7 DUP7 MSTORE DUP5 DUP4 KECCAK256 DUP1 SLOAD DUP9 AND DUP3 OR SWAP1 SSTORE SWAP1 DUP3 MSTORE DUP4 DUP3 KECCAK256 DUP1 SLOAD DUP8 AND DUP3 OR SWAP1 SSTORE PUSH1 0x19 SLOAD SWAP1 SWAP3 AND DUP2 MSTORE PUSH1 0x8 SWAP1 SWAP4 MSTORE SWAP2 KECCAK256 DUP1 SLOAD SWAP1 SWAP3 AND OR SWAP1 SSTORE PUSH3 0x38C CALLER SWAP1 JUMP JUMPDEST PUSH1 0x1 PUSH1 0x1 PUSH1 0xA0 SHL SUB AND PUSH1 0x0 PUSH1 0x1 PUSH1 0x1 PUSH1 0xA0 SHL SUB AND PUSH32 0xDDF252AD1BE2C89B69C2B068FC378DAA952BA7F163C4A11628F55A4DF523B3EF PUSH1 0x9 SLOAD PUSH1 0x40 MLOAD PUSH3 0x3D4 SWAP2 DUP2 MSTORE PUSH1 0x20 ADD SWAP1 JUMP JUMPDEST PUSH1 0x40 MLOAD DUP1 SWAP2 SUB SWAP1 LOG3 POP PUSH3 0x591 JUMP JUMPDEST PUSH1 0x0 DUP1 SLOAD PUSH1 0x1 PUSH1 0x1 PUSH1 0xA0 SHL SUB DUP4 DUP2 AND PUSH1 0x1 PUSH1 0x1 PUSH1 0xA0 SHL SUB NOT DUP4 AND DUP2 OR DUP5 SSTORE PUSH1 0x40 MLOAD SWAP2 SWAP1 SWAP3 AND SWAP3 DUP4 SWAP2 PUSH32 0x8BE0079C531659141344CD1FD0A4F28419497F9722A3DAAFE3B4186F6B6457E0 SWAP2 SWAP1 LOG3 POP POP JUMP JUMPDEST DUP3 DUP1 SLOAD PUSH3 0x441 SWAP1 PUSH3 0x531 JUMP JUMPDEST SWAP1 PUSH1 0x0 MSTORE PUSH1 0x20 PUSH1 0x0 KECCAK256 SWAP1 PUSH1 0x1F ADD PUSH1 0x20 SWAP1 DIV DUP2 ADD SWAP3 DUP3 PUSH3 0x465 JUMPI PUSH1 0x0 DUP6 SSTORE PUSH3 0x4B0 JUMP JUMPDEST DUP3 PUSH1 0x1F LT PUSH3 0x480 JUMPI DUP1 MLOAD PUSH1 0xFF NOT AND DUP4 DUP1 ADD OR DUP6 SSTORE PUSH3 0x4B0 JUMP JUMPDEST DUP3 DUP1 ADD PUSH1 0x1 ADD DUP6 SSTORE DUP3 ISZERO PUSH3 0x4B0 JUMPI SWAP2 DUP3 ADD JUMPDEST DUP3 DUP2 GT ISZERO PUSH3 0x4B0 JUMPI DUP3 MLOAD DUP3 SSTORE SWAP2 PUSH1 0x20 ADD SWAP2 SWAP1 PUSH1 0x1 ADD SWAP1 PUSH3 0x493 JUMP JUMPDEST POP PUSH3 0x4BE SWAP3 SWAP2 POP PUSH3 0x4C2 JUMP JUMPDEST POP SWAP1 JUMP JUMPDEST JUMPDEST DUP1 DUP3 GT ISZERO PUSH3 0x4BE JUMPI PUSH1 0x0 DUP2 SSTORE PUSH1 0x1 ADD PUSH3 0x4C3 JUMP JUMPDEST PUSH1 0x0 PUSH1 0x20 DUP3 DUP5 SUB SLT ISZERO PUSH3 0x4EC JUMPI PUSH1 0x0 DUP1 REVERT JUMPDEST DUP2 MLOAD PUSH1 0x1 PUSH1 0x1 PUSH1 0xA0 SHL SUB DUP2 AND DUP2 EQ PUSH3 0x504 JUMPI PUSH1 0x0 DUP1 REVERT JUMPDEST SWAP4 SWAP3 POP POP POP JUMP JUMPDEST PUSH1 0x0 DUP3 DUP3 LT ISZERO PUSH3 0x52C JUMPI PUSH4 0x4E487B71 PUSH1 0xE0 SHL PUSH1 0x0 MSTORE PUSH1 0x11 PUSH1 0x4 MSTORE PUSH1 0x24 PUSH1 0x0 REVERT JUMPDEST POP SUB SWAP1 JUMP JUMPDEST PUSH1 0x1 DUP2 DUP2 SHR SWAP1 DUP3 AND DUP1 PUSH3 0x546 JUMPI PUSH1 0x7F DUP3 AND SWAP2 POP JUMPDEST PUSH1 0x20 DUP3 LT DUP2 EQ ISZERO PUSH3 0x568 JUMPI PUSH4 0x4E487B71 PUSH1 0xE0 SHL PUSH1 0x0 MSTORE PUSH1 0x22 PUSH1 0x4 MSTORE PUSH1 0x24 PUSH1 0x0 REVERT JUMPDEST POP SWAP2 SWAP1 POP JUMP JUMPDEST PUSH1 0x0 DUP3 PUSH3 0x58C JUMPI PUSH4 0x4E487B71 PUSH1 0xE0 SHL PUSH1 0x0 MSTORE PUSH1 0x12 PUSH1 0x4 MSTORE PUSH1 0x24 PUSH1 0x0 REVERT JUMPDEST POP MOD SWAP1 JUMP JUMPDEST PUSH1 0x80 MLOAD PUSH1 0x60 SHR PUSH2 0x2D0A PUSH3 0x5B7 PUSH1 0x0 CODECOPY PUSH1 0x0 DUP2 DUP2 PUSH2 0x4F8 ADD MSTORE PUSH2 0x2291 ADD MSTORE PUSH2 0x2D0A PUSH1 0x0 RETURN INVALID PUSH1 0x80 PUSH1 0x40 MSTORE PUSH1 0x4 CALLDATASIZE LT PUSH2 0x303 JUMPI PUSH1 0x0 CALLDATALOAD PUSH1 0xE0 SHR DUP1 PUSH4 0x52390C02 GT PUSH2 0x190 JUMPI DUP1 PUSH4 0xA457C2D7 GT PUSH2 0xDC JUMPI DUP1 PUSH4 0xDD2B2E6F GT PUSH2 0x95 JUMPI DUP1 PUSH4 0xEA2F0B37 GT PUSH2 0x6F JUMPI DUP1 PUSH4 0xEA2F0B37 EQ PUSH2 0x94C JUMPI DUP1 PUSH4 0xEC28438A EQ PUSH2 0x96C JUMPI DUP1 PUSH4 0xF0F165AF EQ PUSH2 0x98C JUMPI DUP1 PUSH4 0xF2FDE38B EQ PUSH2 0x9AC JUMPI PUSH1 0x0 DUP1 REVERT JUMPDEST DUP1 PUSH4 0xDD2B2E6F EQ PUSH2 0x8D0 JUMPI DUP1 PUSH4 0xDD62ED3E EQ PUSH2 0x8E6 JUMPI DUP1 PUSH4 0xE2981A58 EQ PUSH2 0x92C JUMPI PUSH1 0x0 DUP1 REVERT JUMPDEST DUP1 PUSH4 0xA457C2D7 EQ PUSH2 0x825 JUMPI DUP1 PUSH4 0xA9059CBB EQ PUSH2 0x845 JUMPI DUP1 PUSH4 0xBDC653EF EQ PUSH2 0x865 JUMPI DUP1 PUSH4 0xC49B9A80 EQ PUSH2 0x87A JUMPI DUP1 PUSH4 0xC7F59A67 EQ PUSH2 0x89A JUMPI DUP1 PUSH4 0xCF505736 EQ PUSH2 0x8BA JUMPI PUSH1 0x0 DUP1 REVERT JUMPDEST DUP1 PUSH4 0x7D1DB4A5 GT PUSH2 0x149 JUMPI DUP1 PUSH4 0x8DA5CB5B GT PUSH2 0x123 JUMPI DUP1 PUSH4 0x8DA5CB5B EQ PUSH2 0x7BD JUMPI DUP1 PUSH4 0x8EE88C53 EQ PUSH2 0x7DB JUMPI DUP1 PUSH4 0x95D89B41 EQ PUSH2 0x7FB JUMPI DUP1 PUSH4 0xA073D37F EQ PUSH2 0x810 JUMPI PUSH1 0x0 DUP1 REVERT JUMPDEST DUP1 PUSH4 0x7D1DB4A5 EQ PUSH2 0x74E JUMPI DUP1 PUSH4 0x82D2A4BB EQ PUSH2 0x764 JUMPI DUP1 PUSH4 0x88F82020 EQ PUSH2 0x784 JUMPI PUSH1 0x0 DUP1 REVERT JUMPDEST DUP1 PUSH4 0x52390C02 EQ PUSH2 0x689 JUMPI DUP1 PUSH4 0x5342ACB4 EQ PUSH2 0x6A9 JUMPI DUP1 PUSH4 0x6053A0E3 EQ PUSH2 0x6E2 JUMPI DUP1 PUSH4 0x6BC87C3A EQ PUSH2 0x703 JUMPI DUP1 PUSH4 0x70A08231 EQ PUSH2 0x719 JUMPI DUP1 PUSH4 0x715018A6 EQ PUSH2 0x739 JUMPI PUSH1 0x0 DUP1 REVERT JUMPDEST DUP1 PUSH4 0x29370CC6 GT PUSH2 0x24F JUMPI DUP1 PUSH4 0x39509351 GT PUSH2 0x208 JUMPI DUP1 PUSH4 0x4549B039 GT PUSH2 0x1E2 JUMPI DUP1 PUSH4 0x4549B039 EQ PUSH2 0x628 JUMPI DUP1 PUSH4 0x4761BEA9 EQ PUSH2 0x59C JUMPI DUP1 PUSH4 0x49BD5A5E EQ PUSH2 0x648 JUMPI DUP1 PUSH4 0x4A74BB02 EQ PUSH2 0x668 JUMPI PUSH1 0x0 DUP1 REVERT JUMPDEST DUP1 PUSH4 0x39509351 EQ PUSH2 0x5D2 JUMPI DUP1 PUSH4 0x3B124FE7 EQ PUSH2 0x5F2 JUMPI DUP1 PUSH4 0x437823EC EQ PUSH2 0x608 JUMPI PUSH1 0x0 DUP1 REVERT JUMPDEST DUP1 PUSH4 0x29370CC6 EQ PUSH2 0x51A JUMPI DUP1 PUSH4 0x2D838119 EQ PUSH2 0x53A JUMPI DUP1 PUSH4 0x313CE567 EQ PUSH2 0x55A JUMPI DUP1 PUSH4 0x339826B0 EQ PUSH2 0x57C JUMPI DUP1 PUSH4 0x33CED6E2 EQ PUSH2 0x59C JUMPI DUP1 PUSH4 0x3685D419 EQ PUSH2 0x5B2 JUMPI PUSH1 0x0 DUP1 REVERT JUMPDEST DUP1 PUSH4 0x13114A9D GT PUSH2 0x2BC JUMPI DUP1 PUSH4 0x23B872DD GT PUSH2 0x296 JUMPI DUP1 PUSH4 0x23B872DD EQ PUSH2 0x454 JUMPI DUP1 PUSH4 0x269F534C EQ PUSH2 0x474 JUMPI DUP1 PUSH4 0x27B6E8F1 EQ PUSH2 0x4AD JUMPI DUP1 PUSH4 0x27C8F835 EQ PUSH2 0x4E6 JUMPI PUSH1 0x0 DUP1 REVERT JUMPDEST DUP1 PUSH4 0x13114A9D EQ PUSH2 0x3F2 JUMPI DUP1 PUSH4 0x1694505E EQ PUSH2 0x407 JUMPI DUP1 PUSH4 0x18160DDD EQ PUSH2 0x43F JUMPI PUSH1 0x0 DUP1 REVERT JUMPDEST DUP1 PUSH4 0x3053C0E EQ PUSH2 0x30F JUMPI DUP1 PUSH4 0x61C82D0 EQ PUSH2 0x33E JUMPI DUP1 PUSH4 0x6FDDE03 EQ PUSH2 0x360 JUMPI DUP1 PUSH4 0x95EA7B3 EQ PUSH2 0x382 JUMPI DUP1 PUSH4 0x983F7F9 EQ PUSH2 0x3B2 JUMPI DUP1 PUSH4 0x11F25B9B EQ PUSH2 0x3D2 JUMPI PUSH1 0x0 DUP1 REVERT JUMPDEST CALLDATASIZE PUSH2 0x30A JUMPI STOP JUMPDEST PUSH1 0x0 DUP1 REVERT JUMPDEST CALLVALUE DUP1 ISZERO PUSH2 0x31B JUMPI PUSH1 0x0 DUP1 REVERT JUMPDEST POP PUSH2 0x32B PUSH8 0xDE0B6B3A7640000 DUP2 JUMP JUMPDEST PUSH1 0x40 MLOAD SWAP1 DUP2 MSTORE PUSH1 0x20 ADD JUMPDEST PUSH1 0x40 MLOAD DUP1 SWAP2 SUB SWAP1 RETURN JUMPDEST CALLVALUE DUP1 ISZERO PUSH2 0x34A JUMPI PUSH1 0x0 DUP1 REVERT JUMPDEST POP PUSH2 0x35E PUSH2 0x359 CALLDATASIZE PUSH1 0x4 PUSH2 0x29CE JUMP JUMPDEST PUSH2 0x9CC JUMP JUMPDEST STOP JUMPDEST CALLVALUE DUP1 ISZERO PUSH2 0x36C JUMPI PUSH1 0x0 DUP1 REVERT JUMPDEST POP PUSH2 0x375 PUSH2 0xA82 JUMP JUMPDEST PUSH1 0x40 MLOAD PUSH2 0x335 SWAP2 SWAP1 PUSH2 0x2A83 JUMP JUMPDEST CALLVALUE DUP1 ISZERO PUSH2 0x38E JUMPI PUSH1 0x0 DUP1 REVERT JUMPDEST POP PUSH2 0x3A2 PUSH2 0x39D CALLDATASIZE PUSH1 0x4 PUSH2 0x2987 JUMP JUMPDEST PUSH2 0xB14 JUMP JUMPDEST PUSH1 0x40 MLOAD SWAP1 ISZERO ISZERO DUP2 MSTORE PUSH1 0x20 ADD PUSH2 0x335 JUMP JUMPDEST CALLVALUE DUP1 ISZERO PUSH2 0x3BE JUMPI PUSH1 0x0 DUP1 REVERT JUMPDEST POP PUSH2 0x35E PUSH2 0x3CD CALLDATASIZE PUSH1 0x4 PUSH2 0x2952 JUMP JUMPDEST PUSH2 0xB2B JUMP JUMPDEST CALLVALUE DUP1 ISZERO PUSH2 0x3DE JUMPI PUSH1 0x0 DUP1 REVERT JUMPDEST POP PUSH2 0x35E PUSH2 0x3ED CALLDATASIZE PUSH1 0x4 PUSH2 0x29CE JUMP JUMPDEST PUSH2 0xC41 JUMP JUMPDEST CALLVALUE DUP1 ISZERO PUSH2 0x3FE JUMPI PUSH1 0x0 DUP1 REVERT JUMPDEST POP PUSH1 0xB SLOAD PUSH2 0x32B JUMP JUMPDEST CALLVALUE DUP1 ISZERO PUSH2 0x413 JUMPI PUSH1 0x0 DUP1 REVERT JUMPDEST POP PUSH1 0x18 SLOAD PUSH2 0x427 SWAP1 PUSH1 0x1 PUSH1 0x1 PUSH1 0xA0 SHL SUB AND DUP2 JUMP JUMPDEST PUSH1 0x40 MLOAD PUSH1 0x1 PUSH1 0x1 PUSH1 0xA0 SHL SUB SWAP1 SWAP2 AND DUP2 MSTORE PUSH1 0x20 ADD PUSH2 0x335 JUMP JUMPDEST CALLVALUE DUP1 ISZERO PUSH2 0x44B JUMPI PUSH1 0x0 DUP1 REVERT JUMPDEST POP PUSH1 0x9 SLOAD PUSH2 0x32B JUMP JUMPDEST CALLVALUE DUP1 ISZERO PUSH2 0x460 JUMPI PUSH1 0x0 DUP1 REVERT JUMPDEST POP PUSH2 0x3A2 PUSH2 0x46F CALLDATASIZE PUSH1 0x4 PUSH2 0x2911 JUMP JUMPDEST PUSH2 0xC70 JUMP JUMPDEST CALLVALUE DUP1 ISZERO PUSH2 0x480 JUMPI PUSH1 0x0 DUP1 REVERT JUMPDEST POP PUSH2 0x3A2 PUSH2 0x48F CALLDATASIZE PUSH1 0x4 PUSH2 0x289E JUMP JUMPDEST PUSH1 0x1 PUSH1 0x1 PUSH1 0xA0 SHL SUB AND PUSH1 0x0 SWAP1 DUP2 MSTORE PUSH1 0x7 PUSH1 0x20 MSTORE PUSH1 0x40 SWAP1 KECCAK256 SLOAD PUSH1 0xFF AND SWAP1 JUMP JUMPDEST CALLVALUE DUP1 ISZERO PUSH2 0x4B9 JUMPI PUSH1 0x0 DUP1 REVERT JUMPDEST POP PUSH2 0x3A2 PUSH2 0x4C8 CALLDATASIZE PUSH1 0x4 PUSH2 0x289E JUMP JUMPDEST PUSH1 0x1 PUSH1 0x1 PUSH1 0xA0 SHL SUB AND PUSH1 0x0 SWAP1 DUP2 MSTORE PUSH1 0x8 PUSH1 0x20 MSTORE PUSH1 0x40 SWAP1 KECCAK256 SLOAD PUSH1 0xFF AND SWAP1 JUMP JUMPDEST CALLVALUE DUP1 ISZERO PUSH2 0x4F2 JUMPI PUSH1 0x0 DUP1 REVERT JUMPDEST POP PUSH2 0x427 PUSH32 0x0 DUP2 JUMP JUMPDEST CALLVALUE DUP1 ISZERO PUSH2 0x526 JUMPI PUSH1 0x0 DUP1 REVERT JUMPDEST POP PUSH2 0x35E PUSH2 0x535 CALLDATASIZE PUSH1 0x4 PUSH2 0x29B3 JUMP JUMPDEST PUSH2 0xCD9 JUMP JUMPDEST CALLVALUE DUP1 ISZERO PUSH2 0x546 JUMPI PUSH1 0x0 DUP1 REVERT JUMPDEST POP PUSH2 0x32B PUSH2 0x555 CALLDATASIZE PUSH1 0x4 PUSH2 0x29CE JUMP JUMPDEST PUSH2 0xD50 JUMP JUMPDEST CALLVALUE DUP1 ISZERO PUSH2 0x566 JUMPI PUSH1 0x0 DUP1 REVERT JUMPDEST POP PUSH1 0xE SLOAD PUSH1 0x40 MLOAD PUSH1 0xFF SWAP1 SWAP2 AND DUP2 MSTORE PUSH1 0x20 ADD PUSH2 0x335 JUMP JUMPDEST CALLVALUE DUP1 ISZERO PUSH2 0x588 JUMPI PUSH1 0x0 DUP1 REVERT JUMPDEST POP PUSH2 0x35E PUSH2 0x597 CALLDATASIZE PUSH1 0x4 PUSH2 0x29CE JUMP JUMPDEST PUSH2 0xDD4 JUMP JUMPDEST CALLVALUE DUP1 ISZERO PUSH2 0x5A8 JUMPI PUSH1 0x0 DUP1 REVERT JUMPDEST POP PUSH2 0x32B PUSH2 0x3E8 DUP2 JUMP JUMPDEST CALLVALUE DUP1 ISZERO PUSH2 0x5BE JUMPI PUSH1 0x0 DUP1 REVERT JUMPDEST POP PUSH2 0x35E PUSH2 0x5CD CALLDATASIZE PUSH1 0x4 PUSH2 0x289E JUMP JUMPDEST PUSH2 0xE45 JUMP JUMPDEST CALLVALUE DUP1 ISZERO PUSH2 0x5DE JUMPI PUSH1 0x0 DUP1 REVERT JUMPDEST POP PUSH2 0x3A2 PUSH2 0x5ED CALLDATASIZE PUSH1 0x4 PUSH2 0x2987 JUMP JUMPDEST PUSH2 0x1043 JUMP JUMPDEST CALLVALUE DUP1 ISZERO PUSH2 0x5FE JUMPI PUSH1 0x0 DUP1 REVERT JUMPDEST POP PUSH2 0x32B PUSH1 0xF SLOAD DUP2 JUMP JUMPDEST CALLVALUE DUP1 ISZERO PUSH2 0x614 JUMPI PUSH1 0x0 DUP1 REVERT JUMPDEST POP PUSH2 0x35E PUSH2 0x623 CALLDATASIZE PUSH1 0x4 PUSH2 0x289E JUMP JUMPDEST PUSH2 0x1079 JUMP JUMPDEST CALLVALUE DUP1 ISZERO PUSH2 0x634 JUMPI PUSH1 0x0 DUP1 REVERT JUMPDEST POP PUSH2 0x32B PUSH2 0x643 CALLDATASIZE PUSH1 0x4 PUSH2 0x29E7 JUMP JUMPDEST PUSH2 0x10C7 JUMP JUMPDEST CALLVALUE DUP1 ISZERO PUSH2 0x654 JUMPI PUSH1 0x0 DUP1 REVERT JUMPDEST POP PUSH1 0x19 SLOAD PUSH2 0x427 SWAP1 PUSH1 0x1 PUSH1 0x1 PUSH1 0xA0 SHL SUB AND DUP2 JUMP JUMPDEST CALLVALUE DUP1 ISZERO PUSH2 0x674 JUMPI PUSH1 0x0 DUP1 REVERT JUMPDEST POP PUSH1 0x19 SLOAD PUSH2 0x3A2 SWAP1 PUSH1 0x1 PUSH1 0xA8 SHL SWAP1 DIV PUSH1 0xFF AND DUP2 JUMP JUMPDEST CALLVALUE DUP1 ISZERO PUSH2 0x695 JUMPI PUSH1 0x0 DUP1 REVERT JUMPDEST POP PUSH2 0x35E PUSH2 0x6A4 CALLDATASIZE PUSH1 0x4 PUSH2 0x289E JUMP JUMPDEST PUSH2 0x1154 JUMP JUMPDEST CALLVALUE DUP1 ISZERO PUSH2 0x6B5 JUMPI PUSH1 0x0 DUP1 REVERT JUMPDEST POP PUSH2 0x3A2 PUSH2 0x6C4 CALLDATASIZE PUSH1 0x4 PUSH2 0x289E JUMP JUMPDEST PUSH1 0x1 PUSH1 0x1 PUSH1 0xA0 SHL SUB AND PUSH1 0x0 SWAP1 DUP2 MSTORE PUSH1 0x4 PUSH1 0x20 MSTORE PUSH1 0x40 SWAP1 KECCAK256 SLOAD PUSH1 0xFF AND SWAP1 JUMP JUMPDEST CALLVALUE DUP1 ISZERO PUSH2 0x6EE JUMPI PUSH1 0x0 DUP1 REVERT JUMPDEST POP PUSH1 0x19 SLOAD PUSH2 0x3A2 SWAP1 PUSH1 0x1 PUSH1 0xB0 SHL SWAP1 DIV PUSH1 0xFF AND DUP2 JUMP JUMPDEST CALLVALUE DUP1 ISZERO PUSH2 0x70F JUMPI PUSH1 0x0 DUP1 REVERT JUMPDEST POP PUSH2 0x32B PUSH1 0x11 SLOAD DUP2 JUMP JUMPDEST CALLVALUE DUP1 ISZERO PUSH2 0x725 JUMPI PUSH1 0x0 DUP1 REVERT JUMPDEST POP PUSH2 0x32B PUSH2 0x734 CALLDATASIZE PUSH1 0x4 PUSH2 0x289E JUMP JUMPDEST PUSH2 0x12A7 JUMP JUMPDEST CALLVALUE DUP1 ISZERO PUSH2 0x745 JUMPI PUSH1 0x0 DUP1 REVERT JUMPDEST POP PUSH2 0x35E PUSH2 0x1306 JUMP JUMPDEST CALLVALUE DUP1 ISZERO PUSH2 0x75A JUMPI PUSH1 0x0 DUP1 REVERT JUMPDEST POP PUSH2 0x32B PUSH1 0x13 SLOAD DUP2 JUMP JUMPDEST CALLVALUE DUP1 ISZERO PUSH2 0x770 JUMPI PUSH1 0x0 DUP1 REVERT JUMPDEST POP PUSH2 0x35E PUSH2 0x77F CALLDATASIZE PUSH1 0x4 PUSH2 0x29CE JUMP JUMPDEST PUSH2 0x133C JUMP JUMPDEST CALLVALUE DUP1 ISZERO PUSH2 0x790 JUMPI PUSH1 0x0 DUP1 REVERT JUMPDEST POP PUSH2 0x3A2 PUSH2 0x79F CALLDATASIZE PUSH1 0x4 PUSH2 0x289E JUMP JUMPDEST PUSH1 0x1 PUSH1 0x1 PUSH1 0xA0 SHL SUB AND PUSH1 0x0 SWAP1 DUP2 MSTORE PUSH1 0x5 PUSH1 0x20 MSTORE PUSH1 0x40 SWAP1 KECCAK256 SLOAD PUSH1 0xFF AND SWAP1 JUMP JUMPDEST CALLVALUE DUP1 ISZERO PUSH2 0x7C9 JUMPI PUSH1 0x0 DUP1 REVERT JUMPDEST POP PUSH1 0x0 SLOAD PUSH1 0x1 PUSH1 0x1 PUSH1 0xA0 SHL SUB AND PUSH2 0x427 JUMP JUMPDEST CALLVALUE DUP1 ISZERO PUSH2 0x7E7 JUMPI PUSH1 0x0 DUP1 REVERT JUMPDEST POP PUSH2 0x35E PUSH2 0x7F6 CALLDATASIZE PUSH1 0x4 PUSH2 0x29CE JUMP JUMPDEST PUSH2 0x137E JUMP JUMPDEST CALLVALUE DUP1 ISZERO PUSH2 0x807 JUMPI PUSH1 0x0 DUP1 REVERT JUMPDEST POP PUSH2 0x375 PUSH2 0x142F JUMP JUMPDEST CALLVALUE DUP1 ISZERO PUSH2 0x81C JUMPI PUSH1 0x0 DUP1 REVERT JUMPDEST POP PUSH1 0x14 SLOAD PUSH2 0x32B JUMP JUMPDEST CALLVALUE DUP1 ISZERO PUSH2 0x831 JUMPI PUSH1 0x0 DUP1 REVERT JUMPDEST POP PUSH2 0x3A2 PUSH2 0x840 CALLDATASIZE PUSH1 0x4 PUSH2 0x2987 JUMP JUMPDEST PUSH2 0x143E JUMP JUMPDEST CALLVALUE DUP1 ISZERO PUSH2 0x851 JUMPI PUSH1 0x0 DUP1 REVERT JUMPDEST POP PUSH2 0x3A2 PUSH2 0x860 CALLDATASIZE PUSH1 0x4 PUSH2 0x2987 JUMP JUMPDEST PUSH2 0x148D JUMP JUMPDEST CALLVALUE DUP1 ISZERO PUSH2 0x871 JUMPI PUSH1 0x0 DUP1 REVERT JUMPDEST POP PUSH1 0x15 SLOAD PUSH2 0x32B JUMP JUMPDEST CALLVALUE DUP1 ISZERO PUSH2 0x886 JUMPI PUSH1 0x0 DUP1 REVERT JUMPDEST POP PUSH2 0x35E PUSH2 0x895 CALLDATASIZE PUSH1 0x4 PUSH2 0x29B3 JUMP JUMPDEST PUSH2 0x149A JUMP JUMPDEST CALLVALUE DUP1 ISZERO PUSH2 0x8A6 JUMPI PUSH1 0x0 DUP1 REVERT JUMPDEST POP PUSH2 0x35E PUSH2 0x8B5 CALLDATASIZE PUSH1 0x4 PUSH2 0x2952 JUMP JUMPDEST PUSH2 0x1511 JUMP JUMPDEST CALLVALUE DUP1 ISZERO PUSH2 0x8C6 JUMPI PUSH1 0x0 DUP1 REVERT JUMPDEST POP PUSH2 0x32B PUSH1 0x16 SLOAD DUP2 JUMP JUMPDEST CALLVALUE DUP1 ISZERO PUSH2 0x8DC JUMPI PUSH1 0x0 DUP1 REVERT JUMPDEST POP PUSH2 0x32B PUSH1 0x17 SLOAD DUP2 JUMP JUMPDEST CALLVALUE DUP1 ISZERO PUSH2 0x8F2 JUMPI PUSH1 0x0 DUP1 REVERT JUMPDEST POP PUSH2 0x32B PUSH2 0x901 CALLDATASIZE PUSH1 0x4 PUSH2 0x28D8 JUMP JUMPDEST PUSH1 0x1 PUSH1 0x1 PUSH1 0xA0 SHL SUB SWAP2 DUP3 AND PUSH1 0x0 SWAP1 DUP2 MSTORE PUSH1 0x3 PUSH1 0x20 SWAP1 DUP2 MSTORE PUSH1 0x40 DUP1 DUP4 KECCAK256 SWAP4 SWAP1 SWAP5 AND DUP3 MSTORE SWAP2 SWAP1 SWAP2 MSTORE KECCAK256 SLOAD SWAP1 JUMP JUMPDEST CALLVALUE DUP1 ISZERO PUSH2 0x938 JUMPI PUSH1 0x0 DUP1 REVERT JUMPDEST POP PUSH2 0x35E PUSH2 0x947 CALLDATASIZE PUSH1 0x4 PUSH2 0x29CE JUMP JUMPDEST PUSH2 0x15BC JUMP JUMPDEST CALLVALUE DUP1 ISZERO PUSH2 0x958 JUMPI PUSH1 0x0 DUP1 REVERT JUMPDEST POP PUSH2 0x35E PUSH2 0x967 CALLDATASIZE PUSH1 0x4 PUSH2 0x289E JUMP JUMPDEST PUSH2 0x16B0 JUMP JUMPDEST CALLVALUE DUP1 ISZERO PUSH2 0x978 JUMPI PUSH1 0x0 DUP1 REVERT JUMPDEST POP PUSH2 0x35E PUSH2 0x987 CALLDATASIZE PUSH1 0x4 PUSH2 0x29CE JUMP JUMPDEST PUSH2 0x16FB JUMP JUMPDEST CALLVALUE DUP1 ISZERO PUSH2 0x998 JUMPI PUSH1 0x0 DUP1 REVERT JUMPDEST POP PUSH2 0x35E PUSH2 0x9A7 CALLDATASIZE PUSH1 0x4 PUSH2 0x29CE JUMP JUMPDEST PUSH2 0x17C5 JUMP JUMPDEST CALLVALUE DUP1 ISZERO PUSH2 0x9B8 JUMPI PUSH1 0x0 DUP1 REVERT JUMPDEST POP PUSH2 0x35E PUSH2 0x9C7 CALLDATASIZE PUSH1 0x4 PUSH2 0x289E JUMP JUMPDEST PUSH2 0x17F4 JUMP JUMPDEST PUSH1 0x0 SLOAD PUSH1 0x1 PUSH1 0x1 PUSH1 0xA0 SHL SUB AND CALLER EQ PUSH2 0x9FF JUMPI PUSH1 0x40 MLOAD PUSH3 0x461BCD PUSH1 0xE5 SHL DUP2 MSTORE PUSH1 0x4 ADD PUSH2 0x9F6 SWAP1 PUSH2 0x2AD8 JUMP JUMPDEST PUSH1 0x40 MLOAD DUP1 SWAP2 SUB SWAP1 REVERT JUMPDEST PUSH2 0x3E8 DUP2 GT ISZERO PUSH2 0xA46 JUMPI PUSH1 0x40 MLOAD PUSH3 0x461BCD PUSH1 0xE5 SHL DUP2 MSTORE PUSH1 0x20 PUSH1 0x4 DUP3 ADD MSTORE PUSH1 0x12 PUSH1 0x24 DUP3 ADD MSTORE PUSH18 0xE8C2F08CCACA40D2E640E8DEDE40D0D2CED PUSH1 0x73 SHL PUSH1 0x44 DUP3 ADD MSTORE PUSH1 0x64 ADD PUSH2 0x9F6 JUMP JUMPDEST PUSH1 0xF DUP2 SWAP1 SSTORE PUSH1 0x40 MLOAD DUP2 DUP2 MSTORE PUSH32 0xF79B8369BBC48F0096CDDC325370873A992398ED186423A4140DAE39BBD4D527 SWAP1 PUSH1 0x20 ADD JUMPDEST PUSH1 0x40 MLOAD DUP1 SWAP2 SUB SWAP1 LOG1 POP JUMP JUMPDEST PUSH1 0x60 PUSH1 0xC DUP1 SLOAD PUSH2 0xA91 SWAP1 PUSH2 0x2BDA JUMP JUMPDEST DUP1 PUSH1 0x1F ADD PUSH1 0x20 DUP1 SWAP2 DIV MUL PUSH1 0x20 ADD PUSH1 0x40 MLOAD SWAP1 DUP2 ADD PUSH1 0x40 MSTORE DUP1 SWAP3 SWAP2 SWAP1 DUP2 DUP2 MSTORE PUSH1 0x20 ADD DUP3 DUP1 SLOAD PUSH2 0xABD SWAP1 PUSH2 0x2BDA JUMP JUMPDEST DUP1 ISZERO PUSH2 0xB0A JUMPI DUP1 PUSH1 0x1F LT PUSH2 0xADF JUMPI PUSH2 0x100 DUP1 DUP4 SLOAD DIV MUL DUP4 MSTORE SWAP2 PUSH1 0x20 ADD SWAP2 PUSH2 0xB0A JUMP JUMPDEST DUP3 ADD SWAP2 SWAP1 PUSH1 0x0 MSTORE PUSH1 0x20 PUSH1 0x0 KECCAK256 SWAP1 JUMPDEST DUP2 SLOAD DUP2 MSTORE SWAP1 PUSH1 0x1 ADD SWAP1 PUSH1 0x20 ADD DUP1 DUP4 GT PUSH2 0xAED JUMPI DUP3 SWAP1 SUB PUSH1 0x1F AND DUP3 ADD SWAP2 JUMPDEST POP POP POP POP POP SWAP1 POP SWAP1 JUMP JUMPDEST PUSH1 0x0 PUSH2 0xB21 CALLER DUP5 DUP5 PUSH2 0x188F JUMP JUMPDEST POP PUSH1 0x1 JUMPDEST SWAP3 SWAP2 POP POP JUMP JUMPDEST PUSH1 0x0 SLOAD PUSH1 0x1 PUSH1 0x1 PUSH1 0xA0 SHL SUB AND CALLER EQ PUSH2 0xB55 JUMPI PUSH1 0x40 MLOAD PUSH3 0x461BCD PUSH1 0xE5 SHL DUP2 MSTORE PUSH1 0x4 ADD PUSH2 0x9F6 SWAP1 PUSH2 0x2AD8 JUMP JUMPDEST PUSH1 0x1 PUSH1 0x1 PUSH1 0xA0 SHL SUB DUP3 AND PUSH2 0xBAB JUMPI PUSH1 0x40 MLOAD PUSH3 0x461BCD PUSH1 0xE5 SHL DUP2 MSTORE PUSH1 0x20 PUSH1 0x4 DUP3 ADD MSTORE PUSH1 0x19 PUSH1 0x24 DUP3 ADD MSTORE PUSH32 0x45524332303A20696E76616C6964204C50206164647265737300000000000000 PUSH1 0x44 DUP3 ADD MSTORE PUSH1 0x64 ADD PUSH2 0x9F6 JUMP JUMPDEST PUSH1 0x19 SLOAD PUSH1 0x1 PUSH1 0x1 PUSH1 0xA0 SHL SUB DUP4 DUP2 AND SWAP2 AND EQ ISZERO DUP1 PUSH2 0xBCA JUMPI POP PUSH1 0x1 DUP2 ISZERO ISZERO EQ JUMPDEST PUSH2 0xC16 JUMPI PUSH1 0x40 MLOAD PUSH3 0x461BCD PUSH1 0xE5 SHL DUP2 MSTORE PUSH1 0x20 PUSH1 0x4 DUP3 ADD MSTORE PUSH1 0x1C PUSH1 0x24 DUP3 ADD MSTORE PUSH32 0x43616E6E6F74206578636C75646520756E697377617056325061697200000000 PUSH1 0x44 DUP3 ADD MSTORE PUSH1 0x64 ADD PUSH2 0x9F6 JUMP JUMPDEST PUSH1 0x1 PUSH1 0x1 PUSH1 0xA0 SHL SUB SWAP2 SWAP1 SWAP2 AND PUSH1 0x0 SWAP1 DUP2 MSTORE PUSH1 0x8 PUSH1 0x20 MSTORE PUSH1 0x40 SWAP1 KECCAK256 DUP1 SLOAD PUSH1 0xFF NOT AND SWAP2 ISZERO ISZERO SWAP2 SWAP1 SWAP2 OR SWAP1 SSTORE JUMP JUMPDEST PUSH1 0x0 SLOAD PUSH1 0x1 PUSH1 0x1 PUSH1 0xA0 SHL SUB AND CALLER EQ PUSH2 0xC6B JUMPI PUSH1 0x40 MLOAD PUSH3 0x461BCD PUSH1 0xE5 SHL DUP2 MSTORE PUSH1 0x4 ADD PUSH2 0x9F6 SWAP1 PUSH2 0x2AD8 JUMP JUMPDEST PUSH1 0x16 SSTORE JUMP JUMPDEST PUSH1 0x0 PUSH2 0xC7D DUP5 DUP5 DUP5 PUSH2 0x19B3 JUMP JUMPDEST PUSH2 0xCCF DUP5 CALLER PUSH2 0xCCA DUP6 PUSH1 0x40 MLOAD DUP1 PUSH1 0x60 ADD PUSH1 0x40 MSTORE DUP1 PUSH1 0x28 DUP2 MSTORE PUSH1 0x20 ADD PUSH2 0x2C88 PUSH1 0x28 SWAP2 CODECOPY PUSH1 0x1 PUSH1 0x1 PUSH1 0xA0 SHL SUB DUP11 AND PUSH1 0x0 SWAP1 DUP2 MSTORE PUSH1 0x3 PUSH1 0x20 SWAP1 DUP2 MSTORE PUSH1 0x40 DUP1 DUP4 KECCAK256 CALLER DUP5 MSTORE SWAP1 SWAP2 MSTORE SWAP1 KECCAK256 SLOAD SWAP2 SWAP1 PUSH2 0x1CE9 JUMP JUMPDEST PUSH2 0x188F JUMP JUMPDEST POP PUSH1 0x1 SWAP4 SWAP3 POP POP POP JUMP JUMPDEST PUSH1 0x0 SLOAD PUSH1 0x1 PUSH1 0x1 PUSH1 0xA0 SHL SUB AND CALLER EQ PUSH2 0xD03 JUMPI PUSH1 0x40 MLOAD PUSH3 0x461BCD PUSH1 0xE5 SHL DUP2 MSTORE PUSH1 0x4 ADD PUSH2 0x9F6 SWAP1 PUSH2 0x2AD8 JUMP JUMPDEST PUSH1 0x19 DUP1 SLOAD DUP3 ISZERO ISZERO PUSH1 0x1 PUSH1 0xB0 SHL MUL PUSH1 0xFF PUSH1 0xB0 SHL NOT SWAP1 SWAP2 AND OR SWAP1 SSTORE PUSH1 0x40 MLOAD PUSH32 0x3794234FA370C9F3B948DDA3E3040530785B2EF1EB27DDA3FFDE478F4E2643C0 SWAP1 PUSH2 0xA77 SWAP1 DUP4 ISZERO ISZERO DUP2 MSTORE PUSH1 0x20 ADD SWAP1 JUMP JUMPDEST PUSH1 0x0 PUSH1 0xA SLOAD DUP3 GT ISZERO PUSH2 0xDB7 JUMPI PUSH1 0x40 MLOAD PUSH3 0x461BCD PUSH1 0xE5 SHL DUP2 MSTORE PUSH1 0x20 PUSH1 0x4 DUP3 ADD MSTORE PUSH1 0x2A PUSH1 0x24 DUP3 ADD MSTORE PUSH32 0x416D6F756E74206D757374206265206C657373207468616E20746F74616C2072 PUSH1 0x44 DUP3 ADD MSTORE PUSH10 0x65666C656374696F6E73 PUSH1 0xB0 SHL PUSH1 0x64 DUP3 ADD MSTORE PUSH1 0x84 ADD PUSH2 0x9F6 JUMP JUMPDEST PUSH1 0x0 PUSH2 0xDC1 PUSH2 0x1D15 JUMP JUMPDEST SWAP1 POP PUSH2 0xDCD DUP4 DUP3 PUSH2 0x1D38 JUMP JUMPDEST SWAP4 SWAP3 POP POP POP JUMP JUMPDEST PUSH1 0x0 SLOAD PUSH1 0x1 PUSH1 0x1 PUSH1 0xA0 SHL SUB AND CALLER EQ PUSH2 0xDFE JUMPI PUSH1 0x40 MLOAD PUSH3 0x461BCD PUSH1 0xE5 SHL DUP2 MSTORE PUSH1 0x4 ADD PUSH2 0x9F6 SWAP1 PUSH2 0x2AD8 JUMP JUMPDEST PUSH1 0x0 DUP2 GT PUSH2 0xE40 JUMPI PUSH1 0x40 MLOAD PUSH3 0x461BCD PUSH1 0xE5 SHL DUP2 MSTORE PUSH1 0x20 PUSH1 0x4 DUP3 ADD MSTORE PUSH1 0xF PUSH1 0x24 DUP3 ADD MSTORE PUSH15 0x3732BBA0B6B7BAB73A1032B93937B9 PUSH1 0x89 SHL PUSH1 0x44 DUP3 ADD MSTORE PUSH1 0x64 ADD PUSH2 0x9F6 JUMP JUMPDEST PUSH1 0x17 SSTORE JUMP JUMPDEST PUSH1 0x0 SLOAD PUSH1 0x1 PUSH1 0x1 PUSH1 0xA0 SHL SUB AND CALLER EQ PUSH2 0xE6F JUMPI PUSH1 0x40 MLOAD PUSH3 0x461BCD PUSH1 0xE5 SHL DUP2 MSTORE PUSH1 0x4 ADD PUSH2 0x9F6 SWAP1 PUSH2 0x2AD8 JUMP JUMPDEST PUSH1 0x1 PUSH1 0x1 PUSH1 0xA0 SHL SUB DUP2 AND PUSH1 0x0 SWAP1 DUP2 MSTORE PUSH1 0x5 PUSH1 0x20 MSTORE PUSH1 0x40 SWAP1 KECCAK256 SLOAD PUSH1 0xFF AND PUSH2 0xED7 JUMPI PUSH1 0x40 MLOAD PUSH3 0x461BCD PUSH1 0xE5 SHL DUP2 MSTORE PUSH1 0x20 PUSH1 0x4 DUP3 ADD MSTORE PUSH1 0x1B PUSH1 0x24 DUP3 ADD MSTORE PUSH32 0x4163636F756E7420697320616C7265616479206578636C756465640000000000 PUSH1 0x44 DUP3 ADD MSTORE PUSH1 0x64 ADD PUSH2 0x9F6 JUMP JUMPDEST PUSH1 0x0 JUMPDEST PUSH1 0x6 SLOAD DUP2 LT ISZERO PUSH2 0x103F JUMPI DUP2 PUSH1 0x1 PUSH1 0x1 PUSH1 0xA0 SHL SUB AND PUSH1 0x6 DUP3 DUP2 SLOAD DUP2 LT PUSH2 0xF01 JUMPI PUSH2 0xF01 PUSH2 0x2C5C JUMP JUMPDEST PUSH1 0x0 SWAP2 DUP3 MSTORE PUSH1 0x20 SWAP1 SWAP2 KECCAK256 ADD SLOAD PUSH1 0x1 PUSH1 0x1 PUSH1 0xA0 SHL SUB AND EQ ISZERO PUSH2 0x102D JUMPI PUSH1 0x6 DUP1 SLOAD PUSH2 0xF2C SWAP1 PUSH1 0x1 SWAP1 PUSH2 0x2BC3 JUMP JUMPDEST DUP2 SLOAD DUP2 LT PUSH2 0xF3C JUMPI PUSH2 0xF3C PUSH2 0x2C5C JUMP JUMPDEST PUSH1 0x0 SWAP2 DUP3 MSTORE PUSH1 0x20 SWAP1 SWAP2 KECCAK256 ADD SLOAD PUSH1 0x6 DUP1 SLOAD PUSH1 0x1 PUSH1 0x1 PUSH1 0xA0 SHL SUB SWAP1 SWAP3 AND SWAP2 DUP4 SWAP1 DUP2 LT PUSH2 0xF68 JUMPI PUSH2 0xF68 PUSH2 0x2C5C JUMP JUMPDEST PUSH1 0x0 SWAP2 DUP3 MSTORE PUSH1 0x20 DUP3 KECCAK256 ADD DUP1 SLOAD PUSH1 0x1 PUSH1 0x1 PUSH1 0xA0 SHL SUB NOT AND PUSH1 0x1 PUSH1 0x1 PUSH1 0xA0 SHL SUB SWAP4 SWAP1 SWAP4 AND SWAP3 SWAP1 SWAP3 OR SWAP1 SWAP2 SSTORE PUSH2 0xF99 PUSH2 0x1D15 JUMP JUMPDEST PUSH1 0x1 PUSH1 0x1 PUSH1 0xA0 SHL SUB DUP5 AND PUSH1 0x0 SWAP1 DUP2 MSTORE PUSH1 0x2 PUSH1 0x20 MSTORE PUSH1 0x40 SWAP1 KECCAK256 SLOAD SWAP1 SWAP2 POP PUSH2 0xFBF SWAP1 DUP3 PUSH2 0x1D44 JUMP JUMPDEST PUSH1 0x1 PUSH1 0x1 PUSH1 0xA0 SHL SUB DUP5 AND PUSH1 0x0 SWAP1 DUP2 MSTORE PUSH1 0x1 PUSH1 0x20 SWAP1 DUP2 MSTORE PUSH1 0x40 DUP1 DUP4 KECCAK256 SWAP4 SWAP1 SWAP4 SSTORE PUSH1 0x2 DUP2 MSTORE DUP3 DUP3 KECCAK256 DUP3 SWAP1 SSTORE PUSH1 0x5 SWAP1 MSTORE KECCAK256 DUP1 SLOAD PUSH1 0xFF NOT AND SWAP1 SSTORE PUSH1 0x6 DUP1 SLOAD DUP1 PUSH2 0x1006 JUMPI PUSH2 0x1006 PUSH2 0x2C46 JUMP JUMPDEST PUSH1 0x0 DUP3 DUP2 MSTORE PUSH1 0x20 SWAP1 KECCAK256 DUP2 ADD PUSH1 0x0 NOT SWAP1 DUP2 ADD DUP1 SLOAD PUSH1 0x1 PUSH1 0x1 PUSH1 0xA0 SHL SUB NOT AND SWAP1 SSTORE ADD SWAP1 SSTORE POP POP POP JUMP JUMPDEST DUP1 PUSH2 0x1037 DUP2 PUSH2 0x2C15 JUMP JUMPDEST SWAP2 POP POP PUSH2 0xEDA JUMP JUMPDEST POP POP JUMP JUMPDEST CALLER PUSH1 0x0 DUP2 DUP2 MSTORE PUSH1 0x3 PUSH1 0x20 SWAP1 DUP2 MSTORE PUSH1 0x40 DUP1 DUP4 KECCAK256 PUSH1 0x1 PUSH1 0x1 PUSH1 0xA0 SHL SUB DUP8 AND DUP5 MSTORE SWAP1 SWAP2 MSTORE DUP2 KECCAK256 SLOAD SWAP1 SWAP2 PUSH2 0xB21 SWAP2 DUP6 SWAP1 PUSH2 0xCCA SWAP1 DUP7 PUSH2 0x1D50 JUMP JUMPDEST PUSH1 0x0 SLOAD PUSH1 0x1 PUSH1 0x1 PUSH1 0xA0 SHL SUB AND CALLER EQ PUSH2 0x10A3 JUMPI PUSH1 0x40 MLOAD PUSH3 0x461BCD PUSH1 0xE5 SHL DUP2 MSTORE PUSH1 0x4 ADD PUSH2 0x9F6 SWAP1 PUSH2 0x2AD8 JUMP JUMPDEST PUSH1 0x1 PUSH1 0x1 PUSH1 0xA0 SHL SUB AND PUSH1 0x0 SWAP1 DUP2 MSTORE PUSH1 0x4 PUSH1 0x20 MSTORE PUSH1 0x40 SWAP1 KECCAK256 DUP1 SLOAD PUSH1 0xFF NOT AND PUSH1 0x1 OR SWAP1 SSTORE JUMP JUMPDEST PUSH1 0x0 PUSH1 0x9 SLOAD DUP4 GT ISZERO PUSH2 0x111B JUMPI PUSH1 0x40 MLOAD PUSH3 0x461BCD PUSH1 0xE5 SHL DUP2 MSTORE PUSH1 0x20 PUSH1 0x4 DUP3 ADD MSTORE PUSH1 0x1F PUSH1 0x24 DUP3 ADD MSTORE PUSH32 0x416D6F756E74206D757374206265206C657373207468616E20737570706C7900 PUSH1 0x44 DUP3 ADD MSTORE PUSH1 0x64 ADD PUSH2 0x9F6 JUMP JUMPDEST DUP2 PUSH2 0x113A JUMPI PUSH1 0x0 PUSH2 0x112B DUP5 PUSH2 0x1D5C JUMP JUMPDEST POP SWAP4 SWAP6 POP PUSH2 0xB25 SWAP5 POP POP POP POP POP JUMP JUMPDEST PUSH1 0x0 PUSH2 0x1145 DUP5 PUSH2 0x1D5C JUMP JUMPDEST POP SWAP3 SWAP6 POP PUSH2 0xB25 SWAP5 POP POP POP POP POP JUMP JUMPDEST PUSH1 0x0 SLOAD PUSH1 0x1 PUSH1 0x1 PUSH1 0xA0 SHL SUB AND CALLER EQ PUSH2 0x117E JUMPI PUSH1 0x40 MLOAD PUSH3 0x461BCD PUSH1 0xE5 SHL DUP2 MSTORE PUSH1 0x4 ADD PUSH2 0x9F6 SWAP1 PUSH2 0x2AD8 JUMP JUMPDEST PUSH1 0x1 PUSH1 0x1 PUSH1 0xA0 SHL SUB DUP2 AND PUSH1 0x0 SWAP1 DUP2 MSTORE PUSH1 0x5 PUSH1 0x20 MSTORE PUSH1 0x40 SWAP1 KECCAK256 SLOAD PUSH1 0xFF AND ISZERO PUSH2 0x11E7 JUMPI PUSH1 0x40 MLOAD PUSH3 0x461BCD PUSH1 0xE5 SHL DUP2 MSTORE PUSH1 0x20 PUSH1 0x4 DUP3 ADD MSTORE PUSH1 0x1B PUSH1 0x24 DUP3 ADD MSTORE PUSH32 0x4163636F756E7420697320616C7265616479206578636C756465640000000000 PUSH1 0x44 DUP3 ADD MSTORE PUSH1 0x64 ADD PUSH2 0x9F6 JUMP JUMPDEST PUSH1 0x1 PUSH1 0x1 PUSH1 0xA0 SHL SUB DUP2 AND PUSH1 0x0 SWAP1 DUP2 MSTORE PUSH1 0x1 PUSH1 0x20 MSTORE PUSH1 0x40 SWAP1 KECCAK256 SLOAD ISZERO PUSH2 0x1241 JUMPI PUSH1 0x1 PUSH1 0x1 PUSH1 0xA0 SHL SUB DUP2 AND PUSH1 0x0 SWAP1 DUP2 MSTORE PUSH1 0x1 PUSH1 0x20 MSTORE PUSH1 0x40 SWAP1 KECCAK256 SLOAD PUSH2 0x1227 SWAP1 PUSH2 0xD50 JUMP JUMPDEST PUSH1 0x1 PUSH1 0x1 PUSH1 0xA0 SHL SUB DUP3 AND PUSH1 0x0 SWAP1 DUP2 MSTORE PUSH1 0x2 PUSH1 0x20 MSTORE PUSH1 0x40 SWAP1 KECCAK256 SSTORE JUMPDEST PUSH1 0x1 PUSH1 0x1 PUSH1 0xA0 SHL SUB AND PUSH1 0x0 DUP2 DUP2 MSTORE PUSH1 0x5 PUSH1 0x20 MSTORE PUSH1 0x40 DUP2 KECCAK256 DUP1 SLOAD PUSH1 0xFF NOT AND PUSH1 0x1 SWAP1 DUP2 OR SWAP1 SWAP2 SSTORE PUSH1 0x6 DUP1 SLOAD SWAP2 DUP3 ADD DUP2 SSTORE SWAP1 SWAP2 MSTORE PUSH32 0xF652222313E28459528D920B65115C16C04F3EFC82AAEDC97BE59F3F377C0D3F ADD DUP1 SLOAD PUSH1 0x1 PUSH1 0x1 PUSH1 0xA0 SHL SUB NOT AND SWAP1 SWAP2 OR SWAP1 SSTORE JUMP JUMPDEST PUSH1 0x1 PUSH1 0x1 PUSH1 0xA0 SHL SUB DUP2 AND PUSH1 0x0 SWAP1 DUP2 MSTORE PUSH1 0x5 PUSH1 0x20 MSTORE PUSH1 0x40 DUP2 KECCAK256 SLOAD PUSH1 0xFF AND ISZERO PUSH2 0x12E4 JUMPI POP PUSH1 0x1 PUSH1 0x1 PUSH1 0xA0 SHL SUB AND PUSH1 0x0 SWAP1 DUP2 MSTORE PUSH1 0x2 PUSH1 0x20 MSTORE PUSH1 0x40 SWAP1 KECCAK256 SLOAD SWAP1 JUMP JUMPDEST PUSH1 0x1 PUSH1 0x1 PUSH1 0xA0 SHL SUB DUP3 AND PUSH1 0x0 SWAP1 DUP2 MSTORE PUSH1 0x1 PUSH1 0x20 MSTORE PUSH1 0x40 SWAP1 KECCAK256 SLOAD PUSH2 0xB25 SWAP1 PUSH2 0xD50 JUMP JUMPDEST PUSH1 0x0 SLOAD PUSH1 0x1 PUSH1 0x1 PUSH1 0xA0 SHL SUB AND CALLER EQ PUSH2 0x1330 JUMPI PUSH1 0x40 MLOAD PUSH3 0x461BCD PUSH1 0xE5 SHL DUP2 MSTORE PUSH1 0x4 ADD PUSH2 0x9F6 SWAP1 PUSH2 0x2AD8 JUMP JUMPDEST PUSH2 0x133A PUSH1 0x0 PUSH2 0x1DAB JUMP JUMPDEST JUMP JUMPDEST PUSH1 0x0 SLOAD PUSH1 0x1 PUSH1 0x1 PUSH1 0xA0 SHL SUB AND CALLER EQ PUSH2 0x1366 JUMPI PUSH1 0x40 MLOAD PUSH3 0x461BCD PUSH1 0xE5 SHL DUP2 MSTORE PUSH1 0x4 ADD PUSH2 0x9F6 SWAP1 PUSH2 0x2AD8 JUMP JUMPDEST PUSH2 0x1378 DUP2 PUSH8 0xDE0B6B3A7640000 PUSH2 0x2BA4 JUMP JUMPDEST PUSH1 0x15 SSTORE POP JUMP JUMPDEST PUSH1 0x0 SLOAD PUSH1 0x1 PUSH1 0x1 PUSH1 0xA0 SHL SUB AND CALLER EQ PUSH2 0x13A8 JUMPI PUSH1 0x40 MLOAD PUSH3 0x461BCD PUSH1 0xE5 SHL DUP2 MSTORE PUSH1 0x4 ADD PUSH2 0x9F6 SWAP1 PUSH2 0x2AD8 JUMP JUMPDEST PUSH2 0x3E8 DUP2 GT ISZERO PUSH2 0x13FA JUMPI PUSH1 0x40 MLOAD PUSH3 0x461BCD PUSH1 0xE5 SHL DUP2 MSTORE PUSH1 0x20 PUSH1 0x4 DUP3 ADD MSTORE PUSH1 0x18 PUSH1 0x24 DUP3 ADD MSTORE PUSH32 0x6C697175696469747946656520697320746F6F20686967680000000000000000 PUSH1 0x44 DUP3 ADD MSTORE PUSH1 0x64 ADD PUSH2 0x9F6 JUMP JUMPDEST PUSH1 0x11 DUP2 SWAP1 SSTORE PUSH1 0x40 MLOAD DUP2 DUP2 MSTORE PUSH32 0xDE09F22502BB378FFEE23FBAD74562DFF8780163FAA0EC9E865D47D450C40349 SWAP1 PUSH1 0x20 ADD PUSH2 0xA77 JUMP JUMPDEST PUSH1 0x60 PUSH1 0xD DUP1 SLOAD PUSH2 0xA91 SWAP1 PUSH2 0x2BDA JUMP JUMPDEST PUSH1 0x0 PUSH2 0xB21 CALLER DUP5 PUSH2 0xCCA DUP6 PUSH1 0x40 MLOAD DUP1 PUSH1 0x60 ADD PUSH1 0x40 MSTORE DUP1 PUSH1 0x25 DUP2 MSTORE PUSH1 0x20 ADD PUSH2 0x2CB0 PUSH1 0x25 SWAP2 CODECOPY CALLER PUSH1 0x0 SWAP1 DUP2 MSTORE PUSH1 0x3 PUSH1 0x20 SWAP1 DUP2 MSTORE PUSH1 0x40 DUP1 DUP4 KECCAK256 PUSH1 0x1 PUSH1 0x1 PUSH1 0xA0 SHL SUB DUP14 AND DUP5 MSTORE SWAP1 SWAP2 MSTORE SWAP1 KECCAK256 SLOAD SWAP2 SWAP1 PUSH2 0x1CE9 JUMP JUMPDEST PUSH1 0x0 PUSH2 0xB21 CALLER DUP5 DUP5 PUSH2 0x19B3 JUMP JUMPDEST PUSH1 0x0 SLOAD PUSH1 0x1 PUSH1 0x1 PUSH1 0xA0 SHL SUB AND CALLER EQ PUSH2 0x14C4 JUMPI PUSH1 0x40 MLOAD PUSH3 0x461BCD PUSH1 0xE5 SHL DUP2 MSTORE PUSH1 0x4 ADD PUSH2 0x9F6 SWAP1 PUSH2 0x2AD8 JUMP JUMPDEST PUSH1 0x19 DUP1 SLOAD DUP3 ISZERO ISZERO PUSH1 0x1 PUSH1 0xA8 SHL MUL PUSH1 0xFF PUSH1 0xA8 SHL NOT SWAP1 SWAP2 AND OR SWAP1 SSTORE PUSH1 0x40 MLOAD PUSH32 0x53726DFCAF90650AA7EB35524F4D3220F07413C8D6CB404CC8C18BF5591BC159 SWAP1 PUSH2 0xA77 SWAP1 DUP4 ISZERO ISZERO DUP2 MSTORE PUSH1 0x20 ADD SWAP1 JUMP JUMPDEST PUSH1 0x0 SLOAD PUSH1 0x1 PUSH1 0x1 PUSH1 0xA0 SHL SUB AND CALLER EQ PUSH2 0x153B JUMPI PUSH1 0x40 MLOAD PUSH3 0x461BCD PUSH1 0xE5 SHL DUP2 MSTORE PUSH1 0x4 ADD PUSH2 0x9F6 SWAP1 PUSH2 0x2AD8 JUMP JUMPDEST PUSH1 0x1 PUSH1 0x1 PUSH1 0xA0 SHL SUB DUP3 AND PUSH2 0x1591 JUMPI PUSH1 0x40 MLOAD PUSH3 0x461BCD PUSH1 0xE5 SHL DUP2 MSTORE PUSH1 0x20 PUSH1 0x4 DUP3 ADD MSTORE PUSH1 0x1E PUSH1 0x24 DUP3 ADD MSTORE PUSH32 0x45524332303A20696E76616C6964206163636F756E7420616464726573730000 PUSH1 0x44 DUP3 ADD MSTORE PUSH1 0x64 ADD PUSH2 0x9F6 JUMP JUMPDEST PUSH1 0x1 PUSH1 0x1 PUSH1 0xA0 SHL SUB SWAP2 SWAP1 SWAP2 AND PUSH1 0x0 SWAP1 DUP2 MSTORE PUSH1 0x7 PUSH1 0x20 MSTORE PUSH1 0x40 SWAP1 KECCAK256 DUP1 SLOAD PUSH1 0xFF NOT AND SWAP2 ISZERO ISZERO SWAP2 SWAP1 SWAP2 OR SWAP1 SSTORE JUMP JUMPDEST PUSH1 0x0 SLOAD PUSH1 0x1 PUSH1 0x1 PUSH1 0xA0 SHL SUB AND CALLER EQ PUSH2 0x15E6 JUMPI PUSH1 0x40 MLOAD PUSH3 0x461BCD PUSH1 0xE5 SHL DUP2 MSTORE PUSH1 0x4 ADD PUSH2 0x9F6 SWAP1 PUSH2 0x2AD8 JUMP JUMPDEST PUSH1 0x19 SLOAD SELFBALANCE SWAP1 PUSH1 0x1 PUSH1 0xB0 SHL SWAP1 DIV PUSH1 0xFF AND PUSH2 0x163A JUMPI PUSH1 0x40 MLOAD PUSH3 0x461BCD PUSH1 0xE5 SHL DUP2 MSTORE PUSH1 0x20 PUSH1 0x4 DUP3 ADD MSTORE PUSH1 0x16 PUSH1 0x24 DUP3 ADD MSTORE PUSH22 0x189D5E589858DAC81A5CC81B9BDD08195B98589B1959 PUSH1 0x52 SHL PUSH1 0x44 DUP3 ADD MSTORE PUSH1 0x64 ADD PUSH2 0x9F6 JUMP JUMPDEST PUSH1 0x16 SLOAD PUSH2 0x1647 SWAP1 DUP4 PUSH2 0x1D50 JUMP JUMPDEST DUP2 LT ISZERO PUSH2 0x1696 JUMPI PUSH1 0x40 MLOAD PUSH3 0x461BCD PUSH1 0xE5 SHL DUP2 MSTORE PUSH1 0x20 PUSH1 0x4 DUP3 ADD MSTORE PUSH1 0x19 PUSH1 0x24 DUP3 ADD MSTORE PUSH32 0x6275796261636B20616D6F756E7420697320746F6F2062696700000000000000 PUSH1 0x44 DUP3 ADD MSTORE PUSH1 0x64 ADD PUSH2 0x9F6 JUMP JUMPDEST PUSH1 0x19 SLOAD PUSH1 0x1 PUSH1 0xA0 SHL SWAP1 DIV PUSH1 0xFF AND PUSH2 0x103F JUMPI PUSH2 0x103F DUP3 PUSH2 0x1DFB JUMP JUMPDEST PUSH1 0x0 SLOAD PUSH1 0x1 PUSH1 0x1 PUSH1 0xA0 SHL SUB AND CALLER EQ PUSH2 0x16DA JUMPI PUSH1 0x40 MLOAD PUSH3 0x461BCD PUSH1 0xE5 SHL DUP2 MSTORE PUSH1 0x4 ADD PUSH2 0x9F6 SWAP1 PUSH2 0x2AD8 JUMP JUMPDEST PUSH1 0x1 PUSH1 0x1 PUSH1 0xA0 SHL SUB AND PUSH1 0x0 SWAP1 DUP2 MSTORE PUSH1 0x4 PUSH1 0x20 MSTORE PUSH1 0x40 SWAP1 KECCAK256 DUP1 SLOAD PUSH1 0xFF NOT AND SWAP1 SSTORE JUMP JUMPDEST PUSH1 0x0 SLOAD PUSH1 0x1 PUSH1 0x1 PUSH1 0xA0 SHL SUB AND CALLER EQ PUSH2 0x1725 JUMPI PUSH1 0x40 MLOAD PUSH3 0x461BCD PUSH1 0xE5 SHL DUP2 MSTORE PUSH1 0x4 ADD PUSH2 0x9F6 SWAP1 PUSH2 0x2AD8 JUMP JUMPDEST PUSH8 0xDE0B6B3A7640000 DUP2 LT ISZERO PUSH2 0x1790 JUMPI PUSH1 0x40 MLOAD PUSH3 0x461BCD PUSH1 0xE5 SHL DUP2 MSTORE PUSH1 0x20 PUSH1 0x4 DUP3 ADD MSTORE PUSH1 0x2A PUSH1 0x24 DUP3 ADD MSTORE PUSH32 0x6D61785478416D6F756E74206861766520746F20626520677265617465722074 PUSH1 0x44 DUP3 ADD MSTORE PUSH10 0x3430B710189029AA20A9 PUSH1 0xB1 SHL PUSH1 0x64 DUP3 ADD MSTORE PUSH1 0x84 ADD PUSH2 0x9F6 JUMP JUMPDEST PUSH1 0x13 DUP2 SWAP1 SSTORE PUSH1 0x40 MLOAD DUP2 DUP2 MSTORE PUSH32 0xAA3699EEFC959AF0349072633CE13D21CE9C6FE475E5818B99DA990EE39645A1 SWAP1 PUSH1 0x20 ADD PUSH2 0xA77 JUMP JUMPDEST PUSH1 0x0 SLOAD PUSH1 0x1 PUSH1 0x1 PUSH1 0xA0 SHL SUB AND CALLER EQ PUSH2 0x17EF JUMPI PUSH1 0x40 MLOAD PUSH3 0x461BCD PUSH1 0xE5 SHL DUP2 MSTORE PUSH1 0x4 ADD PUSH2 0x9F6 SWAP1 PUSH2 0x2AD8 JUMP JUMPDEST PUSH1 0x14 SSTORE JUMP JUMPDEST PUSH1 0x0 SLOAD PUSH1 0x1 PUSH1 0x1 PUSH1 0xA0 SHL SUB AND CALLER EQ PUSH2 0x181E JUMPI PUSH1 0x40 MLOAD PUSH3 0x461BCD PUSH1 0xE5 SHL DUP2 MSTORE PUSH1 0x4 ADD PUSH2 0x9F6 SWAP1 PUSH2 0x2AD8 JUMP JUMPDEST PUSH1 0x1 PUSH1 0x1 PUSH1 0xA0 SHL SUB DUP2 AND PUSH2 0x1883 JUMPI PUSH1 0x40 MLOAD PUSH3 0x461BCD PUSH1 0xE5 SHL DUP2 MSTORE PUSH1 0x20 PUSH1 0x4 DUP3 ADD MSTORE PUSH1 0x26 PUSH1 0x24 DUP3 ADD MSTORE PUSH32 0x4F776E61626C653A206E6577206F776E657220697320746865207A65726F2061 PUSH1 0x44 DUP3 ADD MSTORE PUSH6 0x646472657373 PUSH1 0xD0 SHL PUSH1 0x64 DUP3 ADD MSTORE PUSH1 0x84 ADD PUSH2 0x9F6 JUMP JUMPDEST PUSH2 0x188C DUP2 PUSH2 0x1DAB JUMP JUMPDEST POP JUMP JUMPDEST PUSH1 0x1 PUSH1 0x1 PUSH1 0xA0 SHL SUB DUP4 AND PUSH2 0x18F1 JUMPI PUSH1 0x40 MLOAD PUSH3 0x461BCD PUSH1 0xE5 SHL DUP2 MSTORE PUSH1 0x20 PUSH1 0x4 DUP3 ADD MSTORE PUSH1 0x24 DUP1 DUP3 ADD MSTORE PUSH32 0x45524332303A20617070726F76652066726F6D20746865207A65726F20616464 PUSH1 0x44 DUP3 ADD MSTORE PUSH4 0x72657373 PUSH1 0xE0 SHL PUSH1 0x64 DUP3 ADD MSTORE PUSH1 0x84 ADD PUSH2 0x9F6 JUMP JUMPDEST PUSH1 0x1 PUSH1 0x1 PUSH1 0xA0 SHL SUB DUP3 AND PUSH2 0x1952 JUMPI PUSH1 0x40 MLOAD PUSH3 0x461BCD PUSH1 0xE5 SHL DUP2 MSTORE PUSH1 0x20 PUSH1 0x4 DUP3 ADD MSTORE PUSH1 0x22 PUSH1 0x24 DUP3 ADD MSTORE PUSH32 0x45524332303A20617070726F766520746F20746865207A65726F206164647265 PUSH1 0x44 DUP3 ADD MSTORE PUSH2 0x7373 PUSH1 0xF0 SHL PUSH1 0x64 DUP3 ADD MSTORE PUSH1 0x84 ADD PUSH2 0x9F6 JUMP JUMPDEST PUSH1 0x1 PUSH1 0x1 PUSH1 0xA0 SHL SUB DUP4 DUP2 AND PUSH1 0x0 DUP2 DUP2 MSTORE PUSH1 0x3 PUSH1 0x20 SWAP1 DUP2 MSTORE PUSH1 0x40 DUP1 DUP4 KECCAK256 SWAP5 DUP8 AND DUP1 DUP5 MSTORE SWAP5 DUP3 MSTORE SWAP2 DUP3 SWAP1 KECCAK256 DUP6 SWAP1 SSTORE SWAP1 MLOAD DUP5 DUP2 MSTORE PUSH32 0x8C5BE1E5EBEC7D5BD14F71427D1E84F3DD0314C0F7B2291E5B200AC8C7C3B925 SWAP2 ADD PUSH1 0x40 MLOAD DUP1 SWAP2 SUB SWAP1 LOG3 POP POP POP JUMP JUMPDEST PUSH1 0x1 PUSH1 0x1 PUSH1 0xA0 SHL SUB DUP4 AND PUSH2 0x1A17 JUMPI PUSH1 0x40 MLOAD PUSH3 0x461BCD PUSH1 0xE5 SHL DUP2 MSTORE PUSH1 0x20 PUSH1 0x4 DUP3 ADD MSTORE PUSH1 0x25 PUSH1 0x24 DUP3 ADD MSTORE PUSH32 0x45524332303A207472616E736665722066726F6D20746865207A65726F206164 PUSH1 0x44 DUP3 ADD MSTORE PUSH5 0x6472657373 PUSH1 0xD8 SHL PUSH1 0x64 DUP3 ADD MSTORE PUSH1 0x84 ADD PUSH2 0x9F6 JUMP JUMPDEST PUSH1 0x1 PUSH1 0x1 PUSH1 0xA0 SHL SUB DUP3 AND PUSH2 0x1A79 JUMPI PUSH1 0x40 MLOAD PUSH3 0x461BCD PUSH1 0xE5 SHL DUP2 MSTORE PUSH1 0x20 PUSH1 0x4 DUP3 ADD MSTORE PUSH1 0x23 PUSH1 0x24 DUP3 ADD MSTORE PUSH32 0x45524332303A207472616E7366657220746F20746865207A65726F2061646472 PUSH1 0x44 DUP3 ADD MSTORE PUSH3 0x657373 PUSH1 0xE8 SHL PUSH1 0x64 DUP3 ADD MSTORE PUSH1 0x84 ADD PUSH2 0x9F6 JUMP JUMPDEST PUSH1 0x0 DUP2 GT PUSH2 0x1ADB JUMPI PUSH1 0x40 MLOAD PUSH3 0x461BCD PUSH1 0xE5 SHL DUP2 MSTORE PUSH1 0x20 PUSH1 0x4 DUP3 ADD MSTORE PUSH1 0x29 PUSH1 0x24 DUP3 ADD MSTORE PUSH32 0x5472616E7366657220616D6F756E74206D757374206265206772656174657220 PUSH1 0x44 DUP3 ADD MSTORE PUSH9 0x7468616E207A65726F PUSH1 0xB8 SHL PUSH1 0x64 DUP3 ADD MSTORE PUSH1 0x84 ADD PUSH2 0x9F6 JUMP JUMPDEST PUSH1 0x1 PUSH1 0x1 PUSH1 0xA0 SHL SUB DUP4 AND PUSH1 0x0 SWAP1 DUP2 MSTORE PUSH1 0x7 PUSH1 0x20 MSTORE PUSH1 0x40 SWAP1 KECCAK256 SLOAD PUSH1 0xFF AND ISZERO DUP1 ISZERO PUSH2 0x1B1D JUMPI POP PUSH1 0x1 PUSH1 0x1 PUSH1 0xA0 SHL SUB DUP3 AND PUSH1 0x0 SWAP1 DUP2 MSTORE PUSH1 0x7 PUSH1 0x20 MSTORE PUSH1 0x40 SWAP1 KECCAK256 SLOAD PUSH1 0xFF AND ISZERO JUMPDEST ISZERO PUSH2 0x1B85 JUMPI PUSH1 0x13 SLOAD DUP2 GT ISZERO PUSH2 0x1B85 JUMPI PUSH1 0x40 MLOAD PUSH3 0x461BCD PUSH1 0xE5 SHL DUP2 MSTORE PUSH1 0x20 PUSH1 0x4 DUP3 ADD MSTORE PUSH1 0x28 PUSH1 0x24 DUP3 ADD MSTORE PUSH32 0x5472616E7366657220616D6F756E74206578636565647320746865206D617854 PUSH1 0x44 DUP3 ADD MSTORE PUSH8 0x3C20B6B7BAB73A17 PUSH1 0xC1 SHL PUSH1 0x64 DUP3 ADD MSTORE PUSH1 0x84 ADD PUSH2 0x9F6 JUMP JUMPDEST PUSH1 0x0 PUSH2 0x1B90 ADDRESS PUSH2 0x12A7 JUMP JUMPDEST PUSH1 0x14 SLOAD PUSH1 0x19 SLOAD SWAP2 SWAP3 POP DUP3 LT ISZERO SWAP1 PUSH1 0x1 PUSH1 0xA0 SHL SWAP1 DIV PUSH1 0xFF AND ISZERO DUP1 ISZERO PUSH2 0x1BBD JUMPI POP PUSH1 0x19 SLOAD PUSH1 0x1 PUSH1 0xA8 SHL SWAP1 DIV PUSH1 0xFF AND JUMPDEST DUP1 ISZERO PUSH2 0x1BE2 JUMPI POP PUSH1 0x1 PUSH1 0x1 PUSH1 0xA0 SHL SUB DUP6 AND PUSH1 0x0 SWAP1 DUP2 MSTORE PUSH1 0x8 PUSH1 0x20 MSTORE PUSH1 0x40 SWAP1 KECCAK256 SLOAD PUSH1 0xFF AND ISZERO JUMPDEST DUP1 ISZERO PUSH2 0x1BFC JUMPI POP PUSH1 0x0 SLOAD PUSH1 0x1 PUSH1 0x1 PUSH1 0xA0 SHL SUB DUP7 DUP2 AND SWAP2 AND EQ ISZERO JUMPDEST ISZERO PUSH2 0x1C8A JUMPI DUP1 ISZERO PUSH2 0x1C15 JUMPI PUSH1 0x14 SLOAD SWAP2 POP PUSH2 0x1C15 DUP3 PUSH2 0x1E2D JUMP JUMPDEST PUSH1 0x1 PUSH1 0x1 PUSH1 0xA0 SHL SUB DUP5 AND PUSH1 0x0 SWAP1 DUP2 MSTORE PUSH1 0x8 PUSH1 0x20 MSTORE PUSH1 0x40 SWAP1 KECCAK256 SLOAD PUSH1 0xFF AND ISZERO PUSH2 0x1C8A JUMPI PUSH1 0x19 SLOAD SELFBALANCE SWAP1 PUSH1 0x1 PUSH1 0xB0 SHL SWAP1 DIV PUSH1 0xFF AND DUP1 ISZERO PUSH2 0x1C53 JUMPI POP PUSH1 0x16 SLOAD DUP2 LT ISZERO JUMPDEST DUP1 ISZERO PUSH2 0x1C61 JUMPI POP PUSH1 0x17 SLOAD DUP5 LT ISZERO JUMPDEST ISZERO PUSH2 0x1C88 JUMPI PUSH1 0x15 SLOAD DUP2 GT ISZERO PUSH2 0x1C75 JUMPI POP PUSH1 0x15 SLOAD JUMPDEST PUSH2 0x1C88 PUSH2 0x1C83 DUP3 PUSH1 0x64 PUSH2 0x1D38 JUMP JUMPDEST PUSH2 0x1DFB JUMP JUMPDEST POP JUMPDEST PUSH1 0x1 PUSH1 0x1 PUSH1 0xA0 SHL SUB DUP6 AND PUSH1 0x0 SWAP1 DUP2 MSTORE PUSH1 0x4 PUSH1 0x20 MSTORE PUSH1 0x40 SWAP1 KECCAK256 SLOAD PUSH1 0x1 SWAP1 PUSH1 0xFF AND DUP1 PUSH2 0x1CCC JUMPI POP PUSH1 0x1 PUSH1 0x1 PUSH1 0xA0 SHL SUB DUP6 AND PUSH1 0x0 SWAP1 DUP2 MSTORE PUSH1 0x4 PUSH1 0x20 MSTORE PUSH1 0x40 SWAP1 KECCAK256 SLOAD PUSH1 0xFF AND JUMPDEST ISZERO PUSH2 0x1CD5 JUMPI POP PUSH1 0x0 JUMPDEST PUSH2 0x1CE1 DUP7 DUP7 DUP7 DUP5 PUSH2 0x1E49 JUMP JUMPDEST POP POP POP POP POP POP JUMP JUMPDEST PUSH1 0x0 DUP2 DUP5 DUP5 GT ISZERO PUSH2 0x1D0D JUMPI PUSH1 0x40 MLOAD PUSH3 0x461BCD PUSH1 0xE5 SHL DUP2 MSTORE PUSH1 0x4 ADD PUSH2 0x9F6 SWAP2 SWAP1 PUSH2 0x2A83 JUMP JUMPDEST POP POP POP SWAP1 SUB SWAP1 JUMP JUMPDEST PUSH1 0x0 DUP1 PUSH1 0x0 PUSH2 0x1D22 PUSH2 0x1F74 JUMP JUMPDEST SWAP1 SWAP3 POP SWAP1 POP PUSH2 0x1D31 DUP3 DUP3 PUSH2 0x1D38 JUMP JUMPDEST SWAP3 POP POP POP SWAP1 JUMP JUMPDEST PUSH1 0x0 PUSH2 0xDCD DUP3 DUP5 PUSH2 0x2B82 JUMP JUMPDEST PUSH1 0x0 PUSH2 0xDCD DUP3 DUP5 PUSH2 0x2BA4 JUMP JUMPDEST PUSH1 0x0 PUSH2 0xDCD DUP3 DUP5 PUSH2 0x2B6A JUMP JUMPDEST PUSH1 0x0 DUP1 PUSH1 0x0 DUP1 PUSH1 0x0 DUP1 PUSH1 0x0 DUP1 PUSH1 0x0 PUSH2 0x1D73 DUP11 PUSH2 0x20F6 JUMP JUMPDEST SWAP3 POP SWAP3 POP SWAP3 POP PUSH1 0x0 DUP1 PUSH1 0x0 PUSH2 0x1D91 DUP14 DUP7 DUP7 PUSH2 0x1D8C PUSH2 0x1D15 JUMP JUMPDEST PUSH2 0x2138 JUMP JUMPDEST SWAP2 SWAP16 SWAP1 SWAP15 POP SWAP1 SWAP13 POP SWAP6 SWAP11 POP SWAP4 SWAP9 POP SWAP2 SWAP7 POP SWAP3 SWAP5 POP POP POP POP POP JUMP JUMPDEST PUSH1 0x0 DUP1 SLOAD PUSH1 0x1 PUSH1 0x1 PUSH1 0xA0 SHL SUB DUP4 DUP2 AND PUSH1 0x1 PUSH1 0x1 PUSH1 0xA0 SHL SUB NOT DUP4 AND DUP2 OR DUP5 SSTORE PUSH1 0x40 MLOAD SWAP2 SWAP1 SWAP3 AND SWAP3 DUP4 SWAP2 PUSH32 0x8BE0079C531659141344CD1FD0A4F28419497F9722A3DAAFE3B4186F6B6457E0 SWAP2 SWAP1 LOG3 POP POP JUMP JUMPDEST PUSH1 0x19 DUP1 SLOAD PUSH1 0xFF PUSH1 0xA0 SHL NOT AND PUSH1 0x1 PUSH1 0xA0 SHL OR SWAP1 SSTORE DUP1 ISZERO PUSH2 0x1E1D JUMPI PUSH2 0x1E1D DUP2 PUSH2 0x2188 JUMP JUMPDEST POP PUSH1 0x19 DUP1 SLOAD PUSH1 0xFF PUSH1 0xA0 SHL NOT AND SWAP1 SSTORE JUMP JUMPDEST PUSH1 0x19 DUP1 SLOAD PUSH1 0xFF PUSH1 0xA0 SHL NOT AND PUSH1 0x1 PUSH1 0xA0 SHL OR SWAP1 SSTORE PUSH2 0x1E1D DUP2 PUSH2 0x234A JUMP JUMPDEST DUP1 PUSH2 0x1E56 JUMPI PUSH2 0x1E56 PUSH2 0x24E0 JUMP JUMPDEST PUSH1 0x1 PUSH1 0x1 PUSH1 0xA0 SHL SUB DUP5 AND PUSH1 0x0 SWAP1 DUP2 MSTORE PUSH1 0x5 PUSH1 0x20 MSTORE PUSH1 0x40 SWAP1 KECCAK256 SLOAD PUSH1 0xFF AND DUP1 ISZERO PUSH2 0x1E97 JUMPI POP PUSH1 0x1 PUSH1 0x1 PUSH1 0xA0 SHL SUB DUP4 AND PUSH1 0x0 SWAP1 DUP2 MSTORE PUSH1 0x5 PUSH1 0x20 MSTORE PUSH1 0x40 SWAP1 KECCAK256 SLOAD PUSH1 0xFF AND ISZERO JUMPDEST ISZERO PUSH2 0x1EAC JUMPI PUSH2 0x1EA7 DUP5 DUP5 DUP5 PUSH2 0x250E JUMP JUMPDEST PUSH2 0x1F58 JUMP JUMPDEST PUSH1 0x1 PUSH1 0x1 PUSH1 0xA0 SHL SUB DUP5 AND PUSH1 0x0 SWAP1 DUP2 MSTORE PUSH1 0x5 PUSH1 0x20 MSTORE PUSH1 0x40 SWAP1 KECCAK256 SLOAD PUSH1 0xFF AND ISZERO DUP1 ISZERO PUSH2 0x1EED JUMPI POP PUSH1 0x1 PUSH1 0x1 PUSH1 0xA0 SHL SUB DUP4 AND PUSH1 0x0 SWAP1 DUP2 MSTORE PUSH1 0x5 PUSH1 0x20 MSTORE PUSH1 0x40 SWAP1 KECCAK256 SLOAD PUSH1 0xFF AND JUMPDEST ISZERO PUSH2 0x1EFD JUMPI PUSH2 0x1EA7 DUP5 DUP5 DUP5 PUSH2 0x2634 JUMP JUMPDEST PUSH1 0x1 PUSH1 0x1 PUSH1 0xA0 SHL SUB DUP5 AND PUSH1 0x0 SWAP1 DUP2 MSTORE PUSH1 0x5 PUSH1 0x20 MSTORE PUSH1 0x40 SWAP1 KECCAK256 SLOAD PUSH1 0xFF AND DUP1 ISZERO PUSH2 0x1F3D JUMPI POP PUSH1 0x1 PUSH1 0x1 PUSH1 0xA0 SHL SUB DUP4 AND PUSH1 0x0 SWAP1 DUP2 MSTORE PUSH1 0x5 PUSH1 0x20 MSTORE PUSH1 0x40 SWAP1 KECCAK256 SLOAD PUSH1 0xFF AND JUMPDEST ISZERO PUSH2 0x1F4D JUMPI PUSH2 0x1EA7 DUP5 DUP5 DUP5 PUSH2 0x26DD JUMP JUMPDEST PUSH2 0x1F58 DUP5 DUP5 DUP5 PUSH2 0x2750 JUMP JUMPDEST DUP1 PUSH2 0x1F6E JUMPI PUSH2 0x1F6E PUSH1 0x10 SLOAD PUSH1 0xF SSTORE PUSH1 0x12 SLOAD PUSH1 0x11 SSTORE JUMP JUMPDEST POP POP POP POP JUMP JUMPDEST PUSH1 0xA SLOAD PUSH1 0x9 SLOAD PUSH1 0x0 SWAP2 DUP3 SWAP2 DUP3 JUMPDEST PUSH1 0x6 SLOAD DUP2 LT ISZERO PUSH2 0x20C6 JUMPI DUP3 PUSH1 0x1 PUSH1 0x0 PUSH1 0x6 DUP5 DUP2 SLOAD DUP2 LT PUSH2 0x1FA3 JUMPI PUSH2 0x1FA3 PUSH2 0x2C5C JUMP JUMPDEST PUSH1 0x0 SWAP2 DUP3 MSTORE PUSH1 0x20 DUP1 DUP4 KECCAK256 SWAP1 SWAP2 ADD SLOAD PUSH1 0x1 PUSH1 0x1 PUSH1 0xA0 SHL SUB AND DUP4 MSTORE DUP3 ADD SWAP3 SWAP1 SWAP3 MSTORE PUSH1 0x40 ADD SWAP1 KECCAK256 SLOAD GT DUP1 PUSH2 0x200E JUMPI POP DUP2 PUSH1 0x2 PUSH1 0x0 PUSH1 0x6 DUP5 DUP2 SLOAD DUP2 LT PUSH2 0x1FE7 JUMPI PUSH2 0x1FE7 PUSH2 0x2C5C JUMP JUMPDEST PUSH1 0x0 SWAP2 DUP3 MSTORE PUSH1 0x20 DUP1 DUP4 KECCAK256 SWAP1 SWAP2 ADD SLOAD PUSH1 0x1 PUSH1 0x1 PUSH1 0xA0 SHL SUB AND DUP4 MSTORE DUP3 ADD SWAP3 SWAP1 SWAP3 MSTORE PUSH1 0x40 ADD SWAP1 KECCAK256 SLOAD GT JUMPDEST ISZERO PUSH2 0x2024 JUMPI PUSH1 0xA SLOAD PUSH1 0x9 SLOAD SWAP5 POP SWAP5 POP POP POP POP SWAP1 SWAP2 JUMP JUMPDEST PUSH2 0x206A PUSH1 0x1 PUSH1 0x0 PUSH1 0x6 DUP5 DUP2 SLOAD DUP2 LT PUSH2 0x203E JUMPI PUSH2 0x203E PUSH2 0x2C5C JUMP JUMPDEST PUSH1 0x0 SWAP2 DUP3 MSTORE PUSH1 0x20 DUP1 DUP4 KECCAK256 SWAP1 SWAP2 ADD SLOAD PUSH1 0x1 PUSH1 0x1 PUSH1 0xA0 SHL SUB AND DUP4 MSTORE DUP3 ADD SWAP3 SWAP1 SWAP3 MSTORE PUSH1 0x40 ADD SWAP1 KECCAK256 SLOAD DUP5 SWAP1 PUSH2 0x2790 JUMP JUMPDEST SWAP3 POP PUSH2 0x20B2 PUSH1 0x2 PUSH1 0x0 PUSH1 0x6 DUP5 DUP2 SLOAD DUP2 LT PUSH2 0x2086 JUMPI PUSH2 0x2086 PUSH2 0x2C5C JUMP JUMPDEST PUSH1 0x0 SWAP2 DUP3 MSTORE PUSH1 0x20 DUP1 DUP4 KECCAK256 SWAP1 SWAP2 ADD SLOAD PUSH1 0x1 PUSH1 0x1 PUSH1 0xA0 SHL SUB AND DUP4 MSTORE DUP3 ADD SWAP3 SWAP1 SWAP3 MSTORE PUSH1 0x40 ADD SWAP1 KECCAK256 SLOAD DUP4 SWAP1 PUSH2 0x2790 JUMP JUMPDEST SWAP2 POP DUP1 PUSH2 0x20BE DUP2 PUSH2 0x2C15 JUMP JUMPDEST SWAP2 POP POP PUSH2 0x1F81 JUMP JUMPDEST POP PUSH1 0x9 SLOAD PUSH1 0xA SLOAD PUSH2 0x20D6 SWAP2 PUSH2 0x1D38 JUMP JUMPDEST DUP3 LT ISZERO PUSH2 0x20ED JUMPI PUSH1 0xA SLOAD PUSH1 0x9 SLOAD SWAP4 POP SWAP4 POP POP POP SWAP1 SWAP2 JUMP JUMPDEST SWAP1 SWAP4 SWAP1 SWAP3 POP SWAP1 POP JUMP JUMPDEST PUSH1 0x0 DUP1 PUSH1 0x0 DUP1 PUSH2 0x2105 DUP6 PUSH2 0x279C JUMP JUMPDEST SWAP1 POP PUSH1 0x0 PUSH2 0x2112 DUP7 PUSH2 0x27BF JUMP JUMPDEST SWAP1 POP PUSH1 0x0 PUSH2 0x212A DUP3 PUSH2 0x2124 DUP10 DUP7 PUSH2 0x2790 JUMP JUMPDEST SWAP1 PUSH2 0x2790 JUMP JUMPDEST SWAP8 SWAP3 SWAP7 POP SWAP1 SWAP5 POP SWAP1 SWAP3 POP POP POP JUMP JUMPDEST PUSH1 0x0 DUP1 DUP1 DUP1 PUSH2 0x2147 DUP9 DUP7 PUSH2 0x1D44 JUMP JUMPDEST SWAP1 POP PUSH1 0x0 PUSH2 0x2155 DUP9 DUP8 PUSH2 0x1D44 JUMP JUMPDEST SWAP1 POP PUSH1 0x0 PUSH2 0x2163 DUP9 DUP9 PUSH2 0x1D44 JUMP JUMPDEST SWAP1 POP PUSH1 0x0 PUSH2 0x2175 DUP3 PUSH2 0x2124 DUP7 DUP7 PUSH2 0x2790 JUMP JUMPDEST SWAP4 SWAP12 SWAP4 SWAP11 POP SWAP2 SWAP9 POP SWAP2 SWAP7 POP POP POP POP POP POP POP JUMP JUMPDEST PUSH1 0x40 DUP1 MLOAD PUSH1 0x2 DUP1 DUP3 MSTORE PUSH1 0x60 DUP3 ADD DUP4 MSTORE PUSH1 0x0 SWAP3 PUSH1 0x20 DUP4 ADD SWAP1 DUP1 CALLDATASIZE DUP4 CALLDATACOPY POP POP PUSH1 0x18 SLOAD PUSH1 0x40 DUP1 MLOAD PUSH4 0x15AB88C9 PUSH1 0xE3 SHL DUP2 MSTORE SWAP1 MLOAD SWAP4 SWAP5 POP PUSH1 0x1 PUSH1 0x1 PUSH1 0xA0 SHL SUB SWAP1 SWAP2 AND SWAP3 PUSH4 0xAD5C4648 SWAP3 POP PUSH1 0x4 DUP1 DUP4 ADD SWAP3 PUSH1 0x20 SWAP3 SWAP2 SWAP1 DUP3 SWAP1 SUB ADD DUP2 DUP7 DUP1 EXTCODESIZE ISZERO DUP1 ISZERO PUSH2 0x21ED JUMPI PUSH1 0x0 DUP1 REVERT JUMPDEST POP GAS STATICCALL ISZERO DUP1 ISZERO PUSH2 0x2201 JUMPI RETURNDATASIZE PUSH1 0x0 DUP1 RETURNDATACOPY RETURNDATASIZE PUSH1 0x0 REVERT JUMPDEST POP POP POP POP PUSH1 0x40 MLOAD RETURNDATASIZE PUSH1 0x1F NOT PUSH1 0x1F DUP3 ADD AND DUP3 ADD DUP1 PUSH1 0x40 MSTORE POP DUP2 ADD SWAP1 PUSH2 0x2225 SWAP2 SWAP1 PUSH2 0x28BB JUMP JUMPDEST DUP2 PUSH1 0x0 DUP2 MLOAD DUP2 LT PUSH2 0x2238 JUMPI PUSH2 0x2238 PUSH2 0x2C5C JUMP JUMPDEST PUSH1 0x20 MUL PUSH1 0x20 ADD ADD SWAP1 PUSH1 0x1 PUSH1 0x1 PUSH1 0xA0 SHL SUB AND SWAP1 DUP2 PUSH1 0x1 PUSH1 0x1 PUSH1 0xA0 SHL SUB AND DUP2 MSTORE POP POP ADDRESS DUP2 PUSH1 0x1 DUP2 MLOAD DUP2 LT PUSH2 0x226C JUMPI PUSH2 0x226C PUSH2 0x2C5C JUMP JUMPDEST PUSH1 0x1 PUSH1 0x1 PUSH1 0xA0 SHL SUB SWAP3 DUP4 AND PUSH1 0x20 SWAP2 DUP3 MUL SWAP3 SWAP1 SWAP3 ADD ADD MSTORE PUSH1 0x18 SLOAD AND PUSH4 0xB6F9DE95 DUP4 PUSH1 0x0 DUP5 PUSH32 0x0 PUSH2 0x22BC TIMESTAMP PUSH2 0x12C PUSH2 0x1D50 JUMP JUMPDEST PUSH1 0x40 MLOAD DUP7 PUSH4 0xFFFFFFFF AND PUSH1 0xE0 SHL DUP2 MSTORE PUSH1 0x4 ADD PUSH2 0x22DB SWAP5 SWAP4 SWAP3 SWAP2 SWAP1 PUSH2 0x2A4E JUMP JUMPDEST PUSH1 0x0 PUSH1 0x40 MLOAD DUP1 DUP4 SUB DUP2 DUP6 DUP9 DUP1 EXTCODESIZE ISZERO DUP1 ISZERO PUSH2 0x22F4 JUMPI PUSH1 0x0 DUP1 REVERT JUMPDEST POP GAS CALL ISZERO DUP1 ISZERO PUSH2 0x2308 JUMPI RETURNDATASIZE PUSH1 0x0 DUP1 RETURNDATACOPY RETURNDATASIZE PUSH1 0x0 REVERT JUMPDEST POP POP POP POP POP PUSH32 0x6FD378A9D8B7345C2E5B18229AAF1E39D32B177B501D0A0D26A0A858A23A9624 DUP3 DUP3 PUSH1 0x40 MLOAD PUSH2 0x233E SWAP3 SWAP2 SWAP1 PUSH2 0x2B0D JUMP JUMPDEST PUSH1 0x40 MLOAD DUP1 SWAP2 SUB SWAP1 LOG1 POP POP JUMP JUMPDEST PUSH1 0x40 DUP1 MLOAD PUSH1 0x2 DUP1 DUP3 MSTORE PUSH1 0x60 DUP3 ADD DUP4 MSTORE PUSH1 0x0 SWAP3 PUSH1 0x20 DUP4 ADD SWAP1 DUP1 CALLDATASIZE DUP4 CALLDATACOPY ADD SWAP1 POP POP SWAP1 POP ADDRESS DUP2 PUSH1 0x0 DUP2 MLOAD DUP2 LT PUSH2 0x237F JUMPI PUSH2 0x237F PUSH2 0x2C5C JUMP JUMPDEST PUSH1 0x1 PUSH1 0x1 PUSH1 0xA0 SHL SUB SWAP3 DUP4 AND PUSH1 0x20 SWAP2 DUP3 MUL SWAP3 SWAP1 SWAP3 ADD DUP2 ADD SWAP2 SWAP1 SWAP2 MSTORE PUSH1 0x18 SLOAD PUSH1 0x40 DUP1 MLOAD PUSH4 0x15AB88C9 PUSH1 0xE3 SHL DUP2 MSTORE SWAP1 MLOAD SWAP2 SWAP1 SWAP4 AND SWAP3 PUSH4 0xAD5C4648 SWAP3 PUSH1 0x4 DUP1 DUP4 ADD SWAP4 SWAP2 SWAP3 DUP3 SWAP1 SUB ADD DUP2 DUP7 DUP1 EXTCODESIZE ISZERO DUP1 ISZERO PUSH2 0x23D3 JUMPI PUSH1 0x0 DUP1 REVERT JUMPDEST POP GAS STATICCALL ISZERO DUP1 ISZERO PUSH2 0x23E7 JUMPI RETURNDATASIZE PUSH1 0x0 DUP1 RETURNDATACOPY RETURNDATASIZE PUSH1 0x0 REVERT JUMPDEST POP POP POP POP PUSH1 0x40 MLOAD RETURNDATASIZE PUSH1 0x1F NOT PUSH1 0x1F DUP3 ADD AND DUP3 ADD DUP1 PUSH1 0x40 MSTORE POP DUP2 ADD SWAP1 PUSH2 0x240B SWAP2 SWAP1 PUSH2 0x28BB JUMP JUMPDEST DUP2 PUSH1 0x1 DUP2 MLOAD DUP2 LT PUSH2 0x241E JUMPI PUSH2 0x241E PUSH2 0x2C5C JUMP JUMPDEST PUSH1 0x1 PUSH1 0x1 PUSH1 0xA0 SHL SUB SWAP3 DUP4 AND PUSH1 0x20 SWAP2 DUP3 MUL SWAP3 SWAP1 SWAP3 ADD ADD MSTORE PUSH1 0x18 SLOAD PUSH2 0x2444 SWAP2 ADDRESS SWAP2 AND DUP5 PUSH2 0x188F JUMP JUMPDEST PUSH1 0x18 SLOAD PUSH1 0x40 MLOAD PUSH4 0x791AC947 PUSH1 0xE0 SHL DUP2 MSTORE PUSH1 0x1 PUSH1 0x1 PUSH1 0xA0 SHL SUB SWAP1 SWAP2 AND SWAP1 PUSH4 0x791AC947 SWAP1 PUSH2 0x247D SWAP1 DUP6 SWAP1 PUSH1 0x0 SWAP1 DUP7 SWAP1 ADDRESS SWAP1 TIMESTAMP SWAP1 PUSH1 0x4 ADD PUSH2 0x2B2E JUMP JUMPDEST PUSH1 0x0 PUSH1 0x40 MLOAD DUP1 DUP4 SUB DUP2 PUSH1 0x0 DUP8 DUP1 EXTCODESIZE ISZERO DUP1 ISZERO PUSH2 0x2497 JUMPI PUSH1 0x0 DUP1 REVERT JUMPDEST POP GAS CALL ISZERO DUP1 ISZERO PUSH2 0x24AB JUMPI RETURNDATASIZE PUSH1 0x0 DUP1 RETURNDATACOPY RETURNDATASIZE PUSH1 0x0 REVERT JUMPDEST POP POP POP POP PUSH32 0x32CDE87EB454F3A0B875AB23547023107CFAD454363EC88BA5695E2C24AA52A7 DUP3 DUP3 PUSH1 0x40 MLOAD PUSH2 0x233E SWAP3 SWAP2 SWAP1 PUSH2 0x2B0D JUMP JUMPDEST PUSH1 0xF SLOAD ISZERO DUP1 ISZERO PUSH2 0x24F0 JUMPI POP PUSH1 0x11 SLOAD ISZERO JUMPDEST ISZERO PUSH2 0x24F7 JUMPI JUMP JUMPDEST PUSH1 0xF DUP1 SLOAD PUSH1 0x10 SSTORE PUSH1 0x11 DUP1 SLOAD PUSH1 0x12 SSTORE PUSH1 0x0 SWAP2 DUP3 SWAP1 SSTORE SSTORE JUMP JUMPDEST PUSH1 0x0 DUP1 PUSH1 0x0 DUP1 PUSH1 0x0 DUP1 PUSH2 0x2520 DUP8 PUSH2 0x1D5C JUMP JUMPDEST PUSH1 0x1 PUSH1 0x1 PUSH1 0xA0 SHL SUB DUP16 AND PUSH1 0x0 SWAP1 DUP2 MSTORE PUSH1 0x2 PUSH1 0x20 MSTORE PUSH1 0x40 SWAP1 KECCAK256 SLOAD SWAP6 SWAP12 POP SWAP4 SWAP10 POP SWAP2 SWAP8 POP SWAP6 POP SWAP4 POP SWAP2 POP PUSH2 0x2552 SWAP1 DUP9 PUSH2 0x2790 JUMP JUMPDEST PUSH1 0x1 PUSH1 0x1 PUSH1 0xA0 SHL SUB DUP11 AND PUSH1 0x0 SWAP1 DUP2 MSTORE PUSH1 0x2 PUSH1 0x20 SWAP1 DUP2 MSTORE PUSH1 0x40 DUP1 DUP4 KECCAK256 SWAP4 SWAP1 SWAP4 SSTORE PUSH1 0x1 SWAP1 MSTORE KECCAK256 SLOAD PUSH2 0x2581 SWAP1 DUP8 PUSH2 0x2790 JUMP JUMPDEST PUSH1 0x1 PUSH1 0x1 PUSH1 0xA0 SHL SUB DUP1 DUP12 AND PUSH1 0x0 SWAP1 DUP2 MSTORE PUSH1 0x1 PUSH1 0x20 MSTORE PUSH1 0x40 DUP1 DUP3 KECCAK256 SWAP4 SWAP1 SWAP4 SSTORE SWAP1 DUP11 AND DUP2 MSTORE KECCAK256 SLOAD PUSH2 0x25B0 SWAP1 DUP7 PUSH2 0x1D50 JUMP JUMPDEST PUSH1 0x1 PUSH1 0x1 PUSH1 0xA0 SHL SUB DUP10 AND PUSH1 0x0 SWAP1 DUP2 MSTORE PUSH1 0x1 PUSH1 0x20 MSTORE PUSH1 0x40 SWAP1 KECCAK256 SSTORE PUSH2 0x25D2 DUP2 PUSH2 0x27DC JUMP JUMPDEST PUSH2 0x25DC DUP5 DUP4 PUSH2 0x2865 JUMP JUMPDEST DUP8 PUSH1 0x1 PUSH1 0x1 PUSH1 0xA0 SHL SUB AND DUP10 PUSH1 0x1 PUSH1 0x1 PUSH1 0xA0 SHL SUB AND PUSH32 0xDDF252AD1BE2C89B69C2B068FC378DAA952BA7F163C4A11628F55A4DF523B3EF DUP6 PUSH1 0x40 MLOAD PUSH2 0x2621 SWAP2 DUP2 MSTORE PUSH1 0x20 ADD SWAP1 JUMP JUMPDEST PUSH1 0x40 MLOAD DUP1 SWAP2 SUB SWAP1 LOG3 POP POP POP POP POP POP POP POP POP JUMP JUMPDEST PUSH1 0x0 DUP1 PUSH1 0x0 DUP1 PUSH1 0x0 DUP1 PUSH2 0x2646 DUP8 PUSH2 0x1D5C JUMP JUMPDEST PUSH1 0x1 PUSH1 0x1 PUSH1 0xA0 SHL SUB DUP16 AND PUSH1 0x0 SWAP1 DUP2 MSTORE PUSH1 0x1 PUSH1 0x20 MSTORE PUSH1 0x40 SWAP1 KECCAK256 SLOAD SWAP6 SWAP12 POP SWAP4 SWAP10 POP SWAP2 SWAP8 POP SWAP6 POP SWAP4 POP SWAP2 POP PUSH2 0x2678 SWAP1 DUP8 PUSH2 0x2790 JUMP JUMPDEST PUSH1 0x1 PUSH1 0x1 PUSH1 0xA0 SHL SUB DUP1 DUP12 AND PUSH1 0x0 SWAP1 DUP2 MSTORE PUSH1 0x1 PUSH1 0x20 SWAP1 DUP2 MSTORE PUSH1 0x40 DUP1 DUP4 KECCAK256 SWAP5 SWAP1 SWAP5 SSTORE SWAP2 DUP12 AND DUP2 MSTORE PUSH1 0x2 SWAP1 SWAP2 MSTORE KECCAK256 SLOAD PUSH2 0x26AE SWAP1 DUP5 PUSH2 0x1D50 JUMP JUMPDEST PUSH1 0x1 PUSH1 0x1 PUSH1 0xA0 SHL SUB DUP10 AND PUSH1 0x0 SWAP1 DUP2 MSTORE PUSH1 0x2 PUSH1 0x20 SWAP1 DUP2 MSTORE PUSH1 0x40 DUP1 DUP4 KECCAK256 SWAP4 SWAP1 SWAP4 SSTORE PUSH1 0x1 SWAP1 MSTORE KECCAK256 SLOAD PUSH2 0x25B0 SWAP1 DUP7 PUSH2 0x1D50 JUMP JUMPDEST PUSH1 0x0 DUP1 PUSH1 0x0 DUP1 PUSH1 0x0 DUP1 PUSH2 0x26EF DUP8 PUSH2 0x1D5C JUMP JUMPDEST PUSH1 0x1 PUSH1 0x1 PUSH1 0xA0 SHL SUB DUP16 AND PUSH1 0x0 SWAP1 DUP2 MSTORE PUSH1 0x2 PUSH1 0x20 MSTORE PUSH1 0x40 SWAP1 KECCAK256 SLOAD SWAP6 SWAP12 POP SWAP4 SWAP10 POP SWAP2 SWAP8 POP SWAP6 POP SWAP4 POP SWAP2 POP PUSH2 0x2721 SWAP1 DUP9 PUSH2 0x2790 JUMP JUMPDEST PUSH1 0x1 PUSH1 0x1 PUSH1 0xA0 SHL SUB DUP11 AND PUSH1 0x0 SWAP1 DUP2 MSTORE PUSH1 0x2 PUSH1 0x20 SWAP1 DUP2 MSTORE PUSH1 0x40 DUP1 DUP4 KECCAK256 SWAP4 SWAP1 SWAP4 SSTORE PUSH1 0x1 SWAP1 MSTORE KECCAK256 SLOAD PUSH2 0x2678 SWAP1 DUP8 PUSH2 0x2790 JUMP JUMPDEST PUSH1 0x0 DUP1 PUSH1 0x0 DUP1 PUSH1 0x0 DUP1 PUSH2 0x2762 DUP8 PUSH2 0x1D5C JUMP JUMPDEST PUSH1 0x1 PUSH1 0x1 PUSH1 0xA0 SHL SUB DUP16 AND PUSH1 0x0 SWAP1 DUP2 MSTORE PUSH1 0x1 PUSH1 0x20 MSTORE PUSH1 0x40 SWAP1 KECCAK256 SLOAD SWAP6 SWAP12 POP SWAP4 SWAP10 POP SWAP2 SWAP8 POP SWAP6 POP SWAP4 POP SWAP2 POP PUSH2 0x2581 SWAP1 DUP8 JUMPDEST PUSH1 0x0 PUSH2 0xDCD DUP3 DUP5 PUSH2 0x2BC3 JUMP JUMPDEST PUSH1 0x0 PUSH2 0xB25 PUSH2 0x2710 PUSH2 0x27B9 PUSH1 0xF SLOAD DUP6 PUSH2 0x1D44 SWAP1 SWAP2 SWAP1 PUSH4 0xFFFFFFFF AND JUMP JUMPDEST SWAP1 PUSH2 0x1D38 JUMP JUMPDEST PUSH1 0x0 PUSH2 0xB25 PUSH2 0x2710 PUSH2 0x27B9 PUSH1 0x11 SLOAD DUP6 PUSH2 0x1D44 SWAP1 SWAP2 SWAP1 PUSH4 0xFFFFFFFF AND JUMP JUMPDEST PUSH1 0x0 PUSH2 0x27E6 PUSH2 0x1D15 JUMP JUMPDEST SWAP1 POP PUSH1 0x0 PUSH2 0x27F4 DUP4 DUP4 PUSH2 0x1D44 JUMP JUMPDEST ADDRESS PUSH1 0x0 SWAP1 DUP2 MSTORE PUSH1 0x1 PUSH1 0x20 MSTORE PUSH1 0x40 SWAP1 KECCAK256 SLOAD SWAP1 SWAP2 POP PUSH2 0x2811 SWAP1 DUP3 PUSH2 0x1D50 JUMP JUMPDEST ADDRESS PUSH1 0x0 SWAP1 DUP2 MSTORE PUSH1 0x1 PUSH1 0x20 SWAP1 DUP2 MSTORE PUSH1 0x40 DUP1 DUP4 KECCAK256 SWAP4 SWAP1 SWAP4 SSTORE PUSH1 0x5 SWAP1 MSTORE KECCAK256 SLOAD PUSH1 0xFF AND ISZERO PUSH2 0x2860 JUMPI ADDRESS PUSH1 0x0 SWAP1 DUP2 MSTORE PUSH1 0x2 PUSH1 0x20 MSTORE PUSH1 0x40 SWAP1 KECCAK256 SLOAD PUSH2 0x284F SWAP1 DUP5 PUSH2 0x1D50 JUMP JUMPDEST ADDRESS PUSH1 0x0 SWAP1 DUP2 MSTORE PUSH1 0x2 PUSH1 0x20 MSTORE PUSH1 0x40 SWAP1 KECCAK256 SSTORE JUMPDEST POP POP POP JUMP JUMPDEST PUSH1 0xA SLOAD PUSH2 0x2872 SWAP1 DUP4 PUSH2 0x2790 JUMP JUMPDEST PUSH1 0xA SSTORE PUSH1 0xB SLOAD PUSH2 0x2882 SWAP1 DUP3 PUSH2 0x1D50 JUMP JUMPDEST PUSH1 0xB SSTORE POP POP JUMP JUMPDEST DUP1 CALLDATALOAD DUP1 ISZERO ISZERO DUP2 EQ PUSH2 0x2899 JUMPI PUSH1 0x0 DUP1 REVERT JUMPDEST SWAP2 SWAP1 POP JUMP JUMPDEST PUSH1 0x0 PUSH1 0x20 DUP3 DUP5 SUB SLT ISZERO PUSH2 0x28B0 JUMPI PUSH1 0x0 DUP1 REVERT JUMPDEST DUP2 CALLDATALOAD PUSH2 0xDCD DUP2 PUSH2 0x2C72 JUMP JUMPDEST PUSH1 0x0 PUSH1 0x20 DUP3 DUP5 SUB SLT ISZERO PUSH2 0x28CD JUMPI PUSH1 0x0 DUP1 REVERT JUMPDEST DUP2 MLOAD PUSH2 0xDCD DUP2 PUSH2 0x2C72 JUMP JUMPDEST PUSH1 0x0 DUP1 PUSH1 0x40 DUP4 DUP6 SUB SLT ISZERO PUSH2 0x28EB JUMPI PUSH1 0x0 DUP1 REVERT JUMPDEST DUP3 CALLDATALOAD PUSH2 0x28F6 DUP2 PUSH2 0x2C72 JUMP JUMPDEST SWAP2 POP PUSH1 0x20 DUP4 ADD CALLDATALOAD PUSH2 0x2906 DUP2 PUSH2 0x2C72 JUMP JUMPDEST DUP1 SWAP2 POP POP SWAP3 POP SWAP3 SWAP1 POP JUMP JUMPDEST PUSH1 0x0 DUP1 PUSH1 0x0 PUSH1 0x60 DUP5 DUP7 SUB SLT ISZERO PUSH2 0x2926 JUMPI PUSH1 0x0 DUP1 REVERT JUMPDEST DUP4 CALLDATALOAD PUSH2 0x2931 DUP2 PUSH2 0x2C72 JUMP JUMPDEST SWAP3 POP PUSH1 0x20 DUP5 ADD CALLDATALOAD PUSH2 0x2941 DUP2 PUSH2 0x2C72 JUMP JUMPDEST SWAP3 SWAP6 SWAP3 SWAP5 POP POP POP PUSH1 0x40 SWAP2 SWAP1 SWAP2 ADD CALLDATALOAD SWAP1 JUMP JUMPDEST PUSH1 0x0 DUP1 PUSH1 0x40 DUP4 DUP6 SUB SLT ISZERO PUSH2 0x2965 JUMPI PUSH1 0x0 DUP1 REVERT JUMPDEST DUP3 CALLDATALOAD PUSH2 0x2970 DUP2 PUSH2 0x2C72 JUMP JUMPDEST SWAP2 POP PUSH2 0x297E PUSH1 0x20 DUP5 ADD PUSH2 0x2889 JUMP JUMPDEST SWAP1 POP SWAP3 POP SWAP3 SWAP1 POP JUMP JUMPDEST PUSH1 0x0 DUP1 PUSH1 0x40 DUP4 DUP6 SUB SLT ISZERO PUSH2 0x299A JUMPI PUSH1 0x0 DUP1 REVERT JUMPDEST DUP3 CALLDATALOAD PUSH2 0x29A5 DUP2 PUSH2 0x2C72 JUMP JUMPDEST SWAP5 PUSH1 0x20 SWAP4 SWAP1 SWAP4 ADD CALLDATALOAD SWAP4 POP POP POP JUMP JUMPDEST PUSH1 0x0 PUSH1 0x20 DUP3 DUP5 SUB SLT ISZERO PUSH2 0x29C5 JUMPI PUSH1 0x0 DUP1 REVERT JUMPDEST PUSH2 0xDCD DUP3 PUSH2 0x2889 JUMP JUMPDEST PUSH1 0x0 PUSH1 0x20 DUP3 DUP5 SUB SLT ISZERO PUSH2 0x29E0 JUMPI PUSH1 0x0 DUP1 REVERT JUMPDEST POP CALLDATALOAD SWAP2 SWAP1 POP JUMP JUMPDEST PUSH1 0x0 DUP1 PUSH1 0x40 DUP4 DUP6 SUB SLT ISZERO PUSH2 0x29FA JUMPI PUSH1 0x0 DUP1 REVERT JUMPDEST DUP3 CALLDATALOAD SWAP2 POP PUSH2 0x297E PUSH1 0x20 DUP5 ADD PUSH2 0x2889 JUMP JUMPDEST PUSH1 0x0 DUP2 MLOAD DUP1 DUP5 MSTORE PUSH1 0x20 DUP1 DUP6 ADD SWAP5 POP DUP1 DUP5 ADD PUSH1 0x0 JUMPDEST DUP4 DUP2 LT ISZERO PUSH2 0x2A43 JUMPI DUP2 MLOAD PUSH1 0x1 PUSH1 0x1 PUSH1 0xA0 SHL SUB AND DUP8 MSTORE SWAP6 DUP3 ADD SWAP6 SWAP1 DUP3 ADD SWAP1 PUSH1 0x1 ADD PUSH2 0x2A1E JUMP JUMPDEST POP SWAP5 SWAP6 SWAP5 POP POP POP POP POP JUMP JUMPDEST DUP5 DUP2 MSTORE PUSH1 0x80 PUSH1 0x20 DUP3 ADD MSTORE PUSH1 0x0 PUSH2 0x2A67 PUSH1 0x80 DUP4 ADD DUP7 PUSH2 0x2A0A JUMP JUMPDEST PUSH1 0x1 PUSH1 0x1 PUSH1 0xA0 SHL SUB SWAP5 SWAP1 SWAP5 AND PUSH1 0x40 DUP4 ADD MSTORE POP PUSH1 0x60 ADD MSTORE SWAP3 SWAP2 POP POP JUMP JUMPDEST PUSH1 0x0 PUSH1 0x20 DUP1 DUP4 MSTORE DUP4 MLOAD DUP1 DUP3 DUP6 ADD MSTORE PUSH1 0x0 JUMPDEST DUP2 DUP2 LT ISZERO PUSH2 0x2AB0 JUMPI DUP6 DUP2 ADD DUP4 ADD MLOAD DUP6 DUP3 ADD PUSH1 0x40 ADD MSTORE DUP3 ADD PUSH2 0x2A94 JUMP JUMPDEST DUP2 DUP2 GT ISZERO PUSH2 0x2AC2 JUMPI PUSH1 0x0 PUSH1 0x40 DUP4 DUP8 ADD ADD MSTORE JUMPDEST POP PUSH1 0x1F ADD PUSH1 0x1F NOT AND SWAP3 SWAP1 SWAP3 ADD PUSH1 0x40 ADD SWAP4 SWAP3 POP POP POP JUMP JUMPDEST PUSH1 0x20 DUP1 DUP3 MSTORE DUP2 DUP2 ADD MSTORE PUSH32 0x4F776E61626C653A2063616C6C6572206973206E6F7420746865206F776E6572 PUSH1 0x40 DUP3 ADD MSTORE PUSH1 0x60 ADD SWAP1 JUMP JUMPDEST DUP3 DUP2 MSTORE PUSH1 0x40 PUSH1 0x20 DUP3 ADD MSTORE PUSH1 0x0 PUSH2 0x2B26 PUSH1 0x40 DUP4 ADD DUP5 PUSH2 0x2A0A JUMP JUMPDEST SWAP5 SWAP4 POP POP POP POP JUMP JUMPDEST DUP6 DUP2 MSTORE DUP5 PUSH1 0x20 DUP3 ADD MSTORE PUSH1 0xA0 PUSH1 0x40 DUP3 ADD MSTORE PUSH1 0x0 PUSH2 0x2B4D PUSH1 0xA0 DUP4 ADD DUP7 PUSH2 0x2A0A JUMP JUMPDEST PUSH1 0x1 PUSH1 0x1 PUSH1 0xA0 SHL SUB SWAP5 SWAP1 SWAP5 AND PUSH1 0x60 DUP4 ADD MSTORE POP PUSH1 0x80 ADD MSTORE SWAP4 SWAP3 POP POP POP JUMP JUMPDEST PUSH1 0x0 DUP3 NOT DUP3 GT ISZERO PUSH2 0x2B7D JUMPI PUSH2 0x2B7D PUSH2 0x2C30 JUMP JUMPDEST POP ADD SWAP1 JUMP JUMPDEST PUSH1 0x0 DUP3 PUSH2 0x2B9F JUMPI PUSH4 0x4E487B71 PUSH1 0xE0 SHL PUSH1 0x0 MSTORE PUSH1 0x12 PUSH1 0x4 MSTORE PUSH1 0x24 PUSH1 0x0 REVERT JUMPDEST POP DIV SWAP1 JUMP JUMPDEST PUSH1 0x0 DUP2 PUSH1 0x0 NOT DIV DUP4 GT DUP3 ISZERO ISZERO AND ISZERO PUSH2 0x2BBE JUMPI PUSH2 0x2BBE PUSH2 0x2C30 JUMP JUMPDEST POP MUL SWAP1 JUMP JUMPDEST PUSH1 0x0 DUP3 DUP3 LT ISZERO PUSH2 0x2BD5 JUMPI PUSH2 0x2BD5 PUSH2 0x2C30 JUMP JUMPDEST POP SUB SWAP1 JUMP JUMPDEST PUSH1 0x1 DUP2 DUP2 SHR SWAP1 DUP3 AND DUP1 PUSH2 0x2BEE JUMPI PUSH1 0x7F DUP3 AND SWAP2 POP JUMPDEST PUSH1 0x20 DUP3 LT DUP2 EQ ISZERO PUSH2 0x2C0F JUMPI PUSH4 0x4E487B71 PUSH1 0xE0 SHL PUSH1 0x0 MSTORE PUSH1 0x22 PUSH1 0x4 MSTORE PUSH1 0x24 PUSH1 0x0 REVERT JUMPDEST POP SWAP2 SWAP1 POP JUMP JUMPDEST PUSH1 0x0 PUSH1 0x0 NOT DUP3 EQ ISZERO PUSH2 0x2C29 JUMPI PUSH2 0x2C29 PUSH2 0x2C30 JUMP JUMPDEST POP PUSH1 0x1 ADD SWAP1 JUMP JUMPDEST PUSH4 0x4E487B71 PUSH1 0xE0 SHL PUSH1 0x0 MSTORE PUSH1 0x11 PUSH1 0x4 MSTORE PUSH1 0x24 PUSH1 0x0 REVERT JUMPDEST PUSH4 0x4E487B71 PUSH1 0xE0 SHL PUSH1 0x0 MSTORE PUSH1 0x31 PUSH1 0x4 MSTORE PUSH1 0x24 PUSH1 0x0 REVERT JUMPDEST PUSH4 0x4E487B71 PUSH1 0xE0 SHL PUSH1 0x0 MSTORE PUSH1 0x32 PUSH1 0x4 MSTORE PUSH1 0x24 PUSH1 0x0 REVERT JUMPDEST PUSH1 0x1 PUSH1 0x1 PUSH1 0xA0 SHL SUB DUP2 AND DUP2 EQ PUSH2 0x188C JUMPI PUSH1 0x0 DUP1 REVERT INVALID GASLIMIT MSTORE NUMBER ORIGIN ADDRESS GASPRICE KECCAK256 PUSH21 0x72616E7366657220616D6F756E7420657863656564 PUSH20 0x20616C6C6F77616E636545524332303A20646563 PUSH19 0x656173656420616C6C6F77616E63652062656C PUSH16 0x77207A65726FA2646970667358221220 0xCA MLOAD 0x49 CODESIZE 0xC7 0xE1 0xC9 0x29 GAS SWAP13 0xDA DUP11 0xDA LOG2 MULMOD CHAINID LOG3 0xD2 0x25 PUSH25 0xC1495DE8C4DCA7751EF16A0B64736F6C634300080700330000 "
		},
		"gasEstimates": {
			"creation": {
				"codeDepositCost": "2306000",
				"executionCost": "infinite",
				"totalCost": "infinite"
			},
			"external": {
				"MAX_LIQUIDITY_FEE()": "318",
				"MAX_TAX_FEE()": "273",
				"MIN_TX_AMOUNT_HARD_CAP()": "231",
				"_liquidityFee()": "2396",
				"_maxTxAmount()": "2352",
				"_taxFee()": "2374",
				"allowance(address,address)": "infinite",
				"approve(address,uint256)": "24704",
				"balanceOf(address)": "infinite",
				"buyBackAndBurn(uint256)": "infinite",
				"buyBackEnabled()": "2417",
				"buyBackUpperLimitAmount()": "2370",
				"deadAddress()": "infinite",
				"decimals()": "2379",
				"decreaseAllowance(address,uint256)": "infinite",
				"excludeFromFee(address)": "26856",
				"excludeFromReward(address)": "infinite",
				"includeInFee(address)": "26804",
				"includeInReward(address)": "infinite",
				"increaseAllowance(address,uint256)": "27039",
				"isExcludedFromAntiWhale(address)": "2633",
				"isExcludedFromFee(address)": "2611",
				"isExcludedFromReward(address)": "2655",
				"isIncludedInStarLpList(address)": "2655",
				"minimumBalanceRequired()": "2439",
				"minimumSellOrderAmount()": "2351",
				"minimumTokensBeforeSwapAmount()": "2414",
				"name()": "infinite",
				"owner()": "2398",
				"reflectionFromToken(uint256,bool)": "infinite",
				"renounceOwnership()": "28270",
				"setBuyBackEnabled(bool)": "27815",
				"setBuybackUpperLimit(uint256)": "24648",
				"setExcludedFromAntiWhale(address,bool)": "27026",
				"setIncludeInStarLpList(address,bool)": "29215",
				"setLiquidityFeePercent(uint256)": "25656",
				"setMaxTxAmount(uint256)": "25655",
				"setMinimumBalanceRequired(uint256)": "24621",
				"setMinimumSellOrderAmount(uint256)": "24599",
				"setNumTokensSellToAddToLiquidity(uint256)": "24574",
				"setSwapAndLiquifyEnabled(bool)": "27880",
				"setTaxFeePercent(uint256)": "25625",
				"swapAndLiquifyEnabled()": "2460",
				"symbol()": "infinite",
				"tokenFromReflection(uint256)": "infinite",
				"totalFees()": "2350",
				"totalSupply()": "2394",
				"transfer(address,uint256)": "infinite",
				"transferFrom(address,address,uint256)": "infinite",
				"transferOwnership(address)": "infinite",
				"uniswapV2Pair()": "2448",
				"uniswapV2Router()": "2428"
			},
			"internal": {
				"_approve(address,address,uint256)": "infinite",
				"_getCurrentSupply()": "infinite",
				"_getRValues(uint256,uint256,uint256,uint256)": "infinite",
				"_getRate()": "infinite",
				"_getTValues(uint256)": "infinite",
				"_getValues(uint256)": "infinite",
				"_reflectFee(uint256,uint256)": "infinite",
				"_takeLiquidity(uint256)": "infinite",
				"_tokenTransfer(address,address,uint256,bool)": "infinite",
				"_transfer(address,address,uint256)": "infinite",
				"_transferBothExcluded(address,address,uint256)": "infinite",
				"_transferFromExcluded(address,address,uint256)": "infinite",
				"_transferStandard(address,address,uint256)": "infinite",
				"_transferToExcluded(address,address,uint256)": "infinite",
				"buyBackTokens(uint256)": "infinite",
				"calculateLiquidityFee(uint256)": "infinite",
				"calculateTaxFee(uint256)": "infinite",
				"removeAllFee()": "62690",
				"restoreAllFee()": "infinite",
				"swapETHForTokens(uint256)": "infinite",
				"swapTokens(uint256)": "infinite",
				"swapTokensForEth(uint256)": "infinite"
			}
		},
		"methodIdentifiers": {
			"MAX_LIQUIDITY_FEE()": "33ced6e2",
			"MAX_TAX_FEE()": "4761bea9",
			"MIN_TX_AMOUNT_HARD_CAP()": "03053c0e",
			"_liquidityFee()": "6bc87c3a",
			"_maxTxAmount()": "7d1db4a5",
			"_taxFee()": "3b124fe7",
			"allowance(address,address)": "dd62ed3e",
			"approve(address,uint256)": "095ea7b3",
			"balanceOf(address)": "70a08231",
			"buyBackAndBurn(uint256)": "e2981a58",
			"buyBackEnabled()": "6053a0e3",
			"buyBackUpperLimitAmount()": "bdc653ef",
			"deadAddress()": "27c8f835",
			"decimals()": "313ce567",
			"decreaseAllowance(address,uint256)": "a457c2d7",
			"excludeFromFee(address)": "437823ec",
			"excludeFromReward(address)": "52390c02",
			"includeInFee(address)": "ea2f0b37",
			"includeInReward(address)": "3685d419",
			"increaseAllowance(address,uint256)": "39509351",
			"isExcludedFromAntiWhale(address)": "269f534c",
			"isExcludedFromFee(address)": "5342acb4",
			"isExcludedFromReward(address)": "88f82020",
			"isIncludedInStarLpList(address)": "27b6e8f1",
			"minimumBalanceRequired()": "cf505736",
			"minimumSellOrderAmount()": "dd2b2e6f",
			"minimumTokensBeforeSwapAmount()": "a073d37f",
			"name()": "06fdde03",
			"owner()": "8da5cb5b",
			"reflectionFromToken(uint256,bool)": "4549b039",
			"renounceOwnership()": "715018a6",
			"setBuyBackEnabled(bool)": "29370cc6",
			"setBuybackUpperLimit(uint256)": "82d2a4bb",
			"setExcludedFromAntiWhale(address,bool)": "c7f59a67",
			"setIncludeInStarLpList(address,bool)": "0983f7f9",
			"setLiquidityFeePercent(uint256)": "8ee88c53",
			"setMaxTxAmount(uint256)": "ec28438a",
			"setMinimumBalanceRequired(uint256)": "11f25b9b",
			"setMinimumSellOrderAmount(uint256)": "339826b0",
			"setNumTokensSellToAddToLiquidity(uint256)": "f0f165af",
			"setSwapAndLiquifyEnabled(bool)": "c49b9a80",
			"setTaxFeePercent(uint256)": "061c82d0",
			"swapAndLiquifyEnabled()": "4a74bb02",
			"symbol()": "95d89b41",
			"tokenFromReflection(uint256)": "2d838119",
			"totalFees()": "13114a9d",
			"totalSupply()": "18160ddd",
			"transfer(address,uint256)": "a9059cbb",
			"transferFrom(address,address,uint256)": "23b872dd",
			"transferOwnership(address)": "f2fde38b",
			"uniswapV2Pair()": "49bd5a5e",
			"uniswapV2Router()": "1694505e"
		}
	},
	"abi": [
		{
			"inputs": [],
			"stateMutability": "nonpayable",
			"type": "constructor"
		},
		{
			"anonymous": false,
			"inputs": [
				{
					"indexed": true,
					"internalType": "address",
					"name": "owner",
					"type": "address"
				},
				{
					"indexed": true,
					"internalType": "address",
					"name": "spender",
					"type": "address"
				},
				{
					"indexed": false,
					"internalType": "uint256",
					"name": "value",
					"type": "uint256"
				}
			],
			"name": "Approval",
			"type": "event"
		},
		{
			"anonymous": false,
			"inputs": [
				{
					"indexed": false,
					"internalType": "bool",
					"name": "enabled",
					"type": "bool"
				}
			],
			"name": "BuyBackEnabledUpdated",
			"type": "event"
		},
		{
			"anonymous": false,
			"inputs": [
				{
					"indexed": true,
					"internalType": "address",
					"name": "previousOwner",
					"type": "address"
				},
				{
					"indexed": true,
					"internalType": "address",
					"name": "newOwner",
					"type": "address"
				}
			],
			"name": "OwnershipTransferred",
			"type": "event"
		},
		{
			"anonymous": false,
			"inputs": [
				{
					"indexed": false,
					"internalType": "uint256",
					"name": "tokenAmount",
					"type": "uint256"
				}
			],
			"name": "RewardLiquidityProviders",
			"type": "event"
		},
		{
			"anonymous": false,
			"inputs": [
				{
					"indexed": false,
					"internalType": "uint256",
					"name": "tokensSwapped",
					"type": "uint256"
				},
				{
					"indexed": false,
					"internalType": "uint256",
					"name": "ethReceived",
					"type": "uint256"
				},
				{
					"indexed": false,
					"internalType": "uint256",
					"name": "tokensIntoLiqudity",
					"type": "uint256"
				}
			],
			"name": "SwapAndLiquify",
			"type": "event"
		},
		{
			"anonymous": false,
			"inputs": [
				{
					"indexed": false,
					"internalType": "bool",
					"name": "enabled",
					"type": "bool"
				}
			],
			"name": "SwapAndLiquifyEnabledUpdated",
			"type": "event"
		},
		{
			"anonymous": false,
			"inputs": [
				{
					"indexed": false,
					"internalType": "uint256",
					"name": "amountIn",
					"type": "uint256"
				},
				{
					"indexed": false,
					"internalType": "address[]",
					"name": "path",
					"type": "address[]"
				}
			],
			"name": "SwapETHForTokens",
			"type": "event"
		},
		{
			"anonymous": false,
			"inputs": [
				{
					"indexed": false,
					"internalType": "uint256",
					"name": "amountIn",
					"type": "uint256"
				},
				{
					"indexed": false,
					"internalType": "address[]",
					"name": "path",
					"type": "address[]"
				}
			],
			"name": "SwapTokensForETH",
			"type": "event"
		},
		{
			"anonymous": false,
			"inputs": [
				{
					"indexed": true,
					"internalType": "address",
					"name": "from",
					"type": "address"
				},
				{
					"indexed": true,
					"internalType": "address",
					"name": "to",
					"type": "address"
				},
				{
					"indexed": false,
					"internalType": "uint256",
					"name": "value",
					"type": "uint256"
				}
			],
			"name": "Transfer",
			"type": "event"
		},
		{
			"anonymous": false,
			"inputs": [
				{
					"indexed": false,
					"internalType": "uint256",
					"name": "newRate",
					"type": "uint256"
				}
			],
			"name": "UpdateLiquidityFee",
			"type": "event"
		},
		{
			"anonymous": false,
			"inputs": [
				{
					"indexed": false,
					"internalType": "uint256",
					"name": "newAmount",
					"type": "uint256"
				}
			],
			"name": "UpdateMaxTxAmount",
			"type": "event"
		},
		{
			"anonymous": false,
			"inputs": [
				{
					"indexed": false,
					"internalType": "uint256",
					"name": "newRate",
					"type": "uint256"
				}
			],
			"name": "UpdateTaxFee",
			"type": "event"
		},
		{
			"inputs": [],
			"name": "MAX_LIQUIDITY_FEE",
			"outputs": [
				{
					"internalType": "uint256",
					"name": "",
					"type": "uint256"
				}
			],
			"stateMutability": "view",
			"type": "function"
		},
		{
			"inputs": [],
			"name": "MAX_TAX_FEE",
			"outputs": [
				{
					"internalType": "uint256",
					"name": "",
					"type": "uint256"
				}
			],
			"stateMutability": "view",
			"type": "function"
		},
		{
			"inputs": [],
			"name": "MIN_TX_AMOUNT_HARD_CAP",
			"outputs": [
				{
					"internalType": "uint256",
					"name": "",
					"type": "uint256"
				}
			],
			"stateMutability": "view",
			"type": "function"
		},
		{
			"inputs": [],
			"name": "_liquidityFee",
			"outputs": [
				{
					"internalType": "uint256",
					"name": "",
					"type": "uint256"
				}
			],
			"stateMutability": "view",
			"type": "function"
		},
		{
			"inputs": [],
			"name": "_maxTxAmount",
			"outputs": [
				{
					"internalType": "uint256",
					"name": "",
					"type": "uint256"
				}
			],
			"stateMutability": "view",
			"type": "function"
		},
		{
			"inputs": [],
			"name": "_taxFee",
			"outputs": [
				{
					"internalType": "uint256",
					"name": "",
					"type": "uint256"
				}
			],
			"stateMutability": "view",
			"type": "function"
		},
		{
			"inputs": [
				{
					"internalType": "address",
					"name": "owner",
					"type": "address"
				},
				{
					"internalType": "address",
					"name": "spender",
					"type": "address"
				}
			],
			"name": "allowance",
			"outputs": [
				{
					"internalType": "uint256",
					"name": "",
					"type": "uint256"
				}
			],
			"stateMutability": "view",
			"type": "function"
		},
		{
			"inputs": [
				{
					"internalType": "address",
					"name": "spender",
					"type": "address"
				},
				{
					"internalType": "uint256",
					"name": "amount",
					"type": "uint256"
				}
			],
			"name": "approve",
			"outputs": [
				{
					"internalType": "bool",
					"name": "",
					"type": "bool"
				}
			],
			"stateMutability": "nonpayable",
			"type": "function"
		},
		{
			"inputs": [
				{
					"internalType": "address",
					"name": "account",
					"type": "address"
				}
			],
			"name": "balanceOf",
			"outputs": [
				{
					"internalType": "uint256",
					"name": "",
					"type": "uint256"
				}
			],
			"stateMutability": "view",
			"type": "function"
		},
		{
			"inputs": [
				{
					"internalType": "uint256",
					"name": "_amount",
					"type": "uint256"
				}
			],
			"name": "buyBackAndBurn",
			"outputs": [],
			"stateMutability": "nonpayable",
			"type": "function"
		},
		{
			"inputs": [],
			"name": "buyBackEnabled",
			"outputs": [
				{
					"internalType": "bool",
					"name": "",
					"type": "bool"
				}
			],
			"stateMutability": "view",
			"type": "function"
		},
		{
			"inputs": [],
			"name": "buyBackUpperLimitAmount",
			"outputs": [
				{
					"internalType": "uint256",
					"name": "",
					"type": "uint256"
				}
			],
			"stateMutability": "view",
			"type": "function"
		},
		{
			"inputs": [],
			"name": "deadAddress",
			"outputs": [
				{
					"internalType": "address",
					"name": "",
					"type": "address"
				}
			],
			"stateMutability": "view",
			"type": "function"
		},
		{
			"inputs": [],
			"name": "decimals",
			"outputs": [
				{
					"internalType": "uint8",
					"name": "",
					"type": "uint8"
				}
			],
			"stateMutability": "view",
			"type": "function"
		},
		{
			"inputs": [
				{
					"internalType": "address",
					"name": "spender",
					"type": "address"
				},
				{
					"internalType": "uint256",
					"name": "subtractedValue",
					"type": "uint256"
				}
			],
			"name": "decreaseAllowance",
			"outputs": [
				{
					"internalType": "bool",
					"name": "",
					"type": "bool"
				}
			],
			"stateMutability": "nonpayable",
			"type": "function"
		},
		{
			"inputs": [
				{
					"internalType": "address",
					"name": "account",
					"type": "address"
				}
			],
			"name": "excludeFromFee",
			"outputs": [],
			"stateMutability": "nonpayable",
			"type": "function"
		},
		{
			"inputs": [
				{
					"internalType": "address",
					"name": "account",
					"type": "address"
				}
			],
			"name": "excludeFromReward",
			"outputs": [],
			"stateMutability": "nonpayable",
			"type": "function"
		},
		{
			"inputs": [
				{
					"internalType": "address",
					"name": "account",
					"type": "address"
				}
			],
			"name": "includeInFee",
			"outputs": [],
			"stateMutability": "nonpayable",
			"type": "function"
		},
		{
			"inputs": [
				{
					"internalType": "address",
					"name": "account",
					"type": "address"
				}
			],
			"name": "includeInReward",
			"outputs": [],
			"stateMutability": "nonpayable",
			"type": "function"
		},
		{
			"inputs": [
				{
					"internalType": "address",
					"name": "spender",
					"type": "address"
				},
				{
					"internalType": "uint256",
					"name": "addedValue",
					"type": "uint256"
				}
			],
			"name": "increaseAllowance",
			"outputs": [
				{
					"internalType": "bool",
					"name": "",
					"type": "bool"
				}
			],
			"stateMutability": "nonpayable",
			"type": "function"
		},
		{
			"inputs": [
				{
					"internalType": "address",
					"name": "_account",
					"type": "address"
				}
			],
			"name": "isExcludedFromAntiWhale",
			"outputs": [
				{
					"internalType": "bool",
					"name": "",
					"type": "bool"
				}
			],
			"stateMutability": "view",
			"type": "function"
		},
		{
			"inputs": [
				{
					"internalType": "address",
					"name": "account",
					"type": "address"
				}
			],
			"name": "isExcludedFromFee",
			"outputs": [
				{
					"internalType": "bool",
					"name": "",
					"type": "bool"
				}
			],
			"stateMutability": "view",
			"type": "function"
		},
		{
			"inputs": [
				{
					"internalType": "address",
					"name": "account",
					"type": "address"
				}
			],
			"name": "isExcludedFromReward",
			"outputs": [
				{
					"internalType": "bool",
					"name": "",
					"type": "bool"
				}
			],
			"stateMutability": "view",
			"type": "function"
		},
		{
			"inputs": [
				{
					"internalType": "address",
					"name": "_address",
					"type": "address"
				}
			],
			"name": "isIncludedInStarLpList",
			"outputs": [
				{
					"internalType": "bool",
					"name": "",
					"type": "bool"
				}
			],
			"stateMutability": "view",
			"type": "function"
		},
		{
			"inputs": [],
			"name": "minimumBalanceRequired",
			"outputs": [
				{
					"internalType": "uint256",
					"name": "",
					"type": "uint256"
				}
			],
			"stateMutability": "view",
			"type": "function"
		},
		{
			"inputs": [],
			"name": "minimumSellOrderAmount",
			"outputs": [
				{
					"internalType": "uint256",
					"name": "",
					"type": "uint256"
				}
			],
			"stateMutability": "view",
			"type": "function"
		},
		{
			"inputs": [],
			"name": "minimumTokensBeforeSwapAmount",
			"outputs": [
				{
					"internalType": "uint256",
					"name": "",
					"type": "uint256"
				}
			],
			"stateMutability": "view",
			"type": "function"
		},
		{
			"inputs": [],
			"name": "name",
			"outputs": [
				{
					"internalType": "string",
					"name": "",
					"type": "string"
				}
			],
			"stateMutability": "view",
			"type": "function"
		},
		{
			"inputs": [],
			"name": "owner",
			"outputs": [
				{
					"internalType": "address",
					"name": "",
					"type": "address"
				}
			],
			"stateMutability": "view",
			"type": "function"
		},
		{
			"inputs": [
				{
					"internalType": "uint256",
					"name": "tAmount",
					"type": "uint256"
				},
				{
					"internalType": "bool",
					"name": "deductTransferFee",
					"type": "bool"
				}
			],
			"name": "reflectionFromToken",
			"outputs": [
				{
					"internalType": "uint256",
					"name": "",
					"type": "uint256"
				}
			],
			"stateMutability": "view",
			"type": "function"
		},
		{
			"inputs": [],
			"name": "renounceOwnership",
			"outputs": [],
			"stateMutability": "nonpayable",
			"type": "function"
		},
		{
			"inputs": [
				{
					"internalType": "bool",
					"name": "_enabled",
					"type": "bool"
				}
			],
			"name": "setBuyBackEnabled",
			"outputs": [],
			"stateMutability": "nonpayable",
			"type": "function"
		},
		{
			"inputs": [
				{
					"internalType": "uint256",
					"name": "buyBackLimit",
					"type": "uint256"
				}
			],
			"name": "setBuybackUpperLimit",
			"outputs": [],
			"stateMutability": "nonpayable",
			"type": "function"
		},
		{
			"inputs": [
				{
					"internalType": "address",
					"name": "_account",
					"type": "address"
				},
				{
					"internalType": "bool",
					"name": "_isExcludedOrNot",
					"type": "bool"
				}
			],
			"name": "setExcludedFromAntiWhale",
			"outputs": [],
			"stateMutability": "nonpayable",
			"type": "function"
		},
		{
			"inputs": [
				{
					"internalType": "address",
					"name": "_address",
					"type": "address"
				},
				{
					"internalType": "bool",
					"name": "_isIncludedOrNot",
					"type": "bool"
				}
			],
			"name": "setIncludeInStarLpList",
			"outputs": [],
			"stateMutability": "nonpayable",
			"type": "function"
		},
		{
			"inputs": [
				{
					"internalType": "uint256",
					"name": "liquidityFee",
					"type": "uint256"
				}
			],
			"name": "setLiquidityFeePercent",
			"outputs": [],
			"stateMutability": "nonpayable",
			"type": "function"
		},
		{
			"inputs": [
				{
					"internalType": "uint256",
					"name": "maxTxAmount",
					"type": "uint256"
				}
			],
			"name": "setMaxTxAmount",
			"outputs": [],
			"stateMutability": "nonpayable",
			"type": "function"
		},
		{
			"inputs": [
				{
					"internalType": "uint256",
					"name": "_newAmount",
					"type": "uint256"
				}
			],
			"name": "setMinimumBalanceRequired",
			"outputs": [],
			"stateMutability": "nonpayable",
			"type": "function"
		},
		{
			"inputs": [
				{
					"internalType": "uint256",
					"name": "_newAmount",
					"type": "uint256"
				}
			],
			"name": "setMinimumSellOrderAmount",
			"outputs": [],
			"stateMutability": "nonpayable",
			"type": "function"
		},
		{
			"inputs": [
				{
					"internalType": "uint256",
					"name": "_minimumTokensBeforeSwap",
					"type": "uint256"
				}
			],
			"name": "setNumTokensSellToAddToLiquidity",
			"outputs": [],
			"stateMutability": "nonpayable",
			"type": "function"
		},
		{
			"inputs": [
				{
					"internalType": "bool",
					"name": "_enabled",
					"type": "bool"
				}
			],
			"name": "setSwapAndLiquifyEnabled",
			"outputs": [],
			"stateMutability": "nonpayable",
			"type": "function"
		},
		{
			"inputs": [
				{
					"internalType": "uint256",
					"name": "taxFee",
					"type": "uint256"
				}
			],
			"name": "setTaxFeePercent",
			"outputs": [],
			"stateMutability": "nonpayable",
			"type": "function"
		},
		{
			"inputs": [],
			"name": "swapAndLiquifyEnabled",
			"outputs": [
				{
					"internalType": "bool",
					"name": "",
					"type": "bool"
				}
			],
			"stateMutability": "view",
			"type": "function"
		},
		{
			"inputs": [],
			"name": "symbol",
			"outputs": [
				{
					"internalType": "string",
					"name": "",
					"type": "string"
				}
			],
			"stateMutability": "view",
			"type": "function"
		},
		{
			"inputs": [
				{
					"internalType": "uint256",
					"name": "rAmount",
					"type": "uint256"
				}
			],
			"name": "tokenFromReflection",
			"outputs": [
				{
					"internalType": "uint256",
					"name": "",
					"type": "uint256"
				}
			],
			"stateMutability": "view",
			"type": "function"
		},
		{
			"inputs": [],
			"name": "totalFees",
			"outputs": [
				{
					"internalType": "uint256",
					"name": "",
					"type": "uint256"
				}
			],
			"stateMutability": "view",
			"type": "function"
		},
		{
			"inputs": [],
			"name": "totalSupply",
			"outputs": [
				{
					"internalType": "uint256",
					"name": "",
					"type": "uint256"
				}
			],
			"stateMutability": "view",
			"type": "function"
		},
		{
			"inputs": [
				{
					"internalType": "address",
					"name": "recipient",
					"type": "address"
				},
				{
					"internalType": "uint256",
					"name": "amount",
					"type": "uint256"
				}
			],
			"name": "transfer",
			"outputs": [
				{
					"internalType": "bool",
					"name": "",
					"type": "bool"
				}
			],
			"stateMutability": "nonpayable",
			"type": "function"
		},
		{
			"inputs": [
				{
					"internalType": "address",
					"name": "sender",
					"type": "address"
				},
				{
					"internalType": "address",
					"name": "recipient",
					"type": "address"
				},
				{
					"internalType": "uint256",
					"name": "amount",
					"type": "uint256"
				}
			],
			"name": "transferFrom",
			"outputs": [
				{
					"internalType": "bool",
					"name": "",
					"type": "bool"
				}
			],
			"stateMutability": "nonpayable",
			"type": "function"
		},
		{
			"inputs": [
				{
					"internalType": "address",
					"name": "newOwner",
					"type": "address"
				}
			],
			"name": "transferOwnership",
			"outputs": [],
			"stateMutability": "nonpayable",
			"type": "function"
		},
		{
			"inputs": [],
			"name": "uniswapV2Pair",
			"outputs": [
				{
					"internalType": "address",
					"name": "",
					"type": "address"
				}
			],
			"stateMutability": "view",
			"type": "function"
		},
		{
			"inputs": [],
			"name": "uniswapV2Router",
			"outputs": [
				{
					"internalType": "contract IUniswapV2Router02",
					"name": "",
					"type": "address"
				}
			],
			"stateMutability": "view",
			"type": "function"
		},
		{
			"stateMutability": "payable",
			"type": "receive"
		}
	]
}