{
	"data": {
		"bytecode": {
			"linkReferences": {},
			"object": "6080604052600060055560646006553480156200001b57600080fd5b5060405162003e4c38038062003e4c8339810160408190526200003e91620000f0565b60006200004a620000ec565b600080546001600160a01b0319166001600160a01b0383169081178255604051929350917f8be0079c531659141344cd1fd0a4f28419497f9722a3daafe3b4186f6b6457e0908290a35060018055601280546001600160a01b039092166001600160a01b03199283161790556023600e556010805490911673aa3d85ad9d128dfecb55424085754f6dfa643eb1179055678ac7230489e80000600f5562000120565b3390565b60006020828403121562000102578081fd5b81516001600160a01b038116811462000119578182fd5b9392505050565b613d1c80620001306000396000f3fe6080604052600436106102665760003560e01c806397988dce11610144578063cf0d5af3116100b6578063e04ab1391161007a578063e04ab13914610732578063e091dd1a14610752578063e52c4b7a14610767578063f19451d814610787578063f2fde38b1461079c578063fc0633d0146107bc57610266565b8063cf0d5af314610668578063cf6dde4a1461069c578063d060e175146106bc578063d323cdbf146106dc578063d68f4dd1146106fc57610266565b8063b2fb30cb11610108578063b2fb30cb146105b3578063b4540fa7146105d3578063bb5ee001146105f3578063c368803a14610613578063c8b0cf6814610633578063ca5cc0c21461064857610266565b806397988dce1461052b5780639ecd74721461054b578063a34df14f14610560578063a6dcb8de14610573578063b1d7655c1461059357610266565b80635a5b8d9e116101dd578063783451e8116101a1578063783451e81461046f57806386de2fcb146104845780638b7b23ee146104a45780638ba74f17146104c95780638da5cb5b146104e9578063903df8061461050b57610266565b80635a5b8d9e146103da5780636588fc03146103fa578063675187a31461041a578063715018a61461043a578063741af17e1461044f57610266565b80631d7065db1161022f5780631d7065db1461030d57806323cf31181461033a5780633717dee71461035a5780633e54bacb1461037a578063441a3e701461039a5780635a04fb69146103ba57610266565b8062623ae31461026b57806303e1cdf4146102965780630cdebc9e146102ab57806313ef2b1b146102cb5780631c30ffb1146102ed575b600080fd5b34801561027757600080fd5b506102806107dc565b60405161028d9190613b65565b60405180910390f35b3480156102a257600080fd5b506102806107ed565b3480156102b757600080fd5b506102806102c63660046134b6565b6107f9565b3480156102d757600080fd5b506102eb6102e6366004613406565b6108ab565b005b3480156102f957600080fd5b506102806103083660046133c6565b610f2d565b34801561031957600080fd5b5061032d610328366004613372565b610f8d565b60405161028d9190613774565b34801561034657600080fd5b506102eb610355366004613372565b610f9a565b34801561036657600080fd5b506102eb6103753660046135db565b610ffb565b34801561038657600080fd5b506102eb6103953660046135db565b6112fc565b3480156103a657600080fd5b506102eb6103b53660046135db565b6115f1565b3480156103c657600080fd5b506102eb6103d53660046135b7565b61189e565b3480156103e657600080fd5b506102eb6103f5366004613587565b611c27565b34801561040657600080fd5b506102eb6104153660046135db565b611cb8565b34801561042657600080fd5b5061032d610435366004613372565b611fab565b34801561044657600080fd5b506102eb61201e565b34801561045b57600080fd5b506102eb61046a366004613372565b6120a7565b34801561047b57600080fd5b50610280612108565b34801561049057600080fd5b506102eb61049f366004613489565b612114565b3480156104b057600080fd5b506104b961217b565b60405161028d9493929190613c03565b3480156104d557600080fd5b506102806104e43660046134b6565b612197565b3480156104f557600080fd5b506104fe6121e2565b60405161028d919061367e565b34801561051757600080fd5b506104fe6105263660046134b6565b6121f1565b34801561053757600080fd5b506104fe610546366004613587565b612213565b34801561055757600080fd5b506104fe612220565b6102eb61056e366004613372565b61222f565b34801561057f57600080fd5b5061028061058e366004613372565b6122f8565b34801561059f57600080fd5b506104fe6105ae366004613587565b612319565b3480156105bf57600080fd5b506102eb6105ce3660046135db565b612326565b3480156105df57600080fd5b506102eb6105ee366004613489565b61259a565b3480156105ff57600080fd5b5061028061060e36600461338e565b612663565b34801561061f57600080fd5b5061028061062e366004613372565b612692565b34801561063f57600080fd5b506104fe6126a4565b34801561065457600080fd5b506102806106633660046134b6565b6126b3565b34801561067457600080fd5b50610688610683366004613587565b612759565b60405161028d9897969594939291906136cf565b3480156106a857600080fd5b5061032d6106b7366004613372565b6127ab565b3480156106c857600080fd5b506102806106d7366004613372565b6127b8565b3480156106e857600080fd5b506102806106f7366004613587565b6127d3565b34801561070857600080fd5b5061071c610717366004613587565b6128ca565b60405161028d9a99989796959493929190613ba2565b34801561073e57600080fd5b5061028061074d366004613587565b612a83565b34801561075e57600080fd5b50610280612b2a565b34801561077357600080fd5b506104fe610782366004613587565b612b30565b34801561079357600080fd5b50610280612b3d565b3480156107a857600080fd5b506102eb6107b7366004613372565b612b43565b3480156107c857600080fd5b506102eb6107d73660046135fc565b612c03565b60006107e8600c612c7c565b905090565b60006107e8600a612c7c565b600080836001600160a01b03166370a08231306040518263ffffffff1660e01b8152600401610828919061367e565b60206040518083038186803b15801561084057600080fd5b505afa158015610854573d6000803e3d6000fd5b505050506040513d601f19601f82011682018060405250810190610878919061359f565b6001600160a01b0385166000908152600960205260409020549091506108a19084908390612c87565b9150505b92915050565b600260015414156108d75760405162461bcd60e51b81526004016108ce90613b2e565b60405180910390fd5b6002600155806108f95760405162461bcd60e51b81526004016108ce906139b6565b6014546001600160a01b03161561096b57601454604051633c6202c960e21b81526001600160a01b039091169063f1880b249061093a90869060040161367e565b60006040518083038186803b15801561095257600080fd5b505afa158015610966573d6000803e3d6000fd5b505050505b6000805b828110156109c05783838281811061099757634e487b7160e01b600052603260045260246000fd5b905060a0020160200135826109ac9190613c40565b9150806109b881613c8f565b91505061096f565b506040516370a0823160e01b81526000906001600160a01b038616906370a08231906109f090309060040161367e565b60206040518083038186803b158015610a0857600080fd5b505afa158015610a1c573d6000803e3d6000fd5b505050506040513d601f19601f82011682018060405250810190610a40919061359f565b9050610a4e85333085612d32565b600081866001600160a01b03166370a08231306040518263ffffffff1660e01b8152600401610a7d919061367e565b60206040518083038186803b158015610a9557600080fd5b505afa158015610aa9573d6000803e3d6000fd5b505050506040513d601f19601f82011682018060405250810190610acd919061359f565b610ad79190613c78565b9050610ae4600a87612e22565b610b25576000610afc82600e60000154612710612c87565b601054909150610b179088906001600160a01b031683612e37565b610b218183613c78565b9150505b6000805b85811015610f1f576000878783818110610b5357634e487b7160e01b600052603260045260246000fd5b905060a00201803603810190610b6991906134fd565b90508060600151816040015110610b925760405162461bcd60e51b81526004016108ce90613996565b6402540be400816060015110610bba5760405162461bcd60e51b81526004016108ce906137c1565b60065481602001511015610be05760405162461bcd60e51b81526004016108ce9061393c565b6000610bf182602001518689612c87565b6001600160a01b038b16600090815260096020526040902054909150610c1957809350610c4f565b6001600160a01b038a16600090815260096020526040902054610c4c9082908815610c445788610c47565b60015b612c87565b93505b60008411610c6f5760405162461bcd60e51b81526004016108ce90613a83565b6001600160a01b038a1660009081526009602052604081208054869290610c97908490613c40565b90915550610ca790508187613c40565b9550610cb1613312565b6001600160a01b03808c16825260208201869052604084015160608084019190915284015160808084019190915260055460a08401528451821660c08401528401511615610d835782608001516001600160a01b031663f968f4936040518163ffffffff1660e01b815260040160206040518083038186803b158015610d3657600080fd5b505afa158015610d4a573d6000803e3d6000fd5b505050506040513d601f19601f82011682018060405250810190610d6e91906134e1565b5060808301516001600160a01b031660e08201525b60058054600090815260046020818152604092839020855181546001600160a01b039182166001600160a01b0319918216178355928701516001830155938601516002808301919091556060870151600383015560808701519382019390935560a08601519481019490945560c085015160068501805491851691831691909117905560e085015160079094018054949093169316929092179055610e28908c612f24565b506001600160a01b03808c166000908152600760209081526040808320600554815460018101835591855283852090910155865190931682526008905220610e70818d612f24565b506001600160a01b038c1660009081526002820160209081526040822060058054825460018101845592855292842090910191909155805491610eb283613c8f565b91905055507f4d0f9887048089b093c92bec885ab529000723bce1a79f4e81a5990619910b968260a001518d8460c001518686606001518760800151604051610f0096959493929190613b6e565b60405180910390a1505050508080610f1790613c8f565b915050610b29565b505060018055505050505050565b6001600160a01b038084166000908152600860209081526040808320938616835260029093019052908120805483908110610f7857634e487b7160e01b600052603260045260246000fd5b906000526020600020015490505b9392505050565b60006108a5600a83612e22565b610fa2612f39565b6001600160a01b0316610fb36121e2565b6001600160a01b031614610fd95760405162461bcd60e51b81526004016108ce90613961565b601380546001600160a01b0319166001600160a01b0392909216919091179055565b6002600154141561101e5760405162461bcd60e51b81526004016108ce90613b2e565b600260015560008281526004602052604090206006548210156110535760405162461bcd60e51b81526004016108ce9061393c565b80546040516370a0823160e01b81526000916001600160a01b0316906370a082319061108390309060040161367e565b60206040518083038186803b15801561109b57600080fd5b505afa1580156110af573d6000803e3d6000fd5b505050506040513d601f19601f820116820180604052508101906110d3919061359f565b82549091506110ed906001600160a01b0316333086612d32565b81546040516370a0823160e01b815260009183916001600160a01b03909116906370a082319061112190309060040161367e565b60206040518083038186803b15801561113957600080fd5b505afa15801561114d573d6000803e3d6000fd5b505050506040513d601f19601f82011682018060405250810190611171919061359f565b61117b9190613c78565b835490915061119590600a906001600160a01b0316612e22565b6111da5760006111ad82600e60000154612710612c87565b84546010549192506111cc916001600160a01b03918216911683612e37565b6111d68183613c78565b9150505b82546001600160a01b03166000908152600960205260408120546111ff575080611228565b83546001600160a01b031660009081526009602052604090205461122590839085612c87565b90505b600081116112485760405162461bcd60e51b81526004016108ce90613a83565b83546001600160a01b031660009081526009602052604081208054839290611271908490613c40565b925050819055508084600101600082825461128c9190613c40565b9091555050600584015484546006860154600387015460048801546040517f4d0f9887048089b093c92bec885ab529000723bce1a79f4e81a5990619910b96956112e89590946001600160a01b03918216949116928992613b6e565b60405180910390a150506001805550505050565b6002600154141561131f5760405162461bcd60e51b81526004016108ce90613b2e565b60026001556013546001600160a01b031661134c5760405162461bcd60e51b81526004016108ce906138de565b600082815260046020526040902060068101546001600160a01b031633146113865760405162461bcd60e51b81526004016108ce906138ff565b60008160020154826001015461139c9190613c78565b9050600081116113be5760405162461bcd60e51b81526004016108ce90613823565b81546040516370a0823160e01b81526000916001600160a01b0316906370a08231906113ee90309060040161367e565b60206040518083038186803b15801561140657600080fd5b505afa15801561141a573d6000803e3d6000fd5b505050506040513d601f19601f8201168201806040525081019061143e919061359f565b83546001600160a01b0316600090815260096020526040812054919250906114699084908490612c87565b8454601354919250611488916001600160a01b03918216911683612f3d565b601360009054906101000a90046001600160a01b03166001600160a01b03166322a3d1a48560000160009054906101000a90046001600160a01b031686600101548760020154886003015489600401548a600501548b60060160009054906101000a90046001600160a01b03168c60070160009054906101000a90046001600160a01b03168a8f6040518b63ffffffff1660e01b81526004016115349a99989796959493929190613717565b602060405180830381600087803b15801561154e57600080fd5b505af1158015611562573d6000803e3d6000fd5b505050506040513d601f19601f8201168201806040525081019061158691906134e1565b506001840154600285015583546001600160a01b0316600090815260096020526040812080548592906115ba908490613c78565b90915550506040517f8b1497abd425402b9139208bcb7f83d61a7545712a632d73a1ae68039cd593ab906112e89088908490613bf5565b600260015414156116145760405162461bcd60e51b81526004016108ce90613b2e565b6002600155600082815260046020526040902060068101546001600160a01b031633146116535760405162461bcd60e51b81526004016108ce906138ff565b80546040516370a0823160e01b81526000916001600160a01b0316906370a082319061168390309060040161367e565b60206040518083038186803b15801561169b57600080fd5b505afa1580156116af573d6000803e3d6000fd5b505050506040513d601f19601f820116820180604052508101906116d3919061359f565b82546001600160a01b0316600090815260096020526040812054919250906116fc908584612c87565b90508015801561170c5750600084115b1561171f578061171b81613c8f565b9150505b6000811161173f5760405162461bcd60e51b81526004016108ce90613aa3565b600061174e8460050154612a83565b90508061175c836001613c40565b14156117a25783546001600160a01b03166000908152600960205260409020546117909061178a8186613c58565b85612c87565b6117a2578161179e81613c8f565b9250505b818110156117c25760405162461bcd60e51b81526004016108ce90613823565b818460020160008282546117d69190613c40565b909155505083546001600160a01b03166000908152600960205260408120546118029084908690612c87565b85546001600160a01b0316600090815260096020526040812080549293508592909190611830908490613c78565b9091555050845461184b906001600160a01b03163383612e37565b84546040517fccad973dcd043c7d680389db4378bd6b9775db7124092e9e0422c9e46d7985dc91611889916001600160a01b039091169084906136b6565b60405180910390a15050600180555050505050565b600260015414156118c15760405162461bcd60e51b81526004016108ce90613b2e565b6002600155336001600160a01b03821614156118ef5760405162461bcd60e51b81526004016108ce90613a40565b600082815260046020526040902060068101546001600160a01b031633146119295760405162461bcd60e51b81526004016108ce906138ff565b611931613312565b8160000160009054906101000a90046001600160a01b031681600001906001600160a01b031690816001600160a01b03168152505081600101548160200181815250508160020154816040018181525050816003015481606001818152505081600401548160800181815250506005548160a0018181525050828160c001906001600160a01b031690816001600160a01b0316815250508160070160009054906101000a90046001600160a01b03168160e001906001600160a01b031690816001600160a01b0316815250508060046000600554815260200190815260200160002060008201518160000160006101000a8154816001600160a01b0302191690836001600160a01b031602179055506020820151816001015560408201518160020155606082015181600301556080820151816004015560a0820151816005015560c08201518160060160006101000a8154816001600160a01b0302191690836001600160a01b0316021790555060e08201518160070160006101000a8154816001600160a01b0302191690836001600160a01b03160217905550905050600760008360000160009054906101000a90046001600160a01b03166001600160a01b03166001600160a01b031681526020019081526020016000206005549080600181540180825580915050600190039060005260206000200160009091909190915055600060086000856001600160a01b03166001600160a01b031681526020019081526020016000209050611b8a8360000160009054906101000a90046001600160a01b031682600001612f2490919063ffffffff16565b5082546001600160a01b031660009081526002820160209081526040822060a0850151815460018101835591845291832001556005805491611bcb83613c8f565b90915550506001830154600284015560a08201516040517fc1329eea12893a6eff780df43cf4ec708fdc6ce7fbacf84ee8cf9355a9af1dd891611c149188919033908990613c03565b60405180910390a1505060018055505050565b60026001541415611c4a5760405162461bcd60e51b81526004016108ce90613b2e565b6002600155600081815260046020526040902060068101546001600160a01b03163314611c895760405162461bcd60e51b81526004016108ce906138ff565b60078101546001600160a01b0316611ca057600080fd5b60070180546001600160a01b03191690555060018055565b60026001541415611cdb5760405162461bcd60e51b81526004016108ce90613b2e565b600260015580611cfd5760405162461bcd60e51b81526004016108ce90613a5e565b600082815260046020526040902060068101546001600160a01b03163314611d375760405162461bcd60e51b81526004016108ce906138ff565b600381015415611d595760405162461bcd60e51b81526004016108ce906139f6565b80546040516370a0823160e01b81526000916001600160a01b0316906370a0823190611d8990309060040161367e565b60206040518083038186803b158015611da157600080fd5b505afa158015611db5573d6000803e3d6000fd5b505050506040513d601f19601f82011682018060405250810190611dd9919061359f565b82546001600160a01b031660009081526009602052604081205491925090611e02908584612c87565b90508260010154818460020154611e199190613c40565b1115611e2457600080fd5b611e2c613312565b83546001600160a01b039081168252602082018390526004850154608083015260055460a08301523360c083015260078501541660e0820152600284018054839190600090611e7c908490613c40565b9091555050600580546000908152600460208181526040808420865181546001600160a01b03199081166001600160a01b03928316178355888501516001808501919091558985015160028086019190915560608b0151600386015560808b01519785019790975560a08a018051858b015560c08b0151600686018054851691861691909117905560e08b015160079586018054909416908516179092558c548316885292855283872088548154808601835591895286892090910155338752600885528387208c54909216875294018352908420925183549182018455928452908320015581549190611f6f83613c8f565b91905055507fbfc02f4250f5e54a31a72371b1932061a0245db2afb5124b547306f6ebffd8ad868260a00151876040516112e893929190613c2a565b6000816001600160a01b031663f968f4936040518163ffffffff1660e01b815260040160206040518083038186803b158015611fe657600080fd5b505afa158015611ffa573d6000803e3d6000fd5b505050506040513d601f19601f820116820180604052508101906108a591906134e1565b612026612f39565b6001600160a01b03166120376121e2565b6001600160a01b03161461205d5760405162461bcd60e51b81526004016108ce90613961565b600080546040516001600160a01b03909116907f8be0079c531659141344cd1fd0a4f28419497f9722a3daafe3b4186f6b6457e0908390a3600080546001600160a01b0319169055565b6120af612f39565b6001600160a01b03166120c06121e2565b6001600160a01b0316146120e65760405162461bcd60e51b81526004016108ce90613961565b601480546001600160a01b0319166001600160a01b0392909216919091179055565b60006107e86002612c7c565b61211c612f39565b6001600160a01b031661212d6121e2565b6001600160a01b0316146121535760405162461bcd60e51b81526004016108ce90613961565b801561216a57612164600c83612f24565b50612177565b612175600c83613023565b505b5050565b600e54600f546010546011546001600160a01b03918216911684565b6001600160a01b03821660009081526007602052604081208054839081106121cf57634e487b7160e01b600052603260045260246000fd5b9060005260206000200154905092915050565b6000546001600160a01b031690565b6001600160a01b0382166000908152600860205260408120610f869083613038565b60006108a5600283613038565b6013546001600160a01b031681565b61223a600a82612e22565b156122575760405162461bcd60e51b81526004016108ce9061391e565b6011546001600160a01b03166122ca57600f5434146122885760405162461bcd60e51b81526004016108ce90613a1b565b601054600f546040516001600160a01b039092169181156108fc0291906000818181858888f193505050501580156122c4573d6000803e3d6000fd5b506122ed565b601154601054600f546122ed926001600160a01b03908116923392911690612d32565b612177600a82612f24565b6001600160a01b03811660009081526008602052604081206108a590612c7c565b60006108a5600a83613038565b600260015414156123495760405162461bcd60e51b81526004016108ce90613b2e565b60026001556402540be40081106123725760405162461bcd60e51b81526004016108ce90613889565b600082815260046020526040902060068101546001600160a01b031633146123ac5760405162461bcd60e51b81526004016108ce906138ff565b818160040154106123cf5760405162461bcd60e51b81526004016108ce906139d9565b80546123e690600a906001600160a01b0316612e22565b612550576000816002015482600101546124009190613c78565b9050600061241682600e60000154612710612c87565b83546040516370a0823160e01b81529192506000916001600160a01b03909116906370a082319061244b90309060040161367e565b60206040518083038186803b15801561246357600080fd5b505afa158015612477573d6000803e3d6000fd5b505050506040513d601f19601f8201168201806040525081019061249b919061359f565b84546001600160a01b0316600090815260096020526040812054919250906124e5908490849015610c445787546001600160a01b0316600090815260096020526040902054610c47565b8554601054919250612504916001600160a01b03918216911683612e37565b828560020160008282546125189190613c40565b909155505084546001600160a01b031660009081526009602052604081208054859290612546908490613c78565b9091555050505050505b600481018290556040517fefaff1b90138281d215452c67f793017f52e456f65c28ac63f5309a89a059b47906125899085908590613bf5565b60405180910390a150506001805550565b601254604051632a35efd360e21b81526001600160a01b039091169063a8d7bf4c906125ca90339060040161367e565b60206040518083038186803b1580156125e257600080fd5b505afa1580156125f6573d6000803e3d6000fd5b505050506040513d601f19601f8201168201806040525081019061261a91906134e1565b8061262b575061262b600c33612e22565b6126475760405162461bcd60e51b81526004016108ce90613acb565b801561265857612164600a83612f24565b612175600a83613023565b6001600160a01b0391821660009081526008602090815260408083209390941682526002909201909152205490565b60096020526000908152604090205481565b6014546001600160a01b031681565b600080836001600160a01b03166370a08231306040518263ffffffff1660e01b81526004016126e2919061367e565b60206040518083038186803b1580156126fa57600080fd5b505afa15801561270e573d6000803e3d6000fd5b505050506040513d601f19601f82011682018060405250810190612732919061359f565b6001600160a01b0385166000908152600960205260409020549091506108a1908483612c87565b6004602081905260009182526040909120805460018201546002830154600384015494840154600585015460068601546007909601546001600160a01b03958616979496939592939192918216911688565b60006108a5600c83612e22565b6001600160a01b031660009081526007602052604090205490565b6000818152600460205260408120600581015482906127f190612a83565b82546040516370a0823160e01b81529192506000916001600160a01b03909116906370a082319061282690309060040161367e565b60206040518083038186803b15801561283e57600080fd5b505afa158015612852573d6000803e3d6000fd5b505050506040513d601f19601f82011682018060405250810190612876919061359f565b83546001600160a01b0316600090815260096020526040812054919250906128c0908490849015610c445786546001600160a01b0316600090815260096020526040902054610c47565b9695505050505050565b600081815260046020818152604080842081516101008101835281546001600160a01b0390811680835260018401549583019590955260028301548285015260038301546060830152828601546080830152600583015460a08301526006830154811660c083015260079092015490911660e082015290516370a0823160e01b81528493849384938493849384938493849384939192849290916370a08231916129769130910161367e565b60206040518083038186803b15801561298e57600080fd5b505afa1580156129a2573d6000803e3d6000fd5b505050506040513d601f19601f820116820180604052508101906129c6919061359f565b82516001600160a01b03166000908152600960205260408120549192509015612a085782516001600160a01b0316600090815260096020526040902054612a0b565b60015b90506000612a1e84602001518484612c87565b90506000612a3185604001518585612c87565b90508460a0015185600001518383886020015189604001518a606001518b608001518c60c001518d60e001519e509e509e509e509e509e509e509e509e509e5050505050509193959799509193959799565b60008181526004602052604081206003810154829015612aa4576002612aa7565b60015b905060008160ff16600114612ac0578260010154612ad4565b82600201548360010154612ad49190613c78565b90506000612b048460030154856004015484428860070160009054906101000a90046001600160a01b0316613044565b90508260ff1660021415612b215760028401546128c09082613c78565b95945050505050565b60055481565b60006108a5600c83613038565b60065481565b612b4b612f39565b6001600160a01b0316612b5c6121e2565b6001600160a01b031614612b825760405162461bcd60e51b81526004016108ce90613961565b6001600160a01b038116612ba85760405162461bcd60e51b81526004016108ce90613843565b600080546040516001600160a01b03808516939216917f8be0079c531659141344cd1fd0a4f28419497f9722a3daafe3b4186f6b6457e091a3600080546001600160a01b0319166001600160a01b0392909216919091179055565b612c0b612f39565b6001600160a01b0316612c1c6121e2565b6001600160a01b031614612c425760405162461bcd60e51b81526004016108ce90613961565b600e93909355600f91909155601080546001600160a01b039283166001600160a01b03199182161790915560118054929093169116179055565b60006108a582613149565b6000808060001985870986860292508281109083900303905080612cbd5760008411612cb257600080fd5b508290049050610f86565b808411612cc957600080fd5b60008486880960026001871981018816978890046003810283188082028403028082028403028082028403028082028403028082028403029081029092039091026000889003889004909101858311909403939093029303949094049190911702949350505050565b600080856001600160a01b03166323b872dd868686604051602401612d5993929190613692565b6040516020818303038152906040529060e01b6020820180516001600160e01b038381831617835250505050604051612d929190613645565b6000604051808303816000865af19150503d8060008114612dcf576040519150601f19603f3d011682016040523d82523d6000602084013e612dd4565b606091505b5091509150818015612dfe575080511580612dfe575080806020019051810190612dfe91906134e1565b612e1a5760405162461bcd60e51b81526004016108ce90613aea565b505050505050565b6000610f86836001600160a01b03841661314d565b600080846001600160a01b031663a9059cbb8585604051602401612e5c9291906136b6565b6040516020818303038152906040529060e01b6020820180516001600160e01b038381831617835250505050604051612e959190613645565b6000604051808303816000865af19150503d8060008114612ed2576040519150601f19603f3d011682016040523d82523d6000602084013e612ed7565b606091505b5091509150818015612f01575080511580612f01575080806020019051810190612f0191906134e1565b612f1d5760405162461bcd60e51b81526004016108ce906137ec565b5050505050565b6000610f86836001600160a01b038416613165565b3390565b600080846001600160a01b031663095ea7b38585604051602401612f629291906136b6565b6040516020818303038152906040529060e01b6020820180516001600160e01b038381831617835250505050604051612f9b9190613645565b6000604051808303816000865af19150503d8060008114612fd8576040519150601f19603f3d011682016040523d82523d6000602084013e612fdd565b606091505b509150915081801561300757508051158061300757508080602001905181019061300791906134e1565b612f1d5760405162461bcd60e51b81526004016108ce906138a7565b6000610f86836001600160a01b0384166131af565b6000610f8683836132cc565b60006001600160a01b038216158015906130ca5750816001600160a01b031663f968f4936040518163ffffffff1660e01b815260040160206040518083038186803b15801561309257600080fd5b505afa1580156130a6573d6000803e3d6000fd5b505050506040513d601f19601f820116820180604052508101906130ca91906134e1565b156130d6575082612b21565b8515806130e257508486145b156130fe578285106130f55760006130f7565b835b9050612b21565b828581111561310a5750845b868110156131155750855b60006131218883613c78565b9050600061312f8989613c78565b905061313c878383612c87565b9998505050505050505050565b5490565b60009081526001919091016020526040902054151590565b6000613171838361314d565b6131a7575081546001818101845560008481526020808220909301849055845484825282860190935260409020919091556108a5565b5060006108a5565b600081815260018301602052604081205480156132c25760006131d3600183613c78565b85549091506000906131e790600190613c78565b9050600086600001828154811061320e57634e487b7160e01b600052603260045260246000fd5b906000526020600020015490508087600001848154811061323f57634e487b7160e01b600052603260045260246000fd5b600091825260209091200155613256836001613c40565b6000828152600189016020526040902055865487908061328657634e487b7160e01b600052603160045260246000fd5b600190038181906000526020600020016000905590558660010160008781526020019081526020016000206000905560019450505050506108a5565b60009150506108a5565b815460009082106132ef5760405162461bcd60e51b81526004016108ce9061377f565b8260000182815481106121cf57634e487b7160e01b600052603260045260246000fd5b60405180610100016040528060006001600160a01b03168152602001600081526020016000815260200160008152602001600081526020016000815260200160006001600160a01b0316815260200160006001600160a01b031681525090565b600060208284031215613383578081fd5b8135610f8681613cc0565b600080604083850312156133a0578081fd5b82356133ab81613cc0565b915060208301356133bb81613cc0565b809150509250929050565b6000806000606084860312156133da578081fd5b83356133e581613cc0565b925060208401356133f581613cc0565b929592945050506040919091013590565b60008060006040848603121561341a578283fd5b833561342581613cc0565b9250602084013567ffffffffffffffff80821115613441578384fd5b818601915086601f830112613454578384fd5b813581811115613462578485fd5b87602060a083028501011115613476578485fd5b6020830194508093505050509250925092565b6000806040838503121561349b578182fd5b82356134a681613cc0565b915060208301356133bb81613cd8565b600080604083850312156134c8578182fd5b82356134d381613cc0565b946020939093013593505050565b6000602082840312156134f2578081fd5b8151610f8681613cd8565b600060a0828403121561350e578081fd5b60405160a0810181811067ffffffffffffffff8211171561353d57634e487b7160e01b83526041600452602483fd5b604052823561354b81613cc0565b80825250602083013560208201526040830135604082015260608301356060820152608083013561357b81613cc0565b60808201529392505050565b600060208284031215613598578081fd5b5035919050565b6000602082840312156135b0578081fd5b5051919050565b600080604083850312156135c9578182fd5b8235915060208301356133bb81613cc0565b600080604083850312156135ed578182fd5b50508035926020909101359150565b60008060008060808587031215613611578182fd5b8435935060208501359250604085013561362a81613cc0565b9150606085013561363a81613cc0565b939692955090935050565b60008251815b81811015613665576020818601810151858301520161364b565b818111156136735782828501525b509190910192915050565b6001600160a01b0391909116815260200190565b6001600160a01b039384168152919092166020820152604081019190915260600190565b6001600160a01b03929092168252602082015260400190565b6001600160a01b039889168152602081019790975260408701959095526060860193909352608085019190915260a0840152831660c083015290911660e08201526101000190565b6001600160a01b039a8b168152602081019990995260408901979097526060880195909552608087019390935260a0860191909152851660c085015290931660e08301526101008201929092526101208101919091526101400190565b901515815260200190565b60208082526022908201527f456e756d657261626c655365743a20696e646578206f7574206f6620626f756e604082015261647360f01b606082015260800190565b6020808252601190820152701512535154d51053540812539590531251607a1b604082015260600190565b6020808252601f908201527f5472616e7366657248656c7065723a205452414e534645525f4641494c454400604082015260600190565b602080825260069082015265105353d5539560d21b604082015260600190565b60208082526026908201527f4f776e61626c653a206e6577206f776e657220697320746865207a65726f206160408201526564647265737360d01b606082015260800190565b60208082526004908201526354494d4560e01b604082015260600190565b6020808252601e908201527f5472616e7366657248656c7065723a20415050524f56455f4641494c45440000604082015260600190565b6020808252600790820152661393d50814d15560ca1b604082015260600190565b60208082526005908201526427aba722a960d91b604082015260600190565b6020808252600490820152631410525160e21b604082015260600190565b6020808252600b908201526a1352538811115413d4d25560aa1b604082015260600190565b6020808252818101527f4f776e61626c653a2063616c6c6572206973206e6f7420746865206f776e6572604082015260600190565b6020808252600690820152651411549253d160d21b604082015260600190565b6020808252600990820152684e4f20504152414d5360b81b604082015260600190565b60208082526003908201526211539160ea1b604082015260600190565b6020808252600b908201526a2627a1a5902a2ca822901960a91b604082015260600190565b6020808252600b908201526a119151481393d50813515560aa1b604082015260600190565b60208082526004908201526329a2a62360e11b604082015260600190565b6020808252600b908201526a16915493c8105353d5539560aa1b604082015260600190565b60208082526006908201526553484152455360d01b604082015260600190565b6020808252600e908201526d16915493c815d2551211149055d360921b604082015260600190565b60208082526005908201526420a226a4a760d91b604082015260600190565b60208082526024908201527f5472616e7366657248656c7065723a205452414e534645525f46524f4d5f46416040820152631253115160e21b606082015260800190565b6020808252601f908201527f5265656e7472616e637947756172643a207265656e7472616e742063616c6c00604082015260600190565b90815260200190565b9586526001600160a01b0394851660208701529290931660408501526060840152608083019190915260a082015260c00190565b998a526001600160a01b0398891660208b015260408a01979097526060890195909552608088019390935260a087019190915260c086015260e08501528216610100840152166101208201526101400190565b918252602082015260400190565b93845260208401929092526001600160a01b03908116604084015216606082015260800190565b9283526020830191909152604082015260600190565b60008219821115613c5357613c53613caa565b500190565b600082613c7357634e487b7160e01b81526012600452602481fd5b500490565b600082821015613c8a57613c8a613caa565b500390565b6000600019821415613ca357613ca3613caa565b5060010190565b634e487b7160e01b600052601160045260246000fd5b6001600160a01b0381168114613cd557600080fd5b50565b8015158114613cd557600080fdfea2646970667358221220daa7b40eab1a4ed36ad712943e10f58739cdfeb4a35b4b4b1f5b5232fc97a84e64736f6c63430008000033",
			"opcodes": "PUSH1 0x80 PUSH1 0x40 MSTORE PUSH1 0x0 PUSH1 0x5 SSTORE PUSH1 0x64 PUSH1 0x6 SSTORE CALLVALUE DUP1 ISZERO PUSH3 0x1B JUMPI PUSH1 0x0 DUP1 REVERT JUMPDEST POP PUSH1 0x40 MLOAD PUSH3 0x3E4C CODESIZE SUB DUP1 PUSH3 0x3E4C DUP4 CODECOPY DUP2 ADD PUSH1 0x40 DUP2 SWAP1 MSTORE PUSH3 0x3E SWAP2 PUSH3 0xF0 JUMP JUMPDEST PUSH1 0x0 PUSH3 0x4A PUSH3 0xEC JUMP JUMPDEST PUSH1 0x0 DUP1 SLOAD PUSH1 0x1 PUSH1 0x1 PUSH1 0xA0 SHL SUB NOT AND PUSH1 0x1 PUSH1 0x1 PUSH1 0xA0 SHL SUB DUP4 AND SWAP1 DUP2 OR DUP3 SSTORE PUSH1 0x40 MLOAD SWAP3 SWAP4 POP SWAP2 PUSH32 0x8BE0079C531659141344CD1FD0A4F28419497F9722A3DAAFE3B4186F6B6457E0 SWAP1 DUP3 SWAP1 LOG3 POP PUSH1 0x1 DUP1 SSTORE PUSH1 0x12 DUP1 SLOAD PUSH1 0x1 PUSH1 0x1 PUSH1 0xA0 SHL SUB SWAP1 SWAP3 AND PUSH1 0x1 PUSH1 0x1 PUSH1 0xA0 SHL SUB NOT SWAP3 DUP4 AND OR SWAP1 SSTORE PUSH1 0x23 PUSH1 0xE SSTORE PUSH1 0x10 DUP1 SLOAD SWAP1 SWAP2 AND PUSH20 0xAA3D85AD9D128DFECB55424085754F6DFA643EB1 OR SWAP1 SSTORE PUSH8 0x8AC7230489E80000 PUSH1 0xF SSTORE PUSH3 0x120 JUMP JUMPDEST CALLER SWAP1 JUMP JUMPDEST PUSH1 0x0 PUSH1 0x20 DUP3 DUP5 SUB SLT ISZERO PUSH3 0x102 JUMPI DUP1 DUP2 REVERT JUMPDEST DUP2 MLOAD PUSH1 0x1 PUSH1 0x1 PUSH1 0xA0 SHL SUB DUP2 AND DUP2 EQ PUSH3 0x119 JUMPI DUP2 DUP3 REVERT JUMPDEST SWAP4 SWAP3 POP POP POP JUMP JUMPDEST PUSH2 0x3D1C DUP1 PUSH3 0x130 PUSH1 0x0 CODECOPY PUSH1 0x0 RETURN INVALID PUSH1 0x80 PUSH1 0x40 MSTORE PUSH1 0x4 CALLDATASIZE LT PUSH2 0x266 JUMPI PUSH1 0x0 CALLDATALOAD PUSH1 0xE0 SHR DUP1 PUSH4 0x97988DCE GT PUSH2 0x144 JUMPI DUP1 PUSH4 0xCF0D5AF3 GT PUSH2 0xB6 JUMPI DUP1 PUSH4 0xE04AB139 GT PUSH2 0x7A JUMPI DUP1 PUSH4 0xE04AB139 EQ PUSH2 0x732 JUMPI DUP1 PUSH4 0xE091DD1A EQ PUSH2 0x752 JUMPI DUP1 PUSH4 0xE52C4B7A EQ PUSH2 0x767 JUMPI DUP1 PUSH4 0xF19451D8 EQ PUSH2 0x787 JUMPI DUP1 PUSH4 0xF2FDE38B EQ PUSH2 0x79C JUMPI DUP1 PUSH4 0xFC0633D0 EQ PUSH2 0x7BC JUMPI PUSH2 0x266 JUMP JUMPDEST DUP1 PUSH4 0xCF0D5AF3 EQ PUSH2 0x668 JUMPI DUP1 PUSH4 0xCF6DDE4A EQ PUSH2 0x69C JUMPI DUP1 PUSH4 0xD060E175 EQ PUSH2 0x6BC JUMPI DUP1 PUSH4 0xD323CDBF EQ PUSH2 0x6DC JUMPI DUP1 PUSH4 0xD68F4DD1 EQ PUSH2 0x6FC JUMPI PUSH2 0x266 JUMP JUMPDEST DUP1 PUSH4 0xB2FB30CB GT PUSH2 0x108 JUMPI DUP1 PUSH4 0xB2FB30CB EQ PUSH2 0x5B3 JUMPI DUP1 PUSH4 0xB4540FA7 EQ PUSH2 0x5D3 JUMPI DUP1 PUSH4 0xBB5EE001 EQ PUSH2 0x5F3 JUMPI DUP1 PUSH4 0xC368803A EQ PUSH2 0x613 JUMPI DUP1 PUSH4 0xC8B0CF68 EQ PUSH2 0x633 JUMPI DUP1 PUSH4 0xCA5CC0C2 EQ PUSH2 0x648 JUMPI PUSH2 0x266 JUMP JUMPDEST DUP1 PUSH4 0x97988DCE EQ PUSH2 0x52B JUMPI DUP1 PUSH4 0x9ECD7472 EQ PUSH2 0x54B JUMPI DUP1 PUSH4 0xA34DF14F EQ PUSH2 0x560 JUMPI DUP1 PUSH4 0xA6DCB8DE EQ PUSH2 0x573 JUMPI DUP1 PUSH4 0xB1D7655C EQ PUSH2 0x593 JUMPI PUSH2 0x266 JUMP JUMPDEST DUP1 PUSH4 0x5A5B8D9E GT PUSH2 0x1DD JUMPI DUP1 PUSH4 0x783451E8 GT PUSH2 0x1A1 JUMPI DUP1 PUSH4 0x783451E8 EQ PUSH2 0x46F JUMPI DUP1 PUSH4 0x86DE2FCB EQ PUSH2 0x484 JUMPI DUP1 PUSH4 0x8B7B23EE EQ PUSH2 0x4A4 JUMPI DUP1 PUSH4 0x8BA74F17 EQ PUSH2 0x4C9 JUMPI DUP1 PUSH4 0x8DA5CB5B EQ PUSH2 0x4E9 JUMPI DUP1 PUSH4 0x903DF806 EQ PUSH2 0x50B JUMPI PUSH2 0x266 JUMP JUMPDEST DUP1 PUSH4 0x5A5B8D9E EQ PUSH2 0x3DA JUMPI DUP1 PUSH4 0x6588FC03 EQ PUSH2 0x3FA JUMPI DUP1 PUSH4 0x675187A3 EQ PUSH2 0x41A JUMPI DUP1 PUSH4 0x715018A6 EQ PUSH2 0x43A JUMPI DUP1 PUSH4 0x741AF17E EQ PUSH2 0x44F JUMPI PUSH2 0x266 JUMP JUMPDEST DUP1 PUSH4 0x1D7065DB GT PUSH2 0x22F JUMPI DUP1 PUSH4 0x1D7065DB EQ PUSH2 0x30D JUMPI DUP1 PUSH4 0x23CF3118 EQ PUSH2 0x33A JUMPI DUP1 PUSH4 0x3717DEE7 EQ PUSH2 0x35A JUMPI DUP1 PUSH4 0x3E54BACB EQ PUSH2 0x37A JUMPI DUP1 PUSH4 0x441A3E70 EQ PUSH2 0x39A JUMPI DUP1 PUSH4 0x5A04FB69 EQ PUSH2 0x3BA JUMPI PUSH2 0x266 JUMP JUMPDEST DUP1 PUSH3 0x623AE3 EQ PUSH2 0x26B JUMPI DUP1 PUSH4 0x3E1CDF4 EQ PUSH2 0x296 JUMPI DUP1 PUSH4 0xCDEBC9E EQ PUSH2 0x2AB JUMPI DUP1 PUSH4 0x13EF2B1B EQ PUSH2 0x2CB JUMPI DUP1 PUSH4 0x1C30FFB1 EQ PUSH2 0x2ED JUMPI JUMPDEST PUSH1 0x0 DUP1 REVERT JUMPDEST CALLVALUE DUP1 ISZERO PUSH2 0x277 JUMPI PUSH1 0x0 DUP1 REVERT JUMPDEST POP PUSH2 0x280 PUSH2 0x7DC JUMP JUMPDEST PUSH1 0x40 MLOAD PUSH2 0x28D SWAP2 SWAP1 PUSH2 0x3B65 JUMP JUMPDEST PUSH1 0x40 MLOAD DUP1 SWAP2 SUB SWAP1 RETURN JUMPDEST CALLVALUE DUP1 ISZERO PUSH2 0x2A2 JUMPI PUSH1 0x0 DUP1 REVERT JUMPDEST POP PUSH2 0x280 PUSH2 0x7ED JUMP JUMPDEST CALLVALUE DUP1 ISZERO PUSH2 0x2B7 JUMPI PUSH1 0x0 DUP1 REVERT JUMPDEST POP PUSH2 0x280 PUSH2 0x2C6 CALLDATASIZE PUSH1 0x4 PUSH2 0x34B6 JUMP JUMPDEST PUSH2 0x7F9 JUMP JUMPDEST CALLVALUE DUP1 ISZERO PUSH2 0x2D7 JUMPI PUSH1 0x0 DUP1 REVERT JUMPDEST POP PUSH2 0x2EB PUSH2 0x2E6 CALLDATASIZE PUSH1 0x4 PUSH2 0x3406 JUMP JUMPDEST PUSH2 0x8AB JUMP JUMPDEST STOP JUMPDEST CALLVALUE DUP1 ISZERO PUSH2 0x2F9 JUMPI PUSH1 0x0 DUP1 REVERT JUMPDEST POP PUSH2 0x280 PUSH2 0x308 CALLDATASIZE PUSH1 0x4 PUSH2 0x33C6 JUMP JUMPDEST PUSH2 0xF2D JUMP JUMPDEST CALLVALUE DUP1 ISZERO PUSH2 0x319 JUMPI PUSH1 0x0 DUP1 REVERT JUMPDEST POP PUSH2 0x32D PUSH2 0x328 CALLDATASIZE PUSH1 0x4 PUSH2 0x3372 JUMP JUMPDEST PUSH2 0xF8D JUMP JUMPDEST PUSH1 0x40 MLOAD PUSH2 0x28D SWAP2 SWAP1 PUSH2 0x3774 JUMP JUMPDEST CALLVALUE DUP1 ISZERO PUSH2 0x346 JUMPI PUSH1 0x0 DUP1 REVERT JUMPDEST POP PUSH2 0x2EB PUSH2 0x355 CALLDATASIZE PUSH1 0x4 PUSH2 0x3372 JUMP JUMPDEST PUSH2 0xF9A JUMP JUMPDEST CALLVALUE DUP1 ISZERO PUSH2 0x366 JUMPI PUSH1 0x0 DUP1 REVERT JUMPDEST POP PUSH2 0x2EB PUSH2 0x375 CALLDATASIZE PUSH1 0x4 PUSH2 0x35DB JUMP JUMPDEST PUSH2 0xFFB JUMP JUMPDEST CALLVALUE DUP1 ISZERO PUSH2 0x386 JUMPI PUSH1 0x0 DUP1 REVERT JUMPDEST POP PUSH2 0x2EB PUSH2 0x395 CALLDATASIZE PUSH1 0x4 PUSH2 0x35DB JUMP JUMPDEST PUSH2 0x12FC JUMP JUMPDEST CALLVALUE DUP1 ISZERO PUSH2 0x3A6 JUMPI PUSH1 0x0 DUP1 REVERT JUMPDEST POP PUSH2 0x2EB PUSH2 0x3B5 CALLDATASIZE PUSH1 0x4 PUSH2 0x35DB JUMP JUMPDEST PUSH2 0x15F1 JUMP JUMPDEST CALLVALUE DUP1 ISZERO PUSH2 0x3C6 JUMPI PUSH1 0x0 DUP1 REVERT JUMPDEST POP PUSH2 0x2EB PUSH2 0x3D5 CALLDATASIZE PUSH1 0x4 PUSH2 0x35B7 JUMP JUMPDEST PUSH2 0x189E JUMP JUMPDEST CALLVALUE DUP1 ISZERO PUSH2 0x3E6 JUMPI PUSH1 0x0 DUP1 REVERT JUMPDEST POP PUSH2 0x2EB PUSH2 0x3F5 CALLDATASIZE PUSH1 0x4 PUSH2 0x3587 JUMP JUMPDEST PUSH2 0x1C27 JUMP JUMPDEST CALLVALUE DUP1 ISZERO PUSH2 0x406 JUMPI PUSH1 0x0 DUP1 REVERT JUMPDEST POP PUSH2 0x2EB PUSH2 0x415 CALLDATASIZE PUSH1 0x4 PUSH2 0x35DB JUMP JUMPDEST PUSH2 0x1CB8 JUMP JUMPDEST CALLVALUE DUP1 ISZERO PUSH2 0x426 JUMPI PUSH1 0x0 DUP1 REVERT JUMPDEST POP PUSH2 0x32D PUSH2 0x435 CALLDATASIZE PUSH1 0x4 PUSH2 0x3372 JUMP JUMPDEST PUSH2 0x1FAB JUMP JUMPDEST CALLVALUE DUP1 ISZERO PUSH2 0x446 JUMPI PUSH1 0x0 DUP1 REVERT JUMPDEST POP PUSH2 0x2EB PUSH2 0x201E JUMP JUMPDEST CALLVALUE DUP1 ISZERO PUSH2 0x45B JUMPI PUSH1 0x0 DUP1 REVERT JUMPDEST POP PUSH2 0x2EB PUSH2 0x46A CALLDATASIZE PUSH1 0x4 PUSH2 0x3372 JUMP JUMPDEST PUSH2 0x20A7 JUMP JUMPDEST CALLVALUE DUP1 ISZERO PUSH2 0x47B JUMPI PUSH1 0x0 DUP1 REVERT JUMPDEST POP PUSH2 0x280 PUSH2 0x2108 JUMP JUMPDEST CALLVALUE DUP1 ISZERO PUSH2 0x490 JUMPI PUSH1 0x0 DUP1 REVERT JUMPDEST POP PUSH2 0x2EB PUSH2 0x49F CALLDATASIZE PUSH1 0x4 PUSH2 0x3489 JUMP JUMPDEST PUSH2 0x2114 JUMP JUMPDEST CALLVALUE DUP1 ISZERO PUSH2 0x4B0 JUMPI PUSH1 0x0 DUP1 REVERT JUMPDEST POP PUSH2 0x4B9 PUSH2 0x217B JUMP JUMPDEST PUSH1 0x40 MLOAD PUSH2 0x28D SWAP5 SWAP4 SWAP3 SWAP2 SWAP1 PUSH2 0x3C03 JUMP JUMPDEST CALLVALUE DUP1 ISZERO PUSH2 0x4D5 JUMPI PUSH1 0x0 DUP1 REVERT JUMPDEST POP PUSH2 0x280 PUSH2 0x4E4 CALLDATASIZE PUSH1 0x4 PUSH2 0x34B6 JUMP JUMPDEST PUSH2 0x2197 JUMP JUMPDEST CALLVALUE DUP1 ISZERO PUSH2 0x4F5 JUMPI PUSH1 0x0 DUP1 REVERT JUMPDEST POP PUSH2 0x4FE PUSH2 0x21E2 JUMP JUMPDEST PUSH1 0x40 MLOAD PUSH2 0x28D SWAP2 SWAP1 PUSH2 0x367E JUMP JUMPDEST CALLVALUE DUP1 ISZERO PUSH2 0x517 JUMPI PUSH1 0x0 DUP1 REVERT JUMPDEST POP PUSH2 0x4FE PUSH2 0x526 CALLDATASIZE PUSH1 0x4 PUSH2 0x34B6 JUMP JUMPDEST PUSH2 0x21F1 JUMP JUMPDEST CALLVALUE DUP1 ISZERO PUSH2 0x537 JUMPI PUSH1 0x0 DUP1 REVERT JUMPDEST POP PUSH2 0x4FE PUSH2 0x546 CALLDATASIZE PUSH1 0x4 PUSH2 0x3587 JUMP JUMPDEST PUSH2 0x2213 JUMP JUMPDEST CALLVALUE DUP1 ISZERO PUSH2 0x557 JUMPI PUSH1 0x0 DUP1 REVERT JUMPDEST POP PUSH2 0x4FE PUSH2 0x2220 JUMP JUMPDEST PUSH2 0x2EB PUSH2 0x56E CALLDATASIZE PUSH1 0x4 PUSH2 0x3372 JUMP JUMPDEST PUSH2 0x222F JUMP JUMPDEST CALLVALUE DUP1 ISZERO PUSH2 0x57F JUMPI PUSH1 0x0 DUP1 REVERT JUMPDEST POP PUSH2 0x280 PUSH2 0x58E CALLDATASIZE PUSH1 0x4 PUSH2 0x3372 JUMP JUMPDEST PUSH2 0x22F8 JUMP JUMPDEST CALLVALUE DUP1 ISZERO PUSH2 0x59F JUMPI PUSH1 0x0 DUP1 REVERT JUMPDEST POP PUSH2 0x4FE PUSH2 0x5AE CALLDATASIZE PUSH1 0x4 PUSH2 0x3587 JUMP JUMPDEST PUSH2 0x2319 JUMP JUMPDEST CALLVALUE DUP1 ISZERO PUSH2 0x5BF JUMPI PUSH1 0x0 DUP1 REVERT JUMPDEST POP PUSH2 0x2EB PUSH2 0x5CE CALLDATASIZE PUSH1 0x4 PUSH2 0x35DB JUMP JUMPDEST PUSH2 0x2326 JUMP JUMPDEST CALLVALUE DUP1 ISZERO PUSH2 0x5DF JUMPI PUSH1 0x0 DUP1 REVERT JUMPDEST POP PUSH2 0x2EB PUSH2 0x5EE CALLDATASIZE PUSH1 0x4 PUSH2 0x3489 JUMP JUMPDEST PUSH2 0x259A JUMP JUMPDEST CALLVALUE DUP1 ISZERO PUSH2 0x5FF JUMPI PUSH1 0x0 DUP1 REVERT JUMPDEST POP PUSH2 0x280 PUSH2 0x60E CALLDATASIZE PUSH1 0x4 PUSH2 0x338E JUMP JUMPDEST PUSH2 0x2663 JUMP JUMPDEST CALLVALUE DUP1 ISZERO PUSH2 0x61F JUMPI PUSH1 0x0 DUP1 REVERT JUMPDEST POP PUSH2 0x280 PUSH2 0x62E CALLDATASIZE PUSH1 0x4 PUSH2 0x3372 JUMP JUMPDEST PUSH2 0x2692 JUMP JUMPDEST CALLVALUE DUP1 ISZERO PUSH2 0x63F JUMPI PUSH1 0x0 DUP1 REVERT JUMPDEST POP PUSH2 0x4FE PUSH2 0x26A4 JUMP JUMPDEST CALLVALUE DUP1 ISZERO PUSH2 0x654 JUMPI PUSH1 0x0 DUP1 REVERT JUMPDEST POP PUSH2 0x280 PUSH2 0x663 CALLDATASIZE PUSH1 0x4 PUSH2 0x34B6 JUMP JUMPDEST PUSH2 0x26B3 JUMP JUMPDEST CALLVALUE DUP1 ISZERO PUSH2 0x674 JUMPI PUSH1 0x0 DUP1 REVERT JUMPDEST POP PUSH2 0x688 PUSH2 0x683 CALLDATASIZE PUSH1 0x4 PUSH2 0x3587 JUMP JUMPDEST PUSH2 0x2759 JUMP JUMPDEST PUSH1 0x40 MLOAD PUSH2 0x28D SWAP9 SWAP8 SWAP7 SWAP6 SWAP5 SWAP4 SWAP3 SWAP2 SWAP1 PUSH2 0x36CF JUMP JUMPDEST CALLVALUE DUP1 ISZERO PUSH2 0x6A8 JUMPI PUSH1 0x0 DUP1 REVERT JUMPDEST POP PUSH2 0x32D PUSH2 0x6B7 CALLDATASIZE PUSH1 0x4 PUSH2 0x3372 JUMP JUMPDEST PUSH2 0x27AB JUMP JUMPDEST CALLVALUE DUP1 ISZERO PUSH2 0x6C8 JUMPI PUSH1 0x0 DUP1 REVERT JUMPDEST POP PUSH2 0x280 PUSH2 0x6D7 CALLDATASIZE PUSH1 0x4 PUSH2 0x3372 JUMP JUMPDEST PUSH2 0x27B8 JUMP JUMPDEST CALLVALUE DUP1 ISZERO PUSH2 0x6E8 JUMPI PUSH1 0x0 DUP1 REVERT JUMPDEST POP PUSH2 0x280 PUSH2 0x6F7 CALLDATASIZE PUSH1 0x4 PUSH2 0x3587 JUMP JUMPDEST PUSH2 0x27D3 JUMP JUMPDEST CALLVALUE DUP1 ISZERO PUSH2 0x708 JUMPI PUSH1 0x0 DUP1 REVERT JUMPDEST POP PUSH2 0x71C PUSH2 0x717 CALLDATASIZE PUSH1 0x4 PUSH2 0x3587 JUMP JUMPDEST PUSH2 0x28CA JUMP JUMPDEST PUSH1 0x40 MLOAD PUSH2 0x28D SWAP11 SWAP10 SWAP9 SWAP8 SWAP7 SWAP6 SWAP5 SWAP4 SWAP3 SWAP2 SWAP1 PUSH2 0x3BA2 JUMP JUMPDEST CALLVALUE DUP1 ISZERO PUSH2 0x73E JUMPI PUSH1 0x0 DUP1 REVERT JUMPDEST POP PUSH2 0x280 PUSH2 0x74D CALLDATASIZE PUSH1 0x4 PUSH2 0x3587 JUMP JUMPDEST PUSH2 0x2A83 JUMP JUMPDEST CALLVALUE DUP1 ISZERO PUSH2 0x75E JUMPI PUSH1 0x0 DUP1 REVERT JUMPDEST POP PUSH2 0x280 PUSH2 0x2B2A JUMP JUMPDEST CALLVALUE DUP1 ISZERO PUSH2 0x773 JUMPI PUSH1 0x0 DUP1 REVERT JUMPDEST POP PUSH2 0x4FE PUSH2 0x782 CALLDATASIZE PUSH1 0x4 PUSH2 0x3587 JUMP JUMPDEST PUSH2 0x2B30 JUMP JUMPDEST CALLVALUE DUP1 ISZERO PUSH2 0x793 JUMPI PUSH1 0x0 DUP1 REVERT JUMPDEST POP PUSH2 0x280 PUSH2 0x2B3D JUMP JUMPDEST CALLVALUE DUP1 ISZERO PUSH2 0x7A8 JUMPI PUSH1 0x0 DUP1 REVERT JUMPDEST POP PUSH2 0x2EB PUSH2 0x7B7 CALLDATASIZE PUSH1 0x4 PUSH2 0x3372 JUMP JUMPDEST PUSH2 0x2B43 JUMP JUMPDEST CALLVALUE DUP1 ISZERO PUSH2 0x7C8 JUMPI PUSH1 0x0 DUP1 REVERT JUMPDEST POP PUSH2 0x2EB PUSH2 0x7D7 CALLDATASIZE PUSH1 0x4 PUSH2 0x35FC JUMP JUMPDEST PUSH2 0x2C03 JUMP JUMPDEST PUSH1 0x0 PUSH2 0x7E8 PUSH1 0xC PUSH2 0x2C7C JUMP JUMPDEST SWAP1 POP SWAP1 JUMP JUMPDEST PUSH1 0x0 PUSH2 0x7E8 PUSH1 0xA PUSH2 0x2C7C JUMP JUMPDEST PUSH1 0x0 DUP1 DUP4 PUSH1 0x1 PUSH1 0x1 PUSH1 0xA0 SHL SUB AND PUSH4 0x70A08231 ADDRESS PUSH1 0x40 MLOAD DUP3 PUSH4 0xFFFFFFFF AND PUSH1 0xE0 SHL DUP2 MSTORE PUSH1 0x4 ADD PUSH2 0x828 SWAP2 SWAP1 PUSH2 0x367E JUMP JUMPDEST PUSH1 0x20 PUSH1 0x40 MLOAD DUP1 DUP4 SUB DUP2 DUP7 DUP1 EXTCODESIZE ISZERO DUP1 ISZERO PUSH2 0x840 JUMPI PUSH1 0x0 DUP1 REVERT JUMPDEST POP GAS STATICCALL ISZERO DUP1 ISZERO PUSH2 0x854 JUMPI RETURNDATASIZE PUSH1 0x0 DUP1 RETURNDATACOPY RETURNDATASIZE PUSH1 0x0 REVERT JUMPDEST POP POP POP POP PUSH1 0x40 MLOAD RETURNDATASIZE PUSH1 0x1F NOT PUSH1 0x1F DUP3 ADD AND DUP3 ADD DUP1 PUSH1 0x40 MSTORE POP DUP2 ADD SWAP1 PUSH2 0x878 SWAP2 SWAP1 PUSH2 0x359F JUMP JUMPDEST PUSH1 0x1 PUSH1 0x1 PUSH1 0xA0 SHL SUB DUP6 AND PUSH1 0x0 SWAP1 DUP2 MSTORE PUSH1 0x9 PUSH1 0x20 MSTORE PUSH1 0x40 SWAP1 KECCAK256 SLOAD SWAP1 SWAP2 POP PUSH2 0x8A1 SWAP1 DUP5 SWAP1 DUP4 SWAP1 PUSH2 0x2C87 JUMP JUMPDEST SWAP2 POP POP JUMPDEST SWAP3 SWAP2 POP POP JUMP JUMPDEST PUSH1 0x2 PUSH1 0x1 SLOAD EQ ISZERO PUSH2 0x8D7 JUMPI PUSH1 0x40 MLOAD PUSH3 0x461BCD PUSH1 0xE5 SHL DUP2 MSTORE PUSH1 0x4 ADD PUSH2 0x8CE SWAP1 PUSH2 0x3B2E JUMP JUMPDEST PUSH1 0x40 MLOAD DUP1 SWAP2 SUB SWAP1 REVERT JUMPDEST PUSH1 0x2 PUSH1 0x1 SSTORE DUP1 PUSH2 0x8F9 JUMPI PUSH1 0x40 MLOAD PUSH3 0x461BCD PUSH1 0xE5 SHL DUP2 MSTORE PUSH1 0x4 ADD PUSH2 0x8CE SWAP1 PUSH2 0x39B6 JUMP JUMPDEST PUSH1 0x14 SLOAD PUSH1 0x1 PUSH1 0x1 PUSH1 0xA0 SHL SUB AND ISZERO PUSH2 0x96B JUMPI PUSH1 0x14 SLOAD PUSH1 0x40 MLOAD PUSH4 0x3C6202C9 PUSH1 0xE2 SHL DUP2 MSTORE PUSH1 0x1 PUSH1 0x1 PUSH1 0xA0 SHL SUB SWAP1 SWAP2 AND SWAP1 PUSH4 0xF1880B24 SWAP1 PUSH2 0x93A SWAP1 DUP7 SWAP1 PUSH1 0x4 ADD PUSH2 0x367E JUMP JUMPDEST PUSH1 0x0 PUSH1 0x40 MLOAD DUP1 DUP4 SUB DUP2 DUP7 DUP1 EXTCODESIZE ISZERO DUP1 ISZERO PUSH2 0x952 JUMPI PUSH1 0x0 DUP1 REVERT JUMPDEST POP GAS STATICCALL ISZERO DUP1 ISZERO PUSH2 0x966 JUMPI RETURNDATASIZE PUSH1 0x0 DUP1 RETURNDATACOPY RETURNDATASIZE PUSH1 0x0 REVERT JUMPDEST POP POP POP POP JUMPDEST PUSH1 0x0 DUP1 JUMPDEST DUP3 DUP2 LT ISZERO PUSH2 0x9C0 JUMPI DUP4 DUP4 DUP3 DUP2 DUP2 LT PUSH2 0x997 JUMPI PUSH4 0x4E487B71 PUSH1 0xE0 SHL PUSH1 0x0 MSTORE PUSH1 0x32 PUSH1 0x4 MSTORE PUSH1 0x24 PUSH1 0x0 REVERT JUMPDEST SWAP1 POP PUSH1 0xA0 MUL ADD PUSH1 0x20 ADD CALLDATALOAD DUP3 PUSH2 0x9AC SWAP2 SWAP1 PUSH2 0x3C40 JUMP JUMPDEST SWAP2 POP DUP1 PUSH2 0x9B8 DUP2 PUSH2 0x3C8F JUMP JUMPDEST SWAP2 POP POP PUSH2 0x96F JUMP JUMPDEST POP PUSH1 0x40 MLOAD PUSH4 0x70A08231 PUSH1 0xE0 SHL DUP2 MSTORE PUSH1 0x0 SWAP1 PUSH1 0x1 PUSH1 0x1 PUSH1 0xA0 SHL SUB DUP7 AND SWAP1 PUSH4 0x70A08231 SWAP1 PUSH2 0x9F0 SWAP1 ADDRESS SWAP1 PUSH1 0x4 ADD PUSH2 0x367E JUMP JUMPDEST PUSH1 0x20 PUSH1 0x40 MLOAD DUP1 DUP4 SUB DUP2 DUP7 DUP1 EXTCODESIZE ISZERO DUP1 ISZERO PUSH2 0xA08 JUMPI PUSH1 0x0 DUP1 REVERT JUMPDEST POP GAS STATICCALL ISZERO DUP1 ISZERO PUSH2 0xA1C JUMPI RETURNDATASIZE PUSH1 0x0 DUP1 RETURNDATACOPY RETURNDATASIZE PUSH1 0x0 REVERT JUMPDEST POP POP POP POP PUSH1 0x40 MLOAD RETURNDATASIZE PUSH1 0x1F NOT PUSH1 0x1F DUP3 ADD AND DUP3 ADD DUP1 PUSH1 0x40 MSTORE POP DUP2 ADD SWAP1 PUSH2 0xA40 SWAP2 SWAP1 PUSH2 0x359F JUMP JUMPDEST SWAP1 POP PUSH2 0xA4E DUP6 CALLER ADDRESS DUP6 PUSH2 0x2D32 JUMP JUMPDEST PUSH1 0x0 DUP2 DUP7 PUSH1 0x1 PUSH1 0x1 PUSH1 0xA0 SHL SUB AND PUSH4 0x70A08231 ADDRESS PUSH1 0x40 MLOAD DUP3 PUSH4 0xFFFFFFFF AND PUSH1 0xE0 SHL DUP2 MSTORE PUSH1 0x4 ADD PUSH2 0xA7D SWAP2 SWAP1 PUSH2 0x367E JUMP JUMPDEST PUSH1 0x20 PUSH1 0x40 MLOAD DUP1 DUP4 SUB DUP2 DUP7 DUP1 EXTCODESIZE ISZERO DUP1 ISZERO PUSH2 0xA95 JUMPI PUSH1 0x0 DUP1 REVERT JUMPDEST POP GAS STATICCALL ISZERO DUP1 ISZERO PUSH2 0xAA9 JUMPI RETURNDATASIZE PUSH1 0x0 DUP1 RETURNDATACOPY RETURNDATASIZE PUSH1 0x0 REVERT JUMPDEST POP POP POP POP PUSH1 0x40 MLOAD RETURNDATASIZE PUSH1 0x1F NOT PUSH1 0x1F DUP3 ADD AND DUP3 ADD DUP1 PUSH1 0x40 MSTORE POP DUP2 ADD SWAP1 PUSH2 0xACD SWAP2 SWAP1 PUSH2 0x359F JUMP JUMPDEST PUSH2 0xAD7 SWAP2 SWAP1 PUSH2 0x3C78 JUMP JUMPDEST SWAP1 POP PUSH2 0xAE4 PUSH1 0xA DUP8 PUSH2 0x2E22 JUMP JUMPDEST PUSH2 0xB25 JUMPI PUSH1 0x0 PUSH2 0xAFC DUP3 PUSH1 0xE PUSH1 0x0 ADD SLOAD PUSH2 0x2710 PUSH2 0x2C87 JUMP JUMPDEST PUSH1 0x10 SLOAD SWAP1 SWAP2 POP PUSH2 0xB17 SWAP1 DUP9 SWAP1 PUSH1 0x1 PUSH1 0x1 PUSH1 0xA0 SHL SUB AND DUP4 PUSH2 0x2E37 JUMP JUMPDEST PUSH2 0xB21 DUP2 DUP4 PUSH2 0x3C78 JUMP JUMPDEST SWAP2 POP POP JUMPDEST PUSH1 0x0 DUP1 JUMPDEST DUP6 DUP2 LT ISZERO PUSH2 0xF1F JUMPI PUSH1 0x0 DUP8 DUP8 DUP4 DUP2 DUP2 LT PUSH2 0xB53 JUMPI PUSH4 0x4E487B71 PUSH1 0xE0 SHL PUSH1 0x0 MSTORE PUSH1 0x32 PUSH1 0x4 MSTORE PUSH1 0x24 PUSH1 0x0 REVERT JUMPDEST SWAP1 POP PUSH1 0xA0 MUL ADD DUP1 CALLDATASIZE SUB DUP2 ADD SWAP1 PUSH2 0xB69 SWAP2 SWAP1 PUSH2 0x34FD JUMP JUMPDEST SWAP1 POP DUP1 PUSH1 0x60 ADD MLOAD DUP2 PUSH1 0x40 ADD MLOAD LT PUSH2 0xB92 JUMPI PUSH1 0x40 MLOAD PUSH3 0x461BCD PUSH1 0xE5 SHL DUP2 MSTORE PUSH1 0x4 ADD PUSH2 0x8CE SWAP1 PUSH2 0x3996 JUMP JUMPDEST PUSH5 0x2540BE400 DUP2 PUSH1 0x60 ADD MLOAD LT PUSH2 0xBBA JUMPI PUSH1 0x40 MLOAD PUSH3 0x461BCD PUSH1 0xE5 SHL DUP2 MSTORE PUSH1 0x4 ADD PUSH2 0x8CE SWAP1 PUSH2 0x37C1 JUMP JUMPDEST PUSH1 0x6 SLOAD DUP2 PUSH1 0x20 ADD MLOAD LT ISZERO PUSH2 0xBE0 JUMPI PUSH1 0x40 MLOAD PUSH3 0x461BCD PUSH1 0xE5 SHL DUP2 MSTORE PUSH1 0x4 ADD PUSH2 0x8CE SWAP1 PUSH2 0x393C JUMP JUMPDEST PUSH1 0x0 PUSH2 0xBF1 DUP3 PUSH1 0x20 ADD MLOAD DUP7 DUP10 PUSH2 0x2C87 JUMP JUMPDEST PUSH1 0x1 PUSH1 0x1 PUSH1 0xA0 SHL SUB DUP12 AND PUSH1 0x0 SWAP1 DUP2 MSTORE PUSH1 0x9 PUSH1 0x20 MSTORE PUSH1 0x40 SWAP1 KECCAK256 SLOAD SWAP1 SWAP2 POP PUSH2 0xC19 JUMPI DUP1 SWAP4 POP PUSH2 0xC4F JUMP JUMPDEST PUSH1 0x1 PUSH1 0x1 PUSH1 0xA0 SHL SUB DUP11 AND PUSH1 0x0 SWAP1 DUP2 MSTORE PUSH1 0x9 PUSH1 0x20 MSTORE PUSH1 0x40 SWAP1 KECCAK256 SLOAD PUSH2 0xC4C SWAP1 DUP3 SWAP1 DUP9 ISZERO PUSH2 0xC44 JUMPI DUP9 PUSH2 0xC47 JUMP JUMPDEST PUSH1 0x1 JUMPDEST PUSH2 0x2C87 JUMP JUMPDEST SWAP4 POP JUMPDEST PUSH1 0x0 DUP5 GT PUSH2 0xC6F JUMPI PUSH1 0x40 MLOAD PUSH3 0x461BCD PUSH1 0xE5 SHL DUP2 MSTORE PUSH1 0x4 ADD PUSH2 0x8CE SWAP1 PUSH2 0x3A83 JUMP JUMPDEST PUSH1 0x1 PUSH1 0x1 PUSH1 0xA0 SHL SUB DUP11 AND PUSH1 0x0 SWAP1 DUP2 MSTORE PUSH1 0x9 PUSH1 0x20 MSTORE PUSH1 0x40 DUP2 KECCAK256 DUP1 SLOAD DUP7 SWAP3 SWAP1 PUSH2 0xC97 SWAP1 DUP5 SWAP1 PUSH2 0x3C40 JUMP JUMPDEST SWAP1 SWAP2 SSTORE POP PUSH2 0xCA7 SWAP1 POP DUP2 DUP8 PUSH2 0x3C40 JUMP JUMPDEST SWAP6 POP PUSH2 0xCB1 PUSH2 0x3312 JUMP JUMPDEST PUSH1 0x1 PUSH1 0x1 PUSH1 0xA0 SHL SUB DUP1 DUP13 AND DUP3 MSTORE PUSH1 0x20 DUP3 ADD DUP7 SWAP1 MSTORE PUSH1 0x40 DUP5 ADD MLOAD PUSH1 0x60 DUP1 DUP5 ADD SWAP2 SWAP1 SWAP2 MSTORE DUP5 ADD MLOAD PUSH1 0x80 DUP1 DUP5 ADD SWAP2 SWAP1 SWAP2 MSTORE PUSH1 0x5 SLOAD PUSH1 0xA0 DUP5 ADD MSTORE DUP5 MLOAD DUP3 AND PUSH1 0xC0 DUP5 ADD MSTORE DUP5 ADD MLOAD AND ISZERO PUSH2 0xD83 JUMPI DUP3 PUSH1 0x80 ADD MLOAD PUSH1 0x1 PUSH1 0x1 PUSH1 0xA0 SHL SUB AND PUSH4 0xF968F493 PUSH1 0x40 MLOAD DUP2 PUSH4 0xFFFFFFFF AND PUSH1 0xE0 SHL DUP2 MSTORE PUSH1 0x4 ADD PUSH1 0x20 PUSH1 0x40 MLOAD DUP1 DUP4 SUB DUP2 DUP7 DUP1 EXTCODESIZE ISZERO DUP1 ISZERO PUSH2 0xD36 JUMPI PUSH1 0x0 DUP1 REVERT JUMPDEST POP GAS STATICCALL ISZERO DUP1 ISZERO PUSH2 0xD4A JUMPI RETURNDATASIZE PUSH1 0x0 DUP1 RETURNDATACOPY RETURNDATASIZE PUSH1 0x0 REVERT JUMPDEST POP POP POP POP PUSH1 0x40 MLOAD RETURNDATASIZE PUSH1 0x1F NOT PUSH1 0x1F DUP3 ADD AND DUP3 ADD DUP1 PUSH1 0x40 MSTORE POP DUP2 ADD SWAP1 PUSH2 0xD6E SWAP2 SWAP1 PUSH2 0x34E1 JUMP JUMPDEST POP PUSH1 0x80 DUP4 ADD MLOAD PUSH1 0x1 PUSH1 0x1 PUSH1 0xA0 SHL SUB AND PUSH1 0xE0 DUP3 ADD MSTORE JUMPDEST PUSH1 0x5 DUP1 SLOAD PUSH1 0x0 SWAP1 DUP2 MSTORE PUSH1 0x4 PUSH1 0x20 DUP2 DUP2 MSTORE PUSH1 0x40 SWAP3 DUP4 SWAP1 KECCAK256 DUP6 MLOAD DUP2 SLOAD PUSH1 0x1 PUSH1 0x1 PUSH1 0xA0 SHL SUB SWAP2 DUP3 AND PUSH1 0x1 PUSH1 0x1 PUSH1 0xA0 SHL SUB NOT SWAP2 DUP3 AND OR DUP4 SSTORE SWAP3 DUP8 ADD MLOAD PUSH1 0x1 DUP4 ADD SSTORE SWAP4 DUP7 ADD MLOAD PUSH1 0x2 DUP1 DUP4 ADD SWAP2 SWAP1 SWAP2 SSTORE PUSH1 0x60 DUP8 ADD MLOAD PUSH1 0x3 DUP4 ADD SSTORE PUSH1 0x80 DUP8 ADD MLOAD SWAP4 DUP3 ADD SWAP4 SWAP1 SWAP4 SSTORE PUSH1 0xA0 DUP7 ADD MLOAD SWAP5 DUP2 ADD SWAP5 SWAP1 SWAP5 SSTORE PUSH1 0xC0 DUP6 ADD MLOAD PUSH1 0x6 DUP6 ADD DUP1 SLOAD SWAP2 DUP6 AND SWAP2 DUP4 AND SWAP2 SWAP1 SWAP2 OR SWAP1 SSTORE PUSH1 0xE0 DUP6 ADD MLOAD PUSH1 0x7 SWAP1 SWAP5 ADD DUP1 SLOAD SWAP5 SWAP1 SWAP4 AND SWAP4 AND SWAP3 SWAP1 SWAP3 OR SWAP1 SSTORE PUSH2 0xE28 SWAP1 DUP13 PUSH2 0x2F24 JUMP JUMPDEST POP PUSH1 0x1 PUSH1 0x1 PUSH1 0xA0 SHL SUB DUP1 DUP13 AND PUSH1 0x0 SWAP1 DUP2 MSTORE PUSH1 0x7 PUSH1 0x20 SWAP1 DUP2 MSTORE PUSH1 0x40 DUP1 DUP4 KECCAK256 PUSH1 0x5 SLOAD DUP2 SLOAD PUSH1 0x1 DUP2 ADD DUP4 SSTORE SWAP2 DUP6 MSTORE DUP4 DUP6 KECCAK256 SWAP1 SWAP2 ADD SSTORE DUP7 MLOAD SWAP1 SWAP4 AND DUP3 MSTORE PUSH1 0x8 SWAP1 MSTORE KECCAK256 PUSH2 0xE70 DUP2 DUP14 PUSH2 0x2F24 JUMP JUMPDEST POP PUSH1 0x1 PUSH1 0x1 PUSH1 0xA0 SHL SUB DUP13 AND PUSH1 0x0 SWAP1 DUP2 MSTORE PUSH1 0x2 DUP3 ADD PUSH1 0x20 SWAP1 DUP2 MSTORE PUSH1 0x40 DUP3 KECCAK256 PUSH1 0x5 DUP1 SLOAD DUP3 SLOAD PUSH1 0x1 DUP2 ADD DUP5 SSTORE SWAP3 DUP6 MSTORE SWAP3 DUP5 KECCAK256 SWAP1 SWAP2 ADD SWAP2 SWAP1 SWAP2 SSTORE DUP1 SLOAD SWAP2 PUSH2 0xEB2 DUP4 PUSH2 0x3C8F JUMP JUMPDEST SWAP2 SWAP1 POP SSTORE POP PUSH32 0x4D0F9887048089B093C92BEC885AB529000723BCE1A79F4E81A5990619910B96 DUP3 PUSH1 0xA0 ADD MLOAD DUP14 DUP5 PUSH1 0xC0 ADD MLOAD DUP7 DUP7 PUSH1 0x60 ADD MLOAD DUP8 PUSH1 0x80 ADD MLOAD PUSH1 0x40 MLOAD PUSH2 0xF00 SWAP7 SWAP6 SWAP5 SWAP4 SWAP3 SWAP2 SWAP1 PUSH2 0x3B6E JUMP JUMPDEST PUSH1 0x40 MLOAD DUP1 SWAP2 SUB SWAP1 LOG1 POP POP POP POP DUP1 DUP1 PUSH2 0xF17 SWAP1 PUSH2 0x3C8F JUMP JUMPDEST SWAP2 POP POP PUSH2 0xB29 JUMP JUMPDEST POP POP PUSH1 0x1 DUP1 SSTORE POP POP POP POP POP POP JUMP JUMPDEST PUSH1 0x1 PUSH1 0x1 PUSH1 0xA0 SHL SUB DUP1 DUP5 AND PUSH1 0x0 SWAP1 DUP2 MSTORE PUSH1 0x8 PUSH1 0x20 SWAP1 DUP2 MSTORE PUSH1 0x40 DUP1 DUP4 KECCAK256 SWAP4 DUP7 AND DUP4 MSTORE PUSH1 0x2 SWAP1 SWAP4 ADD SWAP1 MSTORE SWAP1 DUP2 KECCAK256 DUP1 SLOAD DUP4 SWAP1 DUP2 LT PUSH2 0xF78 JUMPI PUSH4 0x4E487B71 PUSH1 0xE0 SHL PUSH1 0x0 MSTORE PUSH1 0x32 PUSH1 0x4 MSTORE PUSH1 0x24 PUSH1 0x0 REVERT JUMPDEST SWAP1 PUSH1 0x0 MSTORE PUSH1 0x20 PUSH1 0x0 KECCAK256 ADD SLOAD SWAP1 POP JUMPDEST SWAP4 SWAP3 POP POP POP JUMP JUMPDEST PUSH1 0x0 PUSH2 0x8A5 PUSH1 0xA DUP4 PUSH2 0x2E22 JUMP JUMPDEST PUSH2 0xFA2 PUSH2 0x2F39 JUMP JUMPDEST PUSH1 0x1 PUSH1 0x1 PUSH1 0xA0 SHL SUB AND PUSH2 0xFB3 PUSH2 0x21E2 JUMP JUMPDEST PUSH1 0x1 PUSH1 0x1 PUSH1 0xA0 SHL SUB AND EQ PUSH2 0xFD9 JUMPI PUSH1 0x40 MLOAD PUSH3 0x461BCD PUSH1 0xE5 SHL DUP2 MSTORE PUSH1 0x4 ADD PUSH2 0x8CE SWAP1 PUSH2 0x3961 JUMP JUMPDEST PUSH1 0x13 DUP1 SLOAD PUSH1 0x1 PUSH1 0x1 PUSH1 0xA0 SHL SUB NOT AND PUSH1 0x1 PUSH1 0x1 PUSH1 0xA0 SHL SUB SWAP3 SWAP1 SWAP3 AND SWAP2 SWAP1 SWAP2 OR SWAP1 SSTORE JUMP JUMPDEST PUSH1 0x2 PUSH1 0x1 SLOAD EQ ISZERO PUSH2 0x101E JUMPI PUSH1 0x40 MLOAD PUSH3 0x461BCD PUSH1 0xE5 SHL DUP2 MSTORE PUSH1 0x4 ADD PUSH2 0x8CE SWAP1 PUSH2 0x3B2E JUMP JUMPDEST PUSH1 0x2 PUSH1 0x1 SSTORE PUSH1 0x0 DUP3 DUP2 MSTORE PUSH1 0x4 PUSH1 0x20 MSTORE PUSH1 0x40 SWAP1 KECCAK256 PUSH1 0x6 SLOAD DUP3 LT ISZERO PUSH2 0x1053 JUMPI PUSH1 0x40 MLOAD PUSH3 0x461BCD PUSH1 0xE5 SHL DUP2 MSTORE PUSH1 0x4 ADD PUSH2 0x8CE SWAP1 PUSH2 0x393C JUMP JUMPDEST DUP1 SLOAD PUSH1 0x40 MLOAD PUSH4 0x70A08231 PUSH1 0xE0 SHL DUP2 MSTORE PUSH1 0x0 SWAP2 PUSH1 0x1 PUSH1 0x1 PUSH1 0xA0 SHL SUB AND SWAP1 PUSH4 0x70A08231 SWAP1 PUSH2 0x1083 SWAP1 ADDRESS SWAP1 PUSH1 0x4 ADD PUSH2 0x367E JUMP JUMPDEST PUSH1 0x20 PUSH1 0x40 MLOAD DUP1 DUP4 SUB DUP2 DUP7 DUP1 EXTCODESIZE ISZERO DUP1 ISZERO PUSH2 0x109B JUMPI PUSH1 0x0 DUP1 REVERT JUMPDEST POP GAS STATICCALL ISZERO DUP1 ISZERO PUSH2 0x10AF JUMPI RETURNDATASIZE PUSH1 0x0 DUP1 RETURNDATACOPY RETURNDATASIZE PUSH1 0x0 REVERT JUMPDEST POP POP POP POP PUSH1 0x40 MLOAD RETURNDATASIZE PUSH1 0x1F NOT PUSH1 0x1F DUP3 ADD AND DUP3 ADD DUP1 PUSH1 0x40 MSTORE POP DUP2 ADD SWAP1 PUSH2 0x10D3 SWAP2 SWAP1 PUSH2 0x359F JUMP JUMPDEST DUP3 SLOAD SWAP1 SWAP2 POP PUSH2 0x10ED SWAP1 PUSH1 0x1 PUSH1 0x1 PUSH1 0xA0 SHL SUB AND CALLER ADDRESS DUP7 PUSH2 0x2D32 JUMP JUMPDEST DUP2 SLOAD PUSH1 0x40 MLOAD PUSH4 0x70A08231 PUSH1 0xE0 SHL DUP2 MSTORE PUSH1 0x0 SWAP2 DUP4 SWAP2 PUSH1 0x1 PUSH1 0x1 PUSH1 0xA0 SHL SUB SWAP1 SWAP2 AND SWAP1 PUSH4 0x70A08231 SWAP1 PUSH2 0x1121 SWAP1 ADDRESS SWAP1 PUSH1 0x4 ADD PUSH2 0x367E JUMP JUMPDEST PUSH1 0x20 PUSH1 0x40 MLOAD DUP1 DUP4 SUB DUP2 DUP7 DUP1 EXTCODESIZE ISZERO DUP1 ISZERO PUSH2 0x1139 JUMPI PUSH1 0x0 DUP1 REVERT JUMPDEST POP GAS STATICCALL ISZERO DUP1 ISZERO PUSH2 0x114D JUMPI RETURNDATASIZE PUSH1 0x0 DUP1 RETURNDATACOPY RETURNDATASIZE PUSH1 0x0 REVERT JUMPDEST POP POP POP POP PUSH1 0x40 MLOAD RETURNDATASIZE PUSH1 0x1F NOT PUSH1 0x1F DUP3 ADD AND DUP3 ADD DUP1 PUSH1 0x40 MSTORE POP DUP2 ADD SWAP1 PUSH2 0x1171 SWAP2 SWAP1 PUSH2 0x359F JUMP JUMPDEST PUSH2 0x117B SWAP2 SWAP1 PUSH2 0x3C78 JUMP JUMPDEST DUP4 SLOAD SWAP1 SWAP2 POP PUSH2 0x1195 SWAP1 PUSH1 0xA SWAP1 PUSH1 0x1 PUSH1 0x1 PUSH1 0xA0 SHL SUB AND PUSH2 0x2E22 JUMP JUMPDEST PUSH2 0x11DA JUMPI PUSH1 0x0 PUSH2 0x11AD DUP3 PUSH1 0xE PUSH1 0x0 ADD SLOAD PUSH2 0x2710 PUSH2 0x2C87 JUMP JUMPDEST DUP5 SLOAD PUSH1 0x10 SLOAD SWAP2 SWAP3 POP PUSH2 0x11CC SWAP2 PUSH1 0x1 PUSH1 0x1 PUSH1 0xA0 SHL SUB SWAP2 DUP3 AND SWAP2 AND DUP4 PUSH2 0x2E37 JUMP JUMPDEST PUSH2 0x11D6 DUP2 DUP4 PUSH2 0x3C78 JUMP JUMPDEST SWAP2 POP POP JUMPDEST DUP3 SLOAD PUSH1 0x1 PUSH1 0x1 PUSH1 0xA0 SHL SUB AND PUSH1 0x0 SWAP1 DUP2 MSTORE PUSH1 0x9 PUSH1 0x20 MSTORE PUSH1 0x40 DUP2 KECCAK256 SLOAD PUSH2 0x11FF JUMPI POP DUP1 PUSH2 0x1228 JUMP JUMPDEST DUP4 SLOAD PUSH1 0x1 PUSH1 0x1 PUSH1 0xA0 SHL SUB AND PUSH1 0x0 SWAP1 DUP2 MSTORE PUSH1 0x9 PUSH1 0x20 MSTORE PUSH1 0x40 SWAP1 KECCAK256 SLOAD PUSH2 0x1225 SWAP1 DUP4 SWAP1 DUP6 PUSH2 0x2C87 JUMP JUMPDEST SWAP1 POP JUMPDEST PUSH1 0x0 DUP2 GT PUSH2 0x1248 JUMPI PUSH1 0x40 MLOAD PUSH3 0x461BCD PUSH1 0xE5 SHL DUP2 MSTORE PUSH1 0x4 ADD PUSH2 0x8CE SWAP1 PUSH2 0x3A83 JUMP JUMPDEST DUP4 SLOAD PUSH1 0x1 PUSH1 0x1 PUSH1 0xA0 SHL SUB AND PUSH1 0x0 SWAP1 DUP2 MSTORE PUSH1 0x9 PUSH1 0x20 MSTORE PUSH1 0x40 DUP2 KECCAK256 DUP1 SLOAD DUP4 SWAP3 SWAP1 PUSH2 0x1271 SWAP1 DUP5 SWAP1 PUSH2 0x3C40 JUMP JUMPDEST SWAP3 POP POP DUP2 SWAP1 SSTORE POP DUP1 DUP5 PUSH1 0x1 ADD PUSH1 0x0 DUP3 DUP3 SLOAD PUSH2 0x128C SWAP2 SWAP1 PUSH2 0x3C40 JUMP JUMPDEST SWAP1 SWAP2 SSTORE POP POP PUSH1 0x5 DUP5 ADD SLOAD DUP5 SLOAD PUSH1 0x6 DUP7 ADD SLOAD PUSH1 0x3 DUP8 ADD SLOAD PUSH1 0x4 DUP9 ADD SLOAD PUSH1 0x40 MLOAD PUSH32 0x4D0F9887048089B093C92BEC885AB529000723BCE1A79F4E81A5990619910B96 SWAP6 PUSH2 0x12E8 SWAP6 SWAP1 SWAP5 PUSH1 0x1 PUSH1 0x1 PUSH1 0xA0 SHL SUB SWAP2 DUP3 AND SWAP5 SWAP2 AND SWAP3 DUP10 SWAP3 PUSH2 0x3B6E JUMP JUMPDEST PUSH1 0x40 MLOAD DUP1 SWAP2 SUB SWAP1 LOG1 POP POP PUSH1 0x1 DUP1 SSTORE POP POP POP POP JUMP JUMPDEST PUSH1 0x2 PUSH1 0x1 SLOAD EQ ISZERO PUSH2 0x131F JUMPI PUSH1 0x40 MLOAD PUSH3 0x461BCD PUSH1 0xE5 SHL DUP2 MSTORE PUSH1 0x4 ADD PUSH2 0x8CE SWAP1 PUSH2 0x3B2E JUMP JUMPDEST PUSH1 0x2 PUSH1 0x1 SSTORE PUSH1 0x13 SLOAD PUSH1 0x1 PUSH1 0x1 PUSH1 0xA0 SHL SUB AND PUSH2 0x134C JUMPI PUSH1 0x40 MLOAD PUSH3 0x461BCD PUSH1 0xE5 SHL DUP2 MSTORE PUSH1 0x4 ADD PUSH2 0x8CE SWAP1 PUSH2 0x38DE JUMP JUMPDEST PUSH1 0x0 DUP3 DUP2 MSTORE PUSH1 0x4 PUSH1 0x20 MSTORE PUSH1 0x40 SWAP1 KECCAK256 PUSH1 0x6 DUP2 ADD SLOAD PUSH1 0x1 PUSH1 0x1 PUSH1 0xA0 SHL SUB AND CALLER EQ PUSH2 0x1386 JUMPI PUSH1 0x40 MLOAD PUSH3 0x461BCD PUSH1 0xE5 SHL DUP2 MSTORE PUSH1 0x4 ADD PUSH2 0x8CE SWAP1 PUSH2 0x38FF JUMP JUMPDEST PUSH1 0x0 DUP2 PUSH1 0x2 ADD SLOAD DUP3 PUSH1 0x1 ADD SLOAD PUSH2 0x139C SWAP2 SWAP1 PUSH2 0x3C78 JUMP JUMPDEST SWAP1 POP PUSH1 0x0 DUP2 GT PUSH2 0x13BE JUMPI PUSH1 0x40 MLOAD PUSH3 0x461BCD PUSH1 0xE5 SHL DUP2 MSTORE PUSH1 0x4 ADD PUSH2 0x8CE SWAP1 PUSH2 0x3823 JUMP JUMPDEST DUP2 SLOAD PUSH1 0x40 MLOAD PUSH4 0x70A08231 PUSH1 0xE0 SHL DUP2 MSTORE PUSH1 0x0 SWAP2 PUSH1 0x1 PUSH1 0x1 PUSH1 0xA0 SHL SUB AND SWAP1 PUSH4 0x70A08231 SWAP1 PUSH2 0x13EE SWAP1 ADDRESS SWAP1 PUSH1 0x4 ADD PUSH2 0x367E JUMP JUMPDEST PUSH1 0x20 PUSH1 0x40 MLOAD DUP1 DUP4 SUB DUP2 DUP7 DUP1 EXTCODESIZE ISZERO DUP1 ISZERO PUSH2 0x1406 JUMPI PUSH1 0x0 DUP1 REVERT JUMPDEST POP GAS STATICCALL ISZERO DUP1 ISZERO PUSH2 0x141A JUMPI RETURNDATASIZE PUSH1 0x0 DUP1 RETURNDATACOPY RETURNDATASIZE PUSH1 0x0 REVERT JUMPDEST POP POP POP POP PUSH1 0x40 MLOAD RETURNDATASIZE PUSH1 0x1F NOT PUSH1 0x1F DUP3 ADD AND DUP3 ADD DUP1 PUSH1 0x40 MSTORE POP DUP2 ADD SWAP1 PUSH2 0x143E SWAP2 SWAP1 PUSH2 0x359F JUMP JUMPDEST DUP4 SLOAD PUSH1 0x1 PUSH1 0x1 PUSH1 0xA0 SHL SUB AND PUSH1 0x0 SWAP1 DUP2 MSTORE PUSH1 0x9 PUSH1 0x20 MSTORE PUSH1 0x40 DUP2 KECCAK256 SLOAD SWAP2 SWAP3 POP SWAP1 PUSH2 0x1469 SWAP1 DUP5 SWAP1 DUP5 SWAP1 PUSH2 0x2C87 JUMP JUMPDEST DUP5 SLOAD PUSH1 0x13 SLOAD SWAP2 SWAP3 POP PUSH2 0x1488 SWAP2 PUSH1 0x1 PUSH1 0x1 PUSH1 0xA0 SHL SUB SWAP2 DUP3 AND SWAP2 AND DUP4 PUSH2 0x2F3D JUMP JUMPDEST PUSH1 0x13 PUSH1 0x0 SWAP1 SLOAD SWAP1 PUSH2 0x100 EXP SWAP1 DIV PUSH1 0x1 PUSH1 0x1 PUSH1 0xA0 SHL SUB AND PUSH1 0x1 PUSH1 0x1 PUSH1 0xA0 SHL SUB AND PUSH4 0x22A3D1A4 DUP6 PUSH1 0x0 ADD PUSH1 0x0 SWAP1 SLOAD SWAP1 PUSH2 0x100 EXP SWAP1 DIV PUSH1 0x1 PUSH1 0x1 PUSH1 0xA0 SHL SUB AND DUP7 PUSH1 0x1 ADD SLOAD DUP8 PUSH1 0x2 ADD SLOAD DUP9 PUSH1 0x3 ADD SLOAD DUP10 PUSH1 0x4 ADD SLOAD DUP11 PUSH1 0x5 ADD SLOAD DUP12 PUSH1 0x6 ADD PUSH1 0x0 SWAP1 SLOAD SWAP1 PUSH2 0x100 EXP SWAP1 DIV PUSH1 0x1 PUSH1 0x1 PUSH1 0xA0 SHL SUB AND DUP13 PUSH1 0x7 ADD PUSH1 0x0 SWAP1 SLOAD SWAP1 PUSH2 0x100 EXP SWAP1 DIV PUSH1 0x1 PUSH1 0x1 PUSH1 0xA0 SHL SUB AND DUP11 DUP16 PUSH1 0x40 MLOAD DUP12 PUSH4 0xFFFFFFFF AND PUSH1 0xE0 SHL DUP2 MSTORE PUSH1 0x4 ADD PUSH2 0x1534 SWAP11 SWAP10 SWAP9 SWAP8 SWAP7 SWAP6 SWAP5 SWAP4 SWAP3 SWAP2 SWAP1 PUSH2 0x3717 JUMP JUMPDEST PUSH1 0x20 PUSH1 0x40 MLOAD DUP1 DUP4 SUB DUP2 PUSH1 0x0 DUP8 DUP1 EXTCODESIZE ISZERO DUP1 ISZERO PUSH2 0x154E JUMPI PUSH1 0x0 DUP1 REVERT JUMPDEST POP GAS CALL ISZERO DUP1 ISZERO PUSH2 0x1562 JUMPI RETURNDATASIZE PUSH1 0x0 DUP1 RETURNDATACOPY RETURNDATASIZE PUSH1 0x0 REVERT JUMPDEST POP POP POP POP PUSH1 0x40 MLOAD RETURNDATASIZE PUSH1 0x1F NOT PUSH1 0x1F DUP3 ADD AND DUP3 ADD DUP1 PUSH1 0x40 MSTORE POP DUP2 ADD SWAP1 PUSH2 0x1586 SWAP2 SWAP1 PUSH2 0x34E1 JUMP JUMPDEST POP PUSH1 0x1 DUP5 ADD SLOAD PUSH1 0x2 DUP6 ADD SSTORE DUP4 SLOAD PUSH1 0x1 PUSH1 0x1 PUSH1 0xA0 SHL SUB AND PUSH1 0x0 SWAP1 DUP2 MSTORE PUSH1 0x9 PUSH1 0x20 MSTORE PUSH1 0x40 DUP2 KECCAK256 DUP1 SLOAD DUP6 SWAP3 SWAP1 PUSH2 0x15BA SWAP1 DUP5 SWAP1 PUSH2 0x3C78 JUMP JUMPDEST SWAP1 SWAP2 SSTORE POP POP PUSH1 0x40 MLOAD PUSH32 0x8B1497ABD425402B9139208BCB7F83D61A7545712A632D73A1AE68039CD593AB SWAP1 PUSH2 0x12E8 SWAP1 DUP9 SWAP1 DUP5 SWAP1 PUSH2 0x3BF5 JUMP JUMPDEST PUSH1 0x2 PUSH1 0x1 SLOAD EQ ISZERO PUSH2 0x1614 JUMPI PUSH1 0x40 MLOAD PUSH3 0x461BCD PUSH1 0xE5 SHL DUP2 MSTORE PUSH1 0x4 ADD PUSH2 0x8CE SWAP1 PUSH2 0x3B2E JUMP JUMPDEST PUSH1 0x2 PUSH1 0x1 SSTORE PUSH1 0x0 DUP3 DUP2 MSTORE PUSH1 0x4 PUSH1 0x20 MSTORE PUSH1 0x40 SWAP1 KECCAK256 PUSH1 0x6 DUP2 ADD SLOAD PUSH1 0x1 PUSH1 0x1 PUSH1 0xA0 SHL SUB AND CALLER EQ PUSH2 0x1653 JUMPI PUSH1 0x40 MLOAD PUSH3 0x461BCD PUSH1 0xE5 SHL DUP2 MSTORE PUSH1 0x4 ADD PUSH2 0x8CE SWAP1 PUSH2 0x38FF JUMP JUMPDEST DUP1 SLOAD PUSH1 0x40 MLOAD PUSH4 0x70A08231 PUSH1 0xE0 SHL DUP2 MSTORE PUSH1 0x0 SWAP2 PUSH1 0x1 PUSH1 0x1 PUSH1 0xA0 SHL SUB AND SWAP1 PUSH4 0x70A08231 SWAP1 PUSH2 0x1683 SWAP1 ADDRESS SWAP1 PUSH1 0x4 ADD PUSH2 0x367E JUMP JUMPDEST PUSH1 0x20 PUSH1 0x40 MLOAD DUP1 DUP4 SUB DUP2 DUP7 DUP1 EXTCODESIZE ISZERO DUP1 ISZERO PUSH2 0x169B JUMPI PUSH1 0x0 DUP1 REVERT JUMPDEST POP GAS STATICCALL ISZERO DUP1 ISZERO PUSH2 0x16AF JUMPI RETURNDATASIZE PUSH1 0x0 DUP1 RETURNDATACOPY RETURNDATASIZE PUSH1 0x0 REVERT JUMPDEST POP POP POP POP PUSH1 0x40 MLOAD RETURNDATASIZE PUSH1 0x1F NOT PUSH1 0x1F DUP3 ADD AND DUP3 ADD DUP1 PUSH1 0x40 MSTORE POP DUP2 ADD SWAP1 PUSH2 0x16D3 SWAP2 SWAP1 PUSH2 0x359F JUMP JUMPDEST DUP3 SLOAD PUSH1 0x1 PUSH1 0x1 PUSH1 0xA0 SHL SUB AND PUSH1 0x0 SWAP1 DUP2 MSTORE PUSH1 0x9 PUSH1 0x20 MSTORE PUSH1 0x40 DUP2 KECCAK256 SLOAD SWAP2 SWAP3 POP SWAP1 PUSH2 0x16FC SWAP1 DUP6 DUP5 PUSH2 0x2C87 JUMP JUMPDEST SWAP1 POP DUP1 ISZERO DUP1 ISZERO PUSH2 0x170C JUMPI POP PUSH1 0x0 DUP5 GT JUMPDEST ISZERO PUSH2 0x171F JUMPI DUP1 PUSH2 0x171B DUP2 PUSH2 0x3C8F JUMP JUMPDEST SWAP2 POP POP JUMPDEST PUSH1 0x0 DUP2 GT PUSH2 0x173F JUMPI PUSH1 0x40 MLOAD PUSH3 0x461BCD PUSH1 0xE5 SHL DUP2 MSTORE PUSH1 0x4 ADD PUSH2 0x8CE SWAP1 PUSH2 0x3AA3 JUMP JUMPDEST PUSH1 0x0 PUSH2 0x174E DUP5 PUSH1 0x5 ADD SLOAD PUSH2 0x2A83 JUMP JUMPDEST SWAP1 POP DUP1 PUSH2 0x175C DUP4 PUSH1 0x1 PUSH2 0x3C40 JUMP JUMPDEST EQ ISZERO PUSH2 0x17A2 JUMPI DUP4 SLOAD PUSH1 0x1 PUSH1 0x1 PUSH1 0xA0 SHL SUB AND PUSH1 0x0 SWAP1 DUP2 MSTORE PUSH1 0x9 PUSH1 0x20 MSTORE PUSH1 0x40 SWAP1 KECCAK256 SLOAD PUSH2 0x1790 SWAP1 PUSH2 0x178A DUP2 DUP7 PUSH2 0x3C58 JUMP JUMPDEST DUP6 PUSH2 0x2C87 JUMP JUMPDEST PUSH2 0x17A2 JUMPI DUP2 PUSH2 0x179E DUP2 PUSH2 0x3C8F JUMP JUMPDEST SWAP3 POP POP JUMPDEST DUP2 DUP2 LT ISZERO PUSH2 0x17C2 JUMPI PUSH1 0x40 MLOAD PUSH3 0x461BCD PUSH1 0xE5 SHL DUP2 MSTORE PUSH1 0x4 ADD PUSH2 0x8CE SWAP1 PUSH2 0x3823 JUMP JUMPDEST DUP2 DUP5 PUSH1 0x2 ADD PUSH1 0x0 DUP3 DUP3 SLOAD PUSH2 0x17D6 SWAP2 SWAP1 PUSH2 0x3C40 JUMP JUMPDEST SWAP1 SWAP2 SSTORE POP POP DUP4 SLOAD PUSH1 0x1 PUSH1 0x1 PUSH1 0xA0 SHL SUB AND PUSH1 0x0 SWAP1 DUP2 MSTORE PUSH1 0x9 PUSH1 0x20 MSTORE PUSH1 0x40 DUP2 KECCAK256 SLOAD PUSH2 0x1802 SWAP1 DUP5 SWAP1 DUP7 SWAP1 PUSH2 0x2C87 JUMP JUMPDEST DUP6 SLOAD PUSH1 0x1 PUSH1 0x1 PUSH1 0xA0 SHL SUB AND PUSH1 0x0 SWAP1 DUP2 MSTORE PUSH1 0x9 PUSH1 0x20 MSTORE PUSH1 0x40 DUP2 KECCAK256 DUP1 SLOAD SWAP3 SWAP4 POP DUP6 SWAP3 SWAP1 SWAP2 SWAP1 PUSH2 0x1830 SWAP1 DUP5 SWAP1 PUSH2 0x3C78 JUMP JUMPDEST SWAP1 SWAP2 SSTORE POP POP DUP5 SLOAD PUSH2 0x184B SWAP1 PUSH1 0x1 PUSH1 0x1 PUSH1 0xA0 SHL SUB AND CALLER DUP4 PUSH2 0x2E37 JUMP JUMPDEST DUP5 SLOAD PUSH1 0x40 MLOAD PUSH32 0xCCAD973DCD043C7D680389DB4378BD6B9775DB7124092E9E0422C9E46D7985DC SWAP2 PUSH2 0x1889 SWAP2 PUSH1 0x1 PUSH1 0x1 PUSH1 0xA0 SHL SUB SWAP1 SWAP2 AND SWAP1 DUP5 SWAP1 PUSH2 0x36B6 JUMP JUMPDEST PUSH1 0x40 MLOAD DUP1 SWAP2 SUB SWAP1 LOG1 POP POP PUSH1 0x1 DUP1 SSTORE POP POP POP POP POP JUMP JUMPDEST PUSH1 0x2 PUSH1 0x1 SLOAD EQ ISZERO PUSH2 0x18C1 JUMPI PUSH1 0x40 MLOAD PUSH3 0x461BCD PUSH1 0xE5 SHL DUP2 MSTORE PUSH1 0x4 ADD PUSH2 0x8CE SWAP1 PUSH2 0x3B2E JUMP JUMPDEST PUSH1 0x2 PUSH1 0x1 SSTORE CALLER PUSH1 0x1 PUSH1 0x1 PUSH1 0xA0 SHL SUB DUP3 AND EQ ISZERO PUSH2 0x18EF JUMPI PUSH1 0x40 MLOAD PUSH3 0x461BCD PUSH1 0xE5 SHL DUP2 MSTORE PUSH1 0x4 ADD PUSH2 0x8CE SWAP1 PUSH2 0x3A40 JUMP JUMPDEST PUSH1 0x0 DUP3 DUP2 MSTORE PUSH1 0x4 PUSH1 0x20 MSTORE PUSH1 0x40 SWAP1 KECCAK256 PUSH1 0x6 DUP2 ADD SLOAD PUSH1 0x1 PUSH1 0x1 PUSH1 0xA0 SHL SUB AND CALLER EQ PUSH2 0x1929 JUMPI PUSH1 0x40 MLOAD PUSH3 0x461BCD PUSH1 0xE5 SHL DUP2 MSTORE PUSH1 0x4 ADD PUSH2 0x8CE SWAP1 PUSH2 0x38FF JUMP JUMPDEST PUSH2 0x1931 PUSH2 0x3312 JUMP JUMPDEST DUP2 PUSH1 0x0 ADD PUSH1 0x0 SWAP1 SLOAD SWAP1 PUSH2 0x100 EXP SWAP1 DIV PUSH1 0x1 PUSH1 0x1 PUSH1 0xA0 SHL SUB AND DUP2 PUSH1 0x0 ADD SWAP1 PUSH1 0x1 PUSH1 0x1 PUSH1 0xA0 SHL SUB AND SWAP1 DUP2 PUSH1 0x1 PUSH1 0x1 PUSH1 0xA0 SHL SUB AND DUP2 MSTORE POP POP DUP2 PUSH1 0x1 ADD SLOAD DUP2 PUSH1 0x20 ADD DUP2 DUP2 MSTORE POP POP DUP2 PUSH1 0x2 ADD SLOAD DUP2 PUSH1 0x40 ADD DUP2 DUP2 MSTORE POP POP DUP2 PUSH1 0x3 ADD SLOAD DUP2 PUSH1 0x60 ADD DUP2 DUP2 MSTORE POP POP DUP2 PUSH1 0x4 ADD SLOAD DUP2 PUSH1 0x80 ADD DUP2 DUP2 MSTORE POP POP PUSH1 0x5 SLOAD DUP2 PUSH1 0xA0 ADD DUP2 DUP2 MSTORE POP POP DUP3 DUP2 PUSH1 0xC0 ADD SWAP1 PUSH1 0x1 PUSH1 0x1 PUSH1 0xA0 SHL SUB AND SWAP1 DUP2 PUSH1 0x1 PUSH1 0x1 PUSH1 0xA0 SHL SUB AND DUP2 MSTORE POP POP DUP2 PUSH1 0x7 ADD PUSH1 0x0 SWAP1 SLOAD SWAP1 PUSH2 0x100 EXP SWAP1 DIV PUSH1 0x1 PUSH1 0x1 PUSH1 0xA0 SHL SUB AND DUP2 PUSH1 0xE0 ADD SWAP1 PUSH1 0x1 PUSH1 0x1 PUSH1 0xA0 SHL SUB AND SWAP1 DUP2 PUSH1 0x1 PUSH1 0x1 PUSH1 0xA0 SHL SUB AND DUP2 MSTORE POP POP DUP1 PUSH1 0x4 PUSH1 0x0 PUSH1 0x5 SLOAD DUP2 MSTORE PUSH1 0x20 ADD SWAP1 DUP2 MSTORE PUSH1 0x20 ADD PUSH1 0x0 KECCAK256 PUSH1 0x0 DUP3 ADD MLOAD DUP2 PUSH1 0x0 ADD PUSH1 0x0 PUSH2 0x100 EXP DUP2 SLOAD DUP2 PUSH1 0x1 PUSH1 0x1 PUSH1 0xA0 SHL SUB MUL NOT AND SWAP1 DUP4 PUSH1 0x1 PUSH1 0x1 PUSH1 0xA0 SHL SUB AND MUL OR SWAP1 SSTORE POP PUSH1 0x20 DUP3 ADD MLOAD DUP2 PUSH1 0x1 ADD SSTORE PUSH1 0x40 DUP3 ADD MLOAD DUP2 PUSH1 0x2 ADD SSTORE PUSH1 0x60 DUP3 ADD MLOAD DUP2 PUSH1 0x3 ADD SSTORE PUSH1 0x80 DUP3 ADD MLOAD DUP2 PUSH1 0x4 ADD SSTORE PUSH1 0xA0 DUP3 ADD MLOAD DUP2 PUSH1 0x5 ADD SSTORE PUSH1 0xC0 DUP3 ADD MLOAD DUP2 PUSH1 0x6 ADD PUSH1 0x0 PUSH2 0x100 EXP DUP2 SLOAD DUP2 PUSH1 0x1 PUSH1 0x1 PUSH1 0xA0 SHL SUB MUL NOT AND SWAP1 DUP4 PUSH1 0x1 PUSH1 0x1 PUSH1 0xA0 SHL SUB AND MUL OR SWAP1 SSTORE POP PUSH1 0xE0 DUP3 ADD MLOAD DUP2 PUSH1 0x7 ADD PUSH1 0x0 PUSH2 0x100 EXP DUP2 SLOAD DUP2 PUSH1 0x1 PUSH1 0x1 PUSH1 0xA0 SHL SUB MUL NOT AND SWAP1 DUP4 PUSH1 0x1 PUSH1 0x1 PUSH1 0xA0 SHL SUB AND MUL OR SWAP1 SSTORE POP SWAP1 POP POP PUSH1 0x7 PUSH1 0x0 DUP4 PUSH1 0x0 ADD PUSH1 0x0 SWAP1 SLOAD SWAP1 PUSH2 0x100 EXP SWAP1 DIV PUSH1 0x1 PUSH1 0x1 PUSH1 0xA0 SHL SUB AND PUSH1 0x1 PUSH1 0x1 PUSH1 0xA0 SHL SUB AND PUSH1 0x1 PUSH1 0x1 PUSH1 0xA0 SHL SUB AND DUP2 MSTORE PUSH1 0x20 ADD SWAP1 DUP2 MSTORE PUSH1 0x20 ADD PUSH1 0x0 KECCAK256 PUSH1 0x5 SLOAD SWAP1 DUP1 PUSH1 0x1 DUP2 SLOAD ADD DUP1 DUP3 SSTORE DUP1 SWAP2 POP POP PUSH1 0x1 SWAP1 SUB SWAP1 PUSH1 0x0 MSTORE PUSH1 0x20 PUSH1 0x0 KECCAK256 ADD PUSH1 0x0 SWAP1 SWAP2 SWAP1 SWAP2 SWAP1 SWAP2 POP SSTORE PUSH1 0x0 PUSH1 0x8 PUSH1 0x0 DUP6 PUSH1 0x1 PUSH1 0x1 PUSH1 0xA0 SHL SUB AND PUSH1 0x1 PUSH1 0x1 PUSH1 0xA0 SHL SUB AND DUP2 MSTORE PUSH1 0x20 ADD SWAP1 DUP2 MSTORE PUSH1 0x20 ADD PUSH1 0x0 KECCAK256 SWAP1 POP PUSH2 0x1B8A DUP4 PUSH1 0x0 ADD PUSH1 0x0 SWAP1 SLOAD SWAP1 PUSH2 0x100 EXP SWAP1 DIV PUSH1 0x1 PUSH1 0x1 PUSH1 0xA0 SHL SUB AND DUP3 PUSH1 0x0 ADD PUSH2 0x2F24 SWAP1 SWAP2 SWAP1 PUSH4 0xFFFFFFFF AND JUMP JUMPDEST POP DUP3 SLOAD PUSH1 0x1 PUSH1 0x1 PUSH1 0xA0 SHL SUB AND PUSH1 0x0 SWAP1 DUP2 MSTORE PUSH1 0x2 DUP3 ADD PUSH1 0x20 SWAP1 DUP2 MSTORE PUSH1 0x40 DUP3 KECCAK256 PUSH1 0xA0 DUP6 ADD MLOAD DUP2 SLOAD PUSH1 0x1 DUP2 ADD DUP4 SSTORE SWAP2 DUP5 MSTORE SWAP2 DUP4 KECCAK256 ADD SSTORE PUSH1 0x5 DUP1 SLOAD SWAP2 PUSH2 0x1BCB DUP4 PUSH2 0x3C8F JUMP JUMPDEST SWAP1 SWAP2 SSTORE POP POP PUSH1 0x1 DUP4 ADD SLOAD PUSH1 0x2 DUP5 ADD SSTORE PUSH1 0xA0 DUP3 ADD MLOAD PUSH1 0x40 MLOAD PUSH32 0xC1329EEA12893A6EFF780DF43CF4EC708FDC6CE7FBACF84EE8CF9355A9AF1DD8 SWAP2 PUSH2 0x1C14 SWAP2 DUP9 SWAP2 SWAP1 CALLER SWAP1 DUP10 SWAP1 PUSH2 0x3C03 JUMP JUMPDEST PUSH1 0x40 MLOAD DUP1 SWAP2 SUB SWAP1 LOG1 POP POP PUSH1 0x1 DUP1 SSTORE POP POP POP JUMP JUMPDEST PUSH1 0x2 PUSH1 0x1 SLOAD EQ ISZERO PUSH2 0x1C4A JUMPI PUSH1 0x40 MLOAD PUSH3 0x461BCD PUSH1 0xE5 SHL DUP2 MSTORE PUSH1 0x4 ADD PUSH2 0x8CE SWAP1 PUSH2 0x3B2E JUMP JUMPDEST PUSH1 0x2 PUSH1 0x1 SSTORE PUSH1 0x0 DUP2 DUP2 MSTORE PUSH1 0x4 PUSH1 0x20 MSTORE PUSH1 0x40 SWAP1 KECCAK256 PUSH1 0x6 DUP2 ADD SLOAD PUSH1 0x1 PUSH1 0x1 PUSH1 0xA0 SHL SUB AND CALLER EQ PUSH2 0x1C89 JUMPI PUSH1 0x40 MLOAD PUSH3 0x461BCD PUSH1 0xE5 SHL DUP2 MSTORE PUSH1 0x4 ADD PUSH2 0x8CE SWAP1 PUSH2 0x38FF JUMP JUMPDEST PUSH1 0x7 DUP2 ADD SLOAD PUSH1 0x1 PUSH1 0x1 PUSH1 0xA0 SHL SUB AND PUSH2 0x1CA0 JUMPI PUSH1 0x0 DUP1 REVERT JUMPDEST PUSH1 0x7 ADD DUP1 SLOAD PUSH1 0x1 PUSH1 0x1 PUSH1 0xA0 SHL SUB NOT AND SWAP1 SSTORE POP PUSH1 0x1 DUP1 SSTORE JUMP JUMPDEST PUSH1 0x2 PUSH1 0x1 SLOAD EQ ISZERO PUSH2 0x1CDB JUMPI PUSH1 0x40 MLOAD PUSH3 0x461BCD PUSH1 0xE5 SHL DUP2 MSTORE PUSH1 0x4 ADD PUSH2 0x8CE SWAP1 PUSH2 0x3B2E JUMP JUMPDEST PUSH1 0x2 PUSH1 0x1 SSTORE DUP1 PUSH2 0x1CFD JUMPI PUSH1 0x40 MLOAD PUSH3 0x461BCD PUSH1 0xE5 SHL DUP2 MSTORE PUSH1 0x4 ADD PUSH2 0x8CE SWAP1 PUSH2 0x3A5E JUMP JUMPDEST PUSH1 0x0 DUP3 DUP2 MSTORE PUSH1 0x4 PUSH1 0x20 MSTORE PUSH1 0x40 SWAP1 KECCAK256 PUSH1 0x6 DUP2 ADD SLOAD PUSH1 0x1 PUSH1 0x1 PUSH1 0xA0 SHL SUB AND CALLER EQ PUSH2 0x1D37 JUMPI PUSH1 0x40 MLOAD PUSH3 0x461BCD PUSH1 0xE5 SHL DUP2 MSTORE PUSH1 0x4 ADD PUSH2 0x8CE SWAP1 PUSH2 0x38FF JUMP JUMPDEST PUSH1 0x3 DUP2 ADD SLOAD ISZERO PUSH2 0x1D59 JUMPI PUSH1 0x40 MLOAD PUSH3 0x461BCD PUSH1 0xE5 SHL DUP2 MSTORE PUSH1 0x4 ADD PUSH2 0x8CE SWAP1 PUSH2 0x39F6 JUMP JUMPDEST DUP1 SLOAD PUSH1 0x40 MLOAD PUSH4 0x70A08231 PUSH1 0xE0 SHL DUP2 MSTORE PUSH1 0x0 SWAP2 PUSH1 0x1 PUSH1 0x1 PUSH1 0xA0 SHL SUB AND SWAP1 PUSH4 0x70A08231 SWAP1 PUSH2 0x1D89 SWAP1 ADDRESS SWAP1 PUSH1 0x4 ADD PUSH2 0x367E JUMP JUMPDEST PUSH1 0x20 PUSH1 0x40 MLOAD DUP1 DUP4 SUB DUP2 DUP7 DUP1 EXTCODESIZE ISZERO DUP1 ISZERO PUSH2 0x1DA1 JUMPI PUSH1 0x0 DUP1 REVERT JUMPDEST POP GAS STATICCALL ISZERO DUP1 ISZERO PUSH2 0x1DB5 JUMPI RETURNDATASIZE PUSH1 0x0 DUP1 RETURNDATACOPY RETURNDATASIZE PUSH1 0x0 REVERT JUMPDEST POP POP POP POP PUSH1 0x40 MLOAD RETURNDATASIZE PUSH1 0x1F NOT PUSH1 0x1F DUP3 ADD AND DUP3 ADD DUP1 PUSH1 0x40 MSTORE POP DUP2 ADD SWAP1 PUSH2 0x1DD9 SWAP2 SWAP1 PUSH2 0x359F JUMP JUMPDEST DUP3 SLOAD PUSH1 0x1 PUSH1 0x1 PUSH1 0xA0 SHL SUB AND PUSH1 0x0 SWAP1 DUP2 MSTORE PUSH1 0x9 PUSH1 0x20 MSTORE PUSH1 0x40 DUP2 KECCAK256 SLOAD SWAP2 SWAP3 POP SWAP1 PUSH2 0x1E02 SWAP1 DUP6 DUP5 PUSH2 0x2C87 JUMP JUMPDEST SWAP1 POP DUP3 PUSH1 0x1 ADD SLOAD DUP2 DUP5 PUSH1 0x2 ADD SLOAD PUSH2 0x1E19 SWAP2 SWAP1 PUSH2 0x3C40 JUMP JUMPDEST GT ISZERO PUSH2 0x1E24 JUMPI PUSH1 0x0 DUP1 REVERT JUMPDEST PUSH2 0x1E2C PUSH2 0x3312 JUMP JUMPDEST DUP4 SLOAD PUSH1 0x1 PUSH1 0x1 PUSH1 0xA0 SHL SUB SWAP1 DUP2 AND DUP3 MSTORE PUSH1 0x20 DUP3 ADD DUP4 SWAP1 MSTORE PUSH1 0x4 DUP6 ADD SLOAD PUSH1 0x80 DUP4 ADD MSTORE PUSH1 0x5 SLOAD PUSH1 0xA0 DUP4 ADD MSTORE CALLER PUSH1 0xC0 DUP4 ADD MSTORE PUSH1 0x7 DUP6 ADD SLOAD AND PUSH1 0xE0 DUP3 ADD MSTORE PUSH1 0x2 DUP5 ADD DUP1 SLOAD DUP4 SWAP2 SWAP1 PUSH1 0x0 SWAP1 PUSH2 0x1E7C SWAP1 DUP5 SWAP1 PUSH2 0x3C40 JUMP JUMPDEST SWAP1 SWAP2 SSTORE POP POP PUSH1 0x5 DUP1 SLOAD PUSH1 0x0 SWAP1 DUP2 MSTORE PUSH1 0x4 PUSH1 0x20 DUP2 DUP2 MSTORE PUSH1 0x40 DUP1 DUP5 KECCAK256 DUP7 MLOAD DUP2 SLOAD PUSH1 0x1 PUSH1 0x1 PUSH1 0xA0 SHL SUB NOT SWAP1 DUP2 AND PUSH1 0x1 PUSH1 0x1 PUSH1 0xA0 SHL SUB SWAP3 DUP4 AND OR DUP4 SSTORE DUP9 DUP6 ADD MLOAD PUSH1 0x1 DUP1 DUP6 ADD SWAP2 SWAP1 SWAP2 SSTORE DUP10 DUP6 ADD MLOAD PUSH1 0x2 DUP1 DUP7 ADD SWAP2 SWAP1 SWAP2 SSTORE PUSH1 0x60 DUP12 ADD MLOAD PUSH1 0x3 DUP7 ADD SSTORE PUSH1 0x80 DUP12 ADD MLOAD SWAP8 DUP6 ADD SWAP8 SWAP1 SWAP8 SSTORE PUSH1 0xA0 DUP11 ADD DUP1 MLOAD DUP6 DUP12 ADD SSTORE PUSH1 0xC0 DUP12 ADD MLOAD PUSH1 0x6 DUP7 ADD DUP1 SLOAD DUP6 AND SWAP2 DUP7 AND SWAP2 SWAP1 SWAP2 OR SWAP1 SSTORE PUSH1 0xE0 DUP12 ADD MLOAD PUSH1 0x7 SWAP6 DUP7 ADD DUP1 SLOAD SWAP1 SWAP5 AND SWAP1 DUP6 AND OR SWAP1 SWAP3 SSTORE DUP13 SLOAD DUP4 AND DUP9 MSTORE SWAP3 DUP6 MSTORE DUP4 DUP8 KECCAK256 DUP9 SLOAD DUP2 SLOAD DUP1 DUP7 ADD DUP4 SSTORE SWAP2 DUP10 MSTORE DUP7 DUP10 KECCAK256 SWAP1 SWAP2 ADD SSTORE CALLER DUP8 MSTORE PUSH1 0x8 DUP6 MSTORE DUP4 DUP8 KECCAK256 DUP13 SLOAD SWAP1 SWAP3 AND DUP8 MSTORE SWAP5 ADD DUP4 MSTORE SWAP1 DUP5 KECCAK256 SWAP3 MLOAD DUP4 SLOAD SWAP2 DUP3 ADD DUP5 SSTORE SWAP3 DUP5 MSTORE SWAP1 DUP4 KECCAK256 ADD SSTORE DUP2 SLOAD SWAP2 SWAP1 PUSH2 0x1F6F DUP4 PUSH2 0x3C8F JUMP JUMPDEST SWAP2 SWAP1 POP SSTORE POP PUSH32 0xBFC02F4250F5E54A31A72371B1932061A0245DB2AFB5124B547306F6EBFFD8AD DUP7 DUP3 PUSH1 0xA0 ADD MLOAD DUP8 PUSH1 0x40 MLOAD PUSH2 0x12E8 SWAP4 SWAP3 SWAP2 SWAP1 PUSH2 0x3C2A JUMP JUMPDEST PUSH1 0x0 DUP2 PUSH1 0x1 PUSH1 0x1 PUSH1 0xA0 SHL SUB AND PUSH4 0xF968F493 PUSH1 0x40 MLOAD DUP2 PUSH4 0xFFFFFFFF AND PUSH1 0xE0 SHL DUP2 MSTORE PUSH1 0x4 ADD PUSH1 0x20 PUSH1 0x40 MLOAD DUP1 DUP4 SUB DUP2 DUP7 DUP1 EXTCODESIZE ISZERO DUP1 ISZERO PUSH2 0x1FE6 JUMPI PUSH1 0x0 DUP1 REVERT JUMPDEST POP GAS STATICCALL ISZERO DUP1 ISZERO PUSH2 0x1FFA JUMPI RETURNDATASIZE PUSH1 0x0 DUP1 RETURNDATACOPY RETURNDATASIZE PUSH1 0x0 REVERT JUMPDEST POP POP POP POP PUSH1 0x40 MLOAD RETURNDATASIZE PUSH1 0x1F NOT PUSH1 0x1F DUP3 ADD AND DUP3 ADD DUP1 PUSH1 0x40 MSTORE POP DUP2 ADD SWAP1 PUSH2 0x8A5 SWAP2 SWAP1 PUSH2 0x34E1 JUMP JUMPDEST PUSH2 0x2026 PUSH2 0x2F39 JUMP JUMPDEST PUSH1 0x1 PUSH1 0x1 PUSH1 0xA0 SHL SUB AND PUSH2 0x2037 PUSH2 0x21E2 JUMP JUMPDEST PUSH1 0x1 PUSH1 0x1 PUSH1 0xA0 SHL SUB AND EQ PUSH2 0x205D JUMPI PUSH1 0x40 MLOAD PUSH3 0x461BCD PUSH1 0xE5 SHL DUP2 MSTORE PUSH1 0x4 ADD PUSH2 0x8CE SWAP1 PUSH2 0x3961 JUMP JUMPDEST PUSH1 0x0 DUP1 SLOAD PUSH1 0x40 MLOAD PUSH1 0x1 PUSH1 0x1 PUSH1 0xA0 SHL SUB SWAP1 SWAP2 AND SWAP1 PUSH32 0x8BE0079C531659141344CD1FD0A4F28419497F9722A3DAAFE3B4186F6B6457E0 SWAP1 DUP4 SWAP1 LOG3 PUSH1 0x0 DUP1 SLOAD PUSH1 0x1 PUSH1 0x1 PUSH1 0xA0 SHL SUB NOT AND SWAP1 SSTORE JUMP JUMPDEST PUSH2 0x20AF PUSH2 0x2F39 JUMP JUMPDEST PUSH1 0x1 PUSH1 0x1 PUSH1 0xA0 SHL SUB AND PUSH2 0x20C0 PUSH2 0x21E2 JUMP JUMPDEST PUSH1 0x1 PUSH1 0x1 PUSH1 0xA0 SHL SUB AND EQ PUSH2 0x20E6 JUMPI PUSH1 0x40 MLOAD PUSH3 0x461BCD PUSH1 0xE5 SHL DUP2 MSTORE PUSH1 0x4 ADD PUSH2 0x8CE SWAP1 PUSH2 0x3961 JUMP JUMPDEST PUSH1 0x14 DUP1 SLOAD PUSH1 0x1 PUSH1 0x1 PUSH1 0xA0 SHL SUB NOT AND PUSH1 0x1 PUSH1 0x1 PUSH1 0xA0 SHL SUB SWAP3 SWAP1 SWAP3 AND SWAP2 SWAP1 SWAP2 OR SWAP1 SSTORE JUMP JUMPDEST PUSH1 0x0 PUSH2 0x7E8 PUSH1 0x2 PUSH2 0x2C7C JUMP JUMPDEST PUSH2 0x211C PUSH2 0x2F39 JUMP JUMPDEST PUSH1 0x1 PUSH1 0x1 PUSH1 0xA0 SHL SUB AND PUSH2 0x212D PUSH2 0x21E2 JUMP JUMPDEST PUSH1 0x1 PUSH1 0x1 PUSH1 0xA0 SHL SUB AND EQ PUSH2 0x2153 JUMPI PUSH1 0x40 MLOAD PUSH3 0x461BCD PUSH1 0xE5 SHL DUP2 MSTORE PUSH1 0x4 ADD PUSH2 0x8CE SWAP1 PUSH2 0x3961 JUMP JUMPDEST DUP1 ISZERO PUSH2 0x216A JUMPI PUSH2 0x2164 PUSH1 0xC DUP4 PUSH2 0x2F24 JUMP JUMPDEST POP PUSH2 0x2177 JUMP JUMPDEST PUSH2 0x2175 PUSH1 0xC DUP4 PUSH2 0x3023 JUMP JUMPDEST POP JUMPDEST POP POP JUMP JUMPDEST PUSH1 0xE SLOAD PUSH1 0xF SLOAD PUSH1 0x10 SLOAD PUSH1 0x11 SLOAD PUSH1 0x1 PUSH1 0x1 PUSH1 0xA0 SHL SUB SWAP2 DUP3 AND SWAP2 AND DUP5 JUMP JUMPDEST PUSH1 0x1 PUSH1 0x1 PUSH1 0xA0 SHL SUB DUP3 AND PUSH1 0x0 SWAP1 DUP2 MSTORE PUSH1 0x7 PUSH1 0x20 MSTORE PUSH1 0x40 DUP2 KECCAK256 DUP1 SLOAD DUP4 SWAP1 DUP2 LT PUSH2 0x21CF JUMPI PUSH4 0x4E487B71 PUSH1 0xE0 SHL PUSH1 0x0 MSTORE PUSH1 0x32 PUSH1 0x4 MSTORE PUSH1 0x24 PUSH1 0x0 REVERT JUMPDEST SWAP1 PUSH1 0x0 MSTORE PUSH1 0x20 PUSH1 0x0 KECCAK256 ADD SLOAD SWAP1 POP SWAP3 SWAP2 POP POP JUMP JUMPDEST PUSH1 0x0 SLOAD PUSH1 0x1 PUSH1 0x1 PUSH1 0xA0 SHL SUB AND SWAP1 JUMP JUMPDEST PUSH1 0x1 PUSH1 0x1 PUSH1 0xA0 SHL SUB DUP3 AND PUSH1 0x0 SWAP1 DUP2 MSTORE PUSH1 0x8 PUSH1 0x20 MSTORE PUSH1 0x40 DUP2 KECCAK256 PUSH2 0xF86 SWAP1 DUP4 PUSH2 0x3038 JUMP JUMPDEST PUSH1 0x0 PUSH2 0x8A5 PUSH1 0x2 DUP4 PUSH2 0x3038 JUMP JUMPDEST PUSH1 0x13 SLOAD PUSH1 0x1 PUSH1 0x1 PUSH1 0xA0 SHL SUB AND DUP2 JUMP JUMPDEST PUSH2 0x223A PUSH1 0xA DUP3 PUSH2 0x2E22 JUMP JUMPDEST ISZERO PUSH2 0x2257 JUMPI PUSH1 0x40 MLOAD PUSH3 0x461BCD PUSH1 0xE5 SHL DUP2 MSTORE PUSH1 0x4 ADD PUSH2 0x8CE SWAP1 PUSH2 0x391E JUMP JUMPDEST PUSH1 0x11 SLOAD PUSH1 0x1 PUSH1 0x1 PUSH1 0xA0 SHL SUB AND PUSH2 0x22CA JUMPI PUSH1 0xF SLOAD CALLVALUE EQ PUSH2 0x2288 JUMPI PUSH1 0x40 MLOAD PUSH3 0x461BCD PUSH1 0xE5 SHL DUP2 MSTORE PUSH1 0x4 ADD PUSH2 0x8CE SWAP1 PUSH2 0x3A1B JUMP JUMPDEST PUSH1 0x10 SLOAD PUSH1 0xF SLOAD PUSH1 0x40 MLOAD PUSH1 0x1 PUSH1 0x1 PUSH1 0xA0 SHL SUB SWAP1 SWAP3 AND SWAP2 DUP2 ISZERO PUSH2 0x8FC MUL SWAP2 SWAP1 PUSH1 0x0 DUP2 DUP2 DUP2 DUP6 DUP9 DUP9 CALL SWAP4 POP POP POP POP ISZERO DUP1 ISZERO PUSH2 0x22C4 JUMPI RETURNDATASIZE PUSH1 0x0 DUP1 RETURNDATACOPY RETURNDATASIZE PUSH1 0x0 REVERT JUMPDEST POP PUSH2 0x22ED JUMP JUMPDEST PUSH1 0x11 SLOAD PUSH1 0x10 SLOAD PUSH1 0xF SLOAD PUSH2 0x22ED SWAP3 PUSH1 0x1 PUSH1 0x1 PUSH1 0xA0 SHL SUB SWAP1 DUP2 AND SWAP3 CALLER SWAP3 SWAP2 AND SWAP1 PUSH2 0x2D32 JUMP JUMPDEST PUSH2 0x2177 PUSH1 0xA DUP3 PUSH2 0x2F24 JUMP JUMPDEST PUSH1 0x1 PUSH1 0x1 PUSH1 0xA0 SHL SUB DUP2 AND PUSH1 0x0 SWAP1 DUP2 MSTORE PUSH1 0x8 PUSH1 0x20 MSTORE PUSH1 0x40 DUP2 KECCAK256 PUSH2 0x8A5 SWAP1 PUSH2 0x2C7C JUMP JUMPDEST PUSH1 0x0 PUSH2 0x8A5 PUSH1 0xA DUP4 PUSH2 0x3038 JUMP JUMPDEST PUSH1 0x2 PUSH1 0x1 SLOAD EQ ISZERO PUSH2 0x2349 JUMPI PUSH1 0x40 MLOAD PUSH3 0x461BCD PUSH1 0xE5 SHL DUP2 MSTORE PUSH1 0x4 ADD PUSH2 0x8CE SWAP1 PUSH2 0x3B2E JUMP JUMPDEST PUSH1 0x2 PUSH1 0x1 SSTORE PUSH5 0x2540BE400 DUP2 LT PUSH2 0x2372 JUMPI PUSH1 0x40 MLOAD PUSH3 0x461BCD PUSH1 0xE5 SHL DUP2 MSTORE PUSH1 0x4 ADD PUSH2 0x8CE SWAP1 PUSH2 0x3889 JUMP JUMPDEST PUSH1 0x0 DUP3 DUP2 MSTORE PUSH1 0x4 PUSH1 0x20 MSTORE PUSH1 0x40 SWAP1 KECCAK256 PUSH1 0x6 DUP2 ADD SLOAD PUSH1 0x1 PUSH1 0x1 PUSH1 0xA0 SHL SUB AND CALLER EQ PUSH2 0x23AC JUMPI PUSH1 0x40 MLOAD PUSH3 0x461BCD PUSH1 0xE5 SHL DUP2 MSTORE PUSH1 0x4 ADD PUSH2 0x8CE SWAP1 PUSH2 0x38FF JUMP JUMPDEST DUP2 DUP2 PUSH1 0x4 ADD SLOAD LT PUSH2 0x23CF JUMPI PUSH1 0x40 MLOAD PUSH3 0x461BCD PUSH1 0xE5 SHL DUP2 MSTORE PUSH1 0x4 ADD PUSH2 0x8CE SWAP1 PUSH2 0x39D9 JUMP JUMPDEST DUP1 SLOAD PUSH2 0x23E6 SWAP1 PUSH1 0xA SWAP1 PUSH1 0x1 PUSH1 0x1 PUSH1 0xA0 SHL SUB AND PUSH2 0x2E22 JUMP JUMPDEST PUSH2 0x2550 JUMPI PUSH1 0x0 DUP2 PUSH1 0x2 ADD SLOAD DUP3 PUSH1 0x1 ADD SLOAD PUSH2 0x2400 SWAP2 SWAP1 PUSH2 0x3C78 JUMP JUMPDEST SWAP1 POP PUSH1 0x0 PUSH2 0x2416 DUP3 PUSH1 0xE PUSH1 0x0 ADD SLOAD PUSH2 0x2710 PUSH2 0x2C87 JUMP JUMPDEST DUP4 SLOAD PUSH1 0x40 MLOAD PUSH4 0x70A08231 PUSH1 0xE0 SHL DUP2 MSTORE SWAP2 SWAP3 POP PUSH1 0x0 SWAP2 PUSH1 0x1 PUSH1 0x1 PUSH1 0xA0 SHL SUB SWAP1 SWAP2 AND SWAP1 PUSH4 0x70A08231 SWAP1 PUSH2 0x244B SWAP1 ADDRESS SWAP1 PUSH1 0x4 ADD PUSH2 0x367E JUMP JUMPDEST PUSH1 0x20 PUSH1 0x40 MLOAD DUP1 DUP4 SUB DUP2 DUP7 DUP1 EXTCODESIZE ISZERO DUP1 ISZERO PUSH2 0x2463 JUMPI PUSH1 0x0 DUP1 REVERT JUMPDEST POP GAS STATICCALL ISZERO DUP1 ISZERO PUSH2 0x2477 JUMPI RETURNDATASIZE PUSH1 0x0 DUP1 RETURNDATACOPY RETURNDATASIZE PUSH1 0x0 REVERT JUMPDEST POP POP POP POP PUSH1 0x40 MLOAD RETURNDATASIZE PUSH1 0x1F NOT PUSH1 0x1F DUP3 ADD AND DUP3 ADD DUP1 PUSH1 0x40 MSTORE POP DUP2 ADD SWAP1 PUSH2 0x249B SWAP2 SWAP1 PUSH2 0x359F JUMP JUMPDEST DUP5 SLOAD PUSH1 0x1 PUSH1 0x1 PUSH1 0xA0 SHL SUB AND PUSH1 0x0 SWAP1 DUP2 MSTORE PUSH1 0x9 PUSH1 0x20 MSTORE PUSH1 0x40 DUP2 KECCAK256 SLOAD SWAP2 SWAP3 POP SWAP1 PUSH2 0x24E5 SWAP1 DUP5 SWAP1 DUP5 SWAP1 ISZERO PUSH2 0xC44 JUMPI DUP8 SLOAD PUSH1 0x1 PUSH1 0x1 PUSH1 0xA0 SHL SUB AND PUSH1 0x0 SWAP1 DUP2 MSTORE PUSH1 0x9 PUSH1 0x20 MSTORE PUSH1 0x40 SWAP1 KECCAK256 SLOAD PUSH2 0xC47 JUMP JUMPDEST DUP6 SLOAD PUSH1 0x10 SLOAD SWAP2 SWAP3 POP PUSH2 0x2504 SWAP2 PUSH1 0x1 PUSH1 0x1 PUSH1 0xA0 SHL SUB SWAP2 DUP3 AND SWAP2 AND DUP4 PUSH2 0x2E37 JUMP JUMPDEST DUP3 DUP6 PUSH1 0x2 ADD PUSH1 0x0 DUP3 DUP3 SLOAD PUSH2 0x2518 SWAP2 SWAP1 PUSH2 0x3C40 JUMP JUMPDEST SWAP1 SWAP2 SSTORE POP POP DUP5 SLOAD PUSH1 0x1 PUSH1 0x1 PUSH1 0xA0 SHL SUB AND PUSH1 0x0 SWAP1 DUP2 MSTORE PUSH1 0x9 PUSH1 0x20 MSTORE PUSH1 0x40 DUP2 KECCAK256 DUP1 SLOAD DUP6 SWAP3 SWAP1 PUSH2 0x2546 SWAP1 DUP5 SWAP1 PUSH2 0x3C78 JUMP JUMPDEST SWAP1 SWAP2 SSTORE POP POP POP POP POP POP JUMPDEST PUSH1 0x4 DUP2 ADD DUP3 SWAP1 SSTORE PUSH1 0x40 MLOAD PUSH32 0xEFAFF1B90138281D215452C67F793017F52E456F65C28AC63F5309A89A059B47 SWAP1 PUSH2 0x2589 SWAP1 DUP6 SWAP1 DUP6 SWAP1 PUSH2 0x3BF5 JUMP JUMPDEST PUSH1 0x40 MLOAD DUP1 SWAP2 SUB SWAP1 LOG1 POP POP PUSH1 0x1 DUP1 SSTORE POP JUMP JUMPDEST PUSH1 0x12 SLOAD PUSH1 0x40 MLOAD PUSH4 0x2A35EFD3 PUSH1 0xE2 SHL DUP2 MSTORE PUSH1 0x1 PUSH1 0x1 PUSH1 0xA0 SHL SUB SWAP1 SWAP2 AND SWAP1 PUSH4 0xA8D7BF4C SWAP1 PUSH2 0x25CA SWAP1 CALLER SWAP1 PUSH1 0x4 ADD PUSH2 0x367E JUMP JUMPDEST PUSH1 0x20 PUSH1 0x40 MLOAD DUP1 DUP4 SUB DUP2 DUP7 DUP1 EXTCODESIZE ISZERO DUP1 ISZERO PUSH2 0x25E2 JUMPI PUSH1 0x0 DUP1 REVERT JUMPDEST POP GAS STATICCALL ISZERO DUP1 ISZERO PUSH2 0x25F6 JUMPI RETURNDATASIZE PUSH1 0x0 DUP1 RETURNDATACOPY RETURNDATASIZE PUSH1 0x0 REVERT JUMPDEST POP POP POP POP PUSH1 0x40 MLOAD RETURNDATASIZE PUSH1 0x1F NOT PUSH1 0x1F DUP3 ADD AND DUP3 ADD DUP1 PUSH1 0x40 MSTORE POP DUP2 ADD SWAP1 PUSH2 0x261A SWAP2 SWAP1 PUSH2 0x34E1 JUMP JUMPDEST DUP1 PUSH2 0x262B JUMPI POP PUSH2 0x262B PUSH1 0xC CALLER PUSH2 0x2E22 JUMP JUMPDEST PUSH2 0x2647 JUMPI PUSH1 0x40 MLOAD PUSH3 0x461BCD PUSH1 0xE5 SHL DUP2 MSTORE PUSH1 0x4 ADD PUSH2 0x8CE SWAP1 PUSH2 0x3ACB JUMP JUMPDEST DUP1 ISZERO PUSH2 0x2658 JUMPI PUSH2 0x2164 PUSH1 0xA DUP4 PUSH2 0x2F24 JUMP JUMPDEST PUSH2 0x2175 PUSH1 0xA DUP4 PUSH2 0x3023 JUMP JUMPDEST PUSH1 0x1 PUSH1 0x1 PUSH1 0xA0 SHL SUB SWAP2 DUP3 AND PUSH1 0x0 SWAP1 DUP2 MSTORE PUSH1 0x8 PUSH1 0x20 SWAP1 DUP2 MSTORE PUSH1 0x40 DUP1 DUP4 KECCAK256 SWAP4 SWAP1 SWAP5 AND DUP3 MSTORE PUSH1 0x2 SWAP1 SWAP3 ADD SWAP1 SWAP2 MSTORE KECCAK256 SLOAD SWAP1 JUMP JUMPDEST PUSH1 0x9 PUSH1 0x20 MSTORE PUSH1 0x0 SWAP1 DUP2 MSTORE PUSH1 0x40 SWAP1 KECCAK256 SLOAD DUP2 JUMP JUMPDEST PUSH1 0x14 SLOAD PUSH1 0x1 PUSH1 0x1 PUSH1 0xA0 SHL SUB AND DUP2 JUMP JUMPDEST PUSH1 0x0 DUP1 DUP4 PUSH1 0x1 PUSH1 0x1 PUSH1 0xA0 SHL SUB AND PUSH4 0x70A08231 ADDRESS PUSH1 0x40 MLOAD DUP3 PUSH4 0xFFFFFFFF AND PUSH1 0xE0 SHL DUP2 MSTORE PUSH1 0x4 ADD PUSH2 0x26E2 SWAP2 SWAP1 PUSH2 0x367E JUMP JUMPDEST PUSH1 0x20 PUSH1 0x40 MLOAD DUP1 DUP4 SUB DUP2 DUP7 DUP1 EXTCODESIZE ISZERO DUP1 ISZERO PUSH2 0x26FA JUMPI PUSH1 0x0 DUP1 REVERT JUMPDEST POP GAS STATICCALL ISZERO DUP1 ISZERO PUSH2 0x270E JUMPI RETURNDATASIZE PUSH1 0x0 DUP1 RETURNDATACOPY RETURNDATASIZE PUSH1 0x0 REVERT JUMPDEST POP POP POP POP PUSH1 0x40 MLOAD RETURNDATASIZE PUSH1 0x1F NOT PUSH1 0x1F DUP3 ADD AND DUP3 ADD DUP1 PUSH1 0x40 MSTORE POP DUP2 ADD SWAP1 PUSH2 0x2732 SWAP2 SWAP1 PUSH2 0x359F JUMP JUMPDEST PUSH1 0x1 PUSH1 0x1 PUSH1 0xA0 SHL SUB DUP6 AND PUSH1 0x0 SWAP1 DUP2 MSTORE PUSH1 0x9 PUSH1 0x20 MSTORE PUSH1 0x40 SWAP1 KECCAK256 SLOAD SWAP1 SWAP2 POP PUSH2 0x8A1 SWAP1 DUP5 DUP4 PUSH2 0x2C87 JUMP JUMPDEST PUSH1 0x4 PUSH1 0x20 DUP2 SWAP1 MSTORE PUSH1 0x0 SWAP2 DUP3 MSTORE PUSH1 0x40 SWAP1 SWAP2 KECCAK256 DUP1 SLOAD PUSH1 0x1 DUP3 ADD SLOAD PUSH1 0x2 DUP4 ADD SLOAD PUSH1 0x3 DUP5 ADD SLOAD SWAP5 DUP5 ADD SLOAD PUSH1 0x5 DUP6 ADD SLOAD PUSH1 0x6 DUP7 ADD SLOAD PUSH1 0x7 SWAP1 SWAP7 ADD SLOAD PUSH1 0x1 PUSH1 0x1 PUSH1 0xA0 SHL SUB SWAP6 DUP7 AND SWAP8 SWAP5 SWAP7 SWAP4 SWAP6 SWAP3 SWAP4 SWAP2 SWAP3 SWAP2 DUP3 AND SWAP2 AND DUP9 JUMP JUMPDEST PUSH1 0x0 PUSH2 0x8A5 PUSH1 0xC DUP4 PUSH2 0x2E22 JUMP JUMPDEST PUSH1 0x1 PUSH1 0x1 PUSH1 0xA0 SHL SUB AND PUSH1 0x0 SWAP1 DUP2 MSTORE PUSH1 0x7 PUSH1 0x20 MSTORE PUSH1 0x40 SWAP1 KECCAK256 SLOAD SWAP1 JUMP JUMPDEST PUSH1 0x0 DUP2 DUP2 MSTORE PUSH1 0x4 PUSH1 0x20 MSTORE PUSH1 0x40 DUP2 KECCAK256 PUSH1 0x5 DUP2 ADD SLOAD DUP3 SWAP1 PUSH2 0x27F1 SWAP1 PUSH2 0x2A83 JUMP JUMPDEST DUP3 SLOAD PUSH1 0x40 MLOAD PUSH4 0x70A08231 PUSH1 0xE0 SHL DUP2 MSTORE SWAP2 SWAP3 POP PUSH1 0x0 SWAP2 PUSH1 0x1 PUSH1 0x1 PUSH1 0xA0 SHL SUB SWAP1 SWAP2 AND SWAP1 PUSH4 0x70A08231 SWAP1 PUSH2 0x2826 SWAP1 ADDRESS SWAP1 PUSH1 0x4 ADD PUSH2 0x367E JUMP JUMPDEST PUSH1 0x20 PUSH1 0x40 MLOAD DUP1 DUP4 SUB DUP2 DUP7 DUP1 EXTCODESIZE ISZERO DUP1 ISZERO PUSH2 0x283E JUMPI PUSH1 0x0 DUP1 REVERT JUMPDEST POP GAS STATICCALL ISZERO DUP1 ISZERO PUSH2 0x2852 JUMPI RETURNDATASIZE PUSH1 0x0 DUP1 RETURNDATACOPY RETURNDATASIZE PUSH1 0x0 REVERT JUMPDEST POP POP POP POP PUSH1 0x40 MLOAD RETURNDATASIZE PUSH1 0x1F NOT PUSH1 0x1F DUP3 ADD AND DUP3 ADD DUP1 PUSH1 0x40 MSTORE POP DUP2 ADD SWAP1 PUSH2 0x2876 SWAP2 SWAP1 PUSH2 0x359F JUMP JUMPDEST DUP4 SLOAD PUSH1 0x1 PUSH1 0x1 PUSH1 0xA0 SHL SUB AND PUSH1 0x0 SWAP1 DUP2 MSTORE PUSH1 0x9 PUSH1 0x20 MSTORE PUSH1 0x40 DUP2 KECCAK256 SLOAD SWAP2 SWAP3 POP SWAP1 PUSH2 0x28C0 SWAP1 DUP5 SWAP1 DUP5 SWAP1 ISZERO PUSH2 0xC44 JUMPI DUP7 SLOAD PUSH1 0x1 PUSH1 0x1 PUSH1 0xA0 SHL SUB AND PUSH1 0x0 SWAP1 DUP2 MSTORE PUSH1 0x9 PUSH1 0x20 MSTORE PUSH1 0x40 SWAP1 KECCAK256 SLOAD PUSH2 0xC47 JUMP JUMPDEST SWAP7 SWAP6 POP POP POP POP POP POP JUMP JUMPDEST PUSH1 0x0 DUP2 DUP2 MSTORE PUSH1 0x4 PUSH1 0x20 DUP2 DUP2 MSTORE PUSH1 0x40 DUP1 DUP5 KECCAK256 DUP2 MLOAD PUSH2 0x100 DUP2 ADD DUP4 MSTORE DUP2 SLOAD PUSH1 0x1 PUSH1 0x1 PUSH1 0xA0 SHL SUB SWAP1 DUP2 AND DUP1 DUP4 MSTORE PUSH1 0x1 DUP5 ADD SLOAD SWAP6 DUP4 ADD SWAP6 SWAP1 SWAP6 MSTORE PUSH1 0x2 DUP4 ADD SLOAD DUP3 DUP6 ADD MSTORE PUSH1 0x3 DUP4 ADD SLOAD PUSH1 0x60 DUP4 ADD MSTORE DUP3 DUP7 ADD SLOAD PUSH1 0x80 DUP4 ADD MSTORE PUSH1 0x5 DUP4 ADD SLOAD PUSH1 0xA0 DUP4 ADD MSTORE PUSH1 0x6 DUP4 ADD SLOAD DUP2 AND PUSH1 0xC0 DUP4 ADD MSTORE PUSH1 0x7 SWAP1 SWAP3 ADD SLOAD SWAP1 SWAP2 AND PUSH1 0xE0 DUP3 ADD MSTORE SWAP1 MLOAD PUSH4 0x70A08231 PUSH1 0xE0 SHL DUP2 MSTORE DUP5 SWAP4 DUP5 SWAP4 DUP5 SWAP4 DUP5 SWAP4 DUP5 SWAP4 DUP5 SWAP4 DUP5 SWAP4 DUP5 SWAP4 DUP5 SWAP4 SWAP2 SWAP3 DUP5 SWAP3 SWAP1 SWAP2 PUSH4 0x70A08231 SWAP2 PUSH2 0x2976 SWAP2 ADDRESS SWAP2 ADD PUSH2 0x367E JUMP JUMPDEST PUSH1 0x20 PUSH1 0x40 MLOAD DUP1 DUP4 SUB DUP2 DUP7 DUP1 EXTCODESIZE ISZERO DUP1 ISZERO PUSH2 0x298E JUMPI PUSH1 0x0 DUP1 REVERT JUMPDEST POP GAS STATICCALL ISZERO DUP1 ISZERO PUSH2 0x29A2 JUMPI RETURNDATASIZE PUSH1 0x0 DUP1 RETURNDATACOPY RETURNDATASIZE PUSH1 0x0 REVERT JUMPDEST POP POP POP POP PUSH1 0x40 MLOAD RETURNDATASIZE PUSH1 0x1F NOT PUSH1 0x1F DUP3 ADD AND DUP3 ADD DUP1 PUSH1 0x40 MSTORE POP DUP2 ADD SWAP1 PUSH2 0x29C6 SWAP2 SWAP1 PUSH2 0x359F JUMP JUMPDEST DUP3 MLOAD PUSH1 0x1 PUSH1 0x1 PUSH1 0xA0 SHL SUB AND PUSH1 0x0 SWAP1 DUP2 MSTORE PUSH1 0x9 PUSH1 0x20 MSTORE PUSH1 0x40 DUP2 KECCAK256 SLOAD SWAP2 SWAP3 POP SWAP1 ISZERO PUSH2 0x2A08 JUMPI DUP3 MLOAD PUSH1 0x1 PUSH1 0x1 PUSH1 0xA0 SHL SUB AND PUSH1 0x0 SWAP1 DUP2 MSTORE PUSH1 0x9 PUSH1 0x20 MSTORE PUSH1 0x40 SWAP1 KECCAK256 SLOAD PUSH2 0x2A0B JUMP JUMPDEST PUSH1 0x1 JUMPDEST SWAP1 POP PUSH1 0x0 PUSH2 0x2A1E DUP5 PUSH1 0x20 ADD MLOAD DUP5 DUP5 PUSH2 0x2C87 JUMP JUMPDEST SWAP1 POP PUSH1 0x0 PUSH2 0x2A31 DUP6 PUSH1 0x40 ADD MLOAD DUP6 DUP6 PUSH2 0x2C87 JUMP JUMPDEST SWAP1 POP DUP5 PUSH1 0xA0 ADD MLOAD DUP6 PUSH1 0x0 ADD MLOAD DUP4 DUP4 DUP9 PUSH1 0x20 ADD MLOAD DUP10 PUSH1 0x40 ADD MLOAD DUP11 PUSH1 0x60 ADD MLOAD DUP12 PUSH1 0x80 ADD MLOAD DUP13 PUSH1 0xC0 ADD MLOAD DUP14 PUSH1 0xE0 ADD MLOAD SWAP15 POP SWAP15 POP SWAP15 POP SWAP15 POP SWAP15 POP SWAP15 POP SWAP15 POP SWAP15 POP SWAP15 POP SWAP15 POP POP POP POP POP POP SWAP2 SWAP4 SWAP6 SWAP8 SWAP10 POP SWAP2 SWAP4 SWAP6 SWAP8 SWAP10 JUMP JUMPDEST PUSH1 0x0 DUP2 DUP2 MSTORE PUSH1 0x4 PUSH1 0x20 MSTORE PUSH1 0x40 DUP2 KECCAK256 PUSH1 0x3 DUP2 ADD SLOAD DUP3 SWAP1 ISZERO PUSH2 0x2AA4 JUMPI PUSH1 0x2 PUSH2 0x2AA7 JUMP JUMPDEST PUSH1 0x1 JUMPDEST SWAP1 POP PUSH1 0x0 DUP2 PUSH1 0xFF AND PUSH1 0x1 EQ PUSH2 0x2AC0 JUMPI DUP3 PUSH1 0x1 ADD SLOAD PUSH2 0x2AD4 JUMP JUMPDEST DUP3 PUSH1 0x2 ADD SLOAD DUP4 PUSH1 0x1 ADD SLOAD PUSH2 0x2AD4 SWAP2 SWAP1 PUSH2 0x3C78 JUMP JUMPDEST SWAP1 POP PUSH1 0x0 PUSH2 0x2B04 DUP5 PUSH1 0x3 ADD SLOAD DUP6 PUSH1 0x4 ADD SLOAD DUP5 TIMESTAMP DUP9 PUSH1 0x7 ADD PUSH1 0x0 SWAP1 SLOAD SWAP1 PUSH2 0x100 EXP SWAP1 DIV PUSH1 0x1 PUSH1 0x1 PUSH1 0xA0 SHL SUB AND PUSH2 0x3044 JUMP JUMPDEST SWAP1 POP DUP3 PUSH1 0xFF AND PUSH1 0x2 EQ ISZERO PUSH2 0x2B21 JUMPI PUSH1 0x2 DUP5 ADD SLOAD PUSH2 0x28C0 SWAP1 DUP3 PUSH2 0x3C78 JUMP JUMPDEST SWAP6 SWAP5 POP POP POP POP POP JUMP JUMPDEST PUSH1 0x5 SLOAD DUP2 JUMP JUMPDEST PUSH1 0x0 PUSH2 0x8A5 PUSH1 0xC DUP4 PUSH2 0x3038 JUMP JUMPDEST PUSH1 0x6 SLOAD DUP2 JUMP JUMPDEST PUSH2 0x2B4B PUSH2 0x2F39 JUMP JUMPDEST PUSH1 0x1 PUSH1 0x1 PUSH1 0xA0 SHL SUB AND PUSH2 0x2B5C PUSH2 0x21E2 JUMP JUMPDEST PUSH1 0x1 PUSH1 0x1 PUSH1 0xA0 SHL SUB AND EQ PUSH2 0x2B82 JUMPI PUSH1 0x40 MLOAD PUSH3 0x461BCD PUSH1 0xE5 SHL DUP2 MSTORE PUSH1 0x4 ADD PUSH2 0x8CE SWAP1 PUSH2 0x3961 JUMP JUMPDEST PUSH1 0x1 PUSH1 0x1 PUSH1 0xA0 SHL SUB DUP2 AND PUSH2 0x2BA8 JUMPI PUSH1 0x40 MLOAD PUSH3 0x461BCD PUSH1 0xE5 SHL DUP2 MSTORE PUSH1 0x4 ADD PUSH2 0x8CE SWAP1 PUSH2 0x3843 JUMP JUMPDEST PUSH1 0x0 DUP1 SLOAD PUSH1 0x40 MLOAD PUSH1 0x1 PUSH1 0x1 PUSH1 0xA0 SHL SUB DUP1 DUP6 AND SWAP4 SWAP3 AND SWAP2 PUSH32 0x8BE0079C531659141344CD1FD0A4F28419497F9722A3DAAFE3B4186F6B6457E0 SWAP2 LOG3 PUSH1 0x0 DUP1 SLOAD PUSH1 0x1 PUSH1 0x1 PUSH1 0xA0 SHL SUB NOT AND PUSH1 0x1 PUSH1 0x1 PUSH1 0xA0 SHL SUB SWAP3 SWAP1 SWAP3 AND SWAP2 SWAP1 SWAP2 OR SWAP1 SSTORE JUMP JUMPDEST PUSH2 0x2C0B PUSH2 0x2F39 JUMP JUMPDEST PUSH1 0x1 PUSH1 0x1 PUSH1 0xA0 SHL SUB AND PUSH2 0x2C1C PUSH2 0x21E2 JUMP JUMPDEST PUSH1 0x1 PUSH1 0x1 PUSH1 0xA0 SHL SUB AND EQ PUSH2 0x2C42 JUMPI PUSH1 0x40 MLOAD PUSH3 0x461BCD PUSH1 0xE5 SHL DUP2 MSTORE PUSH1 0x4 ADD PUSH2 0x8CE SWAP1 PUSH2 0x3961 JUMP JUMPDEST PUSH1 0xE SWAP4 SWAP1 SWAP4 SSTORE PUSH1 0xF SWAP2 SWAP1 SWAP2 SSTORE PUSH1 0x10 DUP1 SLOAD PUSH1 0x1 PUSH1 0x1 PUSH1 0xA0 SHL SUB SWAP3 DUP4 AND PUSH1 0x1 PUSH1 0x1 PUSH1 0xA0 SHL SUB NOT SWAP2 DUP3 AND OR SWAP1 SWAP2 SSTORE PUSH1 0x11 DUP1 SLOAD SWAP3 SWAP1 SWAP4 AND SWAP2 AND OR SWAP1 SSTORE JUMP JUMPDEST PUSH1 0x0 PUSH2 0x8A5 DUP3 PUSH2 0x3149 JUMP JUMPDEST PUSH1 0x0 DUP1 DUP1 PUSH1 0x0 NOT DUP6 DUP8 MULMOD DUP7 DUP7 MUL SWAP3 POP DUP3 DUP2 LT SWAP1 DUP4 SWAP1 SUB SUB SWAP1 POP DUP1 PUSH2 0x2CBD JUMPI PUSH1 0x0 DUP5 GT PUSH2 0x2CB2 JUMPI PUSH1 0x0 DUP1 REVERT JUMPDEST POP DUP3 SWAP1 DIV SWAP1 POP PUSH2 0xF86 JUMP JUMPDEST DUP1 DUP5 GT PUSH2 0x2CC9 JUMPI PUSH1 0x0 DUP1 REVERT JUMPDEST PUSH1 0x0 DUP5 DUP7 DUP9 MULMOD PUSH1 0x2 PUSH1 0x1 DUP8 NOT DUP2 ADD DUP9 AND SWAP8 DUP9 SWAP1 DIV PUSH1 0x3 DUP2 MUL DUP4 XOR DUP1 DUP3 MUL DUP5 SUB MUL DUP1 DUP3 MUL DUP5 SUB MUL DUP1 DUP3 MUL DUP5 SUB MUL DUP1 DUP3 MUL DUP5 SUB MUL DUP1 DUP3 MUL DUP5 SUB MUL SWAP1 DUP2 MUL SWAP1 SWAP3 SUB SWAP1 SWAP2 MUL PUSH1 0x0 DUP9 SWAP1 SUB DUP9 SWAP1 DIV SWAP1 SWAP2 ADD DUP6 DUP4 GT SWAP1 SWAP5 SUB SWAP4 SWAP1 SWAP4 MUL SWAP4 SUB SWAP5 SWAP1 SWAP5 DIV SWAP2 SWAP1 SWAP2 OR MUL SWAP5 SWAP4 POP POP POP POP JUMP JUMPDEST PUSH1 0x0 DUP1 DUP6 PUSH1 0x1 PUSH1 0x1 PUSH1 0xA0 SHL SUB AND PUSH4 0x23B872DD DUP7 DUP7 DUP7 PUSH1 0x40 MLOAD PUSH1 0x24 ADD PUSH2 0x2D59 SWAP4 SWAP3 SWAP2 SWAP1 PUSH2 0x3692 JUMP JUMPDEST PUSH1 0x40 MLOAD PUSH1 0x20 DUP2 DUP4 SUB SUB DUP2 MSTORE SWAP1 PUSH1 0x40 MSTORE SWAP1 PUSH1 0xE0 SHL PUSH1 0x20 DUP3 ADD DUP1 MLOAD PUSH1 0x1 PUSH1 0x1 PUSH1 0xE0 SHL SUB DUP4 DUP2 DUP4 AND OR DUP4 MSTORE POP POP POP POP PUSH1 0x40 MLOAD PUSH2 0x2D92 SWAP2 SWAP1 PUSH2 0x3645 JUMP JUMPDEST PUSH1 0x0 PUSH1 0x40 MLOAD DUP1 DUP4 SUB DUP2 PUSH1 0x0 DUP7 GAS CALL SWAP2 POP POP RETURNDATASIZE DUP1 PUSH1 0x0 DUP2 EQ PUSH2 0x2DCF JUMPI PUSH1 0x40 MLOAD SWAP2 POP PUSH1 0x1F NOT PUSH1 0x3F RETURNDATASIZE ADD AND DUP3 ADD PUSH1 0x40 MSTORE RETURNDATASIZE DUP3 MSTORE RETURNDATASIZE PUSH1 0x0 PUSH1 0x20 DUP5 ADD RETURNDATACOPY PUSH2 0x2DD4 JUMP JUMPDEST PUSH1 0x60 SWAP2 POP JUMPDEST POP SWAP2 POP SWAP2 POP DUP2 DUP1 ISZERO PUSH2 0x2DFE JUMPI POP DUP1 MLOAD ISZERO DUP1 PUSH2 0x2DFE JUMPI POP DUP1 DUP1 PUSH1 0x20 ADD SWAP1 MLOAD DUP2 ADD SWAP1 PUSH2 0x2DFE SWAP2 SWAP1 PUSH2 0x34E1 JUMP JUMPDEST PUSH2 0x2E1A JUMPI PUSH1 0x40 MLOAD PUSH3 0x461BCD PUSH1 0xE5 SHL DUP2 MSTORE PUSH1 0x4 ADD PUSH2 0x8CE SWAP1 PUSH2 0x3AEA JUMP JUMPDEST POP POP POP POP POP POP JUMP JUMPDEST PUSH1 0x0 PUSH2 0xF86 DUP4 PUSH1 0x1 PUSH1 0x1 PUSH1 0xA0 SHL SUB DUP5 AND PUSH2 0x314D JUMP JUMPDEST PUSH1 0x0 DUP1 DUP5 PUSH1 0x1 PUSH1 0x1 PUSH1 0xA0 SHL SUB AND PUSH4 0xA9059CBB DUP6 DUP6 PUSH1 0x40 MLOAD PUSH1 0x24 ADD PUSH2 0x2E5C SWAP3 SWAP2 SWAP1 PUSH2 0x36B6 JUMP JUMPDEST PUSH1 0x40 MLOAD PUSH1 0x20 DUP2 DUP4 SUB SUB DUP2 MSTORE SWAP1 PUSH1 0x40 MSTORE SWAP1 PUSH1 0xE0 SHL PUSH1 0x20 DUP3 ADD DUP1 MLOAD PUSH1 0x1 PUSH1 0x1 PUSH1 0xE0 SHL SUB DUP4 DUP2 DUP4 AND OR DUP4 MSTORE POP POP POP POP PUSH1 0x40 MLOAD PUSH2 0x2E95 SWAP2 SWAP1 PUSH2 0x3645 JUMP JUMPDEST PUSH1 0x0 PUSH1 0x40 MLOAD DUP1 DUP4 SUB DUP2 PUSH1 0x0 DUP7 GAS CALL SWAP2 POP POP RETURNDATASIZE DUP1 PUSH1 0x0 DUP2 EQ PUSH2 0x2ED2 JUMPI PUSH1 0x40 MLOAD SWAP2 POP PUSH1 0x1F NOT PUSH1 0x3F RETURNDATASIZE ADD AND DUP3 ADD PUSH1 0x40 MSTORE RETURNDATASIZE DUP3 MSTORE RETURNDATASIZE PUSH1 0x0 PUSH1 0x20 DUP5 ADD RETURNDATACOPY PUSH2 0x2ED7 JUMP JUMPDEST PUSH1 0x60 SWAP2 POP JUMPDEST POP SWAP2 POP SWAP2 POP DUP2 DUP1 ISZERO PUSH2 0x2F01 JUMPI POP DUP1 MLOAD ISZERO DUP1 PUSH2 0x2F01 JUMPI POP DUP1 DUP1 PUSH1 0x20 ADD SWAP1 MLOAD DUP2 ADD SWAP1 PUSH2 0x2F01 SWAP2 SWAP1 PUSH2 0x34E1 JUMP JUMPDEST PUSH2 0x2F1D JUMPI PUSH1 0x40 MLOAD PUSH3 0x461BCD PUSH1 0xE5 SHL DUP2 MSTORE PUSH1 0x4 ADD PUSH2 0x8CE SWAP1 PUSH2 0x37EC JUMP JUMPDEST POP POP POP POP POP JUMP JUMPDEST PUSH1 0x0 PUSH2 0xF86 DUP4 PUSH1 0x1 PUSH1 0x1 PUSH1 0xA0 SHL SUB DUP5 AND PUSH2 0x3165 JUMP JUMPDEST CALLER SWAP1 JUMP JUMPDEST PUSH1 0x0 DUP1 DUP5 PUSH1 0x1 PUSH1 0x1 PUSH1 0xA0 SHL SUB AND PUSH4 0x95EA7B3 DUP6 DUP6 PUSH1 0x40 MLOAD PUSH1 0x24 ADD PUSH2 0x2F62 SWAP3 SWAP2 SWAP1 PUSH2 0x36B6 JUMP JUMPDEST PUSH1 0x40 MLOAD PUSH1 0x20 DUP2 DUP4 SUB SUB DUP2 MSTORE SWAP1 PUSH1 0x40 MSTORE SWAP1 PUSH1 0xE0 SHL PUSH1 0x20 DUP3 ADD DUP1 MLOAD PUSH1 0x1 PUSH1 0x1 PUSH1 0xE0 SHL SUB DUP4 DUP2 DUP4 AND OR DUP4 MSTORE POP POP POP POP PUSH1 0x40 MLOAD PUSH2 0x2F9B SWAP2 SWAP1 PUSH2 0x3645 JUMP JUMPDEST PUSH1 0x0 PUSH1 0x40 MLOAD DUP1 DUP4 SUB DUP2 PUSH1 0x0 DUP7 GAS CALL SWAP2 POP POP RETURNDATASIZE DUP1 PUSH1 0x0 DUP2 EQ PUSH2 0x2FD8 JUMPI PUSH1 0x40 MLOAD SWAP2 POP PUSH1 0x1F NOT PUSH1 0x3F RETURNDATASIZE ADD AND DUP3 ADD PUSH1 0x40 MSTORE RETURNDATASIZE DUP3 MSTORE RETURNDATASIZE PUSH1 0x0 PUSH1 0x20 DUP5 ADD RETURNDATACOPY PUSH2 0x2FDD JUMP JUMPDEST PUSH1 0x60 SWAP2 POP JUMPDEST POP SWAP2 POP SWAP2 POP DUP2 DUP1 ISZERO PUSH2 0x3007 JUMPI POP DUP1 MLOAD ISZERO DUP1 PUSH2 0x3007 JUMPI POP DUP1 DUP1 PUSH1 0x20 ADD SWAP1 MLOAD DUP2 ADD SWAP1 PUSH2 0x3007 SWAP2 SWAP1 PUSH2 0x34E1 JUMP JUMPDEST PUSH2 0x2F1D JUMPI PUSH1 0x40 MLOAD PUSH3 0x461BCD PUSH1 0xE5 SHL DUP2 MSTORE PUSH1 0x4 ADD PUSH2 0x8CE SWAP1 PUSH2 0x38A7 JUMP JUMPDEST PUSH1 0x0 PUSH2 0xF86 DUP4 PUSH1 0x1 PUSH1 0x1 PUSH1 0xA0 SHL SUB DUP5 AND PUSH2 0x31AF JUMP JUMPDEST PUSH1 0x0 PUSH2 0xF86 DUP4 DUP4 PUSH2 0x32CC JUMP JUMPDEST PUSH1 0x0 PUSH1 0x1 PUSH1 0x1 PUSH1 0xA0 SHL SUB DUP3 AND ISZERO DUP1 ISZERO SWAP1 PUSH2 0x30CA JUMPI POP DUP2 PUSH1 0x1 PUSH1 0x1 PUSH1 0xA0 SHL SUB AND PUSH4 0xF968F493 PUSH1 0x40 MLOAD DUP2 PUSH4 0xFFFFFFFF AND PUSH1 0xE0 SHL DUP2 MSTORE PUSH1 0x4 ADD PUSH1 0x20 PUSH1 0x40 MLOAD DUP1 DUP4 SUB DUP2 DUP7 DUP1 EXTCODESIZE ISZERO DUP1 ISZERO PUSH2 0x3092 JUMPI PUSH1 0x0 DUP1 REVERT JUMPDEST POP GAS STATICCALL ISZERO DUP1 ISZERO PUSH2 0x30A6 JUMPI RETURNDATASIZE PUSH1 0x0 DUP1 RETURNDATACOPY RETURNDATASIZE PUSH1 0x0 REVERT JUMPDEST POP POP POP POP PUSH1 0x40 MLOAD RETURNDATASIZE PUSH1 0x1F NOT PUSH1 0x1F DUP3 ADD AND DUP3 ADD DUP1 PUSH1 0x40 MSTORE POP DUP2 ADD SWAP1 PUSH2 0x30CA SWAP2 SWAP1 PUSH2 0x34E1 JUMP JUMPDEST ISZERO PUSH2 0x30D6 JUMPI POP DUP3 PUSH2 0x2B21 JUMP JUMPDEST DUP6 ISZERO DUP1 PUSH2 0x30E2 JUMPI POP DUP5 DUP7 EQ JUMPDEST ISZERO PUSH2 0x30FE JUMPI DUP3 DUP6 LT PUSH2 0x30F5 JUMPI PUSH1 0x0 PUSH2 0x30F7 JUMP JUMPDEST DUP4 JUMPDEST SWAP1 POP PUSH2 0x2B21 JUMP JUMPDEST DUP3 DUP6 DUP2 GT ISZERO PUSH2 0x310A JUMPI POP DUP5 JUMPDEST DUP7 DUP2 LT ISZERO PUSH2 0x3115 JUMPI POP DUP6 JUMPDEST PUSH1 0x0 PUSH2 0x3121 DUP9 DUP4 PUSH2 0x3C78 JUMP JUMPDEST SWAP1 POP PUSH1 0x0 PUSH2 0x312F DUP10 DUP10 PUSH2 0x3C78 JUMP JUMPDEST SWAP1 POP PUSH2 0x313C DUP8 DUP4 DUP4 PUSH2 0x2C87 JUMP JUMPDEST SWAP10 SWAP9 POP POP POP POP POP POP POP POP POP JUMP JUMPDEST SLOAD SWAP1 JUMP JUMPDEST PUSH1 0x0 SWAP1 DUP2 MSTORE PUSH1 0x1 SWAP2 SWAP1 SWAP2 ADD PUSH1 0x20 MSTORE PUSH1 0x40 SWAP1 KECCAK256 SLOAD ISZERO ISZERO SWAP1 JUMP JUMPDEST PUSH1 0x0 PUSH2 0x3171 DUP4 DUP4 PUSH2 0x314D JUMP JUMPDEST PUSH2 0x31A7 JUMPI POP DUP2 SLOAD PUSH1 0x1 DUP2 DUP2 ADD DUP5 SSTORE PUSH1 0x0 DUP5 DUP2 MSTORE PUSH1 0x20 DUP1 DUP3 KECCAK256 SWAP1 SWAP4 ADD DUP5 SWAP1 SSTORE DUP5 SLOAD DUP5 DUP3 MSTORE DUP3 DUP7 ADD SWAP1 SWAP4 MSTORE PUSH1 0x40 SWAP1 KECCAK256 SWAP2 SWAP1 SWAP2 SSTORE PUSH2 0x8A5 JUMP JUMPDEST POP PUSH1 0x0 PUSH2 0x8A5 JUMP JUMPDEST PUSH1 0x0 DUP2 DUP2 MSTORE PUSH1 0x1 DUP4 ADD PUSH1 0x20 MSTORE PUSH1 0x40 DUP2 KECCAK256 SLOAD DUP1 ISZERO PUSH2 0x32C2 JUMPI PUSH1 0x0 PUSH2 0x31D3 PUSH1 0x1 DUP4 PUSH2 0x3C78 JUMP JUMPDEST DUP6 SLOAD SWAP1 SWAP2 POP PUSH1 0x0 SWAP1 PUSH2 0x31E7 SWAP1 PUSH1 0x1 SWAP1 PUSH2 0x3C78 JUMP JUMPDEST SWAP1 POP PUSH1 0x0 DUP7 PUSH1 0x0 ADD DUP3 DUP2 SLOAD DUP2 LT PUSH2 0x320E JUMPI PUSH4 0x4E487B71 PUSH1 0xE0 SHL PUSH1 0x0 MSTORE PUSH1 0x32 PUSH1 0x4 MSTORE PUSH1 0x24 PUSH1 0x0 REVERT JUMPDEST SWAP1 PUSH1 0x0 MSTORE PUSH1 0x20 PUSH1 0x0 KECCAK256 ADD SLOAD SWAP1 POP DUP1 DUP8 PUSH1 0x0 ADD DUP5 DUP2 SLOAD DUP2 LT PUSH2 0x323F JUMPI PUSH4 0x4E487B71 PUSH1 0xE0 SHL PUSH1 0x0 MSTORE PUSH1 0x32 PUSH1 0x4 MSTORE PUSH1 0x24 PUSH1 0x0 REVERT JUMPDEST PUSH1 0x0 SWAP2 DUP3 MSTORE PUSH1 0x20 SWAP1 SWAP2 KECCAK256 ADD SSTORE PUSH2 0x3256 DUP4 PUSH1 0x1 PUSH2 0x3C40 JUMP JUMPDEST PUSH1 0x0 DUP3 DUP2 MSTORE PUSH1 0x1 DUP10 ADD PUSH1 0x20 MSTORE PUSH1 0x40 SWAP1 KECCAK256 SSTORE DUP7 SLOAD DUP8 SWAP1 DUP1 PUSH2 0x3286 JUMPI PUSH4 0x4E487B71 PUSH1 0xE0 SHL PUSH1 0x0 MSTORE PUSH1 0x31 PUSH1 0x4 MSTORE PUSH1 0x24 PUSH1 0x0 REVERT JUMPDEST PUSH1 0x1 SWAP1 SUB DUP2 DUP2 SWAP1 PUSH1 0x0 MSTORE PUSH1 0x20 PUSH1 0x0 KECCAK256 ADD PUSH1 0x0 SWAP1 SSTORE SWAP1 SSTORE DUP7 PUSH1 0x1 ADD PUSH1 0x0 DUP8 DUP2 MSTORE PUSH1 0x20 ADD SWAP1 DUP2 MSTORE PUSH1 0x20 ADD PUSH1 0x0 KECCAK256 PUSH1 0x0 SWAP1 SSTORE PUSH1 0x1 SWAP5 POP POP POP POP POP PUSH2 0x8A5 JUMP JUMPDEST PUSH1 0x0 SWAP2 POP POP PUSH2 0x8A5 JUMP JUMPDEST DUP2 SLOAD PUSH1 0x0 SWAP1 DUP3 LT PUSH2 0x32EF JUMPI PUSH1 0x40 MLOAD PUSH3 0x461BCD PUSH1 0xE5 SHL DUP2 MSTORE PUSH1 0x4 ADD PUSH2 0x8CE SWAP1 PUSH2 0x377F JUMP JUMPDEST DUP3 PUSH1 0x0 ADD DUP3 DUP2 SLOAD DUP2 LT PUSH2 0x21CF JUMPI PUSH4 0x4E487B71 PUSH1 0xE0 SHL PUSH1 0x0 MSTORE PUSH1 0x32 PUSH1 0x4 MSTORE PUSH1 0x24 PUSH1 0x0 REVERT JUMPDEST PUSH1 0x40 MLOAD DUP1 PUSH2 0x100 ADD PUSH1 0x40 MSTORE DUP1 PUSH1 0x0 PUSH1 0x1 PUSH1 0x1 PUSH1 0xA0 SHL SUB AND DUP2 MSTORE PUSH1 0x20 ADD PUSH1 0x0 DUP2 MSTORE PUSH1 0x20 ADD PUSH1 0x0 DUP2 MSTORE PUSH1 0x20 ADD PUSH1 0x0 DUP2 MSTORE PUSH1 0x20 ADD PUSH1 0x0 DUP2 MSTORE PUSH1 0x20 ADD PUSH1 0x0 DUP2 MSTORE PUSH1 0x20 ADD PUSH1 0x0 PUSH1 0x1 PUSH1 0x1 PUSH1 0xA0 SHL SUB AND DUP2 MSTORE PUSH1 0x20 ADD PUSH1 0x0 PUSH1 0x1 PUSH1 0x1 PUSH1 0xA0 SHL SUB AND DUP2 MSTORE POP SWAP1 JUMP JUMPDEST PUSH1 0x0 PUSH1 0x20 DUP3 DUP5 SUB SLT ISZERO PUSH2 0x3383 JUMPI DUP1 DUP2 REVERT JUMPDEST DUP2 CALLDATALOAD PUSH2 0xF86 DUP2 PUSH2 0x3CC0 JUMP JUMPDEST PUSH1 0x0 DUP1 PUSH1 0x40 DUP4 DUP6 SUB SLT ISZERO PUSH2 0x33A0 JUMPI DUP1 DUP2 REVERT JUMPDEST DUP3 CALLDATALOAD PUSH2 0x33AB DUP2 PUSH2 0x3CC0 JUMP JUMPDEST SWAP2 POP PUSH1 0x20 DUP4 ADD CALLDATALOAD PUSH2 0x33BB DUP2 PUSH2 0x3CC0 JUMP JUMPDEST DUP1 SWAP2 POP POP SWAP3 POP SWAP3 SWAP1 POP JUMP JUMPDEST PUSH1 0x0 DUP1 PUSH1 0x0 PUSH1 0x60 DUP5 DUP7 SUB SLT ISZERO PUSH2 0x33DA JUMPI DUP1 DUP2 REVERT JUMPDEST DUP4 CALLDATALOAD PUSH2 0x33E5 DUP2 PUSH2 0x3CC0 JUMP JUMPDEST SWAP3 POP PUSH1 0x20 DUP5 ADD CALLDATALOAD PUSH2 0x33F5 DUP2 PUSH2 0x3CC0 JUMP JUMPDEST SWAP3 SWAP6 SWAP3 SWAP5 POP POP POP PUSH1 0x40 SWAP2 SWAP1 SWAP2 ADD CALLDATALOAD SWAP1 JUMP JUMPDEST PUSH1 0x0 DUP1 PUSH1 0x0 PUSH1 0x40 DUP5 DUP7 SUB SLT ISZERO PUSH2 0x341A JUMPI DUP3 DUP4 REVERT JUMPDEST DUP4 CALLDATALOAD PUSH2 0x3425 DUP2 PUSH2 0x3CC0 JUMP JUMPDEST SWAP3 POP PUSH1 0x20 DUP5 ADD CALLDATALOAD PUSH8 0xFFFFFFFFFFFFFFFF DUP1 DUP3 GT ISZERO PUSH2 0x3441 JUMPI DUP4 DUP5 REVERT JUMPDEST DUP2 DUP7 ADD SWAP2 POP DUP7 PUSH1 0x1F DUP4 ADD SLT PUSH2 0x3454 JUMPI DUP4 DUP5 REVERT JUMPDEST DUP2 CALLDATALOAD DUP2 DUP2 GT ISZERO PUSH2 0x3462 JUMPI DUP5 DUP6 REVERT JUMPDEST DUP8 PUSH1 0x20 PUSH1 0xA0 DUP4 MUL DUP6 ADD ADD GT ISZERO PUSH2 0x3476 JUMPI DUP5 DUP6 REVERT JUMPDEST PUSH1 0x20 DUP4 ADD SWAP5 POP DUP1 SWAP4 POP POP POP POP SWAP3 POP SWAP3 POP SWAP3 JUMP JUMPDEST PUSH1 0x0 DUP1 PUSH1 0x40 DUP4 DUP6 SUB SLT ISZERO PUSH2 0x349B JUMPI DUP2 DUP3 REVERT JUMPDEST DUP3 CALLDATALOAD PUSH2 0x34A6 DUP2 PUSH2 0x3CC0 JUMP JUMPDEST SWAP2 POP PUSH1 0x20 DUP4 ADD CALLDATALOAD PUSH2 0x33BB DUP2 PUSH2 0x3CD8 JUMP JUMPDEST PUSH1 0x0 DUP1 PUSH1 0x40 DUP4 DUP6 SUB SLT ISZERO PUSH2 0x34C8 JUMPI DUP2 DUP3 REVERT JUMPDEST DUP3 CALLDATALOAD PUSH2 0x34D3 DUP2 PUSH2 0x3CC0 JUMP JUMPDEST SWAP5 PUSH1 0x20 SWAP4 SWAP1 SWAP4 ADD CALLDATALOAD SWAP4 POP POP POP JUMP JUMPDEST PUSH1 0x0 PUSH1 0x20 DUP3 DUP5 SUB SLT ISZERO PUSH2 0x34F2 JUMPI DUP1 DUP2 REVERT JUMPDEST DUP2 MLOAD PUSH2 0xF86 DUP2 PUSH2 0x3CD8 JUMP JUMPDEST PUSH1 0x0 PUSH1 0xA0 DUP3 DUP5 SUB SLT ISZERO PUSH2 0x350E JUMPI DUP1 DUP2 REVERT JUMPDEST PUSH1 0x40 MLOAD PUSH1 0xA0 DUP2 ADD DUP2 DUP2 LT PUSH8 0xFFFFFFFFFFFFFFFF DUP3 GT OR ISZERO PUSH2 0x353D JUMPI PUSH4 0x4E487B71 PUSH1 0xE0 SHL DUP4 MSTORE PUSH1 0x41 PUSH1 0x4 MSTORE PUSH1 0x24 DUP4 REVERT JUMPDEST PUSH1 0x40 MSTORE DUP3 CALLDATALOAD PUSH2 0x354B DUP2 PUSH2 0x3CC0 JUMP JUMPDEST DUP1 DUP3 MSTORE POP PUSH1 0x20 DUP4 ADD CALLDATALOAD PUSH1 0x20 DUP3 ADD MSTORE PUSH1 0x40 DUP4 ADD CALLDATALOAD PUSH1 0x40 DUP3 ADD MSTORE PUSH1 0x60 DUP4 ADD CALLDATALOAD PUSH1 0x60 DUP3 ADD MSTORE PUSH1 0x80 DUP4 ADD CALLDATALOAD PUSH2 0x357B DUP2 PUSH2 0x3CC0 JUMP JUMPDEST PUSH1 0x80 DUP3 ADD MSTORE SWAP4 SWAP3 POP POP POP JUMP JUMPDEST PUSH1 0x0 PUSH1 0x20 DUP3 DUP5 SUB SLT ISZERO PUSH2 0x3598 JUMPI DUP1 DUP2 REVERT JUMPDEST POP CALLDATALOAD SWAP2 SWAP1 POP JUMP JUMPDEST PUSH1 0x0 PUSH1 0x20 DUP3 DUP5 SUB SLT ISZERO PUSH2 0x35B0 JUMPI DUP1 DUP2 REVERT JUMPDEST POP MLOAD SWAP2 SWAP1 POP JUMP JUMPDEST PUSH1 0x0 DUP1 PUSH1 0x40 DUP4 DUP6 SUB SLT ISZERO PUSH2 0x35C9 JUMPI DUP2 DUP3 REVERT JUMPDEST DUP3 CALLDATALOAD SWAP2 POP PUSH1 0x20 DUP4 ADD CALLDATALOAD PUSH2 0x33BB DUP2 PUSH2 0x3CC0 JUMP JUMPDEST PUSH1 0x0 DUP1 PUSH1 0x40 DUP4 DUP6 SUB SLT ISZERO PUSH2 0x35ED JUMPI DUP2 DUP3 REVERT JUMPDEST POP POP DUP1 CALLDATALOAD SWAP3 PUSH1 0x20 SWAP1 SWAP2 ADD CALLDATALOAD SWAP2 POP JUMP JUMPDEST PUSH1 0x0 DUP1 PUSH1 0x0 DUP1 PUSH1 0x80 DUP6 DUP8 SUB SLT ISZERO PUSH2 0x3611 JUMPI DUP2 DUP3 REVERT JUMPDEST DUP5 CALLDATALOAD SWAP4 POP PUSH1 0x20 DUP6 ADD CALLDATALOAD SWAP3 POP PUSH1 0x40 DUP6 ADD CALLDATALOAD PUSH2 0x362A DUP2 PUSH2 0x3CC0 JUMP JUMPDEST SWAP2 POP PUSH1 0x60 DUP6 ADD CALLDATALOAD PUSH2 0x363A DUP2 PUSH2 0x3CC0 JUMP JUMPDEST SWAP4 SWAP7 SWAP3 SWAP6 POP SWAP1 SWAP4 POP POP JUMP JUMPDEST PUSH1 0x0 DUP3 MLOAD DUP2 JUMPDEST DUP2 DUP2 LT ISZERO PUSH2 0x3665 JUMPI PUSH1 0x20 DUP2 DUP7 ADD DUP2 ADD MLOAD DUP6 DUP4 ADD MSTORE ADD PUSH2 0x364B JUMP JUMPDEST DUP2 DUP2 GT ISZERO PUSH2 0x3673 JUMPI DUP3 DUP3 DUP6 ADD MSTORE JUMPDEST POP SWAP2 SWAP1 SWAP2 ADD SWAP3 SWAP2 POP POP JUMP JUMPDEST PUSH1 0x1 PUSH1 0x1 PUSH1 0xA0 SHL SUB SWAP2 SWAP1 SWAP2 AND DUP2 MSTORE PUSH1 0x20 ADD SWAP1 JUMP JUMPDEST PUSH1 0x1 PUSH1 0x1 PUSH1 0xA0 SHL SUB SWAP4 DUP5 AND DUP2 MSTORE SWAP2 SWAP1 SWAP3 AND PUSH1 0x20 DUP3 ADD MSTORE PUSH1 0x40 DUP2 ADD SWAP2 SWAP1 SWAP2 MSTORE PUSH1 0x60 ADD SWAP1 JUMP JUMPDEST PUSH1 0x1 PUSH1 0x1 PUSH1 0xA0 SHL SUB SWAP3 SWAP1 SWAP3 AND DUP3 MSTORE PUSH1 0x20 DUP3 ADD MSTORE PUSH1 0x40 ADD SWAP1 JUMP JUMPDEST PUSH1 0x1 PUSH1 0x1 PUSH1 0xA0 SHL SUB SWAP9 DUP10 AND DUP2 MSTORE PUSH1 0x20 DUP2 ADD SWAP8 SWAP1 SWAP8 MSTORE PUSH1 0x40 DUP8 ADD SWAP6 SWAP1 SWAP6 MSTORE PUSH1 0x60 DUP7 ADD SWAP4 SWAP1 SWAP4 MSTORE PUSH1 0x80 DUP6 ADD SWAP2 SWAP1 SWAP2 MSTORE PUSH1 0xA0 DUP5 ADD MSTORE DUP4 AND PUSH1 0xC0 DUP4 ADD MSTORE SWAP1 SWAP2 AND PUSH1 0xE0 DUP3 ADD MSTORE PUSH2 0x100 ADD SWAP1 JUMP JUMPDEST PUSH1 0x1 PUSH1 0x1 PUSH1 0xA0 SHL SUB SWAP11 DUP12 AND DUP2 MSTORE PUSH1 0x20 DUP2 ADD SWAP10 SWAP1 SWAP10 MSTORE PUSH1 0x40 DUP10 ADD SWAP8 SWAP1 SWAP8 MSTORE PUSH1 0x60 DUP9 ADD SWAP6 SWAP1 SWAP6 MSTORE PUSH1 0x80 DUP8 ADD SWAP4 SWAP1 SWAP4 MSTORE PUSH1 0xA0 DUP7 ADD SWAP2 SWAP1 SWAP2 MSTORE DUP6 AND PUSH1 0xC0 DUP6 ADD MSTORE SWAP1 SWAP4 AND PUSH1 0xE0 DUP4 ADD MSTORE PUSH2 0x100 DUP3 ADD SWAP3 SWAP1 SWAP3 MSTORE PUSH2 0x120 DUP2 ADD SWAP2 SWAP1 SWAP2 MSTORE PUSH2 0x140 ADD SWAP1 JUMP JUMPDEST SWAP1 ISZERO ISZERO DUP2 MSTORE PUSH1 0x20 ADD SWAP1 JUMP JUMPDEST PUSH1 0x20 DUP1 DUP3 MSTORE PUSH1 0x22 SWAP1 DUP3 ADD MSTORE PUSH32 0x456E756D657261626C655365743A20696E646578206F7574206F6620626F756E PUSH1 0x40 DUP3 ADD MSTORE PUSH2 0x6473 PUSH1 0xF0 SHL PUSH1 0x60 DUP3 ADD MSTORE PUSH1 0x80 ADD SWAP1 JUMP JUMPDEST PUSH1 0x20 DUP1 DUP3 MSTORE PUSH1 0x11 SWAP1 DUP3 ADD MSTORE PUSH17 0x1512535154D51053540812539590531251 PUSH1 0x7A SHL PUSH1 0x40 DUP3 ADD MSTORE PUSH1 0x60 ADD SWAP1 JUMP JUMPDEST PUSH1 0x20 DUP1 DUP3 MSTORE PUSH1 0x1F SWAP1 DUP3 ADD MSTORE PUSH32 0x5472616E7366657248656C7065723A205452414E534645525F4641494C454400 PUSH1 0x40 DUP3 ADD MSTORE PUSH1 0x60 ADD SWAP1 JUMP JUMPDEST PUSH1 0x20 DUP1 DUP3 MSTORE PUSH1 0x6 SWAP1 DUP3 ADD MSTORE PUSH6 0x105353D55395 PUSH1 0xD2 SHL PUSH1 0x40 DUP3 ADD MSTORE PUSH1 0x60 ADD SWAP1 JUMP JUMPDEST PUSH1 0x20 DUP1 DUP3 MSTORE PUSH1 0x26 SWAP1 DUP3 ADD MSTORE PUSH32 0x4F776E61626C653A206E6577206F776E657220697320746865207A65726F2061 PUSH1 0x40 DUP3 ADD MSTORE PUSH6 0x646472657373 PUSH1 0xD0 SHL PUSH1 0x60 DUP3 ADD MSTORE PUSH1 0x80 ADD SWAP1 JUMP JUMPDEST PUSH1 0x20 DUP1 DUP3 MSTORE PUSH1 0x4 SWAP1 DUP3 ADD MSTORE PUSH4 0x54494D45 PUSH1 0xE0 SHL PUSH1 0x40 DUP3 ADD MSTORE PUSH1 0x60 ADD SWAP1 JUMP JUMPDEST PUSH1 0x20 DUP1 DUP3 MSTORE PUSH1 0x1E SWAP1 DUP3 ADD MSTORE PUSH32 0x5472616E7366657248656C7065723A20415050524F56455F4641494C45440000 PUSH1 0x40 DUP3 ADD MSTORE PUSH1 0x60 ADD SWAP1 JUMP JUMPDEST PUSH1 0x20 DUP1 DUP3 MSTORE PUSH1 0x7 SWAP1 DUP3 ADD MSTORE PUSH7 0x1393D50814D155 PUSH1 0xCA SHL PUSH1 0x40 DUP3 ADD MSTORE PUSH1 0x60 ADD SWAP1 JUMP JUMPDEST PUSH1 0x20 DUP1 DUP3 MSTORE PUSH1 0x5 SWAP1 DUP3 ADD MSTORE PUSH5 0x27ABA722A9 PUSH1 0xD9 SHL PUSH1 0x40 DUP3 ADD MSTORE PUSH1 0x60 ADD SWAP1 JUMP JUMPDEST PUSH1 0x20 DUP1 DUP3 MSTORE PUSH1 0x4 SWAP1 DUP3 ADD MSTORE PUSH4 0x14105251 PUSH1 0xE2 SHL PUSH1 0x40 DUP3 ADD MSTORE PUSH1 0x60 ADD SWAP1 JUMP JUMPDEST PUSH1 0x20 DUP1 DUP3 MSTORE PUSH1 0xB SWAP1 DUP3 ADD MSTORE PUSH11 0x1352538811115413D4D255 PUSH1 0xAA SHL PUSH1 0x40 DUP3 ADD MSTORE PUSH1 0x60 ADD SWAP1 JUMP JUMPDEST PUSH1 0x20 DUP1 DUP3 MSTORE DUP2 DUP2 ADD MSTORE PUSH32 0x4F776E61626C653A2063616C6C6572206973206E6F7420746865206F776E6572 PUSH1 0x40 DUP3 ADD MSTORE PUSH1 0x60 ADD SWAP1 JUMP JUMPDEST PUSH1 0x20 DUP1 DUP3 MSTORE PUSH1 0x6 SWAP1 DUP3 ADD MSTORE PUSH6 0x1411549253D1 PUSH1 0xD2 SHL PUSH1 0x40 DUP3 ADD MSTORE PUSH1 0x60 ADD SWAP1 JUMP JUMPDEST PUSH1 0x20 DUP1 DUP3 MSTORE PUSH1 0x9 SWAP1 DUP3 ADD MSTORE PUSH9 0x4E4F20504152414D53 PUSH1 0xB8 SHL PUSH1 0x40 DUP3 ADD MSTORE PUSH1 0x60 ADD SWAP1 JUMP JUMPDEST PUSH1 0x20 DUP1 DUP3 MSTORE PUSH1 0x3 SWAP1 DUP3 ADD MSTORE PUSH3 0x115391 PUSH1 0xEA SHL PUSH1 0x40 DUP3 ADD MSTORE PUSH1 0x60 ADD SWAP1 JUMP JUMPDEST PUSH1 0x20 DUP1 DUP3 MSTORE PUSH1 0xB SWAP1 DUP3 ADD MSTORE PUSH11 0x2627A1A5902A2CA8229019 PUSH1 0xA9 SHL PUSH1 0x40 DUP3 ADD MSTORE PUSH1 0x60 ADD SWAP1 JUMP JUMPDEST PUSH1 0x20 DUP1 DUP3 MSTORE PUSH1 0xB SWAP1 DUP3 ADD MSTORE PUSH11 0x119151481393D508135155 PUSH1 0xAA SHL PUSH1 0x40 DUP3 ADD MSTORE PUSH1 0x60 ADD SWAP1 JUMP JUMPDEST PUSH1 0x20 DUP1 DUP3 MSTORE PUSH1 0x4 SWAP1 DUP3 ADD MSTORE PUSH4 0x29A2A623 PUSH1 0xE1 SHL PUSH1 0x40 DUP3 ADD MSTORE PUSH1 0x60 ADD SWAP1 JUMP JUMPDEST PUSH1 0x20 DUP1 DUP3 MSTORE PUSH1 0xB SWAP1 DUP3 ADD MSTORE PUSH11 0x16915493C8105353D55395 PUSH1 0xAA SHL PUSH1 0x40 DUP3 ADD MSTORE PUSH1 0x60 ADD SWAP1 JUMP JUMPDEST PUSH1 0x20 DUP1 DUP3 MSTORE PUSH1 0x6 SWAP1 DUP3 ADD MSTORE PUSH6 0x534841524553 PUSH1 0xD0 SHL PUSH1 0x40 DUP3 ADD MSTORE PUSH1 0x60 ADD SWAP1 JUMP JUMPDEST PUSH1 0x20 DUP1 DUP3 MSTORE PUSH1 0xE SWAP1 DUP3 ADD MSTORE PUSH14 0x16915493C815D2551211149055D3 PUSH1 0x92 SHL PUSH1 0x40 DUP3 ADD MSTORE PUSH1 0x60 ADD SWAP1 JUMP JUMPDEST PUSH1 0x20 DUP1 DUP3 MSTORE PUSH1 0x5 SWAP1 DUP3 ADD MSTORE PUSH5 0x20A226A4A7 PUSH1 0xD9 SHL PUSH1 0x40 DUP3 ADD MSTORE PUSH1 0x60 ADD SWAP1 JUMP JUMPDEST PUSH1 0x20 DUP1 DUP3 MSTORE PUSH1 0x24 SWAP1 DUP3 ADD MSTORE PUSH32 0x5472616E7366657248656C7065723A205452414E534645525F46524F4D5F4641 PUSH1 0x40 DUP3 ADD MSTORE PUSH4 0x12531151 PUSH1 0xE2 SHL PUSH1 0x60 DUP3 ADD MSTORE PUSH1 0x80 ADD SWAP1 JUMP JUMPDEST PUSH1 0x20 DUP1 DUP3 MSTORE PUSH1 0x1F SWAP1 DUP3 ADD MSTORE PUSH32 0x5265656E7472616E637947756172643A207265656E7472616E742063616C6C00 PUSH1 0x40 DUP3 ADD MSTORE PUSH1 0x60 ADD SWAP1 JUMP JUMPDEST SWAP1 DUP2 MSTORE PUSH1 0x20 ADD SWAP1 JUMP JUMPDEST SWAP6 DUP7 MSTORE PUSH1 0x1 PUSH1 0x1 PUSH1 0xA0 SHL SUB SWAP5 DUP6 AND PUSH1 0x20 DUP8 ADD MSTORE SWAP3 SWAP1 SWAP4 AND PUSH1 0x40 DUP6 ADD MSTORE PUSH1 0x60 DUP5 ADD MSTORE PUSH1 0x80 DUP4 ADD SWAP2 SWAP1 SWAP2 MSTORE PUSH1 0xA0 DUP3 ADD MSTORE PUSH1 0xC0 ADD SWAP1 JUMP JUMPDEST SWAP10 DUP11 MSTORE PUSH1 0x1 PUSH1 0x1 PUSH1 0xA0 SHL SUB SWAP9 DUP10 AND PUSH1 0x20 DUP12 ADD MSTORE PUSH1 0x40 DUP11 ADD SWAP8 SWAP1 SWAP8 MSTORE PUSH1 0x60 DUP10 ADD SWAP6 SWAP1 SWAP6 MSTORE PUSH1 0x80 DUP9 ADD SWAP4 SWAP1 SWAP4 MSTORE PUSH1 0xA0 DUP8 ADD SWAP2 SWAP1 SWAP2 MSTORE PUSH1 0xC0 DUP7 ADD MSTORE PUSH1 0xE0 DUP6 ADD MSTORE DUP3 AND PUSH2 0x100 DUP5 ADD MSTORE AND PUSH2 0x120 DUP3 ADD MSTORE PUSH2 0x140 ADD SWAP1 JUMP JUMPDEST SWAP2 DUP3 MSTORE PUSH1 0x20 DUP3 ADD MSTORE PUSH1 0x40 ADD SWAP1 JUMP JUMPDEST SWAP4 DUP5 MSTORE PUSH1 0x20 DUP5 ADD SWAP3 SWAP1 SWAP3 MSTORE PUSH1 0x1 PUSH1 0x1 PUSH1 0xA0 SHL SUB SWAP1 DUP2 AND PUSH1 0x40 DUP5 ADD MSTORE AND PUSH1 0x60 DUP3 ADD MSTORE PUSH1 0x80 ADD SWAP1 JUMP JUMPDEST SWAP3 DUP4 MSTORE PUSH1 0x20 DUP4 ADD SWAP2 SWAP1 SWAP2 MSTORE PUSH1 0x40 DUP3 ADD MSTORE PUSH1 0x60 ADD SWAP1 JUMP JUMPDEST PUSH1 0x0 DUP3 NOT DUP3 GT ISZERO PUSH2 0x3C53 JUMPI PUSH2 0x3C53 PUSH2 0x3CAA JUMP JUMPDEST POP ADD SWAP1 JUMP JUMPDEST PUSH1 0x0 DUP3 PUSH2 0x3C73 JUMPI PUSH4 0x4E487B71 PUSH1 0xE0 SHL DUP2 MSTORE PUSH1 0x12 PUSH1 0x4 MSTORE PUSH1 0x24 DUP2 REVERT JUMPDEST POP DIV SWAP1 JUMP JUMPDEST PUSH1 0x0 DUP3 DUP3 LT ISZERO PUSH2 0x3C8A JUMPI PUSH2 0x3C8A PUSH2 0x3CAA JUMP JUMPDEST POP SUB SWAP1 JUMP JUMPDEST PUSH1 0x0 PUSH1 0x0 NOT DUP3 EQ ISZERO PUSH2 0x3CA3 JUMPI PUSH2 0x3CA3 PUSH2 0x3CAA JUMP JUMPDEST POP PUSH1 0x1 ADD SWAP1 JUMP JUMPDEST PUSH4 0x4E487B71 PUSH1 0xE0 SHL PUSH1 0x0 MSTORE PUSH1 0x11 PUSH1 0x4 MSTORE PUSH1 0x24 PUSH1 0x0 REVERT JUMPDEST PUSH1 0x1 PUSH1 0x1 PUSH1 0xA0 SHL SUB DUP2 AND DUP2 EQ PUSH2 0x3CD5 JUMPI PUSH1 0x0 DUP1 REVERT JUMPDEST POP JUMP JUMPDEST DUP1 ISZERO ISZERO DUP2 EQ PUSH2 0x3CD5 JUMPI PUSH1 0x0 DUP1 REVERT INVALID LOG2 PUSH5 0x6970667358 0x22 SLT KECCAK256 0xDA 0xA7 0xB4 0xE 0xAB BYTE 0x4E 0xD3 PUSH11 0xD712943E10F58739CDFEB4 LOG3 JUMPDEST 0x4B 0x4B 0x1F JUMPDEST MSTORE ORIGIN 0xFC SWAP8 0xA8 0x4E PUSH5 0x736F6C6343 STOP ADDMOD STOP STOP CALLER "
		},
		"gasEstimates": {
			"creation": {
				"codeDepositCost": "3128800",
				"executionCost": "infinite",
				"totalCost": "infinite"
			},
			"external": {
				"BLACKLIST()": "1203",
				"FEES()": "3646",
				"LOCKS(uint256)": "7158",
				"MIGRATOR()": "1138",
				"MINIMUM_DEPOSIT()": "1138",
				"NONCE()": "1094",
				"SHARES(address)": "1357",
				"adminSetWhitelister(address,bool)": "infinite",
				"convertSharesToTokens(address,uint256)": "infinite",
				"convertTokensToShares(address,uint256)": "infinite",
				"editZeroFeeWhitelist(address,bool)": "infinite",
				"getLock(uint256)": "infinite",
				"getNumLockedTokens()": "1148",
				"getTokenAtIndex(uint256)": "2990",
				"getTokenLockIDAtIndex(address,uint256)": "2294",
				"getTokenLocksLength(address)": "1353",
				"getTokenWhitelisterAtIndex(uint256)": "3032",
				"getTokenWhitelisterLength()": "1150",
				"getTokenWhitelisterStatus(address)": "infinite",
				"getUserLockIDForTokenAtIndex(address,address,uint256)": "infinite",
				"getUserLockedTokenAtIndex(address,uint256)": "infinite",
				"getUserLockedTokensLength(address)": "infinite",
				"getUserLocksForTokenLength(address,address)": "infinite",
				"getWithdrawableShares(uint256)": "infinite",
				"getWithdrawableTokens(uint256)": "infinite",
				"getZeroFeeTokenAtIndex(uint256)": "3078",
				"getZeroFeeTokensLength()": "1172",
				"incrementLock(uint256,uint256)": "infinite",
				"lock(address,(address,uint256,uint256,uint256,address)[])": "infinite",
				"migrate(uint256,uint256)": "infinite",
				"owner()": "1203",
				"payForFreeTokenLocks(address)": "infinite",
				"relock(uint256,uint256)": "infinite",
				"renounceOwnership()": "24367",
				"revokeCondition(uint256)": "63696",
				"setBlacklistContract(address)": "22229",
				"setFees(uint256,uint256,address,address)": "infinite",
				"setMigrator(address)": "22163",
				"splitLock(uint256,uint256)": "infinite",
				"testCondition(address)": "infinite",
				"tokenOnZeroFeeWhitelist(address)": "infinite",
				"transferLockOwnership(uint256,address)": "infinite",
				"transferOwnership(address)": "24616",
				"withdraw(uint256,uint256)": "infinite"
			}
		},
		"methodIdentifiers": {
			"BLACKLIST()": "c8b0cf68",
			"FEES()": "8b7b23ee",
			"LOCKS(uint256)": "cf0d5af3",
			"MIGRATOR()": "9ecd7472",
			"MINIMUM_DEPOSIT()": "f19451d8",
			"NONCE()": "e091dd1a",
			"SHARES(address)": "c368803a",
			"adminSetWhitelister(address,bool)": "86de2fcb",
			"convertSharesToTokens(address,uint256)": "0cdebc9e",
			"convertTokensToShares(address,uint256)": "ca5cc0c2",
			"editZeroFeeWhitelist(address,bool)": "b4540fa7",
			"getLock(uint256)": "d68f4dd1",
			"getNumLockedTokens()": "783451e8",
			"getTokenAtIndex(uint256)": "97988dce",
			"getTokenLockIDAtIndex(address,uint256)": "8ba74f17",
			"getTokenLocksLength(address)": "d060e175",
			"getTokenWhitelisterAtIndex(uint256)": "e52c4b7a",
			"getTokenWhitelisterLength()": "00623ae3",
			"getTokenWhitelisterStatus(address)": "cf6dde4a",
			"getUserLockIDForTokenAtIndex(address,address,uint256)": "1c30ffb1",
			"getUserLockedTokenAtIndex(address,uint256)": "903df806",
			"getUserLockedTokensLength(address)": "a6dcb8de",
			"getUserLocksForTokenLength(address,address)": "bb5ee001",
			"getWithdrawableShares(uint256)": "e04ab139",
			"getWithdrawableTokens(uint256)": "d323cdbf",
			"getZeroFeeTokenAtIndex(uint256)": "b1d7655c",
			"getZeroFeeTokensLength()": "03e1cdf4",
			"incrementLock(uint256,uint256)": "3717dee7",
			"lock(address,(address,uint256,uint256,uint256,address)[])": "13ef2b1b",
			"migrate(uint256,uint256)": "3e54bacb",
			"owner()": "8da5cb5b",
			"payForFreeTokenLocks(address)": "a34df14f",
			"relock(uint256,uint256)": "b2fb30cb",
			"renounceOwnership()": "715018a6",
			"revokeCondition(uint256)": "5a5b8d9e",
			"setBlacklistContract(address)": "741af17e",
			"setFees(uint256,uint256,address,address)": "fc0633d0",
			"setMigrator(address)": "23cf3118",
			"splitLock(uint256,uint256)": "6588fc03",
			"testCondition(address)": "675187a3",
			"tokenOnZeroFeeWhitelist(address)": "1d7065db",
			"transferLockOwnership(uint256,address)": "5a04fb69",
			"transferOwnership(address)": "f2fde38b",
			"withdraw(uint256,uint256)": "441a3e70"
		}
	},
	"abi": [
		{
			"inputs": [
				{
					"internalType": "contract IUnicryptAdmin",
					"name": "_uncxAdmins",
					"type": "address"
				}
			],
			"stateMutability": "nonpayable",
			"type": "constructor"
		},
		{
			"anonymous": false,
			"inputs": [
				{
					"indexed": true,
					"internalType": "address",
					"name": "previousOwner",
					"type": "address"
				},
				{
					"indexed": true,
					"internalType": "address",
					"name": "newOwner",
					"type": "address"
				}
			],
			"name": "OwnershipTransferred",
			"type": "event"
		},
		{
			"anonymous": false,
			"inputs": [
				{
					"indexed": false,
					"internalType": "uint256",
					"name": "lockID",
					"type": "uint256"
				},
				{
					"indexed": false,
					"internalType": "address",
					"name": "token",
					"type": "address"
				},
				{
					"indexed": false,
					"internalType": "address",
					"name": "owner",
					"type": "address"
				},
				{
					"indexed": false,
					"internalType": "uint256",
					"name": "amountInTokens",
					"type": "uint256"
				},
				{
					"indexed": false,
					"internalType": "uint256",
					"name": "startEmission",
					"type": "uint256"
				},
				{
					"indexed": false,
					"internalType": "uint256",
					"name": "endEmission",
					"type": "uint256"
				}
			],
			"name": "onLock",
			"type": "event"
		},
		{
			"anonymous": false,
			"inputs": [
				{
					"indexed": false,
					"internalType": "uint256",
					"name": "lockID",
					"type": "uint256"
				},
				{
					"indexed": false,
					"internalType": "uint256",
					"name": "amountInTokens",
					"type": "uint256"
				}
			],
			"name": "onMigrate",
			"type": "event"
		},
		{
			"anonymous": false,
			"inputs": [
				{
					"indexed": false,
					"internalType": "uint256",
					"name": "lockID",
					"type": "uint256"
				},
				{
					"indexed": false,
					"internalType": "uint256",
					"name": "unlockDate",
					"type": "uint256"
				}
			],
			"name": "onRelock",
			"type": "event"
		},
		{
			"anonymous": false,
			"inputs": [
				{
					"indexed": false,
					"internalType": "uint256",
					"name": "fromLockID",
					"type": "uint256"
				},
				{
					"indexed": false,
					"internalType": "uint256",
					"name": "toLockID",
					"type": "uint256"
				},
				{
					"indexed": false,
					"internalType": "uint256",
					"name": "amountInTokens",
					"type": "uint256"
				}
			],
			"name": "onSplitLock",
			"type": "event"
		},
		{
			"anonymous": false,
			"inputs": [
				{
					"indexed": false,
					"internalType": "uint256",
					"name": "lockIDFrom",
					"type": "uint256"
				},
				{
					"indexed": false,
					"internalType": "uint256",
					"name": "lockIDto",
					"type": "uint256"
				},
				{
					"indexed": false,
					"internalType": "address",
					"name": "oldOwner",
					"type": "address"
				},
				{
					"indexed": false,
					"internalType": "address",
					"name": "newOwner",
					"type": "address"
				}
			],
			"name": "onTransferLock",
			"type": "event"
		},
		{
			"anonymous": false,
			"inputs": [
				{
					"indexed": false,
					"internalType": "address",
					"name": "lpToken",
					"type": "address"
				},
				{
					"indexed": false,
					"internalType": "uint256",
					"name": "amountInTokens",
					"type": "uint256"
				}
			],
			"name": "onWithdraw",
			"type": "event"
		},
		{
			"inputs": [],
			"name": "BLACKLIST",
			"outputs": [
				{
					"internalType": "contract ITokenBlacklist",
					"name": "",
					"type": "address"
				}
			],
			"stateMutability": "view",
			"type": "function"
		},
		{
			"inputs": [],
			"name": "FEES",
			"outputs": [
				{
					"internalType": "uint256",
					"name": "tokenFee",
					"type": "uint256"
				},
				{
					"internalType": "uint256",
					"name": "freeLockingFee",
					"type": "uint256"
				},
				{
					"internalType": "address payable",
					"name": "feeAddress",
					"type": "address"
				},
				{
					"internalType": "address",
					"name": "freeLockingToken",
					"type": "address"
				}
			],
			"stateMutability": "view",
			"type": "function"
		},
		{
			"inputs": [
				{
					"internalType": "uint256",
					"name": "",
					"type": "uint256"
				}
			],
			"name": "LOCKS",
			"outputs": [
				{
					"internalType": "address",
					"name": "tokenAddress",
					"type": "address"
				},
				{
					"internalType": "uint256",
					"name": "sharesDeposited",
					"type": "uint256"
				},
				{
					"internalType": "uint256",
					"name": "sharesWithdrawn",
					"type": "uint256"
				},
				{
					"internalType": "uint256",
					"name": "startEmission",
					"type": "uint256"
				},
				{
					"internalType": "uint256",
					"name": "endEmission",
					"type": "uint256"
				},
				{
					"internalType": "uint256",
					"name": "lockID",
					"type": "uint256"
				},
				{
					"internalType": "address",
					"name": "owner",
					"type": "address"
				},
				{
					"internalType": "address",
					"name": "condition",
					"type": "address"
				}
			],
			"stateMutability": "view",
			"type": "function"
		},
		{
			"inputs": [],
			"name": "MIGRATOR",
			"outputs": [
				{
					"internalType": "contract IMigrator",
					"name": "",
					"type": "address"
				}
			],
			"stateMutability": "view",
			"type": "function"
		},
		{
			"inputs": [],
			"name": "MINIMUM_DEPOSIT",
			"outputs": [
				{
					"internalType": "uint256",
					"name": "",
					"type": "uint256"
				}
			],
			"stateMutability": "view",
			"type": "function"
		},
		{
			"inputs": [],
			"name": "NONCE",
			"outputs": [
				{
					"internalType": "uint256",
					"name": "",
					"type": "uint256"
				}
			],
			"stateMutability": "view",
			"type": "function"
		},
		{
			"inputs": [
				{
					"internalType": "address",
					"name": "",
					"type": "address"
				}
			],
			"name": "SHARES",
			"outputs": [
				{
					"internalType": "uint256",
					"name": "",
					"type": "uint256"
				}
			],
			"stateMutability": "view",
			"type": "function"
		},
		{
			"inputs": [
				{
					"internalType": "address",
					"name": "_user",
					"type": "address"
				},
				{
					"internalType": "bool",
					"name": "_add",
					"type": "bool"
				}
			],
			"name": "adminSetWhitelister",
			"outputs": [],
			"stateMutability": "nonpayable",
			"type": "function"
		},
		{
			"inputs": [
				{
					"internalType": "address",
					"name": "_token",
					"type": "address"
				},
				{
					"internalType": "uint256",
					"name": "_shares",
					"type": "uint256"
				}
			],
			"name": "convertSharesToTokens",
			"outputs": [
				{
					"internalType": "uint256",
					"name": "",
					"type": "uint256"
				}
			],
			"stateMutability": "view",
			"type": "function"
		},
		{
			"inputs": [
				{
					"internalType": "address",
					"name": "_token",
					"type": "address"
				},
				{
					"internalType": "uint256",
					"name": "_tokens",
					"type": "uint256"
				}
			],
			"name": "convertTokensToShares",
			"outputs": [
				{
					"internalType": "uint256",
					"name": "",
					"type": "uint256"
				}
			],
			"stateMutability": "view",
			"type": "function"
		},
		{
			"inputs": [
				{
					"internalType": "address",
					"name": "_token",
					"type": "address"
				},
				{
					"internalType": "bool",
					"name": "_add",
					"type": "bool"
				}
			],
			"name": "editZeroFeeWhitelist",
			"outputs": [],
			"stateMutability": "nonpayable",
			"type": "function"
		},
		{
			"inputs": [
				{
					"internalType": "uint256",
					"name": "_lockID",
					"type": "uint256"
				}
			],
			"name": "getLock",
			"outputs": [
				{
					"internalType": "uint256",
					"name": "",
					"type": "uint256"
				},
				{
					"internalType": "address",
					"name": "",
					"type": "address"
				},
				{
					"internalType": "uint256",
					"name": "",
					"type": "uint256"
				},
				{
					"internalType": "uint256",
					"name": "",
					"type": "uint256"
				},
				{
					"internalType": "uint256",
					"name": "",
					"type": "uint256"
				},
				{
					"internalType": "uint256",
					"name": "",
					"type": "uint256"
				},
				{
					"internalType": "uint256",
					"name": "",
					"type": "uint256"
				},
				{
					"internalType": "uint256",
					"name": "",
					"type": "uint256"
				},
				{
					"internalType": "address",
					"name": "",
					"type": "address"
				},
				{
					"internalType": "address",
					"name": "",
					"type": "address"
				}
			],
			"stateMutability": "view",
			"type": "function"
		},
		{
			"inputs": [],
			"name": "getNumLockedTokens",
			"outputs": [
				{
					"internalType": "uint256",
					"name": "",
					"type": "uint256"
				}
			],
			"stateMutability": "view",
			"type": "function"
		},
		{
			"inputs": [
				{
					"internalType": "uint256",
					"name": "_index",
					"type": "uint256"
				}
			],
			"name": "getTokenAtIndex",
			"outputs": [
				{
					"internalType": "address",
					"name": "",
					"type": "address"
				}
			],
			"stateMutability": "view",
			"type": "function"
		},
		{
			"inputs": [
				{
					"internalType": "address",
					"name": "_token",
					"type": "address"
				},
				{
					"internalType": "uint256",
					"name": "_index",
					"type": "uint256"
				}
			],
			"name": "getTokenLockIDAtIndex",
			"outputs": [
				{
					"internalType": "uint256",
					"name": "",
					"type": "uint256"
				}
			],
			"stateMutability": "view",
			"type": "function"
		},
		{
			"inputs": [
				{
					"internalType": "address",
					"name": "_token",
					"type": "address"
				}
			],
			"name": "getTokenLocksLength",
			"outputs": [
				{
					"internalType": "uint256",
					"name": "",
					"type": "uint256"
				}
			],
			"stateMutability": "view",
			"type": "function"
		},
		{
			"inputs": [
				{
					"internalType": "uint256",
					"name": "_index",
					"type": "uint256"
				}
			],
			"name": "getTokenWhitelisterAtIndex",
			"outputs": [
				{
					"internalType": "address",
					"name": "",
					"type": "address"
				}
			],
			"stateMutability": "view",
			"type": "function"
		},
		{
			"inputs": [],
			"name": "getTokenWhitelisterLength",
			"outputs": [
				{
					"internalType": "uint256",
					"name": "",
					"type": "uint256"
				}
			],
			"stateMutability": "view",
			"type": "function"
		},
		{
			"inputs": [
				{
					"internalType": "address",
					"name": "_user",
					"type": "address"
				}
			],
			"name": "getTokenWhitelisterStatus",
			"outputs": [
				{
					"internalType": "bool",
					"name": "",
					"type": "bool"
				}
			],
			"stateMutability": "view",
			"type": "function"
		},
		{
			"inputs": [
				{
					"internalType": "address",
					"name": "_user",
					"type": "address"
				},
				{
					"internalType": "address",
					"name": "_token",
					"type": "address"
				},
				{
					"internalType": "uint256",
					"name": "_index",
					"type": "uint256"
				}
			],
			"name": "getUserLockIDForTokenAtIndex",
			"outputs": [
				{
					"internalType": "uint256",
					"name": "",
					"type": "uint256"
				}
			],
			"stateMutability": "view",
			"type": "function"
		},
		{
			"inputs": [
				{
					"internalType": "address",
					"name": "_user",
					"type": "address"
				},
				{
					"internalType": "uint256",
					"name": "_index",
					"type": "uint256"
				}
			],
			"name": "getUserLockedTokenAtIndex",
			"outputs": [
				{
					"internalType": "address",
					"name": "",
					"type": "address"
				}
			],
			"stateMutability": "view",
			"type": "function"
		},
		{
			"inputs": [
				{
					"internalType": "address",
					"name": "_user",
					"type": "address"
				}
			],
			"name": "getUserLockedTokensLength",
			"outputs": [
				{
					"internalType": "uint256",
					"name": "",
					"type": "uint256"
				}
			],
			"stateMutability": "view",
			"type": "function"
		},
		{
			"inputs": [
				{
					"internalType": "address",
					"name": "_user",
					"type": "address"
				},
				{
					"internalType": "address",
					"name": "_token",
					"type": "address"
				}
			],
			"name": "getUserLocksForTokenLength",
			"outputs": [
				{
					"internalType": "uint256",
					"name": "",
					"type": "uint256"
				}
			],
			"stateMutability": "view",
			"type": "function"
		},
		{
			"inputs": [
				{
					"internalType": "uint256",
					"name": "_lockID",
					"type": "uint256"
				}
			],
			"name": "getWithdrawableShares",
			"outputs": [
				{
					"internalType": "uint256",
					"name": "",
					"type": "uint256"
				}
			],
			"stateMutability": "view",
			"type": "function"
		},
		{
			"inputs": [
				{
					"internalType": "uint256",
					"name": "_lockID",
					"type": "uint256"
				}
			],
			"name": "getWithdrawableTokens",
			"outputs": [
				{
					"internalType": "uint256",
					"name": "",
					"type": "uint256"
				}
			],
			"stateMutability": "view",
			"type": "function"
		},
		{
			"inputs": [
				{
					"internalType": "uint256",
					"name": "_index",
					"type": "uint256"
				}
			],
			"name": "getZeroFeeTokenAtIndex",
			"outputs": [
				{
					"internalType": "address",
					"name": "",
					"type": "address"
				}
			],
			"stateMutability": "view",
			"type": "function"
		},
		{
			"inputs": [],
			"name": "getZeroFeeTokensLength",
			"outputs": [
				{
					"internalType": "uint256",
					"name": "",
					"type": "uint256"
				}
			],
			"stateMutability": "view",
			"type": "function"
		},
		{
			"inputs": [
				{
					"internalType": "uint256",
					"name": "_lockID",
					"type": "uint256"
				},
				{
					"internalType": "uint256",
					"name": "_amount",
					"type": "uint256"
				}
			],
			"name": "incrementLock",
			"outputs": [],
			"stateMutability": "nonpayable",
			"type": "function"
		},
		{
			"inputs": [
				{
					"internalType": "address",
					"name": "_token",
					"type": "address"
				},
				{
					"components": [
						{
							"internalType": "address payable",
							"name": "owner",
							"type": "address"
						},
						{
							"internalType": "uint256",
							"name": "amount",
							"type": "uint256"
						},
						{
							"internalType": "uint256",
							"name": "startEmission",
							"type": "uint256"
						},
						{
							"internalType": "uint256",
							"name": "endEmission",
							"type": "uint256"
						},
						{
							"internalType": "address",
							"name": "condition",
							"type": "address"
						}
					],
					"internalType": "struct TokenVesting.LockParams[]",
					"name": "_lock_params",
					"type": "tuple[]"
				}
			],
			"name": "lock",
			"outputs": [],
			"stateMutability": "nonpayable",
			"type": "function"
		},
		{
			"inputs": [
				{
					"internalType": "uint256",
					"name": "_lockID",
					"type": "uint256"
				},
				{
					"internalType": "uint256",
					"name": "_option",
					"type": "uint256"
				}
			],
			"name": "migrate",
			"outputs": [],
			"stateMutability": "nonpayable",
			"type": "function"
		},
		{
			"inputs": [],
			"name": "owner",
			"outputs": [
				{
					"internalType": "address",
					"name": "",
					"type": "address"
				}
			],
			"stateMutability": "view",
			"type": "function"
		},
		{
			"inputs": [
				{
					"internalType": "address",
					"name": "_token",
					"type": "address"
				}
			],
			"name": "payForFreeTokenLocks",
			"outputs": [],
			"stateMutability": "payable",
			"type": "function"
		},
		{
			"inputs": [
				{
					"internalType": "uint256",
					"name": "_lockID",
					"type": "uint256"
				},
				{
					"internalType": "uint256",
					"name": "_unlock_date",
					"type": "uint256"
				}
			],
			"name": "relock",
			"outputs": [],
			"stateMutability": "nonpayable",
			"type": "function"
		},
		{
			"inputs": [],
			"name": "renounceOwnership",
			"outputs": [],
			"stateMutability": "nonpayable",
			"type": "function"
		},
		{
			"inputs": [
				{
					"internalType": "uint256",
					"name": "_lockID",
					"type": "uint256"
				}
			],
			"name": "revokeCondition",
			"outputs": [],
			"stateMutability": "nonpayable",
			"type": "function"
		},
		{
			"inputs": [
				{
					"internalType": "contract ITokenBlacklist",
					"name": "_contract",
					"type": "address"
				}
			],
			"name": "setBlacklistContract",
			"outputs": [],
			"stateMutability": "nonpayable",
			"type": "function"
		},
		{
			"inputs": [
				{
					"internalType": "uint256",
					"name": "_tokenFee",
					"type": "uint256"
				},
				{
					"internalType": "uint256",
					"name": "_freeLockingFee",
					"type": "uint256"
				},
				{
					"internalType": "address payable",
					"name": "_feeAddress",
					"type": "address"
				},
				{
					"internalType": "address",
					"name": "_freeLockingToken",
					"type": "address"
				}
			],
			"name": "setFees",
			"outputs": [],
			"stateMutability": "nonpayable",
			"type": "function"
		},
		{
			"inputs": [
				{
					"internalType": "contract IMigrator",
					"name": "_migrator",
					"type": "address"
				}
			],
			"name": "setMigrator",
			"outputs": [],
			"stateMutability": "nonpayable",
			"type": "function"
		},
		{
			"inputs": [
				{
					"internalType": "uint256",
					"name": "_lockID",
					"type": "uint256"
				},
				{
					"internalType": "uint256",
					"name": "_amount",
					"type": "uint256"
				}
			],
			"name": "splitLock",
			"outputs": [],
			"stateMutability": "nonpayable",
			"type": "function"
		},
		{
			"inputs": [
				{
					"internalType": "address",
					"name": "condition",
					"type": "address"
				}
			],
			"name": "testCondition",
			"outputs": [
				{
					"internalType": "bool",
					"name": "",
					"type": "bool"
				}
			],
			"stateMutability": "view",
			"type": "function"
		},
		{
			"inputs": [
				{
					"internalType": "address",
					"name": "_token",
					"type": "address"
				}
			],
			"name": "tokenOnZeroFeeWhitelist",
			"outputs": [
				{
					"internalType": "bool",
					"name": "",
					"type": "bool"
				}
			],
			"stateMutability": "view",
			"type": "function"
		},
		{
			"inputs": [
				{
					"internalType": "uint256",
					"name": "_lockID",
					"type": "uint256"
				},
				{
					"internalType": "address payable",
					"name": "_newOwner",
					"type": "address"
				}
			],
			"name": "transferLockOwnership",
			"outputs": [],
			"stateMutability": "nonpayable",
			"type": "function"
		},
		{
			"inputs": [
				{
					"internalType": "address",
					"name": "newOwner",
					"type": "address"
				}
			],
			"name": "transferOwnership",
			"outputs": [],
			"stateMutability": "nonpayable",
			"type": "function"
		},
		{
			"inputs": [
				{
					"internalType": "uint256",
					"name": "_lockID",
					"type": "uint256"
				},
				{
					"internalType": "uint256",
					"name": "_amount",
					"type": "uint256"
				}
			],
			"name": "withdraw",
			"outputs": [],
			"stateMutability": "nonpayable",
			"type": "function"
		}
	]
}